:1000000080315528303430347E1480314E01161E34
:100010000A280B2813280C1E0E280F2813289731A6
:100020005427803153280B1F162817285328191FCF
:100030001A281B2826280F1F1E281F2826284101A2
:100040006D088A006C080A0080315328991F2928FE
:100050002A2835288F1F2D282E28352841016B0886
:100060008A006A080A0080315328191E3828392866
:1000700044280F1E3C283D284428420165088A0078
:1000800064080A0080315328991E472848285328BD
:100090008F1E4B284C285328420163088A006208AF
:1000A0000A00803153287E10090080315728410111
:1000B000803102208031EE00803103208031EF005A
:1000C000453084008D308500A030860001308700E7
:1000D00033309531FB258031FC0120308400003025
:1000E000850029309531F5258031A030840000301D
:1000F000850046309531F52580312030840001306F
:1001000085003C309531F525803120308400023067
:10011000850040309531F5258031A03084000230D3
:10012000850050309531F525803120308400033032
:10013000850050309531F5258031A03084000330A2
:10014000850050309531F525803120308400043011
:10015000850050309531F5258031A0308400043081
:10016000850050309531F52580317E104001813178
:1001700090294001DD0070290230C2008F295D08FE
:10018000C0000330C2008F293A305D02031CC92829
:10019000CA28D3285D085F39C93ED700FF3003184D
:1001A0000030D800DA285D08D03ED700FF300318B1
:1001B0000030D8005708C1000430C2008F293A30FF
:1001C0005D02031CE428E528EE285D085F39C93E7E
:1001D000D900FF3003180030DA00F5285D08D03E62
:1001E000D900FF3003180030DA004108D500033091
:1001F000D535FF3E031DF82855355907C100053098
:10020000C2008F293A305D02031C072908291229F0
:100210005D085F39C93E4101DD00FF300318003041
:10022000DE001A295D08D03E4101DD00FF300318D1
:100230000030DE0001304001C1024108031D2129C8
:1002400022292429C2018F290630C2008F293A3081
:100250005D02031C2C292D2936295D085F39C93E12
:10026000DB00FF3003180030DC003D295D08D03E84
:10027000DB00FF3003180030DC0041015E08400164
:10028000D60041015D084001D500D50ED60EF030F4
:10029000D60555080F39D604F030D5055B0855074B
:1002A0004101DD0040015C08563D4101DE005D0872
:1002B0004001D000400884312B24803101304001BE
:1002C000C1024108031D65296629FF2822295B30E8
:1002D0005D06031D6C296D298F29C201C20A8F2971
:1002E0004208D500D6015608003A03197829672933
:1002F0005508003A03196729013A0319BC28033A43
:100300000319BF28013A0319C428073A0319DF2843
:10031000013A03190229033A03192729672908001A
:100320008931482181315030F100A0308831882056
:1003300081318B170B178D31E22581318431A9244E
:10034000813196312926813195312C258131013A2F
:10035000031DAB29AC29382A8931E72181318A3143
:10036000A92281319731332781314E018C1EB92961
:10037000BA29D1298C128A31A922813188315C2095
:1003800081319731ED2781318A31F12281318D31EF
:1003900078258131A4299631B92681318031B9205F
:1003A00081318931CB218131003A031DD829D929E6
:1003B000CB29192A0030840090308500013F8A0043
:1003C000003F0A0081314001EF002408A03E860072
:1003D000023087006F0881002408A03E86000230AA
:1003E00087000D3001060319F629F729082A240889
:1003F000A03E8600023087000A3001060319012A58
:10040000022A082A4F302406031D072A082A152A23
:100410002408A03E8600023087008101A03082318E
:10042000652281314001A401192A0130EF006F08D3
:10043000A4070630840090308500013F8A00003F09
:100440000A008231003A031D262A272ADA29A42924
:100450009631B92681314201EC006C08F10002307E
:10046000840090308500013F8A00003F0A008231FD
:100470008931CB218131003A031D3F2A402A282AA5
:10048000542A0030840090308500013F8A00003FEC
:100490000A008231F6000030840098308500013F68
:1004A0008A00003F0A0082310630840090308500C7
:1004B000013F8A00003F0A008231003A031D612A91
:1004C000622A412AA42980315528F9007908F100CF
:1004D0000230F20089311621823171080907F800D3
:1004E0005B30F6000030840098308500013F8A00C0
:1004F000003F0A008231400145080F39C23E8600A4
:10050000013087000108F600003084009830850033
:10051000013F8A00003F0A0082310130F70077086E
:100520004001C5075330F600003084009830850044
:10053000013F8A00003F0A0082317808F70004304A
:10054000F736890BA02A77080F39C23E86000130A2
:1005500087000108F6000030840098308500013FD4
:100560008A00003F0A00823178080F39C23E8600B7
:10057000013087000108F6000030840098308500C3
:10058000013F8A00003F0A008231FA2A790886007A
:10059000023087000108F7000430F736890BCD2AB6
:1005A00077080F39C23E8600013087000108F60047
:1005B0000030840098308500013F8A00003F0A0027
:1005C0008231790886000230870001080F39C23E67
:1005D0008600013087000108F60000308400983062
:1005E0008500013F8A00003F0A0082310130F70098
:1005F0007708F90779088600023087000108031D93
:10060000022B032BC62A5D30F600003084009830A0
:100610008500013F8A00003F0A0083310800F8018D
:100620000230840098308500013F8A00003F0A00B4
:100630008331F5000230840098308500013F8A0044
:10064000003F0A008331F6000230840098308500B4
:10065000013F8A00003F0A008331F7004E2B4F30E4
:100660007606031D342B352B5E2B4B307706031D8E
:100670003A2B3B2B5E2BF801F80A5E2B7230760684
:10068000031D432B442B5E2B72307706031D492B31
:100690004A2B5E2BF8015E2B00309E2B7508F30071
:1006A000F4017408003A0319562B4C2B7308413A95
:1006B00003192F2B043A03193E2B4C2B02308400D4
:1006C00098308500013F8A00003F0A0083310230E4
:1006D000840098308500013F8A00003F0A00833182
:1006E0000230840098308500013F8A00003F0A00F4
:1006F00083310230840098308500013F8A00003F3A
:100700000A0083310230840098308500013F8A005E
:10071000003F0A0083310230840098308500013F99
:100720008A00003F0A00833102308400983085003F
:10073000013F8A00003F0A00833178080800FA0070
:100740005B30F6000030840098308500013F8A005D
:10075000003F0A008331400145080F39C23E860040
:10076000013087000108F6000030840098308500D1
:10077000013F8A00003F0A0083310130F800780809
:100780004001C5077A08F6000030840098308500E3
:10079000013F8A00003F0A0083317708F100F2012F
:1007A0008931162183317108F8007208F90004308C
:1007B000F936F80C890BD82B78080F39C23E860021
:1007C000013087000108F600003084009830850071
:1007D000013F8A00003F0A0083317708F100F201EF
:1007E00089311621833171080F39C23E86000130EC
:1007F00087000108F6000030840098308500013F32
:100800008A00003F0A008431172C77088600870190
:100810000108F6000030840098308500013F8A000E
:10082000003F0A0084310130F8007808F7077708A4
:10083000860087010108031D1E2C1F2C052C5D302E
:10084000F6000030840098308500013F8A00003FA8
:100850000A00843108004001D300862CC31E312CCD
:10086000322CA82C5008D1000430D136890B352CFD
:1008700051080139D4005408031D3F2C402C482C4A
:100880005018432C442C462C9816A82C9812A82CAF
:1008900050184B2C4D2C01304E2C00309731242712
:1008A0008431A82C431F552C562CA82C0100A82CB1
:1008B000C31F5B2C5C2CA82C5008F1000230840074
:1008C00090308500013F8A00003F0A008431A82C47
:1008D000431C6B2C6C2CA82C4414A82CC31C712C0E
:1008E000722CA82CC414A82C431D772C782CA82C6F
:1008F0004415A82CC31D7D2C7E2CA82CC415A82C17
:10090000431E832C842CA82C4416A82C5308D100F9
:10091000D2015208003A03198E2CA82C5108413AF2
:1009200003197A2C033A0319742C043A0319682C1E
:100930000E3A0319802C033A03196E2C073A031957
:100940002E2C033A0319522C1C3A0319582CA82CAC
:100950000800F101F10A0C30840098308500013F55
:100960008A00003F0A008431F101F10A0A30840054
:1009700098308500013F8A00003F0A008431013031
:10098000F4000030F5000E30840098308500013FFF
:100990008A00003F0A008431F1010A308400983057
:1009A0008500013F8A00003F0A008431F101F10A0D
:1009B0000830840098308500013F8A00003F0A001B
:1009C0008431C830F4000030F5000E3084009830D7
:1009D0008500013F8A00003F0A008431F82C023074
:1009E000840098308500013F8A00003F0A0084316E
:1009F0000630840098308500013F8A00003F0A00DD
:100A00008531003A031D052D062DEF2C080040010D
:100A10009C0111309800990101309A00083096002D
:100A2000DE309200EF309300A83094007E01CE01BA
:100A3000C930C3000E30B800E501C401B901CF01CF
:100A4000E601BA01C501D0017E30BB00FF30C6000F
:100A50003F30D1003F30BC003F30C7003F30D200B4
:100A60003F13BF133E13BE173D17BD130C30F100EB
:100A70001530F2009531E92585314530F10015300A
:100A8000F2009531EF2585314E01161609307D01B2
:100A9000C5001330C90013307E01990014309A004C
:100AA0001530A1002530A4000F309C001630A200A4
:100AB00015307D01CD000A30C6000D30CB0011305D
:100AC000C8000800F6007608F9007208F8007108FE
:100AD000F7000130F3020030F43B730A031D742D5C
:100AE000740A031D742D752D842DF101F201BA2DA8
:100AF0000130F5007508F9070130F7070030F83DBF
:100B00000130F3020030F43B79088600033087009F
:100B1000010803198C2D8D2DAC2D770884007808E1
:100B2000850012000319952D962DAC2D73087404C1
:100B300003199B2D9C2DAC2D770884007808850027
:100B40000008F50079088600033087000108750663
:100B50000319AB2DAC2D782D790886000330870062
:100B6000770884007808850000080102F100F2018E
:100B7000031CF2030800F40043019A1AC02DC12D92
:100B80000D2E7408F100F201F135F20DF135F20D80
:100B90004530710784001830723D803885000008A8
:100BA00099007408F100F201F135F20DF135F20D02
:100BB0004430710784001830723D80388500000889
:100BC0009A009B017408F100F201F135F20DF13544
:100BD000F20D4630710784001830723D8038850070
:100BE000000897007408F100F201F135F20DF135BB
:100BF000F20D4730710784001830723D803885004F
:100C00000008F300F30D400114087306FD39730664
:100C1000940043019A1601300E2E003008009531E1
:100C200095258631003A0319162E172E452E242EAF
:100C3000953163258631612E953168258631612E87
:100C4000953172258631612E41012F08F80006305A
:100C5000A03E86008701413F8A00403F0A0086315E
:100C6000F900FA017A08003A0319372E202E790884
:100C7000013A0319202E033A0319182E013A0319D9
:100C80001C2E073A0319202E202E41013C1017304C
:100C9000A03E86008701403F84008501810A00084C
:100CA00095315925863101304101B8020030B93BF8
:100CB00038083904031D5D2E5E2E602E0630612E2D
:100CC000033008002030F1000230840090308500AD
:100CD000013F8A00003F0A0086313E30F1000230B9
:100CE000840090308500013F8A00003F0A00863171
:100CF0003E30F1000230840090308500013F8A00D0
:100D0000003F0A0086313E30F1000230840090300E
:100D10008500013F8A00003F0A0086312030F10043
:100D20000230840090308500013F8A00003F0A00B5
:100D300086310D30F1000230840090308500013F93
:100D40008A00003F0A0086310A30F1000230840038
:100D500090308500013F8A00003F0A00863108007C
:100D60004001CD007A087B040319B72EB82EFB2E64
:100D70007B08F2007A08F100893116218631720869
:100D80004001CC007108CB00ED2E7B08F2007A0800
:100D9000F1004C08F4004B08F3004D088531622542
:100DA000863171087204031DD62ED72EDA2E40012B
:100DB0004D08FC2E7A0884007B088500000840015D
:100DC000C900CA014908F1004A08F2004D08013E75
:100DD00089312F2186314001CD004D080319F12EB4
:100DE000F22EFB2E4D088600033087000108031DFC
:100DF000FA2EFB2EC52E00300800023084009830F9
:100E00008500013F8A00003F0A0087314001EE0063
:100E10003903031D0C2F0D2F372F25306E06031DB0
:100E2000122F132F252FB9013C08860003308700AD
:100E300081013E08EB001030840098308500013FAE
:100E40008A00003F0A008731462F3E083D073C02DA
:100E500003182B2F2C2F462F3C08860003308700C9
:100E60006E0881000130ED006D08BC07462F25306B
:100E70006E06031D3C2F3D2F422FB901B90A3E08D3
:100E8000BC00462FBA01BA0A6E08BB0040013A08FE
:100E900008004001CE002A30D2000230D0000030DD
:100EA000D10040014E088D31AC258731003A03193D
:100EB0005A2F5B2F512F8730F5001730F600523034
:100EC000F7009631752687310130F1000030F200CD
:100ED0004D309631F92687310030F500F6000030AC
:100EE000F700F80096318026873195318B258731C0
:100EF0008831B52087314001CF004F030319812F7E
:100F0000822F782F4F08031D862F872F882F922F2F
:100F1000FF30D007FF30D13D50085104031D912F01
:100F2000922F512F5208080030304001CB00303052
:100F3000CE003030CC00491E9E2F9F2FA22F313083
:100F4000CD00A42F3030CD0049080F39303ECB0002
:100F50004A1EAB2FAC2FAF2F3130CE00B12F303027
:100F6000CE004A080F39303ECC007C304401A0004E
:100F70004F30A1002C30A20040014D084401A300D5
:100F800040014B084401A4002C30A50040014E084C
:100F90004401A60040014C084401A7000D30A80000
:100FA0000A30A9000A30F70020308C31B62487318E
:100FB00083310F2387310800F4007108720403198C
:100FC000E22FE32FF22F7435A03E860087017108CF
:100FD000C03F7208C13F7408AC3E860087017308A9
:100FE0008100FF2F7435A03E860087010D30C03F81
:100FF0001530C13F7408AC3E8600870181010800AE
:101000004F0196019701980199019A019B019C015A
:101010009D0108009531A72588314001C900CA010A
:101020004908F6004A308D31142588314A30F700DE
:10103000483083319F238831080047304B019F009F
:101040000B309D00DC309C001D084001A1004B01CD
:101050001C084001A0004E018C1290304B019E00F4
:10106000080011307D01C8001330C90015307E0121
:10107000A1001630A2004030430199009A010130CE
:1010800097004001941043019A1208004F280B303A
:10109000F3006230890B4A28F30B4A2800320130F2
:1010A000F1020030F23B710A031D5A28720A031D37
:1010B0005A285B28472808004001E1016630963134
:1010C000DF26883140016708FA006608F9006130C0
:1010D0009731072788316130F700543083319F23DF
:1010E00088310800F4007108F2007408F3007308F6
:1010F00086008701F30A7208840003308500F20A33
:101100000008C03F8908031D862887287728080023
:10111000F200720803198D288E289C280230710273
:10112000031C932894289C2872084001BE00710873
:10113000FF3EBD0001309D280030080024304401EE
:10114000A0002430A1002430A2000330F70020309A
:101150008C31B62488313F30F3009830F4000530EC
:10116000F5008C31052488310800F101F10A4101B4
:10117000BC18BB28BC28CB283C11FF30B6009531E9
:1011800011258831953117258831953114258831FD
:1011900041013B08F10071080800780886008701CA
:1011A000403FF100413FF2007808023E860087018F
:1011B00001089631F92688310030F500F600F70174
:1011C000963175268831023008007808860087013C
:1011D000403FF100413FF2007808023E860087015F
:1011E00001089631F92688310030F500F600F70144
:1011F000963175268831023008007C08543E8600FE
:10120000013087005401190881000130F000700896
:10121000FC0708307C02031C0E290F291029FC0151
:101220000130F00070084001B40708007208F500B2
:101230007108F4001F290130F1070030F23D7108F8
:101240008400720885001200031D272928291B2904
:1012500074087102F1007508723BF2000800F30097
:10126000730886000330870001087106031D3929C1
:101270003A293C2973084729730886000330870000
:10128000F30A0108031D45294629302900300800CA
:1012900088310020893196314426893188313120C6
:1012A000893185310725893196316B26893188311D
:1012B0001D2089318E31FE2689318F313C278931BD
:1012C000080095312F2589314001C900CA0149081C
:1012D000F6004A308D311425893174294A30F700DF
:1012E000463083319F2389314001441C7829792974
:1012F0006E29080040012F08443E86000130870017
:101300004201190881000130F00070084001AF0768
:1013100008302F02031C8D298E298F29AF0101303F
:10132000F0007008AD0708002D304401A0002D30FA
:10133000A1002D30A2000D30A3000A30A40005301A
:10134000F70020308C31B62489313A30F3009830E0
:10135000F4000530F5008C3105248931080088310E
:101360009E2089311430F4000030F5000E308400E6
:1013700098308500013F8A00003F0A008931400112
:101380002308CA002208C90087319427893189318E
:1013900094218931080040013A080319D029D12944
:1013A000D3290130E6290630840098308500013FBA
:1013B0008A00003F0A008931003A0319E029E12937
:1013C000E5298631FD268931E629003008004001F3
:1013D000251CEB29EC29022A461CEF29F029022AB8
:1013E0004610C8170130FB007B08A6070230260212
:1013F000031CFB29FC29022AC81389316121893188
:101400004001A6010800F5007508F600132A7608C9
:101410008600870100309631EC268A318100013048
:10142000F4007408F6070130F2020030F33B720A50
:10143000031D1E2A730A031D1E2A1F2A072A0800DD
:101440004001CB00CC01CC0A4101BC18282A292A32
:101450003E2ABC144001CC014B080319302A312A22
:10146000352A4101BA01BA0A382A02304101BA00CC
:1014700095311A258A319631C5268A3140014C08AA
:1014800008000830400136020318472A482A602A1B
:101490003708CD3E86008701010854019A000130CB
:1014A000F00070084001B70708303702031C592AC2
:1014B0005A2A5B2AB7010130F0007008B607622A89
:1014C0004E01191308000830400130020318692A40
:1014D0006A2A832A31084C3E8600013087000108C1
:1014E00042019A000130F00070084001B107083055
:1014F0003102031C7C2A7D2A7E2AB1010130F000D2
:101500007008B007852A4E0119120800F30073080D
:10151000031D8B2A8C2A982A5B30F100023084004C
:1015200090308500013F8A00003F0A008A31A82AD6
:101530007303031D9C2A9D2AA82A5D30F100023006
:10154000840090308500013F8A00003F0A008A3104
:1015500008004001A51CAD2AAE2ACB2A1A10003083
:101560008531BB258A31003A0319B72AB82ACB2A1C
:101570004101E1010430F2000030F300E2308A3131
:1015800003228A3140011A14E2308C3130248A312E
:10159000953132258A31080005304001CD001830E0
:1015A0008F31BD278A3140014E08E0004D08DF0031
:1015B00060081F39DD005F08DE005E08D800D90131
:1015C0005D08DA00DB015A08DB00DA0158085A042A
:1015D000DF0059085B04E0006008D7005F08D60010
:1015E00008009531A1258A314001CC00C9014C0881
:1015F000F60049308D3114258A314930F7004C30DE
:1016000083319F238A31953190258A31103E4001E4
:10161000CC00C9014C08F60049308D3114258A31BF
:101620004930F7004C3083319F238A310800400154
:10163000360803191C2B1D2B172B4E01191B212BB0
:10164000222B262B710854019A003B2B19134001C1
:101650003808CD3E86008701710881000130F20014
:101660007208B80708303802031C372B382B392B87
:10167000B8010130B6024E011917080040013408C4
:101680000319432B442B3E2B3508C53E86008701AA
:101690000108B3003508543E860001308700010878
:1016A000F2000130F1007108B50708303502031C63
:1016B0005A2B5B2B5C2BB5014E0199130130400175
:1016C000B4024E0199177208080040012D08031951
:1016D0006A2B6B2B652B2E08BD3E86008701010807
:1016E000AC002E08443E8600013087000108F2005D
:1016F0000130F1007108AE0708302E02031C812B67
:10170000822B832BAE014E01991201304001AD02B4
:101710004E0199167208080041013C100230BB00CE
:10172000992B95316D258B31B32B953172258B31EA
:10173000B32B2E08F8000430A03E86008701413FFD
:101740008A00403F0A008B31F900FA017A08003A1A
:101750000319AB2B952B7908023A0319912B013A07
:101760000319912B952B0800400130080319B92B60
:10177000BA2BB42B4E01191ABE2BBF2BC32B7108E9
:1017800042019A00D92B1912400132084C3E8600C2
:1017900001308700710881000130F2007208B20741
:1017A00008303202031CD52BD62BD72BB2010130C7
:1017B000B0024E0119160800953111258B314101F7
:1017C0003C1CE32BE42BEF2B953195258B31003A14
:1017D0000319EB2BEC2BEF2B0F304101BA00410129
:1017E0003A084001C900CA01C935CA0D2830490765
:1017F000840010304A3D80388500013F8A00003F58
:101800000A008C314101BA000800F901282C02308D
:10181000840098308500013F8A00003F0A008C3127
:10182000F8007408F7007308F6007908760784005A
:1018300077080318770A8500000878060319212C19
:10184000222C242C00302F2C0130F6007608F907CA
:1018500075087902031C2D2C2E2C072C0130080052
:101860004001D300C901D401D501400153088600CD
:1018700087010108F60049308D3114258C31013083
:10188000FB007B084001D3070130D4070030D53D71
:101890005508803AFB0080307B02031D512C043038
:1018A0005402031C542C552C352C4930F7004B3076
:1018B00083319F238C3108004101BC156C2C95317C
:1018C0006D258C31882C953129258C310330882C5D
:1018D000953172258C31882C2C08F80021088A005B
:1018E00020080A008C31F900FA017A08003A03193D
:1018F0007A2C682C7908013A0319682C033A0319E9
:101900005F2C013A03195F2C073A0319632C682CEA
:1019100008003C30F1000230840090308500013F27
:101920008A00003F0A008C313C30F1000230840014
:1019300090308500013F8A00003F0A008C313C3026
:10194000F1000230840090308500013F8A00003FA2
:101950000A008C312030F100023084009030850084
:10196000013F8A00003F0A008C310800FA00F901AB
:10197000DD2C0430840098308500013F8A00003F50
:101980000A008C31003A0319C62CC72CDD2C7908CB
:101990007A07F80078088600023087000108F60010
:1019A0000030840098308500013F8A00003F0A0023
:1019B0008C310130F8007808F90777087902031CA8
:1019C000E22CE32CB92C0800FB007B088D31AC2500
:1019D0008C31003A0319ED2CEE2CE52C7630F50015
:1019E0001730F6004E30F700963175268C310130F5
:1019F000F1000030F2004D309631F9268C31003084
:101A0000F500F6000030F700F800963180268C31A2
:101A100095318B258C318831B5208C31013A0319F1
:101A2000122D132D0B2D0800F8007808F100F2019B
:101A3000893116218D317108F7007708F807780889
:101A400086008701760E0F398919F0380F39C23EAA
:101A5000840001308500000881000130F70077081C
:101A6000F80778088600870176080F39C23E84009F
:101A700001308500000881000130F7007708F80781
:101A8000780886008701810108003034313432340F
:101A900033343434353436343734383439344134EB
:101AA00042344334443445344634003430343134E1
:101AB00032343334343435343634373438343934DA
:101AC00041344234433444344534463400343034B1
:101AD00031343234333434343534363437343834C2
:101AE0003934413442344334443445344634003488
:101AF0004001CB01DF01902D5F08343E8400983017
:101B00000318013E85000008DE005E08F6004B3039
:101B10008D3114258D3101304001C9004908DF079E
:101B20003430F1009830F200893116218D314001B6
:101B30005F08C900CA0172084A02031DA12D71087D
:101B40004902031CA42DA52D7C2D4B30F7005630E7
:101B500083319F238D310800F100F201F20A410127
:101B60003C19B32DB42DE02D7108B600BC103C1506
:101B70003C100E30BA00F430B4000130B500BC1592
:101B80000D30A0001530A100AC010D30A2001530C1
:101B9000A300AD010D30A4001530A500AE010D303D
:101BA000A6001530A700AF010F30A8001530A9001E
:101BB000B001953111258D319631D2268D31F2014A
:101BC0007208080011304001CD00CE0119308C316F
:101BD000E4248D3110304001CD000830CE001930A2
:101BE0008C31E4248D310F304001CD000330CE0024
:101BF00019308C31E4248D3116304001CD00803015
:101C0000CE0019308C31E4248D3119304001CD00E3
:101C10008030CE0019308C31E4248D3116304001F3
:101C2000CD001930873149278D314001C7000800A8
:101C30004001E9006908F1004930883172208E3195
:101C40004001EA01372E6A08493E860087010108F3
:101C5000F1000230840090308500013F8A00003F8F
:101C60000A008E310130F60076084001EA07690863
:101C7000F100FF39031D0330F200893116218E3146
:101C800040016A08F600F70172087702031D4A2E28
:101C900071087602031C4D2E4E2E232E08007C0860
:101CA000C53E86008701810154011D1D582E592E05
:101CB000642E7C08C53E86008701811442016B08B2
:101CC0008A006A080A008E3154019D1C682E692E14
:101CD000742E7C08C53E8600870101154201690803
:101CE0008A0068080A008E317C08C53E860087019C
:101CF000010803197C2E7D2E842E420167088A007C
:101D000066080A008E31872E8831FD208E3108004A
:101D10008C3189248E312930FA009830FB00400143
:101D20006B088631B0268E31003A0319982E992E11
:101D30009D2E4001EC01BF01B42E1230FA00983004
:101D4000FB0040016B088631B0268E31003A031942
:101D5000AA2EAB2EB12E4001EC01EC0ABF01BF0A46
:101D6000B42E02304001EC006B088E3118268E3103
:101D7000863162268E3140016C088A3186228E318E
:101D8000080040012F08BD3E860087018101420105
:101D90001D1DCB2ECC2ED82E40012F08BD3E860017
:101DA00087018114420161088A0060080A008E31AF
:101DB00042019D1CDC2EDD2EE92E40012F08BD3E88
:101DC00086008701011542015F088A005E080A004B
:101DD0008E3140012F08BD3E86008701010803199E
:101DE000F22EF32EFA2E42015D088A005C080A00EA
:101DF0008E31FD2E89317A218E3108004E019912E3
:101E0000C130F1000E30F2009531BF258E314E0108
:101E100019126330F1000A30F2009531C5258E3178
:101E2000083042019F0090309D0024309E004030D9
:101E30009B0003309C000A30F1001530F200953110
:101E4000B3258E313930F1001530F2009531B925C6
:101E50008E313530F1001530F2009531AD258E31DF
:101E60004001AC01B201B1010830B000AF01AE01D8
:101E7000AD014E01991608004E0199134F30F10043
:101E80000E30F2009531DD258F314E0119134130AE
:101E9000F1000A30F2009531E3258F31083054010A
:101EA0009F0090309D0024309E0040309B00033006
:101EB0009C000B30F1001530F2009531D1258F31A7
:101EC0004130F1001530F2009531D7258F313D308A
:101ED000F1001530F2009531CB258F314001B3016F
:101EE000B801B7010830B600FC01B501B4014E01DC
:101EF000991708004101370886008701953126258A
:101F00008F3181000130F90079084101B7070130B4
:101F1000B8020030B93B380839040319902F912FCB
:101F2000962F95314D258F310530BC2FBC15A02F34
:101F3000953181258F31BC2F95317C258F31BC2F78
:101F40002C08F80021088A0020080A008F31F900C7
:101F5000FA017A08003A0319AE2F9C2F7908013A4A
:101F600003199C2F033A0319982F013A0319982F4C
:101F7000073A03199C2F9C2F08004001D300400111
:101F800053088D31AC258F31003A0319C82FC92F62
:101F9000BF2F9830F5001730F6005430F700963117
:101FA00075268F310130F1000030F2004D3096314E
:101FB000F9268F310030F500F6000030F700F80008
:101FC000963180268F3195318B258F318831B52020
:101FD0008F31013A0319ED2FEE2FE62F40015508FE
:101FE000D0005408CF005008CF00D0015408D200D0
:101FF000D1014F085104CD0050085204CE00080012
:1020000065340B34B4340B34003400343B341634B0
:10201000C5341534C1340E34BF3415345534153439
:1020200063340A34FE340E343E340B3417340B342C
:102030000034003432341634E33415344F340E3463
:10204000DD3415345134153441340A343C340F3402
:102050005E34153420341634083416340F34063404
:102060007A340F34013416345C340C346334153450
:10207000683415346D3415347234153477341534AE
:102080007C34153481341534863415348C340B3457
:1020900000340034003400340034003400340034A0
:1020A0000034003400340034003400340034003490
:1020B0000034003400340034003400340034003480
:1020C0000034003400340034003400340034003470
:102A140008000800080001300800053008004E01D5
:102A24000F1008004301901208004E01191008000D
:102A340043011114080043019114080043011115C6
:102A4400080043019115080043010C0808004E01D9
:102A54000F14080040013F0808004001480808001E
:102A640043019A12080089317A2195310800420104
:102A74001D121D1608008831FD20953108005401EF
:102A84001D121D1608004001A701A70A08004301F2
:102A940091161116080043019112111608005401F1
:102AA4001E0C0139080042011E0C01390800F10016
:102AB400710843018C0008004101BC10BB010E30B9
:102AC400080095311D2595310130080095311D25EB
:102AD40095310230080095311D25953101300800EB
:102AE4009531202595310030080095314D259531DB
:102AF400053008009531492595310A300800953193
:102B040049259531093008004101BC10BB010E3044
:102B1400080000308A312022953108004001230842
:102B24000139013C08004301110E890C890C01395B
:102B340008004E010F1C9F2DA02D9B2D0800400165
:102B44000C0E890C0139013C080040010C0D0C0DE0
:102B54000139013C080072084201DD007108DC0003
:102B6400080072084201E1007108E00008007208E0
:102B74004201DF007108DE00080072084201E30030
:102B84007108E200080072084201E5007108E400DF
:102B9400080072084201E7007108E60008007208A4
:102BA4004201EB007108EA00080072084201E900E2
:102BB4007108E800080072084101EB007108EA009E
:102BC400080072084101ED007108EC000800720869
:102BD4004101E9007108E800080072084101E700BA
:102BE4007108E6000800640080010131890BF62DAC
:102BF4000034FE0012001E00FE0BFC2D00344101C7
:102C04003C109531232596310430080041013C14D1
:102C14003635953159259631033008004001C314E7
:102C240043144316C3164317C31708007508F2006C
:102C34007408F100883146209631080041013C14A3
:102C44000314360D953159259631053008000130AD
:102C54004001A2000130A3009631102696310800ED
:102C640040013408031D372E392E01303A2E00302E
:102C7400080040012D08031D402E422E0130432E32
:102C84000030080043018F010830900091014F305B
:102C94008D00901208001430840090308500013FAC
:102CA4008A00003F0A0096310800223084009030E8
:102CB4008500013F8A00003F0A00963108001A305F
:102CC400840090308500013F8A00003F0A0096315D
:102CD4000800603051018D008F019101063093008E
:102CE4009001920108007608F2007508F100770857
:102CF400F30000308731DC27963108007608F200B3
:102D04007508F1007708F30002308731DC2796312B
:102D140008007103031D8F2E902E932E40011A1369
:102D2400952E40011A1708007103031D9A2E9B2E3D
:102D34009E2E40011810A02E400118140800760899
:102D4400F1001630840090308500013F8A00003F76
:102D54000A0096310800400192137103031DB32E3B
:102D6400B42EB62E9817B72E9813921708008931EF
:102D7400CB219631003A0319C02EC12EB92E400141
:102D8400BA013B080800CC2E95319B2596318B3136
:102D9400DC2396314101BC18D02ED12EC62E08005A
:102DA4004301901AD62ED72EDE2E8F0108309000C4
:102DB40091014F308D0090160800FB008A31CC221F
:102DC40096317B088600870140015608C03F5708AA
:102DD400C13F0800F1007108430196004E010F1D28
:102DE400F42EF52EF02E0F11430116080800F300FF
:102DF4004101BC1DFE2EFF2E062F7308B70072087A
:102E0400B9007108B800BC110800FB007908F6008D
:102E14007B088D31142597317A08F6007B088D31B3
:102E240014259731080041016608670403191B2F14
:102E34001C2F212F67088A0066080A0097317E013B
:102E4400BF1308004001CF000130FB004F08FB0214
:102E540023087B06FE397B06A3008931AF21973115
:102E640008004001251E372F382F422F2703031D4A
:102E74003C2F3D2F422F88310A2097314001A70172
:102E840008004001461441016808690403194B2FE6
:102E94004C2F512F69088A0068080A0097317E0177
:102EA4003F1308007E013F1F582F592F5C2F973185
:102EB400432797317E01BF1F602F612F642F973105
:102EC4001527973108000230F1000030F20078082D
:102ED4009631F92697310030F500F600F701963166
:102EE40075269731043008000130F1000030F200FB
:102EF40078089631F92697310030F500F600F7018D
:102F0400963175269731043008000130F100003005
:102F1400F20078089631F92697310030F500F60072
:102F2400F701963175269731023008000230F1001E
:102F34000030F20078089631F92697310030F50018
:102F4400F600F701963175269731023008000230F9
:102F5400F1000030F20078089631F92697310030FC
:102F6400F500F600F7019631752697310430080014
:102F74000130F1000030F20078089631F9269731DB
:102F84000030F500F600F7019631752697310230CE
:102F940008000230F1000030F20078089631F9267A
:102FA40097310030F500F600F70196317526973118
:102FB400023008000130F1000030F2007808963148
:102FC400F92697310030F500F600F70196317526A1
:102FD4009731043008009531A72597314001C90085
:102FE400CA014908F6004A308D31142597314A3018
:102FF400F700503083319F2397310800A1341634F1
:103004004D34163457341634613416348B34163434
:1030140096341634AD3416341834163488340E34D9
:10302400533454345234453441344D345F344F3482
:10303400503445344E3400345234653462346F3481
:103044006F34743469346E3467340D340A34443460
:103054004934533443344F344E344E34453443347A
:103064005434003431342E3431342E34303400347A
:1030740045344E3444340D340A3443344D344434EA
:103084003E34203400344034013400343434983431
:043094003434983404
:020000040001F9
:08000000FF3FFF3FFF3FFF3F00
:0A000E00EC3FFF3F9F3FFF3FFF3F25
:00000001FF
