:1000000080315528303430347E1480314E01161E34
:100010000A280B2813280C1E0E280F2813289531A8
:10002000F225803153280B1F162817285328191F33
:100030001A281B2826280F1F1E281F2826284101A2
:100040006C088A006B080A0080315328991F292800
:100050002A2835288F1F2D282E28352842016D0883
:100060008A006C080A0080315328191E3828392864
:1000700044280F1E3C283D284428420165088A0078
:1000800064080A0080315328991E472848285328BD
:100090008F1E4B284C285328420163088A006208AF
:1000A0000A00803153287E10090080315728410111
:1000B000803102208031ED00803103208031EE005C
:1000C0009C30840087308500A03086000130870096
:1000D0004430883100208031FC0120308400003021
:1000E00085002A3094315C248031A03084000030B7
:1000F0008500473094315C24803120308400013009
:1001000085003C3094315C24803120308400023002
:100110008500403094315C248031A030840002306E
:100120008500503094315C248031203084000330CD
:100130008500503094315C248031A030840003303D
:100140008500503094315C248031203084000430AC
:100150008500503094315C248031A030840004301C
:100160008500503094315C2480312030840005308B
:100170008500503094315C248031A03084000530FB
:100180008500503094315C2480317E1040018631EE
:10019000712E4001DD0080290230C3009F295D08D7
:1001A000C1000330C3009F293A305D02031CD928E7
:1001B000DA28E3285D085F39C93ED700FF3003180D
:1001C0000030D800EA285D08D03ED700FF30031881
:1001D0000030D8005708C2000430C3009F293A30CD
:1001E0005D02031CF428F528FE285D085F39C93E2E
:1001F000D900FF3003180030DA0005295D08D03E31
:10020000D900FF3003180030DA004208D50003306F
:10021000D535FF3E031D082955355907C200053065
:10022000C3009F293A305D02031C1729182922298F
:100230005D085F39C93E4101DF00FF30031800301F
:10024000E0002A295D08D03E4101DF00FF3003189D
:100250000030E00001304001C2024208031D312994
:1002600032293429C3019F290630C3009F293A301F
:100270005D02031C3C293D2946295D085F39C93EC2
:10028000DB00FF3003180030DC004D295D08D03E54
:10029000DB00FF3003180030DC0041016008400142
:1002A000D60041015F084001D500D50ED60EF030D2
:1002B000D60555080F39D604F030D5055B0855072B
:1002C0004101DF0040015C08563D4101E0005F084C
:1002D0004001D100410883315E238031013040016B
:1002E000C2024208031D752976290F2932295B3085
:1002F0005D06031D7C297D299F29C301C30A9F290F
:100300004308D500D6015608003A031988297729F1
:100310005508003A03197729013A0319CC28033A02
:100320000319CF28013A0319D428073A0319EF28F3
:10033000013A03191229033A0319372977290800CA
:10034000F9007908F1000230F2008831382081315B
:1003500071080907F8005B30F6000030840098301F
:100360008500013F8A00003F0A00813140014608B4
:100370000F39D33E8600013087000108F6000030B7
:10038000840098308500013F8A00003F0A008131D7
:100390000130F70077084001C6075330F6000030FF
:1003A000840098308500013F8A00003F0A008131B7
:1003B0007808F7000430F736890BDB2977080F3906
:1003C000D33E8600013087000108F600003084002B
:1003D00098308500013F8A00003F0A00813178088B
:1003E0000F39D33E8600013087000108F600003047
:1003F000840098308500013F8A00003F0A00813167
:10040000352A79088600023087000108F700043099
:10041000F736890B082A77080F39D33E860001305A
:1004200087000108F6000030840098308500013F05
:100430008A00003F0A008231790886000230870076
:1004400001080F39D33E8600013087000108F6000D
:100450000030840098308500013F8A00003F0A0088
:1004600082310130F7007708F907790886000230F9
:1004700087000108031D3D2A3E2A012A5D30F6004F
:100480000030840098308500013F8A00003F0A0058
:1004900082310800FA005B30F600003084009830AA
:1004A0008500013F8A00003F0A0082314001460872
:1004B0000F39D33E8600013087000108F600003076
:1004C000840098308500013F8A00003F0A00823195
:1004D0000130F80078084001C6077A08F6000030BD
:1004E000840098308500013F8A00003F0A00823175
:1004F0007708F100F2018831382082317108F80064
:100500007208F9000430F936F80C890B832A780850
:100510000F39D33E8600013087000108F600003015
:10052000840098308500013F8A00003F0A00823134
:100530007708F100F20188313820823171080F39D3
:10054000D33E8600013087000108F60000308400A9
:1005500098308500013F8A00003F0A008231C22A9C
:100560007708860087010108F60000308400983083
:100570008500013F8A00003F0A0082310130F80007
:100580007808F7077708860087010108031DC92A44
:10059000CA2AB02A5D30F600003084009830850009
:1005A000013F8A00003F0A0082310800F601023054
:1005B000840098308500013F8A00003F0A008231A4
:1005C000F3000230840098308500013F8A00003F2C
:1005D0000A008231F4000230840098308500013F27
:1005E0008A00003F0A008231F500152B4F30740657
:1005F000031DFB2AFC2A1D2B4B307506031D012B06
:10060000022B1D2BF601F60A1D2B72307406031DFA
:100610000A2B0B2B1D2B72307506031D102B112B73
:100620001D2BF6011D2B00305D2B7308413A031979
:10063000F62A043A0319052B132B02308400983054
:100640008500013F8A00003F0A00833102308400A8
:1006500098308500013F8A00003F0A008331023054
:10066000840098308500013F8A00003F0A008331F2
:100670000230840098308500013F8A00003F0A0064
:1006800083310230840098308500013F8A00003FAA
:100690000A0083310230840098308500013F8A00CF
:1006A000003F0A0083310230840098308500013F0A
:1006B0008A00003F0A008331760808004001D30019
:1006C000B92BC41E642B652BD32B5108D2000430E8
:1006D000D236890B682B52080139D4005408031D07
:1006E000722B732B7B2B5118762B772B792B98162B
:1006F000D32B9812D32B51187E2B802B0130812BBA
:1007000000309531D2258331D32B441F882B892B80
:10071000D32B0100D32BC41F8E2B8F2BD32B51082F
:10072000F1000230840090308500013F8A00003FD4
:100730000A008331D32B441C9E2B9F2BD32B4514B3
:10074000D32BC41CA42BA52BD32BC514D32B441DF6
:10075000AA2BAB2BD32B4515D32BC41DB02BB12B00
:10076000D32BC515D32B441EB62BB72BD32B451635
:10077000D32B5308413A0319AD2B033A0319A72B86
:10078000043A03199B2B0E3A0319B32B033A0319AE
:10079000A12B073A0319612B033A0319852B1C3A45
:1007A00003198B2BD32B0800F101F10A0C308400C4
:1007B00098308500013F8A00003F0A008331F10133
:1007C000F10A0A30840098308500013F8A00003F1A
:1007D0000A0083310130F4000030F5000E3084004F
:1007E00098308500013F8A00003F0A008331F10103
:1007F0000A30840098308500013F8A00003F0A00DB
:100800008431F101F10A0830840098308500013FFD
:100810008A00003F0A008431C830F4000030F5003F
:100820000E30840098308500013F8A00003F0A00A6
:100830008431232C0230840098308500013F8A00E7
:10084000003F0A0084310630840098308500013F63
:100850008A00003F0A008431003A031D302C312CFD
:100860001A2C080040019C011130980099010130B8
:100870009A0008309600DE309200EF309300A830E6
:1008800094007E01CE01C930C3000E30B800E501EE
:10089000C401B901CF01E601BA01C501D0017E3022
:1008A000BB00FF30C6003F30D1003F30BC003F30BE
:1008B000C7003F30D2003F13BF133E13BE173D1792
:1008C000BD137030F1001330F20094313E248431B6
:1008D000A630F1001330F2009431442484314E01EB
:1008E000161609307D01C5001330C90013307E0192
:1008F000990014309A001530A1002530A4000F3063
:100900009C001630A20015307D01CD000A30C600D3
:100910000D30CB001130C8000800F40043019A1AD2
:10092000922C932CDF2C7408F100F201F135F20DBA
:10093000F135F20D4530710784001830723D803872
:100940008500000899007408F100F201F135F20DFC
:10095000F135F20D4430710784001830723D803853
:10096000850000089A009B017408F100F201F1353E
:10097000F20DF135F20D4630710784001830723DEA
:1009800080388500000897007408F100F201F13505
:10099000F20DF135F20D4730710784001830723DC9
:1009A000803885000008F300F30D40011408730639
:1009B000FD397306940043019A160130E02C003093
:1009C0000800F6000130F3020030F43B730A031D07
:1009D000ED2C740A031DED2CEE2CFD2CF101F2011F
:1009E000332D0130F5007508F6070130F1070030AE
:1009F000F23D0130F3020030F43B7608860003300C
:100A0000870001080319052D062D252D7108840086
:100A100072088500120003190E2D0F2D252D730865
:100A200074040319142D152D252D710884007208E6
:100A300085000008F500760886000330870001086D
:100A400075060319242D252DF12C76088600033018
:100A50008700710884007208850000080102F10017
:100A6000F201031CF20308009331F6238531003AAA
:100A700003193B2D3C2D6A2D492D9331C42385311B
:100A8000862D9331C9238531862D9331D32385312A
:100A9000862D41012F08F8000630A03E8600870110
:100AA000413F8A00403F0A008531F900FA017A0887
:100AB000003A03195C2D452D7908013A0319452D9B
:100AC000033A03193D2D013A0319412D073A031941
:100AD000452D452D41013C101730A03E8600870171
:100AE000403F84008501810A00089331BA23853193
:100AF00001304101B8020030B93B38083904031D08
:100B0000822D832D852D0630862D03300800C72DBC
:100B10000030840090308500013F8A00003F0A00C9
:100B20008531FA0040012608A03E86000230870089
:100B30007A0881002608A03E8600023087000D302A
:100B400001060319A42DA52DB62D2608A03E86006A
:100B5000023087000A3001060319AF2DB02DB62DE3
:100B60004F302606031DB52DB62DC32D2608A03EF9
:100B70008600023087008101A0308131A0218531BB
:100B80004001A601C72D0130FA007A08A6070630F9
:100B9000840090308500013F8A00003F0A008531C3
:100BA000003A031DD42DD52D882D08002030F100EA
:100BB0000230840090308500013F8A00003F0A0027
:100BC00085313E30F1000230840090308500013FD5
:100BD0008A00003F0A0085313E30F1000230840077
:100BE00090308500013F8A00003F0A0085313E3089
:100BF000F1000230840090308500013F8A00003F00
:100C00000A0086312030F1000230840090308500E7
:100C1000013F8A00003F0A0086310D30F1000230AA
:100C2000840090308500013F8A00003F0A00863131
:100C30000A30F1000230840090308500013F8A00C4
:100C4000003F0A00863108004001CC007708780494
:100C500003192B2E2C2E6F2E7808F2007708F10046
:100C600088313820863172084001CB007108CA00F3
:100C7000612E7808F2007708F1004B08F4004A086A
:100C8000F3004C088431E124863171087204031D9D
:100C90004A2E4B2E4E2E40014C08702E77088400B1
:100CA000780885000008F900FA017908F1007A084F
:100CB000F20040014C08013E88315120863140014C
:100CC000CC004C080319652E662E6F2E4C0886004A
:100CD000033087000108031D6E2E6F2E392E003061
:100CE000080088311F2086315030F100A030973144
:100CF0005D2786318B170B178D31A3258631833104
:100D0000D423863194319124863194315024863114
:100D1000933190238631013A031D8F2E902EB42EED
:100D20008931122186319631E42686314E018C1E9E
:100D30009A2E9B2EB02E8A312D2286319531672531
:100D4000863195313725863195314F25863195315C
:100D50004325863195315B2586314E018C12882ED4
:100D60009731E8278631882E883184208631893171
:100D70009B218631882E803155280230840098309E
:100D80008500013F8A00003F0A0086314001EE00E5
:100D90003A03031DCC2ECD2EF72E25306E06031DF3
:100DA000D22ED32EE52EBA013D08860003308700EF
:100DB00081013F08FB001030840098308500013F1E
:100DC0008A00003F0A008631062F3F083E073D0299
:100DD0000318EB2EEC2E062F3D088600033087000B
:100DE0006E0881000130ED006D08BD07062F25302B
:100DF0006E06031DFC2EFD2E022FBA01BA0A3F0813
:100E0000BD00062FBB01BB0A6E08BC0040013B08B9
:100E100008004001CF002A30D3000230D10000305A
:100E2000D20040014F088D316D258731003A0319FA
:100E30001A2F1B2F112F2530F5001630F6005330D6
:100E4000F7009431E72487310130F1000030F200DF
:100E50004E309531A72587310030F500F60000307F
:100E6000F700F8009431F22487319331EC23873175
:100E70009731A02787314001D00050030319412F3B
:100E8000422F382F5008031D462F472F482F522F2F
:100E9000FF30D107FF30D23D51085204031D512FBE
:100EA000522F112F5308080030304001CC00303051
:100EB000CF003030CD004A1E5E2F5F2F622F3130C1
:100EC000CE00642F3030CE004A080F39303ECC00BF
:100ED0004B1E6B2F6C2F6F2F3130CF00712F3030A6
:100EE000CF004B080F39303ECD007C304401A000CC
:100EF0004F30A1002C30A20040014E084401A30055
:100F000040014C084401A4002C30A50040014F08CA
:100F10004401A60040014D084401A7000D30A8007F
:100F20000A30A9000A30F70020308C31AA2487311A
:100F30008231D622873108003034313432343334B0
:100F40003434353436343734383439344134423437
:100F5000433444344534463400343034313432344C
:100F60003334343435343634373438343934413426
:100F7000423443344434453446340034303431341C
:100F80003234333434343534363437343834393415
:100F900041344234433444344534463400343034EC
:100FA00031343234333434343534363437343834FD
:100FB00039344134423443344434453446340034C3
:100FC000F5007508F600F02F7608860087010030DE
:100FD00095319A25873181000130F4007408F607B5
:100FE0000130F2020030F33B720A031DFB2F730A3B
:100FF000031DFB2FFC2FE42F080043019A12080069
:10100000FE0012001E00FE0B012800347C08543E36
:101010008600013087005401190881000130F0007A
:101020007008FC0708307C02031C172818281928B0
:10103000FC010130F00070084001B5070800943150
:10104000D32488319431AC248831973132278831C8
:101050008431322488319431C924883197310A2768
:1010600088318E31BD2688318E31FB2688310800CB
:101070007208F5007108F40041280130F1070030D2
:10108000F23D71088400720885001200031D492892
:101090004A283D2874087102F1007508723BF2007D
:1010A0000800F3007308860003308700010871060A
:1010B000031D5B285C285E28730869287308860076
:1010C00003308700F30A0108031D672868285228A7
:1010D0000030080040013008443E8600013087009F
:1010E0004201190881000130F00070084001B0078A
:1010F00008303002031C7D287E287F28B001013093
:10110000F0007008AE070800952895312B2588312E
:101110004001EF006F08F10002308400903085003C
:10112000013F8A00003F0A0088318831B9208831A8
:10113000003A031D9C289D28852808002D30440175
:10114000A0002D30A1002D30A2000D30A3000A30E8
:10115000A4000530F70020308C31AA2488313A30C1
:10116000F3009830F4000530F5008B3141238831CD
:10117000080040013B080319BE28BF28C1280130E0
:10118000D4280630840098308500013F8A00003F53
:101190000A008831003A0319CE28CF28D328863197
:1011A000BD268831D428003008009731892788313E
:1011B0001430F4000030F5000E30840098308500C3
:1011C000013F8A00003F0A00883140012508CB001A
:1011D0002408CA0087315427883188319E208831FD
:1011E00008004001CC00CD01CD0A4101BC18F9280E
:1011F000FA280F29BC144001CD014C08031901291C
:10120000022906294101BA01BA0A0929023041011D
:10121000BA0093317E23883195317325883140019E
:101220004D0808004001221C162917293229471CA5
:101230001A291B2932294710C91701304101EF0033
:101240006F084001A80702302802031C2829292919
:101250003229C9139631BE268931943169248931E6
:101260004001A8010800083040013702031839295D
:101270003A2952293808CD3E8600870101085401D9
:101280009A000130F00070084001B80708303802B9
:10129000031C4B294C294D29B8010130F00070087E
:1012A000B70754294E0119130800083040013102D4
:1012B00003185B295C29752932084C3E86000130F1
:1012C0008700010842019A000130F00070084001D7
:1012D000B20708303202031C6E296F297029B2014F
:1012E0000130F0007008B10777294E01191208008B
:1012F000F3007308031D7D297E298A295B30F100E4
:101300000230840090308500013F8A00003F0A00CF
:1013100089319A297303031D8E298F299A295D30FB
:10132000F1000230840090308500013F8A00003FC8
:101330000A0089310800AF29003084009030850010
:10134000013F8A00003F0A008931F6000030840026
:1013500098308500013F8A00003F0A00893106303D
:10136000840090308500013F8A00003F0A008931E7
:10137000003A031DBC29BD299C290800F40071080E
:1013800072040319C429C529D4297435A03E8600E6
:1013900087017108C03F7208C13F7408AC3E8600E7
:1013A000870173088100E1297435A03E860087011A
:1013B0007130C03F1330C13F7408AC3E86008701D6
:1013C0008101080005304001CE0018308F31BD2763
:1013D000893140014F08E1004E08E00061081F39E3
:1013E000DE006008DF005F08D900DA015E08DB007C
:1013F000DC015B08DC00DB0159085B04E0005A08F3
:101400005C04E1006108D8006008D700080094314E
:1014100056248A314001CD00CA014D08F6004A30F9
:101420008D3108258A314A30F7004C3082314A220A
:101430008A319331F1238A31103E4001CD00CA0137
:101440004D08F6004A308D3108258A314A30F700C0
:101450004C3082314A228A3108004001A21C312AD4
:10146000322A522A1A10003084318D248A31003AEF
:1014700003193B2A3C2A522A4001A9010430F200F8
:101480000030F300E3308731E0278A3140011A143D
:10149000E3308B316C238A31943169248A3187316E
:1014A000FD278A310800400135080319582A592AB6
:1014B000532A3608C53E860087010108B400360865
:1014C000543E8600013087000108F2000130F1002F
:1014D0007108B60708303602031C6F2A702A712A79
:1014E000B6014E01991301304001B5024E01991722
:1014F0007208080040012E0803197F2A802A7A2AE0
:101500002F08BD3E860087010108AD002F08443E2C
:101510008600013087000108F2000130F1007108F7
:10152000AF0708302F02031C962A972A982AAF018A
:101530004E01991201304001AE024E019916720817
:101540000800400137080319A62AA72AA12A4E013C
:10155000191BAB2AAC2AB02A710854019A00C52A7B
:10156000191340013908CD3E8600870171088100BA
:101570000130F2007208B90708303902031CC12A91
:10158000C22AC32AB9010130B7024E011917080057
:1015900041013C100230BB00D52A9331CE238A3161
:1015A000EF2A9331D3238A31EF2A2E08F800043032
:1015B000A03E86008701413F8A00403F0A008A31F1
:1015C000F900FA017A08003A0319E72AD12A7908C2
:1015D000023A0319CD2A013A0319CD2AD12A08006B
:1015E000400131080319F52AF62AF02A4E01191A8A
:1015F000FA2AFB2AFF2A710842019A00152B1912B8
:10160000400133084C3E860001308700710881009C
:101610000130F2007208B30708303302031C112BAB
:10162000122B132BB3010130B1024E011916080021
:10163000933175238B3141013C1C1F2B202B2B2B0D
:101640009331F6238B31003A0319272B282B2B2BB0
:101650000F304101BA0041013A084001CA00CB01F4
:10166000CA35CB0D28304A07840010304B3D8038F6
:101670008500013F8A00003F0A008B314101BA001A
:101680000800F901642B0230840098308500013F86
:101690008A00003F0A008B31F8007408F7007308D5
:1016A000F60079087607840077080318770A850022
:1016B0000008780603195D2B5E2B602B00306B2B26
:1016C0000130F6007608F90775087902031C692BCA
:1016D0006A2B432B013008004001D400CA01D50118
:1016E000D60140015408860087010108F6004A30FF
:1016F0008D3108258B310130FB007B084001D40778
:101700000130D5070030D63D5608803AFB008030C6
:101710007B02031D8D2B04305502031C902B912B53
:10172000712B4A30F7004B3082314A228B3108004E
:101730004101BC15A82B9331CE238B31C42B93319F
:101740008D238B310330C42B9331D3238B31C42BA6
:101750002C08F80021088A0020080A008B31F900C3
:10176000FA017A08003A0319B62BA42B7908013A3A
:101770000319A42B033A03199B2B013A03199B2B42
:10178000073A03199F2BA42B08003C30F1000230CC
:10179000840090308500013F8A00003F0A008B31B1
:1017A0003C30F1000230840090308500013F8A0017
:1017B000003F0A008B313C30F10002308400903051
:1017C0008500013F8A00003F0A008B312030F10084
:1017D0000230840090308500013F8A00003F0A00FB
:1017E0008B3108004001D70096318B268B31003AAF
:1017F0000319FB2BFC2BF42B02304001CE001930D7
:10180000873109278B314001D8000330CE001930D1
:10181000873109278B314001D9005908D500580874
:10182000D4000430D600550DD50CD40CD60B132C97
:101830005708860087015408C03F5508C13F08007B
:101840004001D70096319C268C31003A0319292C8F
:101850002A2C222C04304001CE0019308731092770
:101860008C314001D8000530CE001930873109276E
:101870008C314001D9005908D5005808D4000430F3
:10188000D600550DD50CD40CD60B412C570886002C
:1018900087015408C03F5508C13F08004001D700E8
:1018A0009631AD268C31003A0319572C582C502C08
:1018B00006304001CE001930873109278C314001B4
:1018C000D8000730CE001930873109278C3140010C
:1018D000D9005908D5005808D4000430D600550D59
:1018E000D50CD40CD60B6F2C5708860087015408F2
:1018F000C03F5508C13F08004001DD016A308F310B
:1019000039278C31FF3040016A05F9000F306B0533
:10191000FA005D309531B5258C31FF3040016C0502
:10192000F9000F306D05FA005D309531B5258C3129
:10193000FF3040016E05F9000F306F05FA005D3091
:101940009531B5258C315D30F700583082314A220F
:101950008C310800FA00F901D12C04308400983051
:101960008500013F8A00003F0A008C31003A0319CC
:10197000BA2CBB2CD12C79087A07F800780886009D
:10198000023087000108F60000308400983085009E
:10199000013F8A00003F0A008C310130F8007808CE
:1019A000F90777087902031CD62CD72CAD2C080038
:1019B000FB007B088D316D258C31003A0319E12C39
:1019C000E22CD92C1430F5001630F6004F30F70019
:1019D0009431E7248C310130F1000030F2004E30B8
:1019E0009531A7258C310030F500F6000030F70066
:1019F000F8009431F2248C319331EC238C319731FF
:101A0000A0278C31013A0319062D072DFF2C080061
:101A1000F8007808F100F201883138208D31710822
:101A2000F7007708F807780886008701760E0F39E7
:101A30008919F0380F39D33E840001308500000841
:101A400081000130F7007708F807780886008701E1
:101A500076080F39D33E84000130850000088100EC
:101A60000130F7007708F8077808860087018101C0
:101A700008004001CC01E001512D6008343E840093
:101A800098300318013E85000008DF005F08F6006B
:101A90004C308D3108258D3101304001CA004A0893
:101AA000E0073430F1009830F200883138208D3171
:101AB00040016008CA00CB0172084B02031D622D71
:101AC00071084A02031C652D662D3D2D4C30F70030
:101AD000563082314A228D310800F100F201F20ABB
:101AE00041013C19742D752DA12D7108B600BC1053
:101AF0003C153C100E30BA00F430B4000130B50093
:101B0000BC157130A0001330A100AC017130A200EF
:101B10001330A300AD017130A4001330A500AE0155
:101B20007130A6001330A700AF017330A800133046
:101B3000A900B001933175238D31953180258D3108
:101B4000F2017208080011304001CE00CF011930B7
:101B50008C31D8248D3110304001CE000830CF00B8
:101B600019308C31D8248D310F304001CE00033034
:101B7000CF0019308C31D8248D3116304001CE0081
:101B80008030CF0019308C31D8248D31193040018C
:101B9000CE008030CF0019308C31D8248D311630F2
:101BA0004001CE001930873109278D314001C8002E
:101BB00008004001EA006A08F1004A3097311E2708
:101BC0008D314001EB01F82D6B084A3E86008701FC
:101BD0000108F1000230840090308500013F8A0046
:101BE000003F0A008D310130F60076084001EB0716
:101BF0006A08F100FF39031D0330F20088313820F4
:101C00008D3140016B08F600F70172087702031D61
:101C10000B2E71087602031C0E2E0F2EE42D0800E9
:101C20008B31C5238E312930F7009830F8007B08BE
:101C3000863124268E31003A03191F2E202E242EA1
:101C40004001EC01C0013A2E1230F7009830F80044
:101C50007B08863124268E31003A0319302E312E2E
:101C6000372E4001EC01EC0AC001C00A3A2E0230C6
:101C70004001EC007B088D31D9258E318531D62588
:101C80008E3140016C08893178218E3108007C0842
:101C9000C53E86008701810154011D1D502E512E25
:101CA0005C2E7C08C53E86008701811442016B08CA
:101CB0008A006A080A008E3154019D1C602E612E34
:101CC0006C2E7C08C53E860087010115420169081B
:101CD0008A0068080A008E317C08C53E86008701AC
:101CE00001080319742E752E7C2E420167088A00A4
:101CF00066080A008E317F2E883106208E3108005A
:101D000040013008BD3E86008701810142011D1D52
:101D10008A2E8B2E972E40013008BD3E860087010B
:101D20008114420161088A0060080A008E31420174
:101D30009D1C9B2E9C2EA82E40013008BD3E860087
:101D40008701011542015F088A005E080A008E3192
:101D500040013008BD3E8600870101080319B12EFD
:101D6000B22EB92E42015D088A005C080A008E314D
:101D7000BC2E88316A208E3108004E0199128030C5
:101D8000F1000E30F200943114248E314E011912FC
:101D90005530F1000930F20094311A248E310830A8
:101DA00042019F0090309D0024309E0040309B00F7
:101DB00003309C006E30F1001330F200943108249F
:101DC0008E319A30F1001330F20094310E248E31AE
:101DD0009630F1001330F200943102248E3140012C
:101DE000AD01B301B2010830B100B001AF01AE01E5
:101DF0004E01991608004E0199134730F1000E303C
:101E0000F200943132248E314E0119133330F10037
:101E10000930F200943138248E31083054019F008B
:101E200090309D0024309E0040309B0003309C0089
:101E30006F30F1001330F200943126248E31A2303D
:101E4000F1001330F20094312C248E319E30F100D9
:101E50001330F200943120248E314001B401B901D5
:101E6000B8010830B700FC01B601B5014E01991761
:101E700008004001DA0096318B268F31003A0319B1
:101E8000422F432F3B2F5B308B31F2238F314001A8
:101E90005A08860087015B08C03F5C08C13F963145
:101EA0009C268F31003A0319562F572F4F2F5B3046
:101EB0008C3120248F3140015A08023E8600870170
:101EC0005B08C03F5C08C13F9631AD268F31003AB8
:101ED00003196B2F6C2F642F5B308C314E248F31A4
:101EE00040015A08043E860087015B08C03F5C0839
:101EF000C13F0800410137088600870193318A23DA
:101F00008F3181000130F90079084101B7070130B4
:101F1000B8020030B93B380839040319902F912FCB
:101F2000962F9331AE238F310530BC2FBC15A02FD7
:101F30009331E2238F31BC2F9331DD238F31BC2FBE
:101F40002C08F80021088A0020080A008F31F900C7
:101F5000FA017A08003A0319AE2F9C2F7908013A4A
:101F600003199C2F033A0319982F013A0319982F4C
:101F7000073A03199C2F9C2F08004001D400400110
:101F800054088D316D258F31003A0319C82FC92FA0
:101F9000BF2F3630F5001630F6005530F70094317B
:101FA000E7248F310130F1000030F2004E309531DE
:101FB000A7258F310030F500F6000030F700F8005B
:101FC0009431F2248F319331EC238F319731A02754
:101FD0008F31013A0319ED2FEE2FE62F40015608FD
:101FE000D1005508D0005108D000D1015508D300C8
:101FF000D20150085204CE0051085304CF0008000B
:102000007A340A34F0340A3400340034A3341434FB
:102010001A34143480340E3414341434B634133473
:1020200055340934BD340E3453340A34A1340A34DF
:10203000003400349A3414343834143447340E34B1
:1020400032341434B234133433340934FB340E34A0
:10205000BF341334883414347034143434340534B5
:102060007A340F346234143498340B34C434133457
:10207000C9341334CE341334D3341334D834133432
:10208000DD341334E2341334E7341334C8340A34FF
:1020900000340034003400340034003400340034A0
:1020A0000034003400340034003400340034003490
:1020B0000034003400340034003400340034003480
:1020C0000034003400340034003400340034003470
:1026DC0008000800080001300800053008004E0111
:1026EC000F1008004301901208004E011910080049
:1026FC004301111408004301911408004301111502
:10270C00080043019115080043010C0808004E0114
:10271C000F14080040014008080040014908080057
:10272C0088316A209331080042011D121D160800E1
:10273C00883106209331080054011D121D16080023
:10274C004001AA01AA0A08004301911611160800BB
:10275C00430191121116080054011E0C0139080096
:10276C0042011E0C01390800F100710843018C0074
:10277C0008004101BC10BB010E30080093318123CD
:10278C0093310130080093318123933102300800DA
:10279C009331812393310130080093318423933199
:1027AC00003008009331AE2393310530080093318B
:1027BC00AA2393310A3008009331AA2393310930AC
:1027CC0008004101BC10BB010E30080000308831FC
:1027DC00F12093310800400125080139013C080023
:1027EC004301110E890C890C013908004E010F1C94
:1027FC00002C012CFC2B080072084201DD00710832
:10280C00DC00080072084201E1007108E0000800D9
:10281C0072084201DF007108DE00080072084201F4
:10282C00E3007108E200080072084201E50071083B
:10283C00E400080072084201E7007108E600080095
:10284C0072084201EB007108EA00080072084201AC
:10285C00E9007108E800080072084201ED007108F7
:10286C00EC00080072084101EC007108EB00080054
:10287C0072084101EA007108E90008007208410180
:10288C00E8007108E700080040010C0D0C0D01393F
:10289C00013C080040012214A2142215A2170800C2
:1028AC0040010C0E890C0139013C080064008001C8
:1028BC000131890B5D2C003441013C10933187238D
:1028CC0094310430080088318420943189319B2163
:1028DC009431080041013C1436359331BA239431BC
:1028EC00033008004001C41444144416C4164417A1
:1028FC00C41708007508F2007408F10097314727D7
:10290C009431080041013C140314360D9331BA2361
:10291C0094310530080001304001A4000130A500BD
:10292C00943178249431080040013508031D9F2C04
:10293C00A12C0130A22C0030080040012E08031DF0
:10294C00A82CAA2C0130AB2C0030080043018F01BD
:10295C000830900091014F308D0090120800143017
:10296C00840090308500013F8A00003F0A009431BA
:10297C0008001A30840090308500013F8A00003F27
:10298C000A0094310800603051018D008F019101D3
:10299C00063093009001920108004F0196019701B7
:1029AC00980199019A019B019C019D01080022301C
:1029BC00840090308500013F8A00003F0A0094316A
:1029CC0008007608F2007508F1007708F300003073
:1029DC008931BE21943108007608F2007508F100A7
:1029EC007708F30002308931BE219431080071035D
:1029FC00031D012D022D052D40011A13072D400139
:102A0C001A1708007103031D0C2D0D2D102D4001FC
:102A1C001810122D40011814080040019213710374
:102A2C00031D192D1A2D1C2D98171D2D9813921757
:102A3C0008007608F1001630840090308500013FC4
:102A4C008A00003F0A00953108008831B920953181
:102A5C00003A0319322D332D2B2D4001BB013C08BC
:102A6C0008004001221E3B2D3C2D422D8C317C2434
:102A7C00953194316924953108004001221F472D6E
:102A8C00482D4E2D8A310722953194316924953188
:102A9C0008004001A21E532D542D5A2D9631F726B5
:102AAC00953194316924953108004001A21F5F2DA6
:102ABC00602D662D8D3139259531943169249531F0
:102ACC0008004001A21D6B2D6C2D722D97317327C0
:102ADC00953194316924953108007A2D9331FC237A
:102AEC0095318B31182395314101BC187E2D7F2DEA
:102AFC00742D08004301901A842D852D8C2D8F0187
:102B0C000830900091014F308D0090160800FB00AA
:102B1C008931E22195317B088600870140015708F5
:102B2C00C03F5808C13F0800F100710843019600EE
:102B3C004E010F1DA22DA32D9E2D0F114301160822
:102B4C000800F3004101BC1DAC2DAD2DB42D730854
:102B5C00B7007208B9007108B800BC110800FB007E
:102B6C007908F6007B088D31082595317A08F60036
:102B7C007B088D31082595310800410167086804F0
:102B8C000319C92DCA2DCF2D68088A0067080A00C1
:102B9C0095317E01BF1308004001D0000130FB00CD
:102BAC005008FB0225087B06FE397B06A500883100
:102BBC00D5209531080040014714410169086A0489
:102BCC000319E92DEA2DEF2D6A088A0069080A001D
:102BDC0095317E013F1308007E013F1FF62DF72D26
:102BEC00FA2D9531E12595317E01BF1FFE2DFF2D6C
:102BFC00022E9531C325953108000230F1000030CA
:102C0C00F20078089531A72596310030F500F600D2
:102C1C00F7019431E7249631043008000130F100BB
:102C2C000030F20078089531A72596310030F50078
:102C3C00F600F7019431E724963104300800013096
:102C4C00F1000030F20078089531A725963100305C
:102C5C00F500F600F7019431E724963102300800B4
:102C6C000230F1000030F20078089531A72596313A
:102C7C000030F500F600F7019431E724963102306C
:102C8C0008000230F1000030F20078089531A725D9
:102C9C0096310030F500F600F7019431E7249631B7
:102CAC00043008000130F1000030F2007808953152
:102CBC00A72596310030F500F600F7019431E72492
:102CCC009631023008000230F1000030F200780832
:102CDC009531A72596310030F500F600F7019431B7
:102CEC00E7249631023008000130F1000030F20088
:102CFC0078089531A72596310030F500F600F701DC
:102D0C009431E72496310430080002304001CE00A3
:102D1C0019308731092796310139031D962E982ECB
:102D2C000130992E0030FB007B0808000430400174
:102D3C00CE0019308731092796310139031DA72E92
:102D4C00A92E0130AA2E0030FB007B0808000630AB
:102D5C004001CE0019308731092796310139031D06
:102D6C00B82EBA2E0130BB2E0030FB007B080800B9
:102D7C009331932396314001CA00CB014A08F600E7
:102D8C004B308D31082596314B30F700463082316F
:102D9C004A229631080094314A2496314001CA00E7
:102DAC00CB014A08F6004B308D31082596314B305B
:102DBC00F700483082314A22963108004001221D2A
:102DCC00E82EE92EF62E2A03031DED2EEE2EF62EFE
:102DDC009631D12696319431692496314001AA015D
:102DEC00080094314A2496314001CA00CB014A08AC
:102DFC00F6004B308D31082596314B30F7005030B2
:102E0C0082314A229631080047304B019F000B302B
:102E1C009D00DC309C001D084001A1004B011C08EA
:102E2C004001A0004E018C1290304B019E00080016
:102E3C00F3007308F200720886008701F20A710829
:102E4C00840003308500F10A0008C03F8908031D87
:102E5C00302F312F212F080011307D01C800133085
:102E6C00C90015307E01A1001630A200403043018C
:102E7C0099009A01013097004001941043019A1275
:102E8C000800502F0B30F3006230890B4B2FF30BE3
:102E9C004B2F00320130F1020030F23B710A031D5E
:102EAC005B2F720A031D5B2F5C2F482F0800F2006A
:102EBC0072080319622F632F712F02307102031CE9
:102ECC00682F692F712F72084001BF007108FF3EF7
:102EDC00BE000130722F003008004001E201673063
:102EEC0095318D25973140016808FA006708F90083
:102EFC0062309531B52597316230F700543082310C
:102F0C004A229731080024304401A0002430A1004B
:102F1C002430A2000330F70020308C31AA249731E2
:102F2C003F30F3009830F4000530F5008B3141232D
:102F3C0097310800F101F10A4101BC18A62FA72F07
:102F4C00B62F3C11FF30B600933175239731933176
:102F5C007B23973193317823973141013B08F10062
:102F6C0071080800780886008701403FF100413F56
:102F7C00F2007808023E8600870101089531A725EA
:102F8C0097310030F500F600F7019431E7249731C2
:102F9C0002300800780886008701403FF100413F6D
:102FAC00F2007808023E8600870101089531A725BA
:102FBC0097310030F500F600F7019431E724973192
:102FCC00023008004001A21FEC2FED2FFF2FF42F31
:102FDC0095312B2597318031C92097318831B92013
:102FEC009731003A031DFB2FFC2FEE2F85318725DF
:102FFC00973108001F341534B5341434DD341434CF
:10300C00BF341434FD3414340834153413341534EB
:10301C008034143410340E34533454345234453414
:10302C0041344D345F344F34503445344E340034D5
:10303C005234653462346F346F34743469346E34A2
:10304C0067340D340A3444344934533443344F34E4
:10305C004E344E34453443345434003431342E34ED
:10306C0031342E343034003445344E3444340D3441
:10307C000A3443344D3444343E3420340034403428
:0C308C0001340034343498343434983467
:020000040001F9
:08000000FF3FFF3FFF3FFF3F00
:0A000E00EC3FFF3F9F3FFF3FFF3F25
:00000001FF
