:1000000080315528303430347E1480314E01161E34
:100010000A280B2813280C1E0E280F2813289731A6
:100020008927803153280B1F162817285328191F9A
:100030001A281B2826280F1F1E281F2826284101A2
:100040006D088A006C080A0080315328991F2928FE
:100050002A2835288F1F2D282E28352841016B0886
:100060008A006A080A0080315328191E3828392866
:1000700044280F1E3C283D284428420165088A0078
:1000800064080A0080315328991E472848285328BD
:100090008F1E4B284C285328420163088A006208AF
:1000A0000A00803153287E10090080315728410111
:1000B000803102208031EE00803103208031EF005A
:1000C000883084008D308500A030860001308700A4
:1000D000333096313F268031FC01203084000030DF
:1000E00085002930963139268031A03084000030D7
:1000F0008500463096313926803120308400013029
:1001000085003C3096313926803120308400023021
:1001100085004030963139268031A030840002308D
:1001200085005030963139268031203084000330EC
:1001300085005030963139268031A030840003305C
:1001400085005030963139268031203084000430CB
:1001500085005030963139268031A030840004303B
:10016000850050309631392680317E104001813132
:1001700090294001DD0070290230C2008F295D08FE
:10018000C0000330C2008F293A305D02031CC92829
:10019000CA28D3285D085F39C93ED700FF3003184D
:1001A0000030D800DA285D08D03ED700FF300318B1
:1001B0000030D8005708C1000430C2008F293A30FF
:1001C0005D02031CE428E528EE285D085F39C93E7E
:1001D000D900FF3003180030DA00F5285D08D03E62
:1001E000D900FF3003180030DA004108D500033091
:1001F000D535FF3E031DF82855355907C100053098
:10020000C2008F293A305D02031C072908291229F0
:100210005D085F39C93E4101DD00FF300318003041
:10022000DE001A295D08D03E4101DD00FF300318D1
:100230000030DE0001304001C1024108031D2129C8
:1002400022292429C2018F290630C2008F293A3081
:100250005D02031C2C292D2936295D085F39C93E12
:10026000DB00FF3003180030DC003D295D08D03E84
:10027000DB00FF3003180030DC0041015E08400164
:10028000D60041015D084001D500D50ED60EF030F4
:10029000D60555080F39D604F030D5055B0855074B
:1002A0004101DD0040015C08563D4101DE005D0872
:1002B0004001D00040088431892480310130400160
:1002C000C1024108031D65296629FF2822295B30E8
:1002D0005D06031D6C296D298F29C201C20A8F2971
:1002E0004208D500D6015608003A03197829672933
:1002F0005508003A03196729013A0319BC28033A43
:100300000319BF28013A0319C428073A0319DF2843
:10031000013A03190229033A03192729672908001A
:100320008931802181315030F100A0308831C020E6
:1003300081318B170B178E312526813184312B2487
:10034000813196316526813195316B258131013AB4
:10035000031DAB29AC29382A8A31062281318A3122
:10036000C822813197310B2781314E018C1EB9296A
:10037000BA29D1298C128A31C8228131883194203E
:10038000813188312F2081318B31342381318D317E
:10039000BB258131A4299631FF2681318031B920D6
:1003A00081318931EA218131003A031DD829D929C7
:1003B000CB29192A0030840090308500013F8A0043
:1003C000003F0A0081314001EF002408A03E860072
:1003D000023087006F0881002408A03E86000230AA
:1003E00087000D3001060319F629F729082A240889
:1003F000A03E8600023087000A3001060319012A58
:10040000022A082A4F302406031D072A082A152A23
:100410002408A03E8600023087008101A03082318E
:10042000652281314001A401192A0130EF006F08D3
:10043000A4070630840090308500013F8A00003F09
:100440000A008231003A031D262A272ADA29A42924
:100450009631FF2681314201EC006C08F100023038
:10046000840090308500013F8A00003F0A008231FD
:100470008931EA218131003A031D3F2A402A282A86
:10048000542A0030840090308500013F8A00003FEC
:100490000A008231F6006830840090308500013F08
:1004A0008A00003F0A0082310630840090308500C7
:1004B000013F8A00003F0A008231003A031D612A91
:1004C000622A412AA42980315528F9007908F100CF
:1004D0000230F20089314E21823171080907F8009B
:1004E0005B30F6006830840090308500013F8A0060
:1004F000003F0A008231400145080F39C23E8600A4
:10050000013087000108F6006830840090308500D3
:10051000013F8A00003F0A0082310130F70077086E
:100520004001C5075330F6006830840090308500E4
:10053000013F8A00003F0A0082317808F70004304A
:10054000F736890BA02A77080F39C23E86000130A2
:1005500087000108F6006830840090308500013F74
:100560008A00003F0A00823178080F39C23E8600B7
:10057000013087000108F600683084009030850063
:10058000013F8A00003F0A008231FA2A790886007A
:10059000023087000108F7000430F736890BCD2AB6
:1005A00077080F39C23E8600013087000108F60047
:1005B0006830840090308500013F8A00003F0A00C7
:1005C0008231790886000230870001080F39C23E67
:1005D0008600013087000108F60068308400903002
:1005E0008500013F8A00003F0A0082310130F70098
:1005F0007708F90779088600023087000108031D93
:10060000022B032BC62A5D30F60068308400903040
:100610008500013F8A00003F0A0083310800F8018D
:100620006A30840090308500013F8A00003F0A0054
:100630008331F5006A30840090308500013F8A00E4
:10064000003F0A008331F6006A3084009030850054
:10065000013F8A00003F0A008331F7004E2B4F30E4
:100660007606031D342B352B5E2B4B307706031D8E
:100670003A2B3B2B5E2BF801F80A5E2B7230760684
:10068000031D432B442B5E2B72307706031D492B31
:100690004A2B5E2BF8015E2B00309E2B7508F30071
:1006A000F4017408003A0319562B4C2B7308413A95
:1006B00003192F2B043A03193E2B4C2B6A3084006C
:1006C00090308500013F8A00003F0A0083316A3084
:1006D000840090308500013F8A00003F0A0083318A
:1006E0006A30840090308500013F8A00003F0A0094
:1006F00083316A30840090308500013F8A00003FDA
:100700000A0083316A30840090308500013F8A00FE
:10071000003F0A0083316A30840090308500013F39
:100720008A00003F0A0083316A30840090308500DF
:10073000013F8A00003F0A00833178080800FA0070
:100740005B30F6006830840090308500013F8A00FD
:10075000003F0A008331400145080F39C23E860040
:10076000013087000108F600683084009030850071
:10077000013F8A00003F0A0083310130F800780809
:100780004001C5077A08F600683084009030850083
:10079000013F8A00003F0A0083317708F100F2012F
:1007A00089314E2183317108F8007208F900043054
:1007B000F936F80C890BD82B78080F39C23E860021
:1007C000013087000108F600683084009030850011
:1007D000013F8A00003F0A0083317708F100F201EF
:1007E00089314E21833171080F39C23E86000130B4
:1007F00087000108F6006830840090308500013FD2
:100800008A00003F0A008431172C77088600870190
:100810000108F6006830840090308500013F8A00AE
:10082000003F0A0084310130F8007808F7077708A4
:10083000860087010108031D1E2C1F2C052C5D302E
:10084000F6006830840090308500013F8A00003F48
:100850000A0084310800F101F10A743084009030FC
:100860008500013F8A00003F0A008431F101F10A4E
:100870007230840090308500013F8A00003F0A00FA
:1008800084310130F4000030F5007630840090307F
:100890008500013F8A00003F0A008431F101723077
:1008A000840090308500013F8A00003F0A008431B7
:1008B000F101F10A7030840090308500013F8A0018
:1008C000003F0A008431C830F4000030F500763073
:1008D000840090308500013F8A00003F0A00843187
:1008E0007A2C6A30840090308500013F8A00003FF6
:1008F0000A0084316E30840090308500013F8A0008
:10090000003F0A008431003A031D872C882C712C8B
:1009100008004001D300C42C5008D1000430D13667
:10092000890B8F2C51080139D4005408031D992CD0
:100930009A2CA22C50189D2C9E2CA02C9816E62C9C
:100940009812E62C5018A52CA72C0130A82C0030AA
:10095000973169278431E62C0100E62C5008F1001C
:100960000230840090308500013F8A00003F0A0079
:100970008431E62C4410E62CC410E62C4411E62CFD
:10098000C411E62C4412E62C5308D100D2015208BF
:10099000003A0319CC2CE62C5108413A0319C02C1B
:1009A000033A0319BE2C043A0319BA2C0E3A031960
:1009B000C22C033A0319BC2C073A03198C2C033AB6
:1009C0000319AC2C1C3A0319AE2CE62C080040018C
:1009D0009C0111309800990101309A00083096006E
:1009E000DE309200EF309300A83094007E01CE01FB
:1009F000C930C3000E30B800E501C401B901CF0110
:100A0000E601BA01C501D0017E30BB00FF30C6004F
:100A10003F30D1003F30BC003F30C7003F30D200F4
:100A20003F13BF133E13BE173D17BD13FF30F10038
:100A30000730F20096312D2684318430F1001530D4
:100A4000F2009631332684314E01161609307D01AD
:100A5000C5001330C90013307E01990014309A008C
:100A60001530A1002530A4000F309C001630A200E4
:100A700015307D01CD000A30C6000D30CB0011309D
:100A8000C8000800F6007608F9007208F80071083E
:100A9000F7000130F3020030F43B730A031D542DBC
:100AA000740A031D542D552D642DF101F2019A2D68
:100AB0000130F5007508F9070130F7070030F83DFF
:100AC0000130F3020030F43B7908860003308700E0
:100AD000010803196C2D6D2D8C2D77088400780882
:100AE000850012000319752D762D8C2D7308740462
:100AF00003197B2D7C2D8C2D7708840078088500C8
:100B00000008F500790886000330870001087506A3
:100B100003198B2D8C2D582D790886000330870002
:100B2000770884007808850000080102F100F201CE
:100B3000031CF2030800F40043019A1AA02DA12D12
:100B4000ED2D7408F100F201F135F20DF135F20DE1
:100B50003330710784001830723D803885000008FA
:100B600099007408F100F201F135F20DF135F20D42
:100B70003230710784001830723D803885000008DB
:100B80009A009B017408F100F201F135F20DF13584
:100B9000F20D3430710784001830723D80388500C2
:100BA000000897007408F100F201F135F20DF135FB
:100BB000F20D3530710784001830723D80388500A1
:100BC0000008F300F30D400114087306FD397306A5
:100BD000940043019A160130EE2D00300800953143
:100BE000D9258531003A0319F62DF72D252E042E2F
:100BF0009531A2258531412E9531A7258531412E8C
:100C00009531B1258531412E41012F08F80006307C
:100C1000A03E86008701413F8A00403F0A0086319E
:100C2000F900FA017A08003A0319172E002E790804
:100C3000013A0319002E033A0319F82D013A03195A
:100C4000FC2D073A0319002E002E41013C101730ED
:100C5000A03E86008701403F84008501810A00088C
:100C600095319825853101304101B8020030B93BFA
:100C700038083904031D3D2E3E2E402E0630412EED
:100C8000033008002030F1000230840090308500ED
:100C9000013F8A00003F0A0086313E30F1000230F9
:100CA000840090308500013F8A00003F0A008631B1
:100CB0003E30F1000230840090308500013F8A0010
:100CC000003F0A0086313E30F1000230840090304F
:100CD0008500013F8A00003F0A0086312030F10084
:100CE0000230840090308500013F8A00003F0A00F6
:100CF00086310D30F1000230840090308500013FD4
:100D00008A00003F0A0086310A30F1000230840078
:100D100090308500013F8A00003F0A0086310800BC
:100D20004001CD007A087B040319972E982EDB2E04
:100D30007B08F2007A08F10089314E218631720871
:100D40004001CC007108CB00CD2E7B08F2007A0860
:100D5000F1004C08F4004B08F3004D0885314225A2
:100D6000863171087204031DB62EB72EBA2E4001CB
:100D70004D08DC2E7A0884007B08850000084001BD
:100D8000C900CA014908F1004A08F2004D08013EB5
:100D90008931672186314001CD004D080319D12EDC
:100DA000D22EDB2E4D088600033087000108031D7C
:100DB000DA2EDB2EA52E003008006A308400903039
:100DC0008500013F8A00003F0A0086314001EE00A5
:100DD0003903031DEC2EED2E172F25306E06031D53
:100DE000F22EF32E052FB9013C0886000330870050
:100DF00081013E08EB007830840090308500013F8F
:100E00008A00003F0A008731262F3E083D073C023A
:100E100003180B2F0C2F262F3C0886000330870069
:100E20006E0881000130ED006D08BC07262F2530CB
:100E30006E06031D1C2F1D2F222FB901B90A3E0873
:100E4000BC00262FBA01BA0A6E08BB0040013A085E
:100E500008004001CE002A30D2000230D00000301D
:100E6000D10040014E088D31EF258731003A03193A
:100E70003A2F3B2F312FBC30F5001730F60052309F
:100E8000F7009631BB2687310130F1000030F200C7
:100E90004D3097313E2787310030F500F6000030A5
:100EA000F700F8009631C62687319531CA2587317B
:100EB0008831ED2087314001CF004F030319612FA6
:100EC000622F582F4F08031D662F672F682F722F30
:100ED000FF30D007FF30D13D50085104031D712F62
:100EE000722F312F5208080030304001CB003030D3
:100EF000CE003030CC00491E7E2F7F2F822F313024
:100F0000CD00842F3030CD0049080F39303ECB0062
:100F10004A1E8B2F8C2F8F2F3130CE00912F3030E7
:100F2000CE004A080F39303ECC007C304401A0008E
:100F30004F30A1002C30A20040014D084401A30015
:100F400040014B084401A4002C30A50040014E088C
:100F50004401A60040014C084401A7000D30A80040
:100F60000A30A9000A30F70020308C31F92487318B
:100F700083310F23873108004001D300400153081B
:100F80008D31EF258731003A0319C72FC82FBE2FA7
:100F9000CD30F5001730F6005430F7009631BB26FF
:100FA00087310130F1000030F2004D3097313E279B
:100FB00087310030F500F6000030F700F800963178
:100FC000C62687319531CA2587318831ED20873192
:100FD000013A0319EC2FED2FE52F40015508D00001
:100FE0005408CF005008CF00D0015408D200D101DE
:100FF0004F085104CD0050085204CE0008000800EC
:10100000F1007108430196004E010F1D08280928C0
:1010100004280F114301160808000230F1000030C7
:10102000F200780897313E2788310030F500F6004D
:10103000F7019631BB268831023008000130F100FB
:101040000030F200780897313E2788310030F500F3
:10105000F600F7019631BB2688310430080095313F
:10106000EB2588314001C900CA014908F6004A3021
:101070008D31572588314A30F700503083319F2316
:101080008831080095316E2588314001C900CA01B8
:101090004908F6004A308D31572588314A30F7002B
:1010A000463083319F238831080047304B019F0031
:1010B0000B309D00DC309C001D084001A1004B015D
:1010C0001C084001A0004E018C1290304B019E0084
:1010D000080011307D01C8001330C90015307E01B1
:1010E000A1001630A2004030430199009A0101305E
:1010F00097004001941043019A12080087280B3092
:10110000F3006230890B8228F30B82280032013011
:10111000F1020030F23B710A031D9228720A031D8E
:10112000922893287F2808004001E101663097311A
:101130003127883140016708FA006608F9006130FC
:1011400097314C2788316130F700543083319F2329
:1011500088310800F4007108F2007408F300730885
:1011600086008701F30A7208840003308500F20AC2
:101170000008C03F8908031DBE28BF28AF2808000B
:10118000F20072080319C528C628D428023071025B
:10119000031CCB28CC28D42872084001BE0071085B
:1011A000FF3EBD000130D528003008002430440146
:1011B000A0002430A1002430A2000330F70020302A
:1011C0008C31F92488312D30F3009830F40005304B
:1011D000F5008C31482488310800F101F10A410101
:1011E000BC18F328F42803293C11FF30B6009531D0
:1011F00050258831953156258831953153258831D0
:1012000041013B08F1007108080078088600870159
:10121000403FF100413FF2007808023E860087011E
:10122000010897313E2789310030F500F600F701BB
:101230009631BB2689310230080078088600870184
:10124000403FF100413FF2007808023E86008701EE
:10125000010897313E2789310030F500F600F7018B
:101260009631BB268931023008007C08543E860046
:10127000013087005401190881000130F000700826
:10128000FC0708307C02031C462947294829FC0139
:101290000130F00070084001B40708007208F50042
:1012A0007108F40057290130F1070030F23D710850
:1012B0008400720885001200031D5F2960295329EC
:1012C00074087102F1007508723BF2000800F30027
:1012D000730886000330870001087106031D712919
:1012E0007229742973087F297308860003308700E8
:1012F000F30A0108031D7D297E29682900300800B2
:101300009631B1268931963180268931883169201C
:1013100089318431E72489319631A7268931883192
:10132000552089318F31412789318F317F2789318C
:10133000080040012F08443E86000130870042012A
:10134000190881000130F00070084001AF07083033
:101350002F02031CAC29AD29AE29AF010130F000EA
:101360007008AD0708002D304401A0002D30A10009
:101370002D30A2000D30A3000A30A4000530F70084
:1013800020308C31F92489312830F3009830F40072
:101390000530F5008C314824893108008831D62089
:1013A00089311430F4000030F5007630840090303C
:1013B0008500013F8A00003F0A008931400123086F
:1013C000CA002208C9008731742789318931B321C5
:1013D0008931080040013A080319EF29F029F22960
:1013E0000130052A6E30840090308500013F8A006C
:1013F000003F0A008931003A0319FF29002A042A14
:101400008631DD268931052A003008004001251C7F
:101410000A2A0B2A212A461C0E2A0F2A212A4610A4
:10142000C8170130FB007B08A60702302602031C08
:101430001A2A1B2A212AC813883142208A314001E6
:10144000A6010800F5007508F600322A7608860025
:1014500087010030883100208A3181000130F4009A
:101460007408F6070130F2020030F33B720A031DE4
:101470003D2A730A031D3D2A3E2A262A0800400100
:10148000CB00CC01CC0A4101BC18472A482A5D2A6E
:10149000BC144001CC014B0803194F2A502A542A8E
:1014A0004101BA01BA0A572A02304101BA00953106
:1014B00059258A31973117278A3140014C08080095
:1014C0000830400136020318662A672A7F2A370847
:1014D000CD3E86008701010854019A000130F000DA
:1014E00070084001B70708303702031C782A792AB0
:1014F0007A2AB7010130F0007008B607812A4E0140
:10150000191308000830400130020318882A892A7C
:10151000A22A31084C3E86000130870001084201B2
:101520009A000130F00070084001B1070830310224
:10153000031C9B2A9C2A9D2AB1010130F0007008EF
:10154000B007A42A4E0119120800F3007308031D06
:10155000AA2AAB2AB72A5B30F1000230840090300F
:101560008500013F8A00003F0A008A31C72A7303C1
:10157000031DBB2ABC2AC72A5D30F100023084005B
:1015800090308500013F8A00003F0A008A31080040
:101590004001A51CCC2ACD2AEA2A1A100030853138
:1015A0009B258A31003A0319D62AD72AEA2A410113
:1015B000E1010430F2000030F300E2308A312222EF
:1015C0008A3140011A14E2308C3173248A3195310A
:1015D00071258A310800F400710872040319F12A98
:1015E000F22A012B7435A03E860087017108C03FA6
:1015F0007208C13F7408AC3E860087017308810001
:101600000E2B7435A03E860087014C30C03F15304C
:10161000C13F7408AC3E8600870181010800053097
:101620004001CD0018308731BC278B3140014E0876
:10163000E0004D08DF0060081F39DD005F08DE00B4
:101640005E08D800D9015D08DA00DB015A08DB002A
:10165000DA0158085A04DF0059085B04E00060080A
:10166000D7005F08D60008009531E5258B31400191
:10167000CC00C9014C08F60049308D3157258B311B
:101680004930F7004C3083319F238B319531D4257D
:101690008B31103E4001CC00C9014C08F6004930A6
:1016A0008D3157258B314930F7004C3083319F23E2
:1016B0008B3108004001360803195F2B602B5A2B31
:1016C0004E01191B642B652B692B710854019A007C
:1016D0007E2B191340013808CD3E86008701710822
:1016E00081000130F2007208B80708303802031C8C
:1016F0007A2B7B2B7C2BB8010130B6024E011917D7
:101700000800400134080319862B872B812B3508EC
:10171000C53E860087010108B3003508543E8600A7
:10172000013087000108F2000130F1007108B507AF
:1017300008303502031C9D2B9E2B9F2BB5014E01BB
:10174000991301304001B4024E0199177208080044
:1017500040012D080319AD2BAE2BA82B2E08BD3E42
:10176000860087010108AC002E08443E8600013047
:1017700087000108F2000130F1007108AE0708305F
:101780002E02031CC42BC52BC62BAE014E01991291
:1017900001304001AD024E01991672080800410166
:1017A0003C100230BB00DC2B9531AC258B31F62B85
:1017B0009531B1258B31F62B2E08F8000430A03E70
:1017C00086008701413F8A00403F0A008B31F900C3
:1017D000FA017A08003A0319EE2BD82B7908023A5D
:1017E0000319D42B013A0319D42BD82B080040013C
:1017F00030080319FC2BFD2BF72B4E01191A012C75
:10180000022C062C710842019A001C2C191240016E
:1018100032084C3E8600013087007108810001309B
:10182000F2007208B20708303202031C182C192C7F
:101830001A2CB2010130B0024E0119160800953180
:1018400050258C3141013C1C262C272C322C953103
:10185000D9258C31003A03192E2C2F2C322C0F3025
:101860004101BA0041013A084001C900CA01C93525
:10187000CA0D28304907840010304A3D8038850061
:10188000013F8A00003F0A008C314101BA00080084
:10189000F9016B2C6A30840090308500013F8A008A
:1018A000003F0A008C31F8007408F7007308F60056
:1018B00079087607840077080318770A85000008FE
:1018C00078060319642C652C672C0030722C0130CB
:1018D000F6007608F90775087902031C702C712C44
:1018E0004A2C013008004001D300C901D401D501C0
:1018F00040015308860087010108F60049308D3108
:1019000057258C310130FB007B084001D3070130A3
:10191000D4070030D53D5508803AFB0080307B026B
:10192000031D942C04305402031C972C982C782C03
:101930004930F7004B3083319F238C31080041013F
:10194000BC15AF2C9531AC258C31CB2C953168254D
:101950008C310330CB2C9531B1258C31CB2C2C081C
:10196000F80021088A0020080A008C31F900FA01E9
:101970007A08003A0319BD2CAB2C7908013A0319F7
:10198000AB2C033A0319A22C013A0319A22C073AF3
:101990000319A62CAB2C08003C30F1000230840067
:1019A00090308500013F8A00003F0A008C313C30B6
:1019B000F1000230840090308500013F8A00003F32
:1019C0000A008C313C30F1000230840090308500F8
:1019D000013F8A00003F0A008C312030F1000230C4
:1019E000840090308500013F8A00003F0A008C315E
:1019F0000800FA00F901202D6C3084009030850039
:101A0000013F8A00003F0A008D31003A0319092D79
:101A10000A2D202D79087A07F80078088600023010
:101A200087000108F6006830840090308500013F8F
:101A30008A00003F0A008D310130F8007808F9076C
:101A400077087902031C252D262DFC2C0800FB00AD
:101A50007B088D31EF258D31003A0319302D312D62
:101A6000282DAB30F5001730F6004E30F7009631D8
:101A7000BB268D310130F1000030F2004D3097313E
:101A80003E278D310030F500F6000030F700F800F9
:101A90009631C6268D319531CA258D318831ED209C
:101AA0008D31013A0319552D562D4E2D0800F800A1
:101AB0007808F100F20189314E218D317108F7006B
:101AC0007708F807780886008701760E0F3989199C
:101AD000F0380F39C23E84000130850000088100D3
:101AE0000130F7007708F807780886008701760844
:101AF0000F39C23E840001308500000881000130AA
:101B0000F7007708F8077808860087018101080048
:101B10003034313432343334343435343634373489
:101B2000383439344134423443344434453446340F
:101B300000343034313432343334343435343634A0
:101B400037343834393441344234433444344534FE
:101B50004634003430343134323433343434353470
:101B600036343734383439344134423443344434ED
:101B70004534463400344001CB01DF01D32D5F08EA
:101B8000223E840098300318013E85000008DE00E4
:101B90005E08F6004B308D3157258D310130400104
:101BA000C9004908DF072230F1009830F20089317E
:101BB0004E218D3140015F08C900CA0172084A02F6
:101BC000031DE42D71084902031CE72DE82DBF2DEC
:101BD0004B30F700563083319F238D310800F100E0
:101BE000F201F20A41013C19F62DF72D232E71085E
:101BF000B600BC103C153C100E30BA00F430B400F6
:101C00000130B500BC154C30A0001530A100AC016E
:101C10004C30A2001530A300AD014C30A4001530AB
:101C2000A500AE014C30A6001530A700AF014E3024
:101C3000A8001530A900B001953150258D3197319C
:101C400024278D31F2017208080011304001CD00C7
:101C5000CE0119308D3127258E3110304001CD0055
:101C60000830CE0019308D3127258E310F304001DC
:101C7000CD000330CE0019308D3127258E3116303E
:101C80004001CD008030CE0019308D3127258E31B6
:101C900019304001CD008030CE0019308D3127251C
:101CA0008E3116304001CD001930873129278E3111
:101CB0004001C70008004001E9006908F10049300F
:101CC0008831AA208E314001EA017A2E6A08493E05
:101CD000860087010108F100023084009030850001
:101CE000013F8A00003F0A008E310130F60076087D
:101CF0004001EA076908F100FF39031D0330F200D3
:101D000089314E218E3140016A08F600F7017208D0
:101D10007702031D8D2E71087602031C902E912EE2
:101D2000662E08007C08C53E8600870181015401AB
:101D30001D1D9B2E9C2EA72E7C08C53E860087016C
:101D4000811442016B088A006A080A008E3154012E
:101D50009D1CAB2EAC2EB72E7C08C53E860087019D
:101D60000115420169088A0068080A008E317C0862
:101D7000C53E8600870101080319BF2EC02EC72E5D
:101D8000420167088A0066080A008E31CA2E89312E
:101D900035218E3108008C31CC248E311730FA0079
:101DA0009830FB0040016B08863190268E31003A56
:101DB0000319DB2EDC2EE02E4001EC01BF01F72ED3
:101DC0000030FA009830FB0040016B088631902605
:101DD0008E31003A0319ED2EEE2EF42E4001EC0167
:101DE000EC0ABF01BF0AF72E02304001EC006B087D
:101DF0008E315B268E31863142268E3140016C0851
:101E00008A31A5228E31080040012F08BD3E860090
:101E10008701810142011D1D0E2F0F2F1B2F400135
:101E20002F08BD3E860087018114420161088A00A7
:101E300060080A008F3142019D1C1F2F202F2C2F7C
:101E400040012F08BD3E86008701011542015F0851
:101E50008A005E080A008F3140012F08BD3E8600CF
:101E6000870101080319352F362F3D2F42015D08E8
:101E70008A005C080A008F31402F893199218F3107
:101E800008004E0199120430F1000F30F200963133
:101E900003268F314E0119128230F1000A30F20010
:101EA000963109268F31083042019F0090309D0005
:101EB00024309E0040309B0003309C004A30F100EB
:101EC0001530F2009531F7258F317830F10015305B
:101ED000F2009531FD258F317430F1001530F2009C
:101EE0009531F1258F314001AC01B201B1010830CB
:101EF000B000AF01AE01AD014E01991608004E01D0
:101F000099139230F1000E30F200963121268F3174
:101F10004E0119136030F1000A30F2009631272685
:101F20008F31083054019F0090309D0024309E0076
:101F300040309B0003309C004B30F1001530F20024
:101F4000963115268F318030F1001530F200963130
:101F50001B268F317C30F1001530F20096310F26B0
:101F60008F314001B301B801B7010830B600FC0160
:101F7000B501B4014E0199170800410137088600E8
:101F80008701953165258F3181000130F90079088D
:101F90004101B7070130B8020030B93B38083904B5
:101FA0000319D32FD42FD92F95318C258F3105309C
:101FB000FF2FBC15E32F9531C0258F31FF2F9531B1
:101FC000BB258F31FF2F2C08F80021088A0020083C
:101FD0000A008F31F900FA017A08003A0319F12F4B
:101FE000DF2F7908013A0319DF2F033A0319DB2F9A
:101FF000013A0319DB2F073A0319DF2FDF2F0800FF
:10200000A8340B34F7340B340034003477341634EE
:102010000934163404340F3403341634943415342C
:1020200082340A3441340F3481340B345A340B3443
:10203000003400346E3416342734163492340E349F
:10204000213416349034153460340A347F340F341C
:102050009D3415345C3416344C341634EF34053466
:10206000BD340F34453416349F340C34A234153447
:10207000A7341534AC341534B1341534B6341534B2
:10208000BB341534C0341534C5341534CF340B3457
:1020900000340034003400340034003400340034A0
:1020A0000034003400340034003400340034003490
:1020B0000034003400340034003400340034003480
:1020C0000034003400340034003400340034003470
:1020D000E734163489341634933416349D34163468
:1020E000D1341634DC341634F33416345434163404
:0420F000CB340E34AB
:102A94000800080001300800053008004E010F103E
:102AA40008004301901208004E0119100800430168
:102AB4001114080043019114080043011115080082
:102AC40043019115080043010C0808004E010F143E
:102AD400080040013F08080040014808080043017D
:102AE4009A120800893199219531080042011D127A
:102AF4001D160800893135219531080054011D1235
:102B04001D1608004001A701A70A080043019116F9
:102B140011160800430191121116080054011E0CED
:102B24000139080042011E0C01390800F100710846
:102B340043018C0008004101BC10BB010E300800A9
:102B440095315C2595310130080095315C2595312E
:102B54000230080095315C2595310130080095312B
:102B64005F2595310030080095318C25953105306D
:102B740008009531882595310A300800953188255B
:102B84009531093008004101BC10BB010E3008002A
:102B940000308A313F22953108004001C3144314A8
:102BA40043160800400123080139013C0800430191
:102BB400110E890C890C013908004E010F1CE32DFC
:102BC400E42DDF2D080040010C0E890C0139013C75
:102BD400080040010C0D0C0D0139013C080072087D
:102BE4004201DD007108DC00080072084201E100C6
:102BF4007108E000080072084201DF007108DE007D
:102C0400080072084201E3007108E200080072083B
:102C14004201E5007108E400080072084201E7007F
:102C24007108E600080072084201EB007108EA002E
:102C3400080072084201E9007108E80008007208FF
:102C44004101EB007108EA00080072084101ED003F
:102C54007108EC00080072084101E9007108E800FD
:102C6400080072084101E7007108E60008006400EA
:102C740080010131890B3A2E0034FE0012001E003F
:102C8400FE0B402E003441013C10953162259631F3
:102C94000430080041013C143635953198259631AD
:102CA400033008007508F2007408F10088317E20B2
:102CB4009631080041013C140314360D95319825D2
:102CC40096310530080001304001A2000130A30014
:102CD4009531CF259631080040013408031D732E29
:102CE400752E0130762E0030080040012D08031D9A
:102CF4007C2E7E2E01307F2E0030080043018F0190
:102D04000830900091014F308D009012080014306B
:102D1400840090308500013F8A00003F0A0096310C
:102D240008002230840090308500013F8A00003F73
:102D34000A00963108001A30840090308500013F63
:102D44008A00003F0A0096310800603051018D006E
:102D54008F019101063093009001920108004F0108
:102D640096019701980199019A019B019C019D018B
:102D740008007608F2007508F1007708F3000030C7
:102D84008A31EB22963108007608F2007508F100CA
:102D94007708F30002308A31EB2296310800710380
:102DA400031DD52ED62ED92E40011A13DB2E400139
:102DB4001A1708007103031DE02EE12EE42E4001D2
:102DC4001810E62E4001181408007608F100163099
:102DD400840090308500013F8A00003F0A0096314C
:102DE4000800400192137103031DF92EFA2EFC2EE4
:102DF4009817FD2E9813921708008931EA2196310D
:102E0400003A0319062F072FFF2E4001BA013B0891
:102E140008004001251E0F2F102F162F2703031D16
:102E2400142F152F162FA70108001E2F9531DF250B
:102E340097318C311F2497314101BC18222F232F45
:102E4400182F08004301901A282F292F302F8F01A3
:102E54000830900091014F308D0090160800FB005F
:102E64008B310F2397317B08860087014001560878
:102E7400C03F5708C13F0800F3004101BC1D432F68
:102E8400442F4B2F7308B7007208B9007108B800BB
:102E9400BC110800FB007908F6007B088D3157252A
:102EA40097317A08F6007B088D3157259731080051
:102EB4004101660867040319602F612F662F6708B4
:102EC4008A0066080A0097317E01BF13080040019A
:102ED400CF000130FB004F08FB0223087B06FE39BC
:102EE4007B06A3008931CE219731080040014614A6
:102EF4004101680869040319802F812F862F69080E
:102F04008A0068080A0097317E013F1308007E0199
:102F14003F1F8D2F8E2F912F9731782797317E0168
:102F2400BF1F952F962F992F97315A279731080055
:102F34000230F1000030F200780897313E279731D3
:102F44000030F500F600F7019631BB2697310430C6
:102F540008000130F1000030F200780897313E2774
:102F640097310030F500F600F7019631BB26973112
:102F7400043008000130F1000030F2007808973185
:102F84003E2797310030F500F600F7019631BB2655
:102F94009731023008000230F1000030F200780866
:102FA40097313E2797310030F500F600F70196314E
:102FB400BB269731023008000230F1000030F200E5
:102FC400780897313E2797310030F500F600F70175
:102FD4009631BB269731043008000130F1000030EF
:102FE400F200780897313E2797310030F500F6005B
:102FF400F7019631BB26973102300800533454341C
:103004005234453441344D345F344F3450344534B4
:103014004E3400345234653462346F346F34743453
:1030240069346E3467340D340A34443449345334C7
:1030340043344F344E344E344534433454340034E2
:1030440031342E3431342E343034003445344E345B
:1030540044340D340A3443344D3444343E3420343F
:103064000034403401340034223498342234983407
:020000040001F9
:08000000FF3FFF3FFF3FFF3F00
:0A000E00EC3FFF3F9F3FFF3FFF3F25
:00000001FF
