:1000000080315528303430347E1480314E01161E34
:100010000A280B2813280C1E0E280F2813289F319E
:100020009627803153280B1F162817285328191F8D
:100030001A281B2826280F1F1E281F2826284101A2
:100040006F088A006E080A0080315328991F2928FA
:100050002A2835288F1F2D282E28352841016D0884
:100060008A006C080A0080315328191E3828392864
:1000700044280F1E3C283D284428420166088A0077
:1000800065080A0080315328991E472848285328BC
:100090008F1E4B284C285328420164088A006308AD
:1000A0000A00803153287E100900803157288031A2
:1000B00002208031EE00803103208031EF00E430F7
:1000C0008400903085004C3086000130870011306C
:1000D0009F3172278031FC014A3084000030850056
:1000E00024309F316C278031A0308400003085009F
:1000F0004A309F316C2780312030840001308500E8
:100100002C309F316C278031A03084000130850075
:1001100040309F316C2780312030840002308500D0
:1001200050309F316C278031A03084000230850030
:1001300050309F316C27803120308400033085009F
:1001400050309F316C2780317E1040018431BD2CAE
:100150004001B50002309031302080314001B300C1
:10016000B4013308B6003408B7003508031DB928B8
:10017000BA28ED283708F2003608F1000430F30001
:10018000F40194318A24803140013708F2003608A6
:10019000F1000530F300F40194318A2480314001EC
:1001A0003708F2003608F1000630F300F40194310C
:1001B0008A24803140013708F2003608F100073008
:1001C000F300F40194318A24803140013608A600FE
:1001D0000230903125208031732B3503031DF12827
:1001E000F22826293708F2003608F1000430F3001F
:1001F000F401F40A94318A24803140013708F20076
:100200003608F1000530F300F40194318A2480317E
:1002100040013708F2003608F1000630F300F4011F
:1002200094318A24803140013708F2003608F10009
:100230000730F300F40194318A24803140013608FC
:10024000A6000230903125208031732B0230350614
:10025000031D2B292C2960293708F2003608F100EC
:100260000430F300F40194318A24803140013708CE
:10027000F2003608F1000530F300F401F40A94317D
:100280008A24803140013708F2003608F100063038
:10029000F300F40194318A24803140013708F200E0
:1002A0003608F1000730F300F40194318A248031DC
:1002B00040013608A6000230903125208031732B92
:1002C00003303506031D652966299B293708F2008E
:1002D0003608F1000430F300F401F40A94318A2462
:1002E000803140013708F2003608F1000530F30094
:1002F000F401F40A94318A24803140013708F20075
:100300003608F1000630F300F40194318A2480317C
:1003100040013708F2003608F1000730F300F4011D
:1003200094318A24803140013608A6000230903191
:1003300025208031732B04303506031DA029A12907
:10034000D5293708F2003608F1000430F300F40133
:1003500094318A24803140013708F2003608F100D8
:100360000530F300F40194318A24803140013708CC
:10037000F2003608F1000630F300F401F40A94317B
:100380008A24803140013708F2003608F100073036
:10039000F300F40194318A24803140013608A6002C
:1003A0000230903125208031732B05303506031D36
:1003B000DA29DB29102A3708F2003608F100043068
:1003C000F300F401F40A94318A24803140013708A3
:1003D000F2003608F1000530F300F40194318A246C
:1003E000803140013708F2003608F1000630F30092
:1003F000F401F40A94318A24803140013708F20074
:100400003608F1000730F300F40194318A2480317A
:1004100040013608A6000230903125208031732B30
:1004200006303506031D152A162A4B2A3708F20016
:100430003608F1000430F300F40194318A2480314D
:1004400040013708F2003608F1000530F300F401EE
:10045000F40A94318A24803140013708F2003608CA
:10046000F1000630F300F401F40A94318A2480315B
:1004700040013708F2003608F1000730F300F401BC
:1004800094318A24803140013608A6000230903130
:1004900025208031732B07303506031D502A512A41
:1004A000872A3708F2003608F1000430F300F4011F
:1004B000F40A94318A24803140013708F20036086A
:1004C000F1000530F300F401F40A94318A248031FC
:1004D00040013708F2003608F1000630F300F4015D
:1004E000F40A94318A24803140013708F20036083A
:1004F000F1000730F300F40194318A248031400187
:100500003608A6000230903125208031732B083048
:100510003506031D8C2A8D2AC12A3708F2003608B9
:10052000F1000430F300F40194318A248031400159
:100530003708F2003608F1000530F300F401943179
:100540008A24803140013708F2003608F100063075
:10055000F300F40194318A24803140013708F2001D
:100560003608F1000730F300F401F40A94318A24CC
:10057000803140013608A6000230903125208031BC
:10058000732B09303506031DC62AC72AFC2A3708F3
:10059000F2003608F1000430F300F401F40A94315B
:1005A0008A24803140013708F2003608F100053016
:1005B000F300F40194318A24803140013708F200BD
:1005C0003608F1000630F300F40194318A248031BA
:1005D00040013708F2003608F1000730F300F4015B
:1005E000F40A94318A24803140013608A600023092
:1005F000903125208031732B0A303506031D012BE5
:10060000022B372B3708F2003608F1000430F300D4
:10061000F40194318A24803140013708F200360811
:10062000F1000530F300F401F40A94318A2480319A
:1006300040013708F2003608F1000630F300F401FB
:1006400094318A24803140013708F2003608F100E5
:100650000730F300F401F40A94318A248031400118
:100660003608A6000230903125208031732B0B30E4
:100670003506031D3C2B3D2B732B3708F200360843
:10068000F1000430F300F401F40A94318A2480313B
:1006900040013708F2003608F1000530F300F4019C
:1006A000F40A94318A24803140013708F200360878
:1006B000F1000630F300F40194318A2480314001C6
:1006C0003708F2003608F1000730F300F401F40AAD
:1006D00094318A24803140013608A60002309031DE
:1006E00025208031732B8D31912580310800023017
:1006F0009031302083314001AE002E08AC00AD01B6
:100700002C08F1002D08F2000430F300943121246C
:1007100083314001AF002E08AC00AD012C08F10080
:100720002D08F2000530F30094312124833140017B
:10073000B0002E08AC00AD012C08F1002D08F2002D
:100740000630F3009431212483314001B1002E089A
:10075000AC00AD012C08F1002D08F2000730F300C9
:100760009431212483314001B2002F08031DB92B9D
:10077000BA2BCB2B3008031DBE2BBF2BCB2B310844
:10078000031DC32BC42BCB2B3208031DC82BC92B35
:10079000CB2B0030BC2C2F03031DCF2BD02BE12BF8
:1007A0003008031DD42BD52BE12B3108031DD92B89
:1007B000DA2BE12B3208031DDE2BDF2BE12B01307E
:1007C000BC2C2F08031DE52BE62BF72B3003031D54
:1007D000EA2BEB2BF72B3108031DEF2BF02BF72B1C
:1007E0003208031DF42BF52BF72B0230BC2C2F0302
:1007F000031DFB2BFC2B0D2C3003031D002C012CA7
:100800000D2C3108031D052C062C0D2C3208031D60
:100810000A2C0B2C0D2C0330BC2C2F08031D112C83
:10082000122C232C3008031D162C172C232C3103DB
:10083000031D1B2C1C2C232C3208031D202C212CC7
:10084000232C0430BC2C2F03031D272C282C392CDF
:100850003008031D2C2C2D2C392C3103031D312C79
:10086000322C392C3208031D362C372C392C05300C
:10087000BC2C2F08031D3D2C3E2C4F2C3003031D98
:10088000422C432C4F2C3103031D472C482C4F2C5A
:100890003208031D4C2C4D2C4F2C0630BC2C2F0342
:1008A000031D532C542C652C3003031D582C592C3C
:1008B000652C3103031D5D2C5E2C652C3208031D55
:1008C000622C632C652C0730BC2C2F08031D692C6F
:1008D0006A2C7B2C3008031D6E2C6F2C7B2C31086E
:1008E000031D732C742C7B2C3203031D782C792C64
:1008F0007B2C0830BC2C2F03031D7F2C802C912CCB
:100900003008031D842C852C912C3108031D892C63
:100910008A2C912C3203031D8E2C8F2C912C0930A4
:10092000BC2C2F08031D952C962CA72C3003031DDF
:100930009A2C9B2CA72C3108031D9F2CA02CA72C94
:100940003203031DA42CA52CA72C0A30BC2C2F038A
:10095000031DAB2CAC2CC92B3003031DB02CB12CC8
:10096000C92B3108031DB52CB62CC92B3203031D2E
:10097000BA2CBB2CC92B0B30080092311E228431BB
:100980002030F1000330F2005030F30092317A222F
:1009900084318B170B178731A12784319F3118279A
:1009A00084318B31FA2384319E31AC268431013A73
:1009B000031DDB2CDC2C632D9F3107278431013A8A
:1009C000031DE32CE42CFC2C4E018C1292310822E6
:1009D00084319631A126843191318D218431943135
:1009E000AE248431973161278431D42C9031542046
:1009F0008431853190258431933165238431003AE7
:100A0000031D032D042DF62C442D00308400983056
:100A10008500013F8A00003F0A0085314001C9007E
:100A20005608203E8600023087004908810056089B
:100A3000203E8600023087000D3001060319212D6B
:100A4000222D332D5608203E8600023087000A30C2
:100A5000010603192C2D2D2D332D4F305606031D65
:100A6000322D332D402D5608203E8600023087005F
:100A70008101203086315C2684314001D601442D2D
:100A80000130C9004908D607063084009830850037
:100A9000013F8A00003F0A008531003A031D512DB5
:100AA000522D052DD42C9031542084314201ED007B
:100AB0006D08F1000230840098308500013F8A0003
:100AC000003F0A008531933165238431003A031DCC
:100AD0006A2D6B2D532D7F2D0030840098308500BA
:100AE000013F8A00003F0A008531F600683084002B
:100AF00098308500013F8A00003F0A0085310630AA
:100B0000840098308500013F8A00003F0A0085314B
:100B1000003A031D8C2D8D2D6C2DD42C8031552841
:100B20004001B3003C2E0230EB005B2E3308E9009D
:100B30000330EB005B2E3A303302031CA02DA12DB5
:100B4000AA2D33085F39C93EAD00FF3003180030CD
:100B5000AE00B12D3308D03EAD00FF300318003099
:100B6000AE002D08EA000430EB005B2E3A30330271
:100B7000031CBB2DBC2DC52D33085F39C93EAF000A
:100B8000FF3003180030B000CC2D3308D03EAF004A
:100B9000FF3003180030B0006A08AB000330AB35FB
:100BA000FF3E031DCF2D2B352F07EA000530EB004C
:100BB0005B2E3A303302031CDE2DDF2DE82D330887
:100BC0005F39C93ED200FF3003180030D300EF2D4B
:100BD0003308D03ED200FF3003180030D30001307C
:100BE000EA026A08031DF52DF62DF82DEB015B2EA8
:100BF0000630EB005B2E3A303302031C002E012E30
:100C00000A2E33085F39C93EB100FF3003180030A7
:100C1000B200112E3308D03EB100FF30031800306F
:100C2000B2005308AC005208AB00AB0EAC0EF03073
:100C3000AC052B080F39AC04F030AB0531082B079D
:100C4000D20032082C3DD3005208A7006908883131
:100C50001720853101304001EA026A08031D312E58
:100C6000322ED62DF62D5B303306031D382E392E4D
:100C70005B2EEB01EB0A5B2E6B08AB00AC012C0882
:100C8000003A0319442E332E2B08003A0319332E51
:100C9000013A0319932D033A0319962D013A0319CA
:100CA0009B2D073A0319B62D013A0319D92D033AA2
:100CB0000319FB2D332E0800F9007908F1000230EA
:100CC000F20092319222863171080907F8005B30F8
:100CD000F6006830840098308500013F8A00003FAC
:100CE0000A00863140016C080F394C3E8600013005
:100CF00087000108F6006830840098308500013FC5
:100D00008A00003F0A0086310130F7007708400171
:100D1000EC075330F6006830840098308500013FBE
:100D20008A00003F0A0086317808F7000430F73661
:100D3000890B972E77080F394C3E860001308700CB
:100D40000108F6006830840098308500013F8A0071
:100D5000003F0A00863178080F394C3E860001308A
:100D600087000108F6006830840098308500013F54
:100D70008A00003F0A008631F12E79088600023091
:100D800087000108F7000430F736890BC42E770876
:100D90000F394C3E8600013087000108F6006830AC
:100DA000840098308500013F8A00003F0A008631A8
:100DB000790886000230870001080F394C3E860012
:100DC000013087000108F600683084009830850003
:100DD000013F8A00003F0A0086310130F7007708A2
:100DE000F90779088600023087000108031DF92EF3
:100DF000FA2EBD2E5D30F6006830840098308500F4
:100E0000013F8A00003F0A00873108004001B50019
:100E100001309031302087314001B300B4013308F4
:100E2000B6003408B7003508031D172F182F342FCC
:100E30003708F2003608F100F301F40194318A24F6
:100E4000873140013708F2003608F100F301F30A58
:100E5000F40194318A24873140013608A60001301C
:100E60009031252087319D2F3503031D382F392FD1
:100E7000562F3708F2003608F100F301F401F40AA6
:100E800094318A24873140013708F2003608F10096
:100E9000F301F30AF40194318A24873140013608C2
:100EA000A60001309031252087319D2F0230350674
:100EB000031D5B2F5C2F792F3708F2003608F100F5
:100EC000F301F40194318A24873140013708F2009C
:100ED0003608F100F301F30AF401F40A94318A248C
:100EE000873140013608A600013090312520873136
:100EF0009D2F03303506031D7E2F7F2F9D2F370832
:100F0000F2003608F100F301F401F40A94318A2466
:100F1000873140013708F2003608F100F301F30A87
:100F2000F401F40A94318A24873140013608A6007E
:100F300001309031252087319D2F8D3191258731CA
:100F40000800F101F10A7430840098308500013FF7
:100F50008A00003F0A008731F101F10A72308400F3
:100F600098308500013F8A00003F0A008731013038
:100F7000F4000030F5007630840098308500013FA1
:100F80008A00003F0A008731F101723084009830F6
:100F90008500013F8A00003F0A008731F101F10A14
:100FA0007030840098308500013F8A00003F0A00BD
:100FB0008731C830F4000030F50076308400983076
:100FC0008500013F8A00003F0A008731F02F6A3018
:100FD000840098308500013F8A00003F0A00873175
:100FE0006E30840098308500013F8A00003F0A007F
:100FF0008731003A031DFD2FFE2FE72F0800080060
:1010000024304301A0002430A1002430A20003308A
:10101000F700A0309631CF2688310B30F300A03096
:10102000F4000530F5009531C025883108004001F5
:10103000A90046282708A8000430A836890B1D28D7
:1010400028080139AA002A08031D27282828302843
:1010500027182B282C282E2898164E2898124E2810
:101060002718332835280130362800309031B32036
:1010700088314E282708F10002308400983085001E
:10108000013F8A00003F0A0088314E2829084C3A67
:1010900003191A281F3A03193A284E2808007C0819
:1010A000CE3E86008701810154011D1D5828592814
:1010B00064287C08CE3E86008701811442016C08BA
:1010C0008A006B080A00883154019D1C6828692831
:1010D00074287C08CE3E86008701011542016A080B
:1010E0008A0069080A0088317C08CE3E86008701A4
:1010F000010803197C287D288428420168088A0099
:1011000067080A008831872892314A22883108000E
:1011100040015A08BE3E86008701810142011D1D23
:10112000922893289F2840015A08BE3E86008701D6
:101130008114420162088A0061080A008831420174
:101140009D1CA328A428B02840015A08BE3E860052
:1011500087010115420160088A005F080A00883192
:1011600040015A08BE3E8600870101080319B928CC
:10117000BA28C12842015E088A005D080A00883149
:10118000C4289231C422883108004001B5000730DC
:101190009031302088314001B300B4013308B600EB
:1011A0003408B7003508031DD628D728E8283708A3
:1011B000F2003608F100F301F40194318A248831F9
:1011C00040013608A6000730903125208831FE28DE
:1011D0003503031DEC28ED28FE283708F2003608F9
:1011E000F100F301F401F40A94318A2488314001BA
:1011F0003608A60007309031252088318D319125A1
:10120000883108004001B500033090313020893129
:101210004001B300B4013308B6003408B700350804
:10122000031D1329142925293708F2003608F10077
:10123000F301F40194318A24893140013608A60073
:1012400003309031252089313B293503031D29299D
:101250002A293B293708F2003608F100F301F4018E
:10126000F40A94318A24893140013608A6000330FB
:101270009031252089318D319125893108004E0129
:1012800099128830F1000830F2009F313C278931F3
:101290004E011912FF30F1001330F2009F31422746
:1012A0008931083042019F0090309D0024309E001B
:1012B00040309B0003309C008B30F1001E30F20068
:1012C0009F3130278931B330F1001E30F2009F3159
:1012D00036278931AF30F1001E30F2009F312A27C6
:1012E00089314001D701DD01DC010830DB00DA0182
:1012F000D901D8014E01991608004E0199134F30BB
:10130000F1000830F2009F315A2789314E0119133C
:10131000DD30F1001330F2009F3160278931083051
:1013200054019F0090309D0024309E0040309B006F
:1013300003309C008C30F1001E30F2009F314E27AC
:101340008931BB30F1001E30F2009F3154278931C2
:10135000B730F1001E30F2009F314827893140013B
:10136000DE01E301E2010830E100FC01E001DF0100
:101370004E01991708004001B5000330903130202C
:1013800089314001B300B4013308B6003408B70016
:101390003508031DCC29CD29DF293708F20036088E
:1013A000F100F301F30AF40194318A2489314001F8
:1013B0003608A6000330903125208931F6293503FF
:1013C000031DE329E429F6293708F2003608F10065
:1013D000F301F30AF401F40A94318A2489314001BB
:1013E0003608A60003309031252089318D319125B2
:1013F0008931080096311826893140014208F900E8
:101400004108F8009130FA009830FB008D31E52555
:1014100089317808790403190E2A0F2A132A40010A
:10142000C301E8012E2A40014208F9004108F800F2
:101430007A30FA009830FB008D31E5258931780843
:1014400079040319242A252A2B2A4001C301C30A3F
:10145000E801E80A2E2A02304001C3004208F800E1
:101460004108F7009731952789318B31AC238931B9
:101470004001430894314324893108004001AA0007
:1014800040012A089731CA278A31003A0319492AAC
:101490004A2A402A2E30F5001130F6002B30F70092
:1014A0009F31F5278A312430F1000030F2000130FD
:1014B000F3000030F4009031A4208A310030F500B0
:1014C000F6000030F700F800903104208A319E3198
:1014D000FD268A31923162228A31013A0319712A3A
:1014E000722A6A2A40012C08A7002B08A6002708A8
:1014F000A600A7012B08A900A80126082804A4001B
:1015000027082904A500080030304001A20030302F
:10151000A5003030A300201E8E2A8F2A922A313057
:10152000A400942A3030A40020080F39303EA200D5
:10153000211E9B2A9C2A9F2A3130A500A12A3030E7
:10154000A50021080F39303EA3007C304301A000E4
:101550004F30A1002C30A200400124084301A30019
:10156000400122084301A4002C30A50040012508B9
:101570004301A600400123084301A7000D30A80045
:101580000A30A9000A30F700A0309631CF268A3100
:101590008E31EC268A3108009E31A6268A31F90068
:1015A0001730A03E86008701403F8400413F850000
:1015B0007908800001304101B7070030B83D0130A3
:1015C000B9020030BA3B39083A040319E82AE92A7B
:1015D000EE2A9E31C3268A310530142BBD15F82A18
:1015E0009E31F3268A31142B9E31EE268A31142B3C
:1015F0002C08F80021088A0020080A008A31F90026
:10160000FA017A08003A0319062BF42A7908013AFC
:101610000319F42A033A0319F02A013A0319F02AAC
:10162000073A0319F42AF42A080040019C013130DA
:1016300098009901C1309A0008309600DE3092007F
:10164000EF309300253094007E01CE01C930C300F5
:101650000E30B800E501C401B901CF01E601BA01BD
:10166000C501D001FF30BB00FF30C600FF30D10004
:101670003F30BC003F30C7003F30D2003F133E1325
:101680003D17FF30F1000730F2009F3166278B31A4
:101690004E01161609307D01C50013307E019900F8
:1016A00014309A002530A4000F309C0015307D01C5
:1016B000CD000A30C6000D30CB0008004001A50067
:1016C0002A30A9000230A7000030A80040012508F8
:1016D0009731CA278B31003A03196F2B702B662B79
:1016E0001B30F5001130F6002930F7009F31F52747
:1016F0008B312430F1000030F2000130F300003073
:10170000F4009031A4208B310030F500F600003059
:10171000F700F800903104208B319E31FD268B318B
:10172000923162228B314001A60026030319992BC6
:101730009A2B902B2608031D9E2B9F2BA02BAA2BA8
:10174000FF30A707FF30A83D27082804031DA92B59
:10175000AA2B662B290808002030F10002308400F3
:1017600098308500013F8A00003F0A008B313E30EF
:10177000F1000230840098308500013F8A00003F6C
:101780000A008B313E30F100023084009830850031
:10179000013F8A00003F0A008B313E30F1000230E9
:1017A000840098308500013F8A00003F0A008B3199
:1017B0002030F1000230840098308500013F8A001B
:1017C000003F0A008B310D30F10002308400983068
:1017D0008500013F8A00003F0A008B310A30F1008A
:1017E0000230840098308500013F8A00003F0A00E3
:1017F0008B3108009131DD218B31003A0319012C26
:10180000022C032C472C07308031A8208B3101306B
:101810008831C5208B310230873106278B3101306A
:101820008931BB218B310130893102218B318D31DE
:1018300091258B31003A03191E2C1F2C202C472C8C
:10184000923134228B31003A0319272C282C292C71
:10185000472C8C31EA248B31023A0319302C312C7D
:10186000322C472C833177238B31073A0319392CDB
:101870003A2C3B2C472C9131C8218B31013A03196A
:10188000422C432C442C472C8D313D258B310800B4
:101890004001B300B2011330903130208C3140014F
:1018A000B1001230903130208C314001B20032084A
:1018B000B00008300310B01B0314B00C890B5A2C75
:1018C00030083104B400B501B41BB50333088600F9
:1018D00087013408C03F3508C13F9031C2208C31A8
:1018E000003A0319742C752C6D2C34309631452632
:1018F0008C3140013308023E860087013408C03F26
:101900003508C13F9031D3208C31003A0319892C1E
:101910008A2C822C3430963173268C314001330866
:10192000043E860087013408C03F3508C13F0800E7
:101930000130F5020030F63B750A031DA32C760A30
:10194000031DA32CA42CB32CF101F201E92C0130CE
:10195000F1070030F23D0130F3070030F43D013073
:10196000F5020030F63B7108860072088700010816
:101970000319BB2CBC2CDB2C730884007408850075
:1019800012000319C42CC52CDB2C7508760403192E
:10199000CA2CCB2CDB2C730884007408850000084B
:1019A000F70071088600720887000108770603199E
:1019B000DA2CDB2CA72C71088600720887007308CC
:1019C00084007408850000080102F100F201031C84
:1019D000F20308000130903130208C314001AE001C
:1019E0002E08AC00AD012C08F1002D08F200F30127
:1019F000943121248C314001AF002E08AC00AD01A0
:101A00002C08F1002D08F200F301F30A943121248F
:101A10008C314001B0002F08031D0F2D102D172D04
:101A20003008031D142D152D172D00303C2D2F03CC
:101A3000031D1B2D1C2D232D3008031D202D212DB2
:101A4000232D01303C2D2F08031D272D282D2F2D50
:101A50003003031D2C2D2D2D2F2D02303C2D2F0357
:101A6000031D332D342D3B2D3003031D382D392D0F
:101A70003B2D03303C2D152D0800033090313020D4
:101A80008D314001AE002E08AC00AD012C08F100F4
:101A90002D08F2000230F300943121248D314001F1
:101AA000AF002E08AC00AD012C08F1002D08F200AB
:101AB0000330F300943121248D314001B0002F0810
:101AC000031D632D642D6B2D3008031D682D692DBA
:101AD0006B2D0030902D2F03031D6F2D702D772D52
:101AE0003008031D742D752D772D0130902D2F0892
:101AF000031D7B2D7C2D832D3003031D802D812D17
:101B0000832D0230902D2F03031D872D882D8F2DBF
:101B10003003031D8C2D8D2D8F2D0330902D692DBD
:101B200008009F317F278D314001B2003208AC00A0
:101B3000AD012C08F1002D08F200F30194312124AD
:101B40008D314001AE003208AC00AD012C08F1002F
:101B50002D08F200F301F30A943121248D31400164
:101B6000AF003208AC00AD012C08F1002D08F200E6
:101B70000230F300943121248D314001B00032084D
:101B8000AC00AD012C08F1002D08F2000330F30089
:101B9000943121248D314001B1002E080319D12D3B
:101BA000D22DE32D2F080319D62DD72DE32D300884
:101BB0000319DB2DDC2DE32D31080319E02DE12D78
:101BC000E32DFF30E42D003008007A087B04031970
:101BD000EA2DEB2D372E7B08F2007A08F1009231C6
:101BE00092228D3172084001A3007108A200282EB4
:101BF0007908F2007808F1007B08F4007A08F30015
:101C000040012308F6002208F5008C3198248D311C
:101C100071087204031D0D2E0E2E0F2E392E78081A
:101C2000013EF1000030793DF2007A0884007B0823
:101C3000850000084001A000A1012008F300210850
:101C4000F40093319E238D317208F9007108F80079
:101C50007808790403192D2E2E2E372E7808860049
:101C6000790887000108031D362E372EF82DF8015C
:101C7000F90108009F310C278E31003A0319412EDB
:101C8000422E702E4F2E9E31D5268E318F2E9E31B4
:101C9000DA268E318F2E9E31E4268E318F2E410131
:101CA0002F08F8000630A03E86008701413F8A00D9
:101CB000403F0A008E31F900FA017A08003A031910
:101CC000622E4B2E7908013A03194B2E033A031961
:101CD000432E013A0319472E073A03194B2E4B2E78
:101CE00041013D103808FA003708F900B70A031916
:101CF000B80A790886007A08870001089E31CB2649
:101D00008E3101304101B9020030BA3B39083A0442
:101D1000031D8B2E8C2E8E2E06308F2E0330080046
:101D20006A30840098308500013F8A00003F0A0035
:101D30008E314001C8006403031D9F2EA02ED82EB3
:101D400025304806031DA52EA62EBA2EE4014C0808
:101D500086004D08870081014F08C2004E08C1006F
:101D60007830840098308500013F8A00003F0A00E7
:101D70008E31E92E6708C400C50144084E07C6002D
:101D800045084F3DC70047084D02031DC92E4608B0
:101D90004C020318CC2ECD2EE92E4C0886004D089F
:101DA0008700480881000130CC070030CD3DE92E86
:101DB00025304806031DDD2EDE2EE52EE401E40A63
:101DC0004F08CD004E08CC00E92EE501E50A480891
:101DD000E600400165080800F6016A30840098308A
:101DE0008500013F8A00003F0A008E31F3006A300F
:101DF000840098308500013F8A00003F0A008E3140
:101E0000F4006A30840098308500013F8A00003F6A
:101E10000A008F31F5002B2F4F307406031D112F50
:101E2000122F332F4B307506031D172F182F332F0A
:101E3000F601F60A332F72307406031D202F212F6E
:101E4000332F72307506031D262F272F332FF601EF
:101E5000332F0030732F7308413A03190C2F043AC3
:101E600003191B2F292F6A30840098308500013F09
:101E70008A00003F0A008F316A3084009830850064
:101E8000013F8A00003F0A008F316A308400983099
:101E90008500013F8A00003F0A008F316A308400CC
:101EA00098308500013F8A00003F0A008F316A3078
:101EB000840098308500013F8A00003F0A008F317E
:101EC0006A30840098308500013F8A00003F0A0094
:101ED0008F316A30840098308500013F8A00003FCE
:101EE0000A008F3176080800FA005B30F60068308F
:101EF000840098308500013F8A00003F0A008F313E
:101F000040016C080F394C3E860001308700010803
:101F1000F6006830840098308500013F8A00003F59
:101F20000A008F310130F80078084001EC077A0888
:101F3000F6006830840098308500013F8A00003F39
:101F40000A008F317708F100F201923192228F312D
:101F50007108F8007208F9000430F936F80C890BA2
:101F6000AD2F78080F394C3E8600013087000108FC
:101F7000F6006830840098308500013F8A00003FF9
:101F80000A008F317708F100F201923192228F31ED
:101F900071080F394C3E8600013087000108F600B9
:101FA0006830840098308500013F8A00003F0A00B5
:101FB0008F31EC2F7708860087010108F600683022
:101FC000840098308500013F8A00003F0A008F316D
:101FD0000130F8007808F7077708860087010108C4
:101FE000031DF32FF42FDA2F5D30F60068308400E4
:101FF00098308500013F8A00003F0A008F310800B9
:1020000042011E0C013908007608F2007508F10043
:102010007708F30002309431662490310800710390
:10202000031D13281428172840011A1319284001EA
:102030001A1708007103031D1E281F2822284001BB
:10204000181024284001181408004001A700270890
:10205000A4002608A500223097312E2790310800D1
:102060004001AA002A08A40022308B315E2390315F
:102070004001AB002B0808007608F1001630840000
:1020800098308500013F8A00003F0A009031080027
:10209000400192137103031D4E284F2851289817B1
:1020A0005228981392170800933165239031003A13
:1020B00003195B285C2854284001E50166080800E4
:1020C00067289F3112279031953197259031410132
:1020D000BD186B286C28612808004301901A7128EC
:1020E000722879288F010830900091014F308D00BF
:1020F00090160800FB009331812390317B08860005
:10210000870140012D08C03F2E08C13F0800FB0099
:102110007908F6007B089631FD2690317A08F600A2
:102120007B089631FD269031080041016A086B0456
:1021300003199B289C28A1286B088A006A080A00BA
:1021400090317E013F1308004101BD1DA828A92838
:10215000B2287208B8007108B7007408BA00730892
:10216000B900BD1108004001A6000130FB0026089F
:10217000FB0255087B06FE397B06D50093314923C7
:102180009031080004304001A40019308B315E23E7
:1021900090310139031DCD28CF280130D0280030DF
:1021A000FB007B08080006304001A40019308B3189
:1021B0005E2390310139031DDE28E0280130E1283B
:1021C0000030FB007B0808003034313432343334C3
:1021D0003434353436343734383439344134423495
:1021E000433444344534463400347808F100F20175
:1021F0000230F3000030F4009031A4209031003020
:10220000F500F600F7019F31F52790310430080002
:102210007808F100F2010130F3000030F400903151
:10222000A42091310030F500F600F7019F31F52729
:102230009131043008007808F100F2010130F30018
:102240000030F4009031A42091310030F500F60008
:10225000F7019F31F5279131023008007808F1002D
:10226000F2010230F3000030F4009031A4209131EB
:102270000030F500F600F7019F31F527913102306B
:1022800008007808F100F2010230F3000030F40099
:102290009031A42091310030F500F600F7019F3114
:1022A000F5279131043008007808F100F20101307F
:1022B000F3000030F4009031A42091310030F5009B
:1022C000F600F7019F31F5279131023008007808B8
:1022D000F100F2010230F3000030F4009031A4204C
:1022E00091310030F500F600F7019F31F52791316B
:1022F000023008007808F100F2010130F3000030EC
:10230000F4009031A42091310030F500F600F7017F
:102310009F31F5279131043008009F3124279131F6
:102320004001A000A1012008F60021309631FD26D1
:1023300091312130F70050308F31742791310800EE
:1023400047304B019F000B309D00DC309C001D0886
:102350004001CB004B011C084001CA004E018C1209
:1023600090304B019E0008007208F8007108F900D7
:102370007808F300F4017908F500F6017508F60015
:10238000F50173087504F10074087604F200080082
:1023900007309031302091314001AF002F08AC0060
:1023A000AD012C08F1002D08F200F3019431212435
:1023B00091314001AE002E0808009231AB229131DC
:1023C00040012E08D1002D08D0004930500654306D
:1023D000031951060319ED29EE29F029FF30F129DF
:1023E00000300800FB290B30F3006230890BF6291E
:1023F000F30BF62900320130F1020030F23B710A92
:10240000031D062A720A031D062A072AF32908005B
:102410004001B5013A3090317A20923140013B08B9
:10242000FA003A08F9003530903187209231353082
:10243000F70054308F317427923108009F31EB2719
:1024400092319F31BA2792318B31152392319F31CE
:10245000E12792319131A021923189313F2192318E
:1024600089317D2192310800013090313020923144
:102470004001AF002F08AC00AD012C08F1002D0881
:10248000F2000430F3009431212492314001AE0077
:102490002E0808007C08D63E8600870154011908E2
:1024A00081000130F0007008FC0708307C02031C3A
:1024B0005A2A5B2A5C2AFC010130F00070084001B6
:1024C000DF070800F101F10A4101BD18682A692AF5
:1024D000782A3D11FF30B6009E31912692319E310F
:1024E000972692319E319426923141013C08F100A9
:1024F000710808007108720403197F2A802A902A43
:1025000002307302031C852A862A902A7208400131
:10251000CF007108CE007308FF3EE7000130912A1A
:10252000003008007208F5007108F4009B2A0130A1
:10253000F1070030F23D7108840072088500120036
:10254000031DA32AA42A972A74087102F1007508B2
:10255000723BF20008000E304001A40022308A31A4
:102560003E22923140012508B0002408AF00300817
:10257000F2002F08F1009131B4219231720840012C
:10258000AE007108AD00080040015A08443E8600C4
:10259000013087004201190881000130F000700805
:1025A0004001DA0708305A02031CD72AD82AD92A50
:1025B000DA010130F0007008D8070800F60076084C
:1025C000F500750886008701F50A7208F4007108A5
:1025D000F300F10A0319F20A7308840074088500F5
:1025E0000008C03F8908031DF62AF72AE12A0800DF
:1025F0007808023E86008701403FF100413FF2002B
:10260000780886008701403FF300413FF400903195
:10261000A42092310030F500F600F7019F31F52734
:102620009231023008007808023E86008701403F60
:10263000F100413FF200780886008701403FF30037
:10264000413FF4009031A42093310030F500F600B2
:10265000F7019F31F5279331023008002D304301F7
:10266000A0002D30A1002D30A2000D30A3000A30B3
:10267000A4000530F700A0309631CF269331063004
:10268000F300A030F4000530F5009531C0259331FA
:1026900008008831002093311430F4000030F50038
:1026A0007630840098308500013F8A00003F0A00A0
:1026B000933140015508A1005408A0008A318422BA
:1026C000933193312E23933108004001650803199B
:1026D0006A2B6B2B6D2B0130802B6E308400983071
:1026E0008500013F8A00003F0A009331003A031938
:1026F0007A2B7B2B7F2B8E3190269331802B0030D1
:10270000080010304001A40022308A313E2293316B
:1027100040012508B4002408B3003308B200320891
:10272000AF00B0012F08B000AF012F08B300300890
:10273000B4003408AE003308AD000800710886000C
:102740007208870001087306031DA72BA82BA92B6D
:10275000BB2B7208F6007108F500F10A0319F20AA2
:1027600075088600760887000108031DB82BB92B71
:102770009E2BF101F20108004001A200A301A30A6F
:102780004101BD18C42BC52BDA2BBD144001A30198
:1027900022080319CC2BCD2BD12B4101BB01BB0A45
:1027A000D42B02304101BB009E319A2693319031E7
:1027B0006020933140012308080008304001610285
:1027C0000318E32BE42BFC2B6208DE3E8600870116
:1027D000010854019A000130F00070084001E2073E
:1027E00008306202031CF52BF62BF72BE2010130B7
:1027F000F0007008E107FE2B4E01191308000830A5
:1028000040015B020318052C062C1E2C5C08C63EFA
:1028100086008701010842019A000130F00070082B
:102820004001DC0708305C02031C172C182C192C03
:10283000DC010130F0007008DB07202C4E0119127A
:1028400008007108860072088700403FF400413F8D
:10285000F5000130F6000030F700730A312CF63530
:10286000F70D890B2F2C74087605F800750877058D
:10287000F90078087904031D3E2C3F2C412C0030D0
:10288000422C01300800F3007308031D482C492C2A
:10289000552C5B30F1000230840098308500013FF8
:1028A0008A00003F0A009431652C7303031D592CE4
:1028B0005A2C652C5D30F100023084009830850080
:1028C000013F8A00003F0A0094310800F4007108BB
:1028D000720403196C2C6D2C7C2C7435A03E860080
:1028E00087017108C03F7208C13F7408AC3E860082
:1028F000870173088100892C7435A03E860087010A
:102900008D30C03F1E30C13F7408AC3E8600870149
:10291000810108007408F500F601730A912CF53561
:10292000F60D890B8F2C7508F9007608FA007108EE
:10293000860072088700403FF500413FF6007908A5
:102940007504F7007A087604F800710886007208AA
:1029500087007708C03F7808C13F08009F311E27D5
:1029600094314001A300A0012308F60020309631E5
:10297000FD2694312030F7004C308F31742794318C
:102980009F3102279431103E4001A300A00123088B
:10299000F60020309631FD2694312030F7004C307F
:1029A0008F3174279431080040015F080319D92C36
:1029B000DA2CD42C6008CE3E860087010108DE00A8
:1029C0006008D63E860087010108F2000130F10060
:1029D0007108E00708306002031CEF2CF02CF12C8A
:1029E000E0014E01991301304001DF024E019917B9
:1029F00072080800400161080319FF2C002DFA2C11
:102A00004E01191B042D052D092D710854019A0042
:102A10001E2D191340016308DE3E860087017108F0
:102A200081000130F2007208E30708306302031CE2
:102A30001A2D1B2D1C2DE3010130E1024E01191747
:102A4000080040015B080319262D272D212D4E017A
:102A5000191A2B2D2C2D302D710842019A00452D6D
:102A6000191240015D08C63E860087017108810089
:102A70000130F2007208DD0708305D02031C412DB1
:102A8000422D432DDD010130DB024E0119160800F5
:102A90004001580803194D2D4E2D482D5908BE3EB2
:102AA000860087010108D7005908443E860001309E
:102AB00087000108F2000130F1007108D9070830E1
:102AC0005902031C642D652D662DD9014E01991202
:102AD00001304001D8024E019916720808004101E8
:102AE0003D100230BC007C2D9E31DF269531962DA5
:102AF0009E31E4269531962D2E08F8000430A03E34
:102B000086008701413F8A00403F0A009531F90065
:102B1000FA017A08003A03198E2D782D7908023AC5
:102B20000319742D013A0319742D782D08009E3174
:102B30009126953141013D1C9E2D9F2DAA2D9F313F
:102B40000C279531003A0319A62DA72DAA2D0F3079
:102B50004101BB0041013B084001A000A101A0359B
:102B6000A10D2830200784001830213D80388500D1
:102B7000013F8A00003F0A0095314101BB00080077
:102B8000F901E32D6A30840098308500013F8A0006
:102B9000003F0A009531F8007408F7007308F6004A
:102BA00079087607840077080318770A85000008FB
:102BB00078060319DC2DDD2DDF2D0030EA2D0130E4
:102BC000F6007608F90775087902031CE82DE92D4F
:102BD000C22D013008004101BD15FB2D9E31DF26BD
:102BE0009531172E9E31A92695310330172E9E312F
:102BF000E4269531172E2C08F80021088A002008B9
:102C00000A009631F900FA017A08003A0319092EF0
:102C1000F72D7908013A0319F72D033A0319EE2D20
:102C2000013A0319EE2D073A0319F22DF72D08008A
:102C30003C30F1000230840098308500013F8A006A
:102C4000003F0A0096313C30F10002308400983099
:102C50008500013F8A00003F0A0096313C30F100B8
:102C60000230840098308500013F8A00003F0A004E
:102C700096312030F1000230840098308500013F09
:102C80008A00003F0A00963108004001AD009031F3
:102C9000C2209631003A03194E2E4F2E472E043093
:102CA0004001A40019308B315E2396314001AE0003
:102CB0000530A40019308B315E2396314001AF00FE
:102CC0002F08AB002E08AA000430AC002B0DAB0C73
:102CD000AA0CAC0B662E2D08860087012A08C03F7F
:102CE0002B08C13F08004001AD009031D320963140
:102CF000003A03197C2E7D2E752E06304001A4006B
:102D000019308B315E2396314001AE000730A400AC
:102D100019308B315E2396314001AF002F08AB0094
:102D20002E08AA000430AC002B0DAB0CAA0CAC0B87
:102D3000942E2D08860087012A08C03F2B08C13F2A
:102D400008004001B60143308C3148249631FF30F1
:102D500040014305F9000F304405FA003630903148
:102D600087209631FF3040014505F9000F304605B8
:102D7000FA003630903187209631FF304001470508
:102D8000F9000F304805FA0036309031872096312F
:102D90003630F70058308F31742796310800FA002A
:102DA000F901F62E6C30840098308500013F8A00CE
:102DB000003F0A009631003A0319DF2EE02EF62E6E
:102DC00079087A07F8007808860001308700010842
:102DD000F6006830840098308500013F8A00003F8B
:102DE0000A0096310130F8007808F907770879026F
:102DF000031CFB2EFC2ED22E0800F8007808F100F0
:102E0000F2019231922296317108F7007708F807A3
:102E1000780886008701760E0F398919F0380F3946
:102E20004C3E840001308500000881000130F7002D
:102E30007708F80778088600870176080F394C3E36
:102E4000840001308500000881000130F700770818
:102E5000F80778088600870181010800FB007B08DD
:102E60009731CA279731003A0319372F382F2F2F60
:102E70000830F5001130F6002530F7009F31F527B6
:102E800097312430F1000030F2000130F3000030BF
:102E9000F4009031A42097310030F500F6000030A6
:102EA000F700F8009031042097319E31FD269731CC
:102EB000923162229731013A03195F2F602F582F08
:102EC00008004001A201B601792F3608003E8400B7
:102ED000A0300318013E85000008B5003508F60053
:102EE00022309631FD26973101304001A0002008A4
:102EF000B6070030F100A030F200923192229731F3
:102F000040013608A000A10172082102031D8A2F8A
:102F100071082002031C8D2F8E2F652F2230F700A1
:102F200056308F317427973108007808F2007708FF
:102F3000F10020309231DE2297314001C001B42FE0
:102F40004008203E860087010108F100023084001D
:102F500098308500013F8A00003F0A009731013018
:102F6000F90079084001C0077808F2007708F100FD
:102F700092319222973140014008F900FA0172081B
:102F80007A02031DC52F71087902031CC82FC92FAF
:102F9000A02F0800F100F201F20A41013D19D12FE2
:102FA000D22FFE2F7108B600BD103D153D100E301A
:102FB000BB00F430B4000130B500BD158D30A00069
:102FC0001E30A100AC018D30A2001E30A300AD0167
:102FD0008D30A4001E30A500AE018D30A6001E303D
:102FE000A700AF018F30A8001E30A900B0019E31AC
:102FF0009126973190316D209731F20172080800C7
:10300000483415342134153400340034B1341F34BD
:1030100042341F34883408343C341F3400341034B4
:10302000FF3413343F340934D4341434FA341434B0
:1030300000340034A8341F3460341F344F34083453
:103040005A341F34C7341E34DD3413347D3409340C
:10305000D0341E349F341F3486341F343A340E3437
:10306000CC340A3478341F34EB341534D5341E3460
:10307000DA341E34DF341E34E4341E34E9341E34B2
:10308000EE341E34F3341E34F8341E346F341534E9
:103090000034003400340034003400340034003490
:1030A0000034003400340034003400340034003480
:1030B0000034003400340034003400340034003470
:1030C0000034003400340034003400340034003460
:1030D0003C341034C3341F34CD341F34D7341F3440
:1030E0000F3410341A341034483410348E341F34F2
:1030F000FA340934533454345234453441344D3461
:103100005F344F34503445344E34003452346534D7
:1031100062346F346F34743469346E3467340D3410
:103120000A3444344934533443344F344E344E34E7
:083130004534433454340034EB
:103D16000800080001300800053008004E010F10A9
:103D260008004301901208004E01191008004301D3
:103D360011140800430191140800430111150800ED
:103D460043019115080043010C0808004E010F14A9
:103D560008004001680808009231C4229E3108001C
:103D660042011D121D16080092314A229E3108009A
:103D760054011D121D160800430191161116080064
:103D8600430191121116080054011E0C0139080056
:103D9600F100710843018C0008004101BD10BC010F
:103DA6000E3008009E319D269E31013008009E315E
:103DB6009D269E31023008009E319D269E3101309F
:103DC60008009E31A0269E31003008009E31C32691
:103DD6009E31053008009E31BF269E310A3008000C
:103DE6009E31BF269E31093008004101BD10BC013D
:103DF6000E30080000309331BC239E31080040018C
:103E060055080139013C08004E010C0E890C013998
:103E160008004301110E890C890C013908004E0176
:103E26000F1C162F172F122F080001304001D40047
:103E36000130D500080040010C0E890C0139013C07
:103E4600080040010C0D0C0D0139013C08007208F8
:103E56004201DE007108DD00080072084201E2003E
:103E66007108E100080072084201E0007108DF00F5
:103E7600080072084201E4007108E30008007208B5
:103E86004201E6007108E500080072084201E800F8
:103E96007108E700080072084201EC007108EB00A7
:103EA600080072084201EA007108E9000800720879
:103EB6004101ED007108EC00080072084101EF00B5
:103EC6007108EE00080072084101EB007108EA0073
:103ED6000800640080010131890B6D2F0034FE005B
:103EE60012001E00FE0B732F003441013D109E315F
:103EF600A3269F31043008001C30903130209F31BA
:103F0600FB007B08080041013D1436359E31CB2667
:103F16009F31033008007508F2007408F1009131F2
:103F2600F2219F3108007E013F1F9A2F9B2F9E2F63
:103F3600903195209F31080041013D140314360D40
:103F46009E31CB269F310530080040015F08031DD6
:103F5600AD2FAF2F0130B02F0030080040015808B8
:103F6600031DB62FB82F0130B92F003008004301CA
:103F76008F010830900091014F308D00901208009B
:103F86001430840098308500013F8A00003F0A0003
:103F96009F3108002230840098308500013F8A0056
:103FA600003F0A009F3108001A30840098308500CF
:103FB600013F8A00003F0A009F310800603051012E
:103FC6008D008F0191010630930090019201080047
:103FD6004F0196019701980199019A019B019C0155
:103FE6009D0108007608F2007508F1007708F300D5
:103FF6000030943166249F31080031342E34313438
:104006002E343034003445344E3444340D340A34BE
:1040160043344D3444343E3420340034A034003428
:02402600A034C4
:020000040001F9
:08000000FF3FFF3FFF3FFF3F00
:0A000E00EC3FFF3F9F3FFF3FFF3F25
:00000001FF
