:1000000080315528303430347E1480314E01161E34
:100010000A280B2813280C1E0E280F2813289731A6
:100020006727803153280B1F162817285328191FBC
:100030001A281B2826280F1F1E281F2826284101A2
:100040006D088A006C080A0080315328991F2928FE
:100050002A2835288F1F2D282E28352841016B0886
:100060008A006A080A0080315328191E3828392866
:1000700044280F1E3C283D284428420165088A0078
:1000800064080A0080315328991E472848285328BD
:100090008F1E4B284C285328420163088A006208AF
:1000A0000A00803153287E10090080315728410111
:1000B000803102208031EE00803103208031EF005A
:1000C000453084008D308500A030860001308700E7
:1000D000333096310C268031FC0120308400003012
:1000E00085002930963106268031A030840000300A
:1000F000850046309631062680312030840001305C
:1001000085003C3096310626803120308400023054
:1001100085004030963106268031A03084000230C0
:10012000850050309631062680312030840003301F
:1001300085005030963106268031A030840003308F
:1001400085005030963106268031203084000430FE
:1001500085005030963106268031A030840004306E
:10016000850050309631062680317E104001813165
:1001700090294001DD0070290230C2008F295D08FE
:10018000C0000330C2008F293A305D02031CC92829
:10019000CA28D3285D085F39C93ED700FF3003184D
:1001A0000030D800DA285D08D03ED700FF300318B1
:1001B0000030D8005708C1000430C2008F293A30FF
:1001C0005D02031CE428E528EE285D085F39C93E7E
:1001D000D900FF3003180030DA00F5285D08D03E62
:1001E000D900FF3003180030DA004108D500033091
:1001F000D535FF3E031DF82855355907C100053098
:10020000C2008F293A305D02031C072908291229F0
:100210005D085F39C93E4101DD00FF300318003041
:10022000DE001A295D08D03E4101DD00FF300318D1
:100230000030DE0001304001C1024108031D2129C8
:1002400022292429C2018F290630C2008F293A3081
:100250005D02031C2C292D2936295D085F39C93E12
:10026000DB00FF3003180030DC003D295D08D03E84
:10027000DB00FF3003180030DC0041015E08400164
:10028000D60041015D084001D500D50ED60EF030F4
:10029000D60555080F39D604F030D5055B0855074B
:1002A0004101DD0040015C08563D4101DE005D0872
:1002B0004001D000400884312B24803101304001BE
:1002C000C1024108031D65296629FF2822295B30E8
:1002D0005D06031D6C296D298F29C201C20A8F2971
:1002E0004208D500D6015608003A03197829672933
:1002F0005508003A03196729013A0319BC28033A43
:100300000319BF28013A0319C428073A0319DF2843
:10031000013A03190229033A03192729672908001A
:100320008931542181315030F100A030883194203E
:1003300081318B170B178D31E225813184319D245A
:10034000813196313226813195313B258131013A17
:10035000031DAB29AC29382A8931F32181318A3137
:10036000B52281319731462781314E018C1EB92942
:10037000BA29D1298C128A31B5228131883168207D
:1003800081318831032081318B31212381318D31BD
:1003900078258131A4299631CC2681318031B9204C
:1003A00081318931D7218131003A031DD829D929DA
:1003B000CB29192A0030840090308500013F8A0043
:1003C000003F0A0081314001EF002408A03E860072
:1003D000023087006F0881002408A03E86000230AA
:1003E00087000D3001060319F629F729082A240889
:1003F000A03E8600023087000A3001060319012A58
:10040000022A082A4F302406031D072A082A152A23
:100410002408A03E8600023087008101A03082318E
:10042000652281314001A401192A0130EF006F08D3
:10043000A4070630840090308500013F8A00003F09
:100440000A008231003A031D262A272ADA29A42924
:100450009631CC2681314201EC006C08F10002306B
:10046000840090308500013F8A00003F0A008231FD
:100470008931D7218131003A031D3F2A402A282A99
:10048000542A0030840090308500013F8A00003FEC
:100490000A008231F6006830840090308500013F08
:1004A0008A00003F0A0082310630840090308500C7
:1004B000013F8A00003F0A008231003A031D612A91
:1004C000622A412AA42980315528F9007908F100CF
:1004D0000230F20089312221823171080907F800C7
:1004E0005B30F6006830840090308500013F8A0060
:1004F000003F0A008231400145080F39C23E8600A4
:10050000013087000108F6006830840090308500D3
:10051000013F8A00003F0A0082310130F70077086E
:100520004001C5075330F6006830840090308500E4
:10053000013F8A00003F0A0082317808F70004304A
:10054000F736890BA02A77080F39C23E86000130A2
:1005500087000108F6006830840090308500013F74
:100560008A00003F0A00823178080F39C23E8600B7
:10057000013087000108F600683084009030850063
:10058000013F8A00003F0A008231FA2A790886007A
:10059000023087000108F7000430F736890BCD2AB6
:1005A00077080F39C23E8600013087000108F60047
:1005B0006830840090308500013F8A00003F0A00C7
:1005C0008231790886000230870001080F39C23E67
:1005D0008600013087000108F60068308400903002
:1005E0008500013F8A00003F0A0082310130F70098
:1005F0007708F90779088600023087000108031D93
:10060000022B032BC62A5D30F60068308400903040
:100610008500013F8A00003F0A0083310800F8018D
:100620006A30840090308500013F8A00003F0A0054
:100630008331F5006A30840090308500013F8A00E4
:10064000003F0A008331F6006A3084009030850054
:10065000013F8A00003F0A008331F7004E2B4F30E4
:100660007606031D342B352B5E2B4B307706031D8E
:100670003A2B3B2B5E2BF801F80A5E2B7230760684
:10068000031D432B442B5E2B72307706031D492B31
:100690004A2B5E2BF8015E2B00309E2B7508F30071
:1006A000F4017408003A0319562B4C2B7308413A95
:1006B00003192F2B043A03193E2B4C2B6A3084006C
:1006C00090308500013F8A00003F0A0083316A3084
:1006D000840090308500013F8A00003F0A0083318A
:1006E0006A30840090308500013F8A00003F0A0094
:1006F00083316A30840090308500013F8A00003FDA
:100700000A0083316A30840090308500013F8A00FE
:10071000003F0A0083316A30840090308500013F39
:100720008A00003F0A0083316A30840090308500DF
:10073000013F8A00003F0A00833178080800FA0070
:100740005B30F6006830840090308500013F8A00FD
:10075000003F0A008331400145080F39C23E860040
:10076000013087000108F600683084009030850071
:10077000013F8A00003F0A0083310130F800780809
:100780004001C5077A08F600683084009030850083
:10079000013F8A00003F0A0083317708F100F2012F
:1007A0008931222183317108F8007208F900043080
:1007B000F936F80C890BD82B78080F39C23E860021
:1007C000013087000108F600683084009030850011
:1007D000013F8A00003F0A0083317708F100F201EF
:1007E00089312221833171080F39C23E86000130E0
:1007F00087000108F6006830840090308500013FD2
:100800008A00003F0A008431172C77088600870190
:100810000108F6006830840090308500013F8A00AE
:10082000003F0A0084310130F8007808F7077708A4
:10083000860087010108031D1E2C1F2C052C5D302E
:10084000F6006830840090308500013F8A00003F48
:100850000A00843108004001D3007A2C5008D100EE
:100860000430D136890B312C51080139D400540899
:10087000031D3B2C3C2C442C50183F2C402C422C6C
:1008800098169C2C98129C2C5018472C492C0130FF
:100890004A2C00309731372784319C2C01009C2C46
:1008A0005008F1000230840090308500013F8A003A
:1008B000003F0A0084319C2C431C5F2C602C9C2C34
:1008C00044149C2CC31C652C662C9C2CC4149C2C9E
:1008D000431D6B2C6C2C9C2C44159C2CC31D712C23
:1008E000722C9C2CC4159C2C431E772C782C9C2C91
:1008F00044169C2C5308D100D2015208003A031927
:10090000822C9C2C5108413A03196E2C033A03198E
:10091000682C043A03195C2C0E3A0319742C033A20
:100920000319622C073A03192E2C033A03194E2C93
:100930001C3A0319502C9C2C0800F101F10A743068
:10094000840090308500013F8A00003F0A00843116
:10095000F101F10A7230840090308500013F8A0075
:10096000003F0A0084310130F4000030F500763099
:10097000840090308500013F8A00003F0A008431E6
:10098000F1017230840090308500013F8A00003F01
:100990000A008431F101F10A703084009030850042
:1009A000013F8A00003F0A008431C830F400003063
:1009B000F5007630840090308500013F8A00003FCA
:1009C0000A008431EC2C6A30840090308500013FAD
:1009D0008A00003F0A0084316E3084009030850028
:1009E000013F8A00003F0A008431003A031DF92CC0
:1009F000FA2CE32C080040019C0111309800990169
:100A000001309A0008309600DE309200EF309300FB
:100A1000A83094007E01CE01C930C3000E30B8006A
:100A2000E501C401B901CF01E601BA01C501D00158
:100A30007E30BB00FF30C6003F30D1003F30BC00ED
:100A40003F30C7003F30D2003F13BF133E13BE17E5
:100A50003D17BD131B30F1001530F2009531FA251A
:100A600084315130F1001530F20096310026843186
:100A70004E01161609307D01C5001330C900133030
:100A80007E01990014309A001530A1002530A40091
:100A90000F309C001630A20015307D01CD000A30C9
:100AA000C6000D30CB001130C8000800F6007608F3
:100AB000F9007208F8007108F7000130F302003005
:100AC000F43B730A031D682D740A031D682D692DFC
:100AD000782DF101F201AE2D0130F5007508F9070E
:100AE0000130F7070030F83D0130F3020030F43BED
:100AF000790886000330870001080319802D812DB5
:100B0000A02D770884007808850012000319892D2C
:100B10008A2DA02D7308740403198F2D902DA02DFC
:100B200077088400780885000008F50079088600B9
:100B3000033087000108750603199F2DA02D6C2D29
:100B400079088600033087007708840078088500DC
:100B500000080102F100F201031CF2030800F40096
:100B600043019A1AB42DB52D012E7408F100F2013B
:100B7000F135F20DF135F20D333071078400183084
:100B8000723D80388500000899007408F100F20178
:100B9000F135F20DF135F20D323071078400183065
:100BA000723D8038850000089A009B017408F100AE
:100BB000F201F135F20DF135F20D34307107840098
:100BC0001830723D80388500000897007408F100E5
:100BD000F201F135F20DF135F20D35307107840077
:100BE0001830723D803885000008F300F30D400195
:100BF00014087306FD397306940043019A160130F8
:100C0000022E003008009531A6258631003A0319DE
:100C10000A2E0B2E392E182E95316F258631552E22
:100C2000953174258631552E95317E258631552E88
:100C300041012F08F8000630A03E86008701413FA1
:100C40008A00403F0A008631F900FA017A08003A2A
:100C500003192B2E142E7908013A0319142E033A86
:100C600003190C2E013A0319102E073A0319142EFA
:100C7000142E41013C101730A03E86008701403FF2
:100C800084008501810A000895316525863101308F
:100C90004101B8020030B93B38083904031D512E18
:100CA000522E542E0630552E033008002030F1000D
:100CB0000230840090308500013F8A00003F0A0026
:100CC00086313E30F1000230840090308500013FD3
:100CD0008A00003F0A0086313E30F1000230840075
:100CE00090308500013F8A00003F0A0086313E3087
:100CF000F1000230840090308500013F8A00003FFF
:100D00000A0086312030F1000230840090308500E6
:100D1000013F8A00003F0A0086310D30F1000230A9
:100D2000840090308500013F8A00003F0A00863130
:100D30000A30F1000230840090308500013F8A00C3
:100D4000003F0A00863108004001CD007A087B048C
:100D50000319AB2EAC2EEF2E7B08F2007A08F100BF
:100D600089312221863172084001CC007108CB0004
:100D7000E12E7B08F2007A08F1004C08F4004B08E1
:100D8000F3004D0885315625863171087204031D24
:100D9000CA2ECB2ECE2E40014D08F02E7A088400AC
:100DA0007B08850000084001C900CA014908F1001C
:100DB0004A08F2004D08013E89313B21863140014D
:100DC000CD004D080319E52EE62EEF2E4D088600C6
:100DD000033087000108031DEE2EEF2EB92E0030E0
:100DE00008006A30840090308500013F8A00003F8F
:100DF0000A0086314001EE003903031D002F012F48
:100E00002B2F25306E06031D062F072F192FB90132
:100E10003C0886000330870081013E08EB007830F3
:100E2000840090308500013F8A00003F0A0087312E
:100E30003A2F3E083D073C0203181F2F202F3A2F60
:100E40003C088600033087006E0881000130ED0009
:100E50006D08BC073A2F25306E06031D302F312F49
:100E6000362FB901B90A3E08BC003A2FBA01BA0AB6
:100E70006E08BB0040013A0808004001CE002A304D
:100E8000D2000230D0000030D10040014E088D3138
:100E9000AC258731003A03194E2F4F2F452F9A303A
:100EA000F5001730F6005230F7009631882687316A
:100EB0000130F1000030F2004D3097310C278731BE
:100EC0000030F500F6000030F700F8009631932668
:100ED00087319531972587318831C120873140018D
:100EE000CF004F030319752F762F6C2F4F08031D6A
:100EF0007A2F7B2F7C2F862FFF30D007FF30D13DFC
:100F000050085104031D852F862F452F52080800D5
:100F100030304001CB003030CE003030CC00491EA4
:100F2000922F932F962F3130CD00982F3030CD0057
:100F300049080F39303ECB004A1E9F2FA02FA32F08
:100F40003130CE00A52F3030CE004A080F39303E68
:100F5000CC007C304401A0004F30A1002C30A20016
:100F600040014D084401A30040014B084401A40086
:100F70002C30A50040014E084401A60040014C0859
:100F80004401A7000D30A8000A30A9000A30F7007C
:100F900020308C31E624873183310F2387310800DC
:100FA000FB007B088D31AC258731003A0319D92F1E
:100FB000DA2FD12F8930F5001730F6004E30F700C8
:100FC0009631882687310130F1000030F2004D3033
:100FD00097310C2787310030F500F6000030F7001C
:100FE000F8009631932687319531972587318831DE
:100FF000C1208731013A0319FE2FFF2FF72F080078
:1010000043019A1208009531B82588314001C90082
:10101000CA014908F6004A308D31142588314A301A
:10102000F700503083319F23883108009531B8256F
:1010300088314001C900CA014908F6004A308D31A3
:10104000142588314A30F700483083319F23883196
:10105000080047304B019F000B309D00DC309C00A6
:101060001D084001A1004B011C084001A0004E01D9
:101070008C1290304B019E00080011307D01C80099
:101080001330C90015307E01A1001630A200403097
:10109000430199009A0101309700400194104301E7
:1010A0009A1208005B280B30F3006230890B562837
:1010B000F30B562800320130F1020030F23B710A86
:1010C000031D6628720A031D662867285328080036
:1010D0004001E10166309631F2268831400167080F
:1010E000FA006608F900613097311A2788316130BB
:1010F000F700543083319F2388310800F4007108D1
:10110000F2007408F300730886008701F30A72087E
:10111000840003308500F20A0008C03F8908031DDF
:101120009228932883280800F2007208031999284E
:101130009A28A82802307102031C9F28A028A828FA
:1011400072084001BE007108FF3EBD000130A928B1
:101150000030080024304401A0002430A1002430D5
:10116000A2000330F70020308C31E62488312D3086
:10117000F3009830F4000530F5008C3135248831C7
:101180000800F101F10A4101BC18C728C828D72876
:101190003C11FF30B6009531202588319531262548
:1011A000883195312325883141013B08F1007108D0
:1011B0000800780886008701403FF100413FF200B7
:1011C0007808023E86008701010897310C27883194
:1011D0000030F500F600F70196318826883102309C
:1011E0000800780886008701403FF100413FF20087
:1011F0007808023E86008701010897310C27883164
:101200000030F500F600F70196318826883102306B
:1012100008007C08543E86000130870054011908FC
:1012200081000130F0007008FC0708307C02031CCC
:101230001A291B291C29FC010130F000700840010B
:10124000B40708007208F5007108F4002B2901307A
:10125000F1070030F23D7108840072088500120029
:10126000031D33293429272974087102F1007508F8
:10127000723BF2000800F300730886000330870019
:1012800001087106031D4529462948297308532979
:101290007308860003308700F30A0108031D5129F3
:1012A00052293C290030080096317E26893196313A
:1012B0004D26893188313D2089318431FB248931A3
:1012C0009631742689318831292089318E31FE2664
:1012D00089318F313C278931080095313E2589318C
:1012E0004001C900CA014908F6004A308D31142571
:1012F000893180294A30F700463083319F23893174
:101300004001441C842985297A29080040012F08BE
:10131000443E8600013087004201190881000130F7
:10132000F00070084001AF0708302F02031C992914
:101330009A299B29AF010130F0007008AD07080021
:101340002D304401A0002D30A1002D30A2000D3021
:10135000A3000A30A4000530F70020308C31E624C9
:1013600089312830F3009830F4000530F5008C31D5
:101370003524893108008831AA2089311430F400DD
:101380000030F5007630840090308500013F8A00FF
:10139000003F0A00893140012308CA002208C90021
:1013A0008731882789318931A0218931080040019E
:1013B0003A080319DC29DD29DF290130F2296E30D2
:1013C000840090308500013F8A00003F0A00893187
:1013D000003A0319EC29ED29F1298631F1268931EA
:1013E000F229003008004001251CF729F8290E2AAF
:1013F000461CFB29FC290E2A4610C8170130FB00A9
:101400007B08A60702302602031C072A082A0E2A98
:10141000C81389316D2189314001A6010800F5000A
:101420007508F6001F2A760886008701003096317D
:10143000FF268A3181000130F4007408F60701307C
:10144000F2020030F33B720A031D2A2A730A031DBD
:101450002A2A2B2A132A08004001CB00CC01CC0AEF
:101460004101BC18342A352A4A2ABC144001CC0157
:101470004B0803193C2A3D2A412A4101BA01BA0A04
:10148000442A02304101BA00953129258A3196312A
:10149000D8268A3140014C08080008304001360245
:1014A0000318532A542A6C2A3708CD3E8600870138
:1014B000010854019A000130F00070084001B7079C
:1014C00008303702031C652A662A672AB7010130F3
:1014D000F0007008B6076E2A4E0119130800083094
:1014E000400130020318752A762A8F2A31084C3EB3
:1014F000860001308700010842019A000130F000A7
:1015000070084001B10708303102031C882A892A7B
:101510008A2AB1010130F0007008B007912A4E010B
:1015200019120800F3007308031D972A982AA42AA9
:101530005B30F1000230840090308500013F8A006A
:10154000003F0A008A31B42A7303031DA82AA92A7E
:10155000B42A5D30F1000230840090308500013FF4
:101560008A00003F0A008A3108004001A51CB92A00
:10157000BA2AD72A1A1000308531AF258A31003AAD
:101580000319C32AC42AD72A4101E1010430F20019
:101590000030F300E2308A310F228A3140011A1400
:1015A000E2308C3160248A31883100208A31080091
:1015B000F400710872040319DE2ADF2AEE2A74355A
:1015C000A03E860087017108C03F7208C13F7408C1
:1015D000AC3E8600870173088100FB2A7435A03E6B
:1015E000860087011C30C03F1530C13F7408AC3EF7
:1015F000860087018101080005304001CD001830C8
:101600008F31BD278A3140014E08E0004D08DF00D0
:1016100060081F39DD005F08DE005E08D800D901D0
:101620005D08DA00DB015A08DB00DA0158085A04C9
:10163000DF0059085B04E0006008D7005F08D600AF
:1016400008009531B2258B314001CC00C9014C080E
:10165000F60049308D3114258B314930F7004C307C
:1016600083319F238B319531A1258B31103E400171
:10167000CC00C9014C08F60049308D3114258B315E
:101680004930F7004C3083319F238B3108004001F3
:10169000360803194C2B4D2B472B4E01191B512B90
:1016A000522B562B710854019A006B2B19134001D1
:1016B0003808CD3E86008701710881000130F200B4
:1016C0007208B80708303802031C672B682B692B97
:1016D000B8010130B6024E01191708004001340864
:1016E0000319732B742B6E2B3508C53E86008701BA
:1016F0000108B3003508543E860001308700010818
:10170000F2000130F1007108B50708303502031C02
:101710008A2B8B2B8C2BB5014E0199130130400184
:10172000B4024E0199177208080040012D080319F0
:101730009A2B9B2B952B2E08BD3E86008701010816
:10174000AC002E08443E8600013087000108F200FC
:101750000130F1007108AE0708302E02031CB12BD6
:10176000B22BB32BAE014E01991201304001AD02F4
:101770004E0199167208080041013C100230BB006E
:10178000C92B953179258B31E32B95317E258B3112
:10179000E32B2E08F8000430A03E86008701413F6D
:1017A0008A00403F0A008B31F900FA017A08003ABA
:1017B0000319DB2BC52B7908023A0319C12B013A17
:1017C0000319C12BC52B0800400130080319E92B70
:1017D000EA2BE42B4E01191AEE2BEF2BF32B710899
:1017E00042019A00092C1912400132084C3E860031
:1017F00001308700710881000130F2007208B207E1
:1018000008303202031C052C062C072CB2010130D3
:10181000B0024E0119160800953120258C31410186
:101820003C1C132C142C1F2C9531A6258C31003A0E
:1018300003191B2C1C2C1F2C0F304101BA00410135
:101840003A084001C900CA01C935CA0D2830490704
:10185000840010304A3D80388500013F8A00003FF7
:101860000A008C314101BA000800F901582C6A3095
:10187000840090308500013F8A00003F0A008C31CF
:10188000F8007408F7007308F600790876078400FA
:1018900077080318770A8500000878060319512C89
:1018A000522C542C00305F2C0130F6007608F907DA
:1018B00075087902031C5D2C5E2C372C0130080062
:1018C0004001D300C901D401D5014001530886006D
:1018D00087010108F60049308D3114258C31013023
:1018E000FB007B084001D3070130D4070030D53D11
:1018F0005508803AFB0080307B02031D812C0430A8
:101900005402031C842C852C652C4930F7004B3085
:1019100083319F238C3108004101BC159C2C9531EB
:1019200079258C31B82C953138258C310330B82C81
:1019300095317E258C31B82C2C08F80021088A00BE
:1019400020080A008C31F900FA017A08003A0319DC
:10195000AA2C982C7908013A0319982C033A0319F8
:101960008F2C013A03198F2C073A0319932C982CCA
:1019700008003C30F1000230840090308500013FC7
:101980008A00003F0A008C313C30F10002308400B4
:1019900090308500013F8A00003F0A008C313C30C6
:1019A000F1000230840090308500013F8A00003F42
:1019B0000A008C312030F100023084009030850024
:1019C000013F8A00003F0A008C310800FA00F9014B
:1019D0000D2D6C30840090308500013F8A00003F5F
:1019E0000A008C31003A0319F62CF72C0D2D7908DA
:1019F0007A07F80078088600023087000108F600B0
:101A00006830840090308500013F8A00003F0A0062
:101A10008D310130F8007808F90777087902031C46
:101A2000122D132DE92C0800F8007808F100F201BE
:101A3000893122218D317108F7007708F80778087D
:101A400086008701760E0F398919F0380F39C23EAA
:101A5000840001308500000881000130F70077081C
:101A6000F80778088600870176080F39C23E84009F
:101A700001308500000881000130F7007708F80781
:101A8000780886008701810108003034313432340F
:101A900033343434353436343734383439344134EB
:101AA00042344334443445344634003430343134E1
:101AB00032343334343435343634373438343934DA
:101AC00041344234433444344534463400343034B1
:101AD00031343234333434343534363437343834C2
:101AE0003934413442344334443445344634003488
:101AF0004001CB01DF01902D5F08223E8400983029
:101B00000318013E85000008DE005E08F6004B3039
:101B10008D3114258D3101304001C9004908DF079E
:101B20002230F1009830F200893122218D314001BC
:101B30005F08C900CA0172084A02031DA12D71087D
:101B40004902031CA42DA52D7C2D4B30F7005630E7
:101B500083319F238D310800F100F201F20A410127
:101B60003C19B32DB42DE02D7108B600BC103C1506
:101B70003C100E30BA00F430B4000130B500BC1592
:101B80001C30A0001530A100AC011C30A2001530A3
:101B9000A300AD011C30A4001530A500AE011C301F
:101BA000A6001530A700AF011E30A8001530A9000F
:101BB000B001953120258D319631E5268D31F20128
:101BC0007208080011304001CD00CE011930873174
:101BD000D0278D3110304001CD000830CE001930B3
:101BE0008731D0278D310F304001CD000330CE003A
:101BF00019308731D0278D3116304001CD0080302B
:101C0000CE0019308731D0278D3119304001CD00F9
:101C10008030CE0019308731D0278D311630400109
:101C2000CD00193087313D278D314001C7000800B4
:101C30004001E9006908F100493088317E208E3189
:101C40004001EA01372E6A08493E860087010108F3
:101C5000F1000230840090308500013F8A00003F8F
:101C60000A008E310130F60076084001EA07690863
:101C7000F100FF39031D0330F200893122218E313A
:101C800040016A08F600F70172087702031D4A2E28
:101C900071087602031C4D2E4E2E232E08007C0860
:101CA000C53E86008701810154011D1D582E592E05
:101CB000642E7C08C53E86008701811442016B08B2
:101CC0008A006A080A008E3154019D1C682E692E14
:101CD000742E7C08C53E8600870101154201690803
:101CE0008A0068080A008E317C08C53E860087019C
:101CF000010803197C2E7D2E842E420167088A007C
:101D000066080A008E31872E893109218E3108003C
:101D10008C31B9248E311730FA009830FB00400125
:101D20006B088631A4268E31003A0319982E992E1D
:101D30009D2E4001EC01BF01B42E0030FA00983016
:101D4000FB0040016B088631A4268E31003A03194E
:101D5000AA2EAB2EB12E4001EC01EC0ABF01BF0A46
:101D6000B42E02304001EC006B088E3118268E3103
:101D7000863156268E3140016C088A3192228E318E
:101D8000080040012F08BD3E860087018101420105
:101D90001D1DCB2ECC2ED82E40012F08BD3E860017
:101DA00087018114420161088A0060080A008E31AF
:101DB00042019D1CDC2EDD2EE92E40012F08BD3E88
:101DC00086008701011542015F088A005E080A004B
:101DD0008E3140012F08BD3E86008701010803199E
:101DE000F22EF32EFA2E42015D088A005C080A00EA
:101DF0008E31FD2E893186218E3108004E019912D7
:101E0000C130F1000E30F2009531D0258E314E01F7
:101E100019126F30F1000A30F2009531D6258E315B
:101E2000083042019F0090309D0024309E004030D9
:101E30009B0003309C001930F1001530F200953101
:101E4000C4258E314530F1001530F2009531CA2598
:101E50008E314130F1001530F2009531BE258E31C2
:101E60004001AC01B201B1010830B000AF01AE01D8
:101E7000AD014E01991608004E0199134F30F10043
:101E80000E30F2009531EE258F314E0119134D3091
:101E9000F1000A30F2009531F4258F3108305401F9
:101EA0009F0090309D0024309E0040309B00033006
:101EB0009C001A30F1001530F2009531E2258F3187
:101EC0004D30F1001530F2009531E8258F31493061
:101ED000F1001530F2009531DC258F314001B3015E
:101EE000B801B7010830B600FC01B501B4014E01DC
:101EF000991708004101370886008701953135257B
:101F00008F3181000130F90079084101B7070130B4
:101F1000B8020030B93B380839040319902F912FCB
:101F2000962F953159258F310530BC2FBC15A02F28
:101F300095318D258F31BC2F953188258F31BC2F60
:101F40002C08F80021088A0020080A008F31F900C7
:101F5000FA017A08003A0319AE2F9C2F7908013A4A
:101F600003199C2F033A0319982F013A0319982F4C
:101F7000073A03199C2F9C2F08004001D300400111
:101F800053088D31AC258F31003A0319C82FC92F62
:101F9000BF2FAB30F5001730F6005430F700963104
:101FA00088268F310130F1000030F2004D3097313A
:101FB0000C278F310030F500F6000030F700F800F4
:101FC000963193268F31953197258F318831C120F5
:101FD0008F31013A0319ED2FEE2FE62F40015508FE
:101FE000D0005408CF005008CF00D0015408D200D0
:101FF000D1014F085104CD0050085204CE00080012
:1020000095340B34E4340B34003400344434163447
:10201000D6341534C1340E34D0341534613415340B
:102020006F340A34FE340E346E340B3447340B34C0
:10203000003400343B341634F43415344F340E3449
:10204000EE3415345D3415344D340A343C340F34D9
:102050006A341534293416341934163403340634EA
:102060007A340F34123416348C340C346F34153403
:1020700074341534793415347E341534833415347E
:10208000883415348D34153492341534BC340B3403
:1020900000340034003400340034003400340034A0
:1020A0000034003400340034003400340034003490
:1020B0000034003400340034003400340034003480
:1020C0000034003400340034003400340034003470
:1020D000B434163456341634603416346A34163434
:1020E0009E341634A9341634C034163421341634D0
:0420F00088340E34EE
:102A320008000800080001300800053008004E01B7
:102A42000F1008004301901208004E0119100800EF
:102A520043011114080043019114080043011115A8
:102A6200080043019115080043010C0808004E01BB
:102A72000F14080040013F08080040014808080000
:102A8200893186219531080042011D121D16080068
:102A9200893109219531080054011D121D160800C3
:102AA2004001A701A70A0800430191161116080068
:102AB200430191121116080054011E0C013908003D
:102AC20042011E0C01390800F100710843018C001B
:102AD20008004101BC10BB010E30080095312C25C5
:102AE20095310130080095312C25953102300800CE
:102AF20095312C2595310130080095312F259531DE
:102B0200003008009531592595310530080095317E
:102B1200552595310A3008009531552595310930F2
:102B220008004101BC10BB010E30080000308A31A0
:102B32002C22953108004001C314431443160800A7
:102B4200400123080139013C08004301110E890CA0
:102B5200890C013908004E010F1CB02DB12DAC2D8E
:102B6200080040010C0E890C0139013C08004001AB
:102B72000C0D0C0D0139013C080072084201DD0008
:102B82007108DC00080072084201E1007108E000EF
:102B9200080072084201DF007108DE0008007208B6
:102BA2004201E3007108E200080072084201E500F8
:102BB2007108E400080072084201E7007108E600AB
:102BC200080072084201EB007108EA00080072086E
:102BD2004201E9007108E800080072084101EB00B7
:102BE2007108EA00080072084101ED007108EC006A
:102BF200080072084101E9007108E8000800720843
:102C02004101E7007108E60008006400800101311B
:102C1200890B072E0034FE0012001E00FE0B0D2E43
:102C2200003441013C1095313225963104300800C0
:102C320041013C1436359531652596310330080043
:102C42007508F2007408F1008831522096310800AC
:102C520041013C140314360D95316525963105303A
:102C6200080001304001A2000130A30095319C25EB
:102C72009631080040013408031D402E422E0130D7
:102C8200432E0030080040012D08031D492E4B2E13
:102C920001304C2E0030080043018F0108309000B3
:102CA20091014F308D009012080014308400903052
:102CB2008500013F8A00003F0A0096310800223059
:102CC200840090308500013F8A00003F0A0096315F
:102CD20008001A30840090308500013F8A00003FCE
:102CE2000A0096310800603051018D008F01910178
:102CF200063093009001920108004F01960197015E
:102D0200980199019A019B019C019D010800760896
:102D1200F2007508F1007708F30000308A31D822FA
:102D2200963108007608F2007508F1007708F30082
:102D320002308A31D822963108007103031DA22E77
:102D4200A32EA62E40011A13A82E40011A1708001E
:102D52007103031DAD2EAE2EB12E40011810B32EFD
:102D62004001181408007608F100163084009030F3
:102D72008500013F8A00003F0A00963108004001A9
:102D820092137103031DC62EC72EC92E9817CA2E81
:102D92009813921708008931D7219631003A031906
:102DA200D32ED42ECC2E4001BA013B080800DF2ED0
:102DB2009531AC2596318C310C2496314101BC18E9
:102DC200E32EE42ED92E08004301901AE92EEA2EB2
:102DD200F12E8F010830900091014F308D00901636
:102DE2000800FB008A31FC2296317B0886008701AD
:102DF20040015608C03F5708C13F0800F100710862
:102E0200430196004E010F1D072F082F032F0F11AC
:102E1200430116080800F3004101BC1D112F122FB7
:102E2200192F7308B7007208B9007108B800BC11F5
:102E32000800FB007908F6007B088D3114259731D4
:102E42007A08F6007B088D3114259731080041017C
:102E52006608670403192E2F2F2F342F67088A0064
:102E620066080A0097317E01BF1308004001CF00B7
:102E72000130FB004F08FB0223087B06FE397B066C
:102E8200A3008931BB21973108004001251E4A2F3A
:102E92004B2F552F2703031D4F2F502F552F8831AE
:102EA200162097314001A701080040014614410154
:102EB2006808690403195E2F5F2F642F69088A006E
:102EC20068080A0097317E013F1308007E013F1F08
:102ED2006B2F6C2F6F2F9731562797317E01BF1FB3
:102EE200732F742F772F97312827973108000230DC
:102EF200F1000030F200780897310C27973100304A
:102F0200F500F600F7019631882697310430080063
:102F12000130F1000030F200780897310C27973128
:102F22000030F500F600F70196318826973104301B
:102F320008000130F1000030F200780897310C27C8
:102F420097310030F500F600F70196318826973167
:102F5200023008000230F1000030F20078089731A8
:102F62000C2797310030F500F600F70196318826DC
:102F72009731023008000230F1000030F200780888
:102F820097310C2797310030F500F600F7019631A2
:102F920088269731043008000130F1000030F20039
:102FA200780897310C2797310030F500F600F701C9
:102FB200963188269731023008000230F100003045
:102FC200F200780897310C2797310030F500F600AF
:102FD200F701963188269731023008000130F1005E
:102FE2000030F200780897310C2797310030F50055
:102FF200F600F701963188269731043008005334E1
:1030020054345234453441344D345F344F345034A7
:1030120045344E3400345234653462346F346F3484
:10302200743469346E3467340D340A3444344934A8
:10303200533443344F344E344E3445344334543491
:10304200003431342E3431342E34303400344534AB
:103052004E3444340D340A3443344D3444343E3413
:103062002034003440340134003422349834223481
:02307200983490
:020000040001F9
:08000000FF3FFF3FFF3FFF3F00
:0A000E00EC3FFF3F9F3FFF3FFF3F25
:00000001FF
