:1000000080315528303430347E1480314E01161E34
:100010000A280B2813280C1E0E280F2813289731A6
:100020009A27803153280B1F162817285328191F89
:100030001A281B2826280F1F1E281F2826284101A2
:100040006D088A006C080A0080315328991F2928FE
:100050002A2835288F1F2D282E28352841016B0886
:100060008A006A080A0080315328191E3828392866
:1000700044280F1E3C283D284428420165088A0078
:1000800064080A0080315328991E472848285328BD
:100090008F1E4B284C285328420163088A006208AF
:1000A0000A00803153287E10090080315728410111
:1000B000803102208031EE00803103208031EF005A
:1000C000883084008D308500A030860001308700A4
:1000D0003330963150268031FC01203084000030CE
:1000E0008500293096314A268031A03084000030C6
:1000F0008500463096314A26803120308400013018
:1001000085003C3096314A26803120308400023010
:100110008500403096314A268031A030840002307C
:100120008500503096314A268031203084000330DB
:100130008500503096314A268031A030840003304B
:100140008500503096314A268031203084000430BA
:100150008500503096314A268031A030840004302A
:100160008500503096314A2680317E104001813121
:1001700090294001DD0070290230C2008F295D08FE
:10018000C0000330C2008F293A305D02031CC92829
:10019000CA28D3285D085F39C93ED700FF3003184D
:1001A0000030D800DA285D08D03ED700FF300318B1
:1001B0000030D8005708C1000430C2008F293A30FF
:1001C0005D02031CE428E528EE285D085F39C93E7E
:1001D000D900FF3003180030DA00F5285D08D03E62
:1001E000D900FF3003180030DA004108D500033091
:1001F000D535FF3E031DF82855355907C100053098
:10020000C2008F293A305D02031C072908291229F0
:100210005D085F39C93E4101DD00FF300318003041
:10022000DE001A295D08D03E4101DD00FF300318D1
:100230000030DE0001304001C1024108031D2129C8
:1002400022292429C2018F290630C2008F293A3081
:100250005D02031C2C292D2936295D085F39C93E12
:10026000DB00FF3003180030DC003D295D08D03E84
:10027000DB00FF3003180030DC0041015E08400164
:10028000D60041015D084001D500D50ED60EF030F4
:10029000D60555080F39D604F030D5055B0855074B
:1002A0004101DD0040015C08563D4101DE005D0872
:1002B0004001D00040088431892480310130400160
:1002C000C1024108031D65296629FF2822295B30E8
:1002D0005D06031D6C296D298F29C201C20A8F2971
:1002E0004208D500D6015608003A03197829672933
:1002F0005508003A03196729013A0319BC28033A43
:100300000319BF28013A0319C428073A0319DF2843
:10031000013A03190229033A03192729672908001A
:100320008931A02181315030F100A0308831C820BE
:1003300081318B170B178E312526813184312B2487
:1003400081319531F025813195317F258131013A17
:10035000031DAB29AC29382A89313D2181318A31ED
:100360004322813196316D2681314E018C1EB9298F
:10037000BA29D1298C128A314322813188319C20BB
:1003800081318831372081318B31342381318D3176
:10039000BB258131A42997310F2781318031B920C4
:1003A00081318A310A228131003A031DD829D929A5
:1003B000CB29192A0030840090308500013F8A0043
:1003C000003F0A0081314001EF002408A03E860072
:1003D000023087006F0881002408A03E86000230AA
:1003E00087000D3001060319F629F729082A240889
:1003F000A03E8600023087000A3001060319012A58
:10040000022A082A4F302406031D072A082A152A23
:100410002408A03E8600023087008101A03082318E
:10042000652281314001A401192A0130EF006F08D3
:10043000A4070630840090308500013F8A00003F09
:100440000A008231003A031D262A272ADA29A42924
:1004500097310F2781314201EC006C08F100023026
:10046000840090308500013F8A00003F0A008231FD
:100470008A310A228131003A031D3F2A402A282A64
:10048000542A0030840090308500013F8A00003FEC
:100490000A008231F6006830840090308500013F08
:1004A0008A00003F0A0082310630840090308500C7
:1004B000013F8A00003F0A008231003A031D612A91
:1004C000622A412AA42980315528F9007908F100CF
:1004D0000230F20089316E21823171080907F8007B
:1004E0005B30F6006830840090308500013F8A0060
:1004F000003F0A008231400145080F39C23E8600A4
:10050000013087000108F6006830840090308500D3
:10051000013F8A00003F0A0082310130F70077086E
:100520004001C5075330F6006830840090308500E4
:10053000013F8A00003F0A0082317808F70004304A
:10054000F736890BA02A77080F39C23E86000130A2
:1005500087000108F6006830840090308500013F74
:100560008A00003F0A00823178080F39C23E8600B7
:10057000013087000108F600683084009030850063
:10058000013F8A00003F0A008231FA2A790886007A
:10059000023087000108F7000430F736890BCD2AB6
:1005A00077080F39C23E8600013087000108F60047
:1005B0006830840090308500013F8A00003F0A00C7
:1005C0008231790886000230870001080F39C23E67
:1005D0008600013087000108F60068308400903002
:1005E0008500013F8A00003F0A0082310130F70098
:1005F0007708F90779088600023087000108031D93
:10060000022B032BC62A5D30F60068308400903040
:100610008500013F8A00003F0A0083310800F8018D
:100620006A30840090308500013F8A00003F0A0054
:100630008331F5006A30840090308500013F8A00E4
:10064000003F0A008331F6006A3084009030850054
:10065000013F8A00003F0A008331F7004E2B4F30E4
:100660007606031D342B352B5E2B4B307706031D8E
:100670003A2B3B2B5E2BF801F80A5E2B7230760684
:10068000031D432B442B5E2B72307706031D492B31
:100690004A2B5E2BF8015E2B00309E2B7508F30071
:1006A000F4017408003A0319562B4C2B7308413A95
:1006B00003192F2B043A03193E2B4C2B6A3084006C
:1006C00090308500013F8A00003F0A0083316A3084
:1006D000840090308500013F8A00003F0A0083318A
:1006E0006A30840090308500013F8A00003F0A0094
:1006F00083316A30840090308500013F8A00003FDA
:100700000A0083316A30840090308500013F8A00FE
:10071000003F0A0083316A30840090308500013F39
:100720008A00003F0A0083316A30840090308500DF
:10073000013F8A00003F0A00833178080800FA0070
:100740005B30F6006830840090308500013F8A00FD
:10075000003F0A008331400145080F39C23E860040
:10076000013087000108F600683084009030850071
:10077000013F8A00003F0A0083310130F800780809
:100780004001C5077A08F600683084009030850083
:10079000013F8A00003F0A0083317708F100F2012F
:1007A00089316E2183317108F8007208F900043034
:1007B000F936F80C890BD82B78080F39C23E860021
:1007C000013087000108F600683084009030850011
:1007D000013F8A00003F0A0083317708F100F201EF
:1007E00089316E21833171080F39C23E8600013094
:1007F00087000108F6006830840090308500013FD2
:100800008A00003F0A008431172C77088600870190
:100810000108F6006830840090308500013F8A00AE
:10082000003F0A0084310130F8007808F7077708A4
:10083000860087010108031D1E2C1F2C052C5D302E
:10084000F6006830840090308500013F8A00003F48
:100850000A0084310800F101F10A743084009030FC
:100860008500013F8A00003F0A008431F101F10A4E
:100870007230840090308500013F8A00003F0A00FA
:1008800084310130F4000030F5007630840090307F
:100890008500013F8A00003F0A008431F101723077
:1008A000840090308500013F8A00003F0A008431B7
:1008B000F101F10A7030840090308500013F8A0018
:1008C000003F0A008431C830F4000030F500763073
:1008D000840090308500013F8A00003F0A00843187
:1008E0007A2C6A30840090308500013F8A00003FF6
:1008F0000A0084316E30840090308500013F8A0008
:10090000003F0A008431003A031D872C882C712C8B
:1009100008004001D300C42C5008D1000430D13667
:10092000890B8F2C51080139D4005408031D992CD0
:100930009A2CA22C50189D2C9E2CA02C9816E62C9C
:100940009812E62C5018A52CA72C0130A82C0030AA
:1009500097317A278431E62C0100E62C5008F1000B
:100960000230840090308500013F8A00003F0A0079
:100970008431E62C4410E62CC410E62C4411E62CFD
:10098000C411E62C4412E62C5308D100D2015208BF
:10099000003A0319CC2CE62C5108413A0319C02C1B
:1009A000033A0319BE2C043A0319BA2C0E3A031960
:1009B000C22C033A0319BC2C073A03198C2C033AB6
:1009C0000319AC2C1C3A0319AE2CE62C080040018C
:1009D0009C0111309800990101309A00083096006E
:1009E000DE309200EF309300A83094007E01CE01FB
:1009F000C930C3000E30B800E501C401B901CF0110
:100A0000E601BA01C501D0017E30BB00FF30C6004F
:100A10003F30D1003F30BC003F30C7003F30D200F4
:100A20003F13BF133E13BE173D17BD13FF30F10038
:100A30000730F20096313E2684319830F1001530AF
:100A4000F2009631442684314E01161609307D019C
:100A5000C5001330C90013307E01990014309A008C
:100A60001530A1002530A4000F309C001630A200E4
:100A700015307D01CD000A30C6000D30CB0011309D
:100A8000C8000800F6007608F9007208F80071083E
:100A9000F7000130F3020030F43B730A031D542DBC
:100AA000740A031D542D552D642DF101F2019A2D68
:100AB0000130F5007508F9070130F7070030F83DFF
:100AC0000130F3020030F43B7908860003308700E0
:100AD000010803196C2D6D2D8C2D77088400780882
:100AE000850012000319752D762D8C2D7308740462
:100AF00003197B2D7C2D8C2D7708840078088500C8
:100B00000008F500790886000330870001087506A3
:100B100003198B2D8C2D582D790886000330870002
:100B2000770884007808850000080102F100F201CE
:100B3000031CF2030800F40043019A1AA02DA12D12
:100B4000ED2D7408F100F201F135F20DF135F20DE1
:100B50003330710784001830723D803885000008FA
:100B600099007408F100F201F135F20DF135F20D42
:100B70003230710784001830723D803885000008DB
:100B80009A009B017408F100F201F135F20DF13584
:100B9000F20D3430710784001830723D80388500C2
:100BA000000897007408F100F201F135F20DF135FB
:100BB000F20D3530710784001830723D80388500A1
:100BC0000008F300F30D400114087306FD397306A5
:100BD000940043019A160130EE2D00300800953143
:100BE000E4258531003A0319F62DF72D252E042E24
:100BF0009531B2258531412E9531B7258531412E6C
:100C00009531C1258531412E41012F08F80006306C
:100C1000A03E86008701413F8A00403F0A0086319E
:100C2000F900FA017A08003A0319172E002E790804
:100C3000013A0319002E033A0319F82D013A03195A
:100C4000FC2D073A0319002E002E41013C101730ED
:100C5000A03E86008701403F84008501810A00088C
:100C60009531A825853101304101B8020030B93BEA
:100C700038083904031D3D2E3E2E402E0630412EED
:100C8000033008002030F1000230840090308500ED
:100C9000013F8A00003F0A0086313E30F1000230F9
:100CA000840090308500013F8A00003F0A008631B1
:100CB0003E30F1000230840090308500013F8A0010
:100CC000003F0A0086313E30F1000230840090304F
:100CD0008500013F8A00003F0A0086312030F10084
:100CE0000230840090308500013F8A00003F0A00F6
:100CF00086310D30F1000230840090308500013FD4
:100D00008A00003F0A0086310A30F1000230840078
:100D100090308500013F8A00003F0A0086310800BC
:100D20004001CD007A087B040319972E982EDB2E04
:100D30007B08F2007A08F10089316E218631720851
:100D40004001CC007108CB00CD2E7B08F2007A0860
:100D5000F1004C08F4004B08F3004D0885314225A2
:100D6000863171087204031DB62EB72EBA2E4001CB
:100D70004D08DC2E7A0884007B08850000084001BD
:100D8000C900CA014908F1004A08F2004D08013EB5
:100D90008931872186314001CD004D080319D12EBC
:100DA000D22EDB2E4D088600033087000108031D7C
:100DB000DA2EDB2EA52E003008006A308400903039
:100DC0008500013F8A00003F0A0086314001EE00A5
:100DD0003903031DEC2EED2E172F25306E06031D53
:100DE000F22EF32E052FB9013C0886000330870050
:100DF00081013E08EB007830840090308500013F8F
:100E00008A00003F0A008731262F3E083D073C023A
:100E100003180B2F0C2F262F3C0886000330870069
:100E20006E0881000130ED006D08BC07262F2530CB
:100E30006E06031D1C2F1D2F222FB901B90A3E0873
:100E4000BC00262FBA01BA0A6E08BB0040013A085E
:100E500008004001CE002A30D2000230D00000301D
:100E6000D10040014E088D31EF258731003A03193A
:100E70003A2F3B2F312FCD30F5001730F60052308E
:100E8000F7009631CB2687310130F1000030F200B7
:100E90004D3097314F2787310030F500F600003094
:100EA000F700F8009631D62687319531DA2587315B
:100EB0008831F52087314001CF004F030319612F9E
:100EC000622F582F4F08031D662F672F682F722F30
:100ED000FF30D007FF30D13D50085104031D712F62
:100EE000722F312F5208080030304001CB003030D3
:100EF000CE003030CC00491E7E2F7F2F822F313024
:100F0000CD00842F3030CD0049080F39303ECB0062
:100F10004A1E8B2F8C2F8F2F3130CE00912F3030E7
:100F2000CE004A080F39303ECC007C304401A0008E
:100F30004F30A1002C30A20040014D084401A30015
:100F400040014B084401A4002C30A50040014E088C
:100F50004401A60040014C084401A7000D30A80040
:100F60000A30A9000A30F70020308C31F92487318B
:100F700083310F23873108004001D300400153081B
:100F80008D31EF258731003A0319C72FC82FBE2FA7
:100F9000DE30F5001730F6005430F7009631CB26DE
:100FA00087310130F1000030F2004D3097314F278A
:100FB00087310030F500F6000030F700F800963178
:100FC000D62687319531DA2587318831F52087316A
:100FD000013A0319EC2FED2FE52F40015508D00001
:100FE0005408CF005008CF00D0015408D200D101DE
:100FF0004F085104CD0050085204CE0008000800EC
:1010000042011E0C013908000130F1000030F200ED
:10101000780897314F2788310030F500F600F70146
:101020009631CB268831023008000230F1000030C2
:10103000F200780897314F2788310030F500F6002C
:10104000F7019631CB268831023008000130F100DB
:101050000030F200780897314F2788310030F500D2
:10106000F600F7019631CB2688310430080095311F
:10107000FC2588314001C900CA014908F6004A3000
:101080008D31572588314A30F700503083319F2306
:10109000883108009531852588314001C900CA0191
:1010A0004908F6004A308D31572588314A30F7001B
:1010B000463083319F238831080047304B019F0021
:1010C0000B309D00DC309C001D084001A1004B014D
:1010D0001C084001A0004E018C1290304B019E0074
:1010E000080011307D01C8001330C90015307E01A1
:1010F000A1001630A2004030430199009A0101304E
:1011000097004001941043019A1208008F280B3079
:10111000F3006230890B8A28F30B8A2800320130F1
:10112000F1020030F23B710A031D9A28720A031D76
:101130009A289B28872808004001E10166309731F2
:101140003527883140016708FA006608F9006130E8
:1011500097315D2788316130F700543083319F2308
:1011600088310800F4007108F2007408F300730875
:1011700086008701F30A7208840003308500F20AB2
:101180000008C03F8908031DC628C728B7280800E3
:10119000F20072080319CD28CE28DC280230710233
:1011A000031CD328D428DC2872084001BE00710833
:1011B000FF3EBD000130DD2800300800243044012E
:1011C000A0002430A1002430A2000330F70020301A
:1011D0008C31F92488312D30F3009830F40005303B
:1011E000F5008C31482488310800F101F10A4101F1
:1011F000BC18FB28FC280B293C11FF30B6009531A8
:101200006425883195316A25883195316725883183
:1012100041013B08F1007108080078088600870149
:10122000403FF100413FF2007808023E860087010E
:10123000010897314F2789310030F500F600F7019A
:101240009631CB2689310230080078088600870164
:10125000403FF100413FF2007808023E86008701DE
:10126000010897314F2789310030F500F600F7016A
:101270009631CB268931023008004001461C4129B5
:10128000422954294610C8170130FB007B08A507E6
:1012900002302502031C4D294E29542988314A2049
:1012A00089314001A501C81308007C08543E86001E
:1012B000013087005401190881000130F0007008E6
:1012C000FC0708307C02031C662967296829FC0199
:1012D0000130F00070084001B40708007208F50002
:1012E0007108F40077290130F1070030F23D7108F0
:1012F0008400720885001200031D7F29802973294C
:1013000074087102F1007508723BF2000800F300E6
:10131000730886000330870001087106031D9129B8
:101320009229942973089F29730886000330870047
:10133000F30A0108031D9D299E2988290030080011
:101340009631C126893196319026893188317120B4
:1013500089318431E72489319631B7268931883142
:101360005D2089318F31412789318F317F27893144
:10137000080040012F08443E8600013087004201EA
:10138000190881000130F00070084001AF070830F3
:101390002F02031CCC29CD29CE29AF010130F0004A
:1013A0007008AD0708002D304401A0002D30A100C9
:1013B0002D30A2000D30A3000A30A4000530F70044
:1013C00020308C31F92489312830F3009830F40032
:1013D0000530F5008C314824893108008831DE2041
:1013E00089311430F4000030F500763084009030FC
:1013F0008500013F8A00003F0A008931400123082F
:10140000CA002208C9008731742789318931D32164
:101410008931080040013A0803190F2A102A122ABC
:101420000130252A6E30840090308500013F8A000B
:10143000003F0A008A31003A03191F2A202A242A71
:101440008631DD268A31252A00300800F50075082E
:10145000F600362A76088600870100309731422749
:101460008A3181000130F4007408F6070130F2027D
:101470000030F33B720A031D412A730A031D412AFF
:10148000422A2A2A080040011A10003085319B2583
:101490008A31003A03194D2A4E2A612A4001A601D9
:1014A0000430F2000030F300E2308A3126228A3123
:1014B00040011A14E2308C3173248A31953182252F
:1014C0008A3108004001CB00CC01CC0A4101BC1894
:1014D0006A2A6B2A802ABC144001CC014B080319EC
:1014E000722A732A772A4101BA01BA0A7A2A02308B
:1014F0004101BA0095316D258A3197311B278A3118
:1015000040014C0808000830400136020318892ABF
:101510008A2AA22A3708CD3E860087010108540195
:101520009A000130F00070084001B7070830370218
:10153000031C9B2A9C2A9D2AB7010130F0007008E9
:10154000B607A42A4E0119130800083040013002E2
:101550000318AB2AAC2AC52A31084C3E860001305C
:101560008700010842019A000130F0007008400134
:10157000B10708303102031CBE2ABF2AC02AB101BC
:101580000130F0007008B007C72A4E011912080098
:10159000F3007308031DCD2ACE2ADA2A5B30F1004E
:1015A0000230840090308500013F8A00003F0A002D
:1015B0008A31EA2A7303031DDE2ADF2AEA2A5D3014
:1015C000F1000230840090308500013F8A00003F26
:1015D0000A008A310800F400710872040319F12A24
:1015E000F22A012B7435A03E860087017108C03FA6
:1015F0007208C13F7408AC3E860087017308810001
:101600000E2B7435A03E860087016030C03F153038
:10161000C13F7408AC3E8600870181010800053097
:101620004001CD0018308731BC278B3140014E0876
:10163000E0004D08DF0060081F39DD005F08DE00B4
:101640005E08D800D9015D08DA00DB015A08DB002A
:10165000DA0158085A04DF0059085B04E00060080A
:10166000D7005F08D60008009531F6258B31400180
:10167000CC00C9014C08F60049308D3157258B311B
:101680004930F7004C3083319F238B319531DF2572
:101690008B31103E4001CC00C9014C08F6004930A6
:1016A0008D3157258B314930F7004C3083319F23E2
:1016B0008B3108004001360803195F2B602B5A2B31
:1016C0004E01191B642B652B692B710854019A007C
:1016D0007E2B191340013808CD3E86008701710822
:1016E00081000130F2007208B80708303802031C8C
:1016F0007A2B7B2B7C2BB8010130B6024E011917D7
:101700000800400134080319862B872B812B3508EC
:10171000C53E860087010108B3003508543E8600A7
:10172000013087000108F2000130F1007108B507AF
:1017300008303502031C9D2B9E2B9F2BB5014E01BB
:10174000991301304001B4024E0199177208080044
:1017500040012D080319AD2BAE2BA82B2E08BD3E42
:10176000860087010108AC002E08443E8600013047
:1017700087000108F2000130F1007108AE0708305F
:101780002E02031CC42BC52BC62BAE014E01991291
:1017900001304001AD024E01991672080800410166
:1017A0003C100230BB00DC2B9531BC258B31F62B75
:1017B0009531C1258B31F62B2E08F8000430A03E60
:1017C00086008701413F8A00403F0A008B31F900C3
:1017D000FA017A08003A0319EE2BD82B7908023A5D
:1017E0000319D42B013A0319D42BD82B080040013C
:1017F00030080319FC2BFD2BF72B4E01191A012C75
:10180000022C062C710842019A001C2C191240016E
:1018100032084C3E8600013087007108810001309B
:10182000F2007208B20708303202031C182C192C7F
:101830001A2CB2010130B0024E0119160800953180
:1018400064258C3141013C1C262C272C322C9531EF
:10185000E4258C31003A03192E2C2F2C322C0F301A
:101860004101BA0041013A084001C900CA01C93525
:10187000CA0D28304907840010304A3D8038850061
:10188000013F8A00003F0A008C314101BA00080084
:10189000F9016B2C6A30840090308500013F8A008A
:1018A000003F0A008C31F8007408F7007308F60056
:1018B00079087607840077080318770A85000008FE
:1018C00078060319642C652C672C0030722C0130CB
:1018D000F6007608F90775087902031C702C712C44
:1018E0004A2C013008004001D300C901D401D501C0
:1018F00040015308860087010108F60049308D3108
:1019000057258C310130FB007B084001D3070130A3
:10191000D4070030D53D5508803AFB0080307B026B
:10192000031D942C04305402031C972C982C782C03
:101930004930F7004B3083319F238C31080041013F
:10194000BC15AF2C9531BC258C31CB2C95317C2529
:101950008C310330CB2C9531C1258C31CB2C2C080C
:10196000F80021088A0020080A008C31F900FA01E9
:101970007A08003A0319BD2CAB2C7908013A0319F7
:10198000AB2C033A0319A22C013A0319A22C073AF3
:101990000319A62CAB2C08003C30F1000230840067
:1019A00090308500013F8A00003F0A008C313C30B6
:1019B000F1000230840090308500013F8A00003F32
:1019C0000A008C313C30F1000230840090308500F8
:1019D000013F8A00003F0A008C312030F1000230C4
:1019E000840090308500013F8A00003F0A008C315E
:1019F0000800FA00F901202D6C3084009030850039
:101A0000013F8A00003F0A008D31003A0319092D79
:101A10000A2D202D79087A07F80078088600023010
:101A200087000108F6006830840090308500013F8F
:101A30008A00003F0A008D310130F8007808F9076C
:101A400077087902031C252D262DFC2C0800FB00AD
:101A50007B088D31EF258D31003A0319302D312D62
:101A6000282DBC30F5001730F6004E30F7009631C7
:101A7000CB268D310130F1000030F2004D3097312E
:101A80004F278D310030F500F6000030F700F800E8
:101A90009631D6268D319531DA258D318831F52074
:101AA0008D31013A0319552D562D4E2D0800F800A1
:101AB0007808F100F20189316E218D317108F7004B
:101AC0007708F807780886008701760E0F3989199C
:101AD000F0380F39C23E84000130850000088100D3
:101AE0000130F7007708F807780886008701760844
:101AF0000F39C23E840001308500000881000130AA
:101B0000F7007708F8077808860087018101080048
:101B10003034313432343334343435343634373489
:101B2000383439344134423443344434453446340F
:101B300000343034313432343334343435343634A0
:101B400037343834393441344234433444344534FE
:101B50004634003430343134323433343434353470
:101B600036343734383439344134423443344434ED
:101B70004534463400344001CB01DF01D32D5F08EA
:101B8000223E840098300318013E85000008DE00E4
:101B90005E08F6004B308D3157258D310130400104
:101BA000C9004908DF072230F1009830F20089317E
:101BB0006E218D3140015F08C900CA0172084A02D6
:101BC000031DE42D71084902031CE72DE82DBF2DEC
:101BD0004B30F700563083319F238D310800F100E0
:101BE000F201F20A41013C19F62DF72D232E71085E
:101BF000B600BC103C153C100E30BA00F430B400F6
:101C00000130B500BC156030A0001530A100AC015A
:101C10006030A2001530A300AD016030A400153083
:101C2000A500AE016030A6001530A700AF016230FC
:101C3000A8001530A900B001953164258D31973188
:101C400028278D31F2017208080011304001CD00C3
:101C5000CE0119308D3127258E3110304001CD0055
:101C60000830CE0019308D3127258E310F304001DC
:101C7000CD000330CE0019308D3127258E3116303E
:101C80004001CD008030CE0019308D3127258E31B6
:101C900019304001CD008030CE0019308D3127251C
:101CA0008E3116304001CD001930873129278E3111
:101CB0004001C70008004001E9006908F10049300F
:101CC0008831B2208E314001EA017A2E6A08493EFD
:101CD000860087010108F100023084009030850001
:101CE000013F8A00003F0A008E310130F60076087D
:101CF0004001EA076908F100FF39031D0330F200D3
:101D000089316E218E3140016A08F600F7017208B0
:101D10007702031D8D2E71087602031C902E912EE2
:101D2000662E08007C08C53E8600870181015401AB
:101D30001D1D9B2E9C2EA72E7C08C53E860087016C
:101D4000811442016B088A006A080A008E3154012E
:101D50009D1CAB2EAC2EB72E7C08C53E860087019D
:101D60000115420169088A0068080A008E317C0862
:101D7000C53E8600870101080319BF2EC02EC72E5D
:101D8000420167088A0066080A008E31CA2E89312E
:101D900055218E3108008C31CC248E311730FA0059
:101DA0009830FB0040016B08863190268E31003A56
:101DB0000319DB2EDC2EE02E4001EC01BF01F72ED3
:101DC0000030FA009830FB0040016B088631902605
:101DD0008E31003A0319ED2EEE2EF42E4001EC0167
:101DE000EC0ABF01BF0AF72E02304001EC006B087D
:101DF0008E315B268E31863142268E3140016C0851
:101E00008A31C8228E31080040012F08BD3E86006D
:101E10008701810142011D1D0E2F0F2F1B2F400135
:101E20002F08BD3E860087018114420161088A00A7
:101E300060080A008F3142019D1C1F2F202F2C2F7C
:101E400040012F08BD3E86008701011542015F0851
:101E50008A005E080A008F3140012F08BD3E8600CF
:101E6000870101080319352F362F3D2F42015D08E8
:101E70008A005C080A008F31402F8931B9218F31E7
:101E800008004E0199120430F1000F30F200963133
:101E900014268F314E011912A530F1000A30F200DC
:101EA00096311A268F31083042019F0090309D00F4
:101EB00024309E0040309B0003309C005E30F100D7
:101EC0001530F200963108268F318C30F100153034
:101ED000F20096310E268F318830F1001530F20075
:101EE000963102268F314001AC01B201B1010830B8
:101EF000B000AF01AE01AD014E01991608004E01D0
:101F000099139230F1000E30F200963132268F3163
:101F10004E0119138330F1000A30F2009631382651
:101F20008F31083054019F0090309D0024309E0076
:101F300040309B0003309C005F30F1001530F20010
:101F4000963126268F319430F1001530F20096310B
:101F50002C268F319030F1001530F200963120267A
:101F60008F314001B301B801B7010830B600FC0160
:101F7000B501B4014E0199170800410137088600E8
:101F80008701953179258F3181000130F900790879
:101F90004101B7070130B8020030B93B38083904B5
:101FA0000319D32FD42FD92F9531A0258F31053088
:101FB000FF2FBC15E32F9531D0258F31FF2F9531A1
:101FC000CB258F31FF2F2C08F80021088A0020082C
:101FD0000A008F31F900FA017A08003A0319F12F4B
:101FE000DF2F7908013A0319DF2F033A0319DB2F9A
:101FF000013A0319DB2F073A0319DF2FDF2F0800FF
:10200000A8340B34F7340B340034003487341634DE
:102010001A34163404340F341434163400340834AB
:10202000A5340A3441340F3481340B345A340B3420
:10203000003400347E3416343834163492340E347E
:1020400032341634A434153483340A347F340F34D4
:10205000AD341534753416345D341634EF3405342C
:10206000BD340F34563416349F340C34B234153426
:10207000B7341534BC341534C1341534C634153472
:10208000CB341534D0341534D5341534CF340B3427
:1020900000340034003400340034003400340034A0
:1020A0000034003400340034003400340034003490
:1020B0000034003400340034003400340034003480
:1020C0000034003400340034003400340034003470
:1020D000F734163499341634A3341634AD34163428
:1020E000E1341634EC3416340334173465341634C2
:0420F000CB340E34AB
:102ABC000800080001300800053008004E010F1016
:102ACC0008004301901208004E0119100800430140
:102ADC00111408004301911408004301111508005A
:102AEC0043019115080043010C0808004E010F1416
:102AFC00080040013F08080043019A1208004001F9
:102B0C00480808008931B9219531080042011D128D
:102B1C001D160800893155219531080054011D12EC
:102B2C001D1608004001A701A70A080043019116D1
:102B3C0011160800430191121116080054011E0CC5
:102B4C0001390800F100710843018C0008004101B3
:102B5C00BC10BB010E300800953170259531013049
:102B6C00080095317025953102300800953170259B
:102B7C0095310130080095317325953100300800EE
:102B8C009531A02595310530080095319C2595315E
:102B9C000A30080095319C25953109300800410117
:102BAC00BC10BB010E30080000308A316222953116
:102BBC000800400123080139013C08004301110EB3
:102BCC00890C890C013908004E010F1CEE2DEF2DDC
:102BDC00EA2D080001304001A2000130A3000800DA
:102BEC0040010C0E890C0139013C080040010C0D10
:102BFC000C0D0139013C080072084201DD0071081E
:102C0C00DC00080072084201E1007108E0000800D5
:102C1C0072084201DF007108DE00080072084201F0
:102C2C00E3007108E200080072084201E500710837
:102C3C00E400080072084201E7007108E600080091
:102C4C0072084201EB007108EA00080072084201A8
:102C5C00E9007108E800080072084101EB007108F6
:102C6C00EA00080072084101ED007108EC00080050
:102C7C0072084101E9007108E8000800720841017E
:102C8C00E7007108E6000800640080010131890B3F
:102C9C004B2E0034FE0012001E00FE0B512E003491
:102CAC0041013C10953176259631043008004101E4
:102CBC003C1436359531A82596310330080075083B
:102CCC00F2007408F100883186209631080040012A
:102CDC002703031D722E732E742EA70108004101C9
:102CEC003C140314360D9531A82596310530080097
:102CFC0040013408031D832E852E0130862E0030B2
:102D0C00080040012D08031D8C2E8E2E01308F2EB5
:102D1C000030080043018F010830900091014F30C2
:102D2C008D00901208001430840090308500013F13
:102D3C008A00003F0A00963108002230840090304F
:102D4C008500013F8A00003F0A00963108001A30C6
:102D5C00840090308500013F8A00003F0A009631C4
:102D6C000800603051018D008F01910106309300F5
:102D7C009001920108004F01960197019801990169
:102D8C009A019B019C019D0108007608F2007508D0
:102D9C00F1007708F30000308A31EB2296310800FD
:102DAC007608F2007508F1007708F30002308A31DA
:102DBC00EB22963108007103031DE52EE62EE92E59
:102DCC0040011A13EB2E40011A1708007103031D62
:102DDC00F02EF12EF42E40011810F62E400118148E
:102DEC0008007608F1001630840090308500013F11
:102DFC008A00003F0A0097310800400192137103CA
:102E0C00031D092F0A2F0C2F98170D2F98139217AB
:102E1C0008008A310A229731003A0319162F172F0E
:102E2C000F2F4001BA013B080800222F9531EA25EB
:102E3C0097318C311F2497314101BC18262F272F35
:102E4C001C2F08004301901A2C2F2D2F342F8F018B
:102E5C000830900091014F308D0090160800FB0057
:102E6C008B310F2397317B08860087014001560870
:102E7C00C03F5708C13F0800F1007108430196009C
:102E8C004E010F1D4A2F4B2F462F0F1143011608D1
:102E9C000800F3004101BC1D542F552F5C2F730803
:102EAC00B7007208B9007108B800BC110800FB002B
:102EBC007908F6007B088D31572597317A08F60092
:102ECC007B088D315725973108004101660867044E
:102EDC000319712F722F772F67088A0066080A0072
:102EEC0097317E01BF1308004001CF000130FB0079
:102EFC004F08FB0223087B06FE397B06A3008931B1
:102F0C00EE2197310800400146144101680869041C
:102F1C000319912F922F972F69088A0068080A00CD
:102F2C0097317E013F1308007E013F1F9E2F9F2F7C
:102F3C00A22F9731892797317E01BF1FA62FA72F6C
:102F4C00AA2F97316B27973108000230F10000301F
:102F5C00F200780897314F2797310030F500F600D2
:102F6C00F7019631CB269731043008000130F1007F
:102F7C000030F200780897314F2797310030F50078
:102F8C00F600F7019631CB2697310430080001305A
:102F9C00F1000030F200780897314F27973100305C
:102FAC00F500F600F7019631CB2697310230080078
:102FBC000230F1000030F200780897314F2797313A
:102FCC000030F500F600F7019631CB269731023030
:102FDC0008000230F1000030F200780897314F27DA
:102FEC0097310030F500F600F7019631CB2697317A
:102FFC0004300800533454345234453441344D3485
:10300C005F344F34503445344E34003452346534CC
:10301C0062346F346F34743469346E3467340D3405
:10302C000A3444344934533443344F344E344E34DC
:10303C00453443345434003431342E3431342E344A
:10304C003034003445344E3444340D340A34433473
:10305C004D3444343E342034003440340134003494
:08306C00223498342234983418
:020000040001F9
:08000000FF3FFF3FFF3FFF3F00
:0A000E00EC3FFF3F9F3FFF3FFF3F25
:00000001FF
