:0400000080315528CE
:100008007E1480314E01161E0A280B2813280C1E58
:100018000E280F28132886312326803153280B1FDA
:10002800162817285328191F1A281B2826280F1F97
:100038001E281F28262840016D088A006C080A001F
:1000480080315328991F29282A2835288F1F2D28C1
:100058002E28352840016B088A006A080A0080317A
:100068005328191E3828392844280F1E3C283D28B3
:10007800442842015A088A0059080A008031532846
:10008800991E4728482853288F1E4B284C28532848
:10009800420158088A0057080A00803153287E1008
:1000A8000900803157288631B3268031EE00863129
:1000B800B4268031EF004F30840085308500403011
:1000C800860001308700113086313A268031FB01E5
:1000D800FC0120308400003085002F308631402616
:1000E8008031A030840000308500493086314026B8
:1000F8008031203084000130850020308631402650
:100108008031A0308400013085004030863140269F
:1001180080312030840002308500503086314026FE
:100128008031A0308400023085005030863140266E
:1001380080312030840003308500503086314026DD
:100148008031A0308400033085005030863140264D
:1001580080312030840004308500503086314026BC
:1001680080317E1040018431CF2CF101F10A4930F1
:10017800840085308500013F8A00003F0A008031F5
:10018800F101F10A4730840085308500013F8A007B
:10019800003F0A0080310130F4000030F5004B3098
:1001A800840085308500013F8A00003F0A008031C5
:1001B800F1014730840085308500013F8A00003F07
:1001C8000A008031F101F10A45308400853085004C
:1001D800013F8A00003F0A008031C830F400003037
:1001E800F5004B30840085308500013F8A00003FD0
:1001F8000A00803108293F30840085308500013F9E
:100208008A00003F0A008131433084008530850030
:10021800013F8A00003F0A008131003A031D152979
:100228001629FF280800F40043019A1A1C291D29E1
:1002380069297408F100F201F135F20DF135F20D7A
:100248009930710784000630723D803885000008B7
:1002580099007408F100F201F135F20DF135F20D53
:100268009830710784000630723D80388500000898
:100278009A009B017408F100F201F135F20DF13595
:10028800F20D9A30710784000630723D803885007F
:10029800000897007408F100F201F135F20DF1350C
:1002A800F20D9B30710784000630723D803885005E
:1002B8000008F300F30D400114087306FD397306B6
:1002C800940043019A1601306A2900300800400161
:1002D8009C0131309800990101309A00083096004D
:1002E800DE309200EE309300A83094007E01CE01FB
:1002F800E030C3000E30B800E501C401B901CF01F8
:10030800E601BA01C501D0017E30BB00FF30C6004E
:100318003F30D1003F30BC003F30C7003F30D200F3
:100328003F133E133D17B930F1000630F200863115
:10033800462681314E01161609307D01C50013305D
:10034800C90015307E01A1002530A4000F309C00A3
:100358001630A20015307D01CD000A30C6001130DC
:10036800C8007E0199010F30980014309A000B30B4
:100378007D01CB0008005A30860000308700083025
:100388004001CF0000301E00CF0BC7292030F200FB
:100398000030F3005A3084314E2481315A308600BF
:1003A80000308700403F4001CF00413FD000423F2E
:1003B800D100433FD200443FD300453FD400463FDD
:1003C800D500473FD6000830D7004001D637D50CB6
:1003D800D40CD30CD20CD10CD00CCF0CD70BE929F0
:1003E80040014F08D8005A08D9005908DA005808BF
:1003F800DB00890D893B8909DC00DD00DE00DF00B8
:10040800E000E1005B08F8005A08F70008004E0118
:1004180099138730F1000230F2008631522682317A
:100428004E011913EB30F1000330F20086314C26EF
:100438008231083054019F0090309D0024309E0086
:1004480040309B0003309C00BA30F1000630F200C7
:1004580086315E268231A030F1000630F200863106
:1004680058268231A430F1000630F2008631642625
:1004780082314001B901BE01BD010830BC00FC0158
:10048800BB01BA014E01991708004E019912C030FC
:10049800F1000230F2008631702682314E011912C5
:1004A800C830F1000330F20086316A268231083004
:1004B80042019F0090309D0024309E0040309B00F8
:1004C80003309C00BB30F1000630F20086317C26F8
:1004D8008231A830F1000630F2008631762682316A
:1004E800AC30F1000630F2008631822682314001BC
:1004F800B301B801B7010830B600FB01B501B4017A
:100508004E01991608007C08203E8600870181016B
:1005180054011D1D902A912A9C2A7C08203E8600A1
:100528008701811441016E088A006D080A00823132
:1005380054019D1CA02AA12AAC2A7C08203E8600D2
:100548008701011541016C088A006B080A00823195
:100558007C08203E8600870101080319B42AB52AC1
:10056800BC2A41016A088A0069080A008231BF2A48
:1005780084319D24823108007B08E13E8600870192
:10058800810142011D1DC92ACA2AD42A7B08E13EDD
:1005980086008701811456088A0055080A008231AE
:1005A80042019D1CD82AD92AE32A7B08E13E86000D
:1005B8008701011554088A0053080A0082317B0814
:1005C800E13E8600870101080319EB2AEC2AF32A89
:1005D800420152088A0051080A008231F62A843101
:1005E800B62482310800F8007808F100F20184315D
:1005F8006B2482317108F7007708F80778088600BD
:100608008701760E0F398919F0380F39403E84007A
:1006180001308500000881000130F7007708F807ED
:1006280078088600870176080F39403E840001303B
:100638008500000881000130F7007708F80778087E
:100648008600870181010800F90040011A104E0157
:100658008C1E2F2B302B2B2B00308131172183310F
:10066800003A0319382B392B4B2B4E018C12813150
:10067800BF2183317908860087017708C03F780851
:10068800C13F40011A148631B0268331512B7908B5
:10069800860087010030C03FC13F08007A34033428
:1006A8000034003400340034113406346A3406341B
:1006B800C03402347034063400340034C83403348F
:1006C80049340234A1340334003400340034003493
:1006D8001A3406344C34063487340234523406341F
:1006E80000340034EB3403340B3402344001340852
:1006F80003197F2B802B7A2B3508E13E8600870172
:100708000108B3003508203E860001308700010843
:10071800F2000130F1007108B50708303502031CFA
:10072800962B972B982BB5014E0199120130400159
:10073800B4024E0199167208080040013A080319DC
:10074800A62BA72BA12B3B08203E8600870101087A
:10075800B9003B08303E8600013087000108F200EE
:100768000130F1007108BB0708303B02031CBD2BA8
:10077800BE2BBF2BBB014E01991301304001BA02B9
:100788004E01991772080800083040013602031814
:10079800CE2BCF2BE82B3708283E86000130870068
:1007A800010842019A000130F00070084001B707C3
:1007B80008303702031CE12BE22BE32BB701013091
:1007C800F0007008B607EA2B4E011912080008302D
:1007D80040013C020318F12BF22B0B2C3D08383E4C
:1007E800860001308700010854019A000130F000AA
:1007F80070084001BD0708303D02031C042C052C7D
:10080800062CBD010130F0007008BC070D2C4E010C
:100818001913080000340034003400340034003464
:100828000034003400340034003400340034003420
:100838000034003400340034003400340034003410
:100848000034003400340034003400340034003400
:1008580000340034003400340034003400340034F0
:1008680000340034003400340034003400340034E0
:1008780000340034003400340034003400340034D0
:1008880000340034003400340034003400340034C0
:1008980000340034F5007508F6005E2C76088600F2
:1008A8008701003085318F25843181000130F400C3
:1008B8007408F6070130F2020030F33B720A031D98
:1008C800692C730A031D692C6A2C522C08007208C3
:1008D800F5007108F400742C0130F1070030F23D86
:1008E80071088400720885001200031D7C2C7D2C81
:1008F800702C74087102F1007508723BF200080050
:100908008531E02584318631082684318431E62416
:10091800843181316B2184318531EA2584318531F7
:100928002925843182314922843182310B22843154
:1009380008007C08303E8600013087005401190801
:1009480081000130F0007008FC0708307C02031CAD
:10095800AE2CAF2CB02CFC010130F0007008400127
:10096800BA0708007B08203E860001308700420154
:10097800190881000130F0007008FB0708307B027D
:10098800031CC72CC82CC92CFB010130F0007008CF
:100998004001B40708008431842484315030F100C8
:1009A800A0308431FD2484318B170B178031B92096
:1009B800843186318826843186319C268431E02C26
:1009C8008031552811307D01C8001330C900153019
:1009D8007E01A1001630A200403043019900023088
:1009E8009A000130970040019410141043019A12A4
:1009F8000800F20072080319022D032D112D023090
:100A08007102031C082D092D112D72084001C40024
:100A18007108FF3EC3000130122D003008001C2D64
:100A28000B30F3006230890B172DF30B172D0032B2
:100A38000130F1020030F23B710A031D272D720AC2
:100A4800031D272D282D142D080047304B019F002A
:100A58000B309D00DC309C001D084001A9004B01B3
:100A68001C084001A8004E018C1290304B019E00DA
:100A7800080000340034FE34053400340034F43403
:100A88000534D5340534CA340534A83405342C3437
:100A980006340034003430343134323433343434AE
:100AA80035343634373438343934413442344334C5
:100AB80044344534463400344001E2016630833121
:100AC8002823853140016708FA006608F90062307A
:100AD80085317025853108004001CF007908F6007E
:100AE8004F088231F72285317A08F60040014F0815
:100AF8008231F7228531080040016808690403192A
:100B0800862D872D8C2D69088A0068080A00853192
:100B18007E013F130800F1007108430196004E0161
:100B28000F1D972D982D932D0F11430116080800BE
:100B3800533454345234453441344D345F344F3493
:100B4800503445344E340034400192137103031D70
:100B5800AE2DAF2DB12D9817B22D9813921708000E
:100B68005234653462346F346F34743469346E349B
:100B780067340D340A3444344934533443344F34DD
:100B88004E344E3445344334543400347103031D19
:100B9800CE2DCF2DD22D40011810D42D4001181480
:100BA80008007103031DD92DDA2DDD2D40011A131C
:100BB800DF2D40011A1708004F019601970198018F
:100BC80099019A019B019C019D0108006030510127
:100BD8008D008F0191010630930090019201080069
:100BE8006C30840083308500013F8A00003F0A0092
:100BF800853108006630840083308500013F8A0013
:100C0800003F0A008631080043018F010830900038
:100C180091014F308D009012080040013408031DE7
:100C2800162E182E0130192E0030080040013A08FF
:100C3800031D1F2E212E0130222E003008007E01B8
:100C48003F1F272E282E2B2E853180258631080020
:100C58007508F2007408F100853113258631080003
:100C680031342E3431342E3430340034FE00120046
:100C78001E00FE0B3B2E0034640080010131890BFD
:100C8800412E003472084001E9007108E8000800AC
:100C980072084001ED007108EC000800720840017C
:100CA800EB007108EA00080072084101EC007108C5
:100CB800EB00080072084101EE007108ED00080021
:100CC80072084101EA007108E9000800720842014F
:100CD800DA007108D900080072084201D8007108CA
:100CE800D700080072084201D4007108D300080038
:100CF80072084201D6007108D50008007208420146
:100D0800D2007108D100080001304001B000013064
:100D1800B100080045344E3444340D340A344334A9
:100D28004D3444343E3420340234403401340034E9
:100D3800853160258631080054011D121D160800F2
:100D480084319D248631080042011D121D160800B9
:100D58008431B6248631080043019A1208003034E1
:100D680030343434863434348634080008000800BB
:020000040001F9
:08000000FF3FFF3FFF3FFF3F00
:0A000E00EC3FFF3F9F3FFF3FFF3F25
:00000001FF
