:1000000080315528303430347E1480314E01161E34
:100010000A280B2813280C1E0E280F2813289031AD
:10002000E520803153280B1F162817285328191F45
:100030001A281B2826280F1F1E281F2826284101A2
:100040006D088A006C080A0080315328991F2928FE
:100050002A2835288F1F2D282E28352841016B0886
:100060008A006A080A0080315328191E3828392866
:1000700044280F1E3C283D284428420165088A0078
:1000800064080A0080315328991E472848285328BD
:100090008F1E4B284C285328420163088A006208AF
:1000A0000A00803153287E10090080315728410111
:1000B000803102208031EE00803103208031EF005A
:1000C0005030840092308500A030860001308700D7
:1000D00011309031C1208031FC014C30840000305F
:1000E000850024309031BB208031A0308400003066
:1000F000850046309031BB208031203084000130B3
:1001000085003C309031BB208031203084000230AB
:10011000850040309031BB208031A0308400023017
:10012000850050309031BB20803120308400033076
:10013000850050309031BB208031A03084000330E6
:10014000850050309031BB2080317E1040018431D9
:10015000C92C4001B300023091319F218031400110
:10016000B100B2013108B4003208B5003308031DF4
:10017000BA28BB28DF280430F100F2013430933173
:10018000342380310530F100F201343093313423CF
:1001900080310630F100F201343093313423803164
:1001A0000730F100F20134309331342380314001C3
:1001B0003408A6000230913170218031C02A330307
:1001C000031DE328E42809290430F100F201F20AB2
:1001D00034309331342380310530F100F201343072
:1001E0009331342380310630F100F2013430933101
:1001F000342380310730F100F2013430933134235D
:10020000803140013408A6000230913170218031E4
:10021000C02A02303306031D0E290F293429043069
:10022000F100F20134309331342380310530F10094
:10023000F201F20A34309331342380310630F10078
:10024000F20134309331342380310730F100F20170
:10025000343093313423803140013408A600023019
:10026000913170218031C02A03303306031D3929B2
:100270003A2960290430F100F201F20A3430933156
:10028000342380310530F100F201F20A3430933129
:10029000342380310630F100F201343093313423BD
:1002A00080310730F100F201343093313423803152
:1002B00040013408A6000230913170218031C02AFB
:1002C00004303306031D652966298B290430F100AB
:1002D000F20134309331342380310530F100F201E2
:1002E00034309331342380310630F100F201F20AC8
:1002F00034309331342380310730F100F20134304F
:1003000093313423803140013408A600023091310A
:1003100070218031C02A05303306031D90299129B0
:10032000B7290430F100F201F20A3430933134235A
:1003300080310530F100F2013430933134238031C3
:100340000630F100F201F20A343093313423803167
:100350000730F100F2013430933134238031400111
:100360003408A6000230913170218031C02A063055
:100370003306031DBC29BD29E3290430F100F20135
:1003800034309331342380310530F100F201F20A28
:1003900034309331342380310630F100F201F20A17
:1003A00034309331342380310730F100F20134309E
:1003B00093313423803140013408A600023091315A
:1003C00070218031C02A07303306031DE829E9294E
:1003D000102A0430F100F201F20A34309331342350
:1003E00080310530F100F201F20A343093313423C8
:1003F00080310630F100F201F20A343093313423B7
:1004000080310730F100F2013430933134238031F0
:1004100040013408A6000230913170218031C02A99
:1004200008303306031D152A162A3B2A0430F10032
:10043000F20134309331342380310530F100F20180
:1004400034309331342380310630F100F2013430FE
:100450009331342380310730F100F201F20A343055
:1004600093313423803140013408A60002309131A9
:1004700070218031C02A09303306031D402A412AE9
:10048000672A0430F100F201F20A34309331342348
:1004900080310530F100F201343093313423803162
:1004A0000630F100F20134309331342380310730CB
:1004B000F100F201F20A34309331342380314001EB
:1004C0003408A6000230913170218031C02A0A30F0
:1004D0003306031D6C2A6D2A932A0430F100F201C1
:1004E00034309331342380310530F100F201F20AC7
:1004F00034309331342380310630F100F20134304E
:100500009331342380310730F100F201F20A3430A4
:1005100093313423803140013408A60002309131F8
:1005200070218031C02A0B303306031D982A992A86
:10053000C02A0430F100F201F20A3430933134233E
:1005400080310530F100F201F20A34309331342366
:1005500080310630F100F2013430933134238031A0
:100560000730F100F201F20A343093313423803144
:1005700040013408A6000230913170218031C02A38
:100580008A31D02280310800023091319F2182319E
:100590004001AC000430F1002C309331B72382319C
:1005A0004001AD000530F1002C309331B72382318A
:1005B0004001AE000630F1002C309331B723823178
:1005C0004001AF000730F1002C309331B723823166
:1005D0004001B0002D08031DEE2AEF2A002B2E0843
:1005E000031DF32AF42A002B2F08031DF82AF92AE9
:1005F000002B3008031DFD2AFE2A002B0030F12BB2
:100600002D03031D042B052B162B2E08031D092B70
:100610000A2B162B2F08031D0E2B0F2B162B300821
:10062000031D132B142B162B0130F12B2D08031D4A
:100630001A2B1B2B2C2B2E03031D1F2B202B2C2B9B
:100640002F08031D242B252B2C2B3008031D292BB1
:100650002A2B2C2B0230F12B2D03031D302B312B99
:10066000422B2E03031D352B362B422B2F08031D47
:100670003A2B3B2B422B3008031D3F2B402B422BA8
:100680000330F12B2D08031D462B472B582B2E082A
:10069000031D4B2B4C2B582B2F03031D502B512B81
:1006A000582B3008031D552B562B582B0430F12B9B
:1006B0002D03031D5C2B5D2B6E2B2E08031D612B60
:1006C000622B6E2B2F03031D662B672B6E2B3008BE
:1006D000031D6B2B6C2B6E2B0530F12B2D08031D8E
:1006E000722B732B842B2E03031D772B782B842BDB
:1006F0002F03031D7C2B7D2B842B3008031D812BA6
:10070000822B842B0630F12B2D03031D882B892B84
:100710009A2B2E03031D8D2B8E2B9A2B2F03031D3B
:10072000922B932B9A2B3008031D972B982B9A2BE7
:100730000730F12B2D08031D9E2B9F2BB02B2E086D
:10074000031DA32BA42BB02B2F08031DA82BA92B13
:10075000B02B3003031DAD2BAE2BB02B0830F12B8B
:100760002D03031DB42BB52BC62B2E08031DB92B4F
:10077000BA2BC62B2F08031DBE2BBF2BC62B300355
:10078000031DC32BC42BC62B0930F12B2D08031DD1
:10079000CA2BCB2BDC2B2E03031DCF2BD02BDC2B1A
:1007A0002F08031DD42BD52BDC2B3003031DD92B95
:1007B000DA2BDC2B0A30F12B2D03031DE02BE12B70
:1007C000FE2A2E03031DE52BE62BFE2A2F08031D10
:1007D000EA2BEB2BFE2A3003031DEF2BF02BFE2A16
:1007E0000B3008004001B300A92C0230ED00C82CEA
:1007F0003308EB000330ED00C82C3A303302031C01
:10080000022C032C0C2C33085F39C93EAD00FF309D
:1008100003180030AE00132C3308D03EAD00FF307B
:1008200003180030AE002D08EC000430ED00C82C99
:100830003A303302031C1D2C1E2C272C33085F3941
:10084000C93EAF00FF3003180030B0002E2C330833
:10085000D03EAF00FF3003180030B0006C08AB0092
:100860000330AB35FF3E031D312C2B352F07EC0039
:100870000530ED00C82C3A303302031C402C412CCB
:100880004B2C33085F39C93E4101DC00FF300318AF
:100890000030DD00532C3308D03E4101DC00FF3036
:1008A00003180030DD0001304001EC026C08031D2C
:1008B0005A2C5B2C5D2CED01C82C0630ED00C82CA9
:1008C0003A303302031C652C662C6F2C33085F39D9
:1008D000C93EB100FF3003180030B200762C330857
:1008E000D03EB100FF3003180030B20041015D0876
:1008F0004001AC0041015C084001AB00AB0EAC0E06
:10090000F030AC052B080F39AC04F030AB053108E2
:100910002B074101DC00400132082C3D4101DD0084
:100920005C084001A7006B088931ED21833101305B
:100930004001EC026C08031D9E2C9F2C382C5B2C74
:100940005B303306031DA52CA62CC82CED01ED0A47
:10095000C82C6D08AB00AC012C08003A0319B12C6F
:10096000A02C2B08003A0319A02C013A0319F52BEF
:10097000033A0319F82B013A0319FD2B073A03191F
:10098000182C013A03193B2C033A0319602CA02CB4
:10099000080093318A2384315030F100A030933124
:1009A000742384318B170B178F31A2278431903138
:1009B000672084318E31AB2684319F31F527843115
:1009C000013A031DE42CE52C6C2D90315620843126
:1009D000013A031DEC2CED2C052D4E018C129331A8
:1009E0005E2384319731D22784319231F9228431C8
:1009F0009531D72584318831A7208431DD2C913180
:100A0000932184318331F22384319431E924843178
:100A1000003A031D0C2D0D2DFF2C4D2D00308400B0
:100A200098308500013F8A00003F0A00853140016F
:100A3000CB005208A03E8600023087004B088100A0
:100A40005208A03E8600023087000D3001060319CF
:100A50002A2D2B2D3C2D5208A03E86000230870007
:100A60000A3001060319352D362D3C2D4F30520624
:100A7000031D3B2D3C2D492D5208A03E860002301F
:100A800087008101A0308531992584314001D20150
:100A90004D2D0130CB004B08D20706308400983032
:100AA0008500013F8A00003F0A008531003A031D9E
:100AB0005A2D5B2D0E2DDD2C913193218431420175
:100AC000EA006A08F1000230840098308500013F96
:100AD0008A00003F0A0085319431E9248431003ACC
:100AE000031D732D742D5C2D882D003084009830EB
:100AF0008500013F8A00003F0A008531F60068301A
:100B0000840098308500013F8A00003F0A0085314B
:100B10000630840098308500013F8A00003F0A00BB
:100B20008531003A031D952D962D752DDD2C8031D4
:100B30005528F9007908F1000230F20094311724A9
:100B4000853171080907F8005B30F60068308400D1
:100B500098308500013F8A00003F0A00853140013E
:100B60006E080F39A03E8600013087000108F600AC
:100B70006830840098308500013F8A00003F0A00F9
:100B800085310130F70077084001EE075330F60059
:100B90006830840098308500013F8A00003F0A00D9
:100BA00085317808F7000430F736890BD42D7708A3
:100BB0000F39A03E8600013087000108F60068303A
:100BC000840098308500013F8A00003F0A0085318B
:100BD00078080F39A03E8600013087000108F60032
:100BE0006830840098308500013F8A00003F0A0089
:100BF00085312E2E79088600023087000108F70023
:100C00000430F736890B012E77080F39A03E860095
:100C1000013087000108F6006830840098308500B4
:100C2000013F8A00003F0A008631790886000230C1
:100C3000870001080F39A03E8600013087000108B7
:100C4000F6006830840098308500013F8A00003F3C
:100C50000A0086310130F7007708F9077908860025
:100C6000023087000108031D362E372EFA2D5D3025
:100C7000F6006830840098308500013F8A00003F0C
:100C80000A0086310800FA005B30F6006830840004
:100C900098308500013F8A00003F0A0086314001FC
:100CA0006E080F39A03E8600013087000108F6006B
:100CB0006830840098308500013F8A00003F0A00B8
:100CC00086310130F80078084001EE077A08F60016
:100CD0006830840098308500013F8A00003F0A0098
:100CE00086317708F100F2019431172486317108BA
:100CF000F8007208F9000430F936F80C890B7C2EE4
:100D000078080F39A03E8600013087000108F60000
:100D10006830840098308500013F8A00003F0A0057
:100D200086317708F100F201943117248631710879
:100D30000F39A03E8600013087000108F6006830B8
:100D4000840098308500013F8A00003F0A00863108
:100D5000BB2E7708860087010108F6006830840002
:100D600098308500013F8A00003F0A00863101303B
:100D7000F8007808F7077708860087010108031D47
:100D8000C22EC32EA92E5D30F60068308400983044
:100D90008500013F8A00003F0A0086310800F60105
:100DA0006A30840098308500013F8A00003F0A00C5
:100DB0008631F3006A30840098308500013F8A0054
:100DC000003F0A008631F4006A30840098308500C4
:100DD000013F8A00003F0A008631F5000E2F4F3098
:100DE0007406031DF42EF52E162F4B307506031DC9
:100DF000FA2EFB2E162FF601F60A162F7230740605
:100E0000031D032F042F162F72307506031D092FA3
:100E10000A2F162FF601162F0030562F7308413A6D
:100E20000319EF2E043A0319FE2E0C2F6A308400AA
:100E300098308500013F8A00003F0A0087316A3000
:100E4000840098308500013F8A00003F0A00873106
:100E50006A30840098308500013F8A00003F0A0014
:100E600087316A30840098308500013F8A00003F56
:100E70000A0087316A30840098308500013F8A007B
:100E8000003F0A0087316A30840098308500013FB6
:100E90008A00003F0A0087316A308400983085005C
:100EA000013F8A00003F0A008731760808004001B0
:100EB000B300013091319F2187314001B100B2016F
:100EC0003108B4003208B5003308031D682F692FBC
:100ED0007E2FF101F2013430933134238731F10157
:100EE000F10AF20134309331342387314001340860
:100EF000A6000130913170218731D12F3303031DBA
:100F0000822F832F992FF101F201F20A34309331AD
:100F100034238731F101F10AF20134309331342363
:100F2000873140013408A6000130913170218731AA
:100F3000D12F02303306031D9E2F9F2FB52FF101B5
:100F4000F2013430933134238731F101F10AF20197
:100F5000F20A343093313423873140013408A6003B
:100F60000130913170218731D12F03303306031DB9
:100F7000BA2FBB2FD12FF101F201F20A3430933195
:100F800034238731F101F10AF201F20A343093314E
:100F90003423873140013408A6000130913170219B
:100FA00087318A31D02287310800F901F82F6A3061
:100FB000840098308500013F8A00003F0A00873195
:100FC000F8007408F7007308F600790876078400C3
:100FD00077080318770A8500000878060319F12FAF
:100FE000F22FF42F0030FF2F0130F6007608F907BA
:100FF00075087902031CFD2FFE2FD72F0130080042
:1010000072084001E7007108E6006708F300F40188
:101010006608F500F6017508F600F5017308750419
:10102000F10074087604F2000800FA00F9013C2887
:101030006C30840098308500013F8A00003F0A0030
:101040008831003A0319252826283C2879087A0790
:10105000F80078088600023087000108F600683042
:10106000840098308500013F8A00003F0A008831E3
:101070000130F8007808F90777087902031C412845
:10108000422818280800F8007808F100F20194318D
:10109000172488317108F7007708F8077808860068
:1010A0008701760E0F398919F0380F39A03E840078
:1010B00001308500000881000130F7007708F8074B
:1010C00078088600870176080F39A03E8400013039
:1010D0008500000881000130F7007708F8077808DC
:1010E0008600870181010800FB007B088831DB2036
:1010F0008831003A03197D287E2875287430F50060
:101100001230F6002530F700913144218831243027
:10111000F1000030F2000130F3000030F4009131B2
:10112000E22188310030F500F6000030F700F800C9
:1011300091314F21883190314C2088319331CE2329
:101140008831013A0319A528A6289E2808004001E5
:10115000A201B601BF2836089C3E840098300318CF
:10116000013E85000008B5003508F60022308831C0
:101170004320883101304001A0002008B6079C3090
:10118000F1009830F200943117248831400136087C
:10119000A000A10172082102031DD02871082002BD
:1011A000031CD328D428AB282230F70056308631D0
:1011B000432688310800F100F201F20A41013D198D
:1011C000E228E3280F297108B600BD103D153D1037
:1011D0000E30BB00F430B4000130B500BD15D8307E
:1011E000A0001F30A100AC01D830A2001F30A30026
:1011F000AD01D830A4001F30A500AE01D830A60044
:101200001F30A700AF010030A8001030A900B001C6
:101210009F31DA2788319131B8218831F201720883
:1012200008004001C0004008F100203093310C2339
:1012300089314001C10130294108203E86008701E3
:101240000108F1000230840098308500013F8A00D7
:10125000003F0A0089310130F60076084001C107DD
:101260004008F100FF39031D0330F20094311724C8
:10127000893140014108F600F70172087702031D29
:10128000432971087602031C462947291C290800B6
:101290009731492789319130F7009830F8007B0861
:1012A0008D31C2258931003A0319572958295C2903
:1012B0004001C201E40172297A30F7009830F80049
:1012C0007B088D31C2258931003A031968296929C3
:1012D0006F294001C201C20AE401E40A7229023006
:1012E0004001C2007B088931112189318E315D2690
:1012F00089314001420895316B2589310800400150
:10130000B300073091319F2189314001B100B20112
:101310003108B4003208B5003308031D9029912923
:101320009F29F101F2013430933134238931400196
:101330003408A6000730913170218931B229330376
:10134000031DA329A429B229F101F201F20A3430C4
:1013500093313423893140013408A600073091319C
:10136000702189318A31D022893108004001B300CF
:10137000033091319F2189314001B100B201310820
:10138000B4003208B5003308031DC729C829D6297F
:10139000F101F201343093313423893140013408B2
:1013A000A6000330913170218931E9293303031DEF
:1013B000DA29DB29E929F101F201F20A343093310B
:1013C0003423893140013408A60003309131702163
:1013D00089318A31D022893108004001A9001C2AB4
:1013E0002708A8000430A836890BF32928080139FA
:1013F000AA002A08031DFD29FE29062A2718012A0A
:10140000022A042A9816242A9812242A2718092A1C
:101410000B2A01300C2A0030923100228931242A13
:101420002708F1000230840098308500013F8A00CF
:10143000003F0A008A31242A29084C3A0319F0296E
:101440001F3A0319102A242A08007C08C63E860089
:101450008701810154011D1D2E2A2F2A3A2A7C085A
:10146000C63E860087018114410169088A00680828
:101470000A008A3154019D1C3E2A3F2A4A2A7C08D0
:10148000C63E860087010115420169088A00680886
:101490000A008A317C08C63E8600870101080319CC
:1014A000522A532A5A2A420167088A0066080A000B
:1014B0008A315D2A9331FE238A3108004001B5004C
:1014C00036309131F1218A3140013508860087019B
:1014D0003608C03F3708C13F92312E228A31003A88
:1014E0000319732A742A6C2A3630973176278A3189
:1014F00040013508023E860087013608C03F3708A4
:10150000C13F92313F228A31003A0319882A892A41
:10151000812A36309731A4278A3140013508043EAC
:10152000860087013608C03F3708C13F08004001E8
:10153000B300033091319F218A314001B100B201E3
:101540003108B4003208B5003308031DA82AA92ABF
:10155000B82AF101F10AF2013430933134238A318F
:1015600040013408A6000330913170218A31CC2A21
:101570003303031DBC2ABD2ACC2AF101F10AF20172
:10158000F20A3430933134238A3140013408A60002
:101590000330913170218A318A31D0228A3108009A
:1015A0009031CE208A314001B000F10130309331CA
:1015B000B7238A314001AC00F101F10A3030933198
:1015C000B7238A314001AD000230F1003030933151
:1015D000B7238A314001AE000330F100303093313F
:1015E000B7238A314001AF002C080319F82AF92AE1
:1015F0000A2B2D080319FD2AFE2A0A2B2E0803198F
:10160000022B032B0A2B2F080319072B082B0A2B5D
:10161000FF300B2B0030080040015508BE3E86000D
:101620008701810142011D1D162B172B232B400121
:101630005508BE3E860087018114420161088A0078
:1016400060080A008B3142019D1C272B282B342B6C
:1016500040015508BE3E86008701011542015F0822
:101660008A005E080A008B3140015508BE3E8600A4
:101670008701010803193D2B3E2B452B42015D08D4
:101680008A005C080A008B31482B943162248B312C
:1016900008004E0199120C30F1000B30F20090312D
:1016A0008B208B314E0119124830F1001530F200B9
:1016B000903191208B31083042019F0090309D0085
:1016C00024309E0040309B0003309C00D530F10058
:1016D0001F30F20090317F208B31FC30F1001F3041
:1016E000F200903185208B31F830F1001F30F2008C
:1016F000903179208B314101DE014001D801D701C1
:101700000830D600D501D401D3014E019916080046
:101710004E0199132530F1000A30F2009031A920D2
:101720008B314E0119132630F1001530F200903143
:10173000AF208B31083054019F0090309D00243041
:101740009E0040309B0003309C00D630F1001F30DB
:10175000F20090319D208B310630F1001030F20004
:101760009031A3208B310230F1001030F200903123
:1017700097208B314101DF014001DD01DC010830A0
:10178000DB00FC01DA01D9014E0199170800400184
:10179000AA0040012A088831DB208B31003A031966
:1017A000D22BD32BC92B9A30F5001230F6002B30F8
:1017B000F700913144218B312430F1000030F200E8
:1017C0000130F3000030F4009131E2218B31003020
:1017D000F500F6000030F700F80091314F218B3111
:1017E00090314C208B319331CE238B31013A031948
:1017F000FA2BFB2BF32B40012C08A7002B08A6008B
:101800002708A600A7012B08A900A801260828047C
:10181000A40027082904A5000800013091319F2168
:101820008C314001AC00F1012C309331B7238C3165
:101830004001AD00F101F10A2C309331B7238C3116
:101840004001AE002D08031D262C272C2E2C2E081F
:10185000031D2B2C2C2C2E2C0030532C2D03031D60
:10186000322C332C3A2C2E08031D372C382C3A2CD2
:101870000130532C2D08031D3E2C3F2C462C2E03EB
:10188000031D432C442C462C0230532C2D03031DE6
:101890004A2C4B2C522C2E03031D4F2C502C522C17
:1018A0000330532C2C2C080030304001A200303083
:1018B000A5003030A300201E5E2C5F2C622C31303E
:1018C000A400642C3030A40020080F39303EA20060
:1018D000211E6B2C6C2C6F2C3130A500712C3030FC
:1018E000A50021080F39303EA3007C304401A00040
:1018F0004F30A1002C30A200400124084401A30075
:10190000400122084401A4002C30A5004001250814
:101910004401A600400123084401A7000D30A8009F
:101920000A30A9000A30F7002030883115208C31A8
:101930008631CF268C310800033091319F218C31C4
:101940004001AC000230F1002C309331B7238C31D0
:101950004001AD000330F1002C309331B7238C31BE
:101960004001AE002D08031DB62CB72CBE2C2E084E
:10197000031DBB2CBC2CBE2C0030E32C2D03031DFF
:10198000C22CC32CCA2C2E08031DC72CC82CCA2C51
:101990000130E32C2D08031DCE2CCF2CD62C2E038A
:1019A000031DD32CD42CD62C0230E32C2D03031D85
:1019B000DA2CDB2CE22C2E03031DDF2CE02CE22C96
:1019C0000330E32CBC2C08009F31EF278C31F90049
:1019D0001730A03E86008701403F8400413F8500CC
:1019E0007908800001304101B7070030B83D01306F
:1019F000B9020030BA3B39083A040319002D012D11
:101A0000062D90310E208C3105302C2DBD15102D5A
:101A1000903142208C312C2D90313D208C312C2D59
:101A20002C08F80021088A0020080A008D31F900EE
:101A3000FA017A08003A03191E2D0C2D7908013A93
:101A400003190C2D033A0319082D013A0319082D27
:101A5000073A03190C2D0C2D080040019C01313070
:101A600098009901C1309A0008309600DE3092004B
:101A7000EF309300253094007E01CE01C930C300C1
:101A80000E30B800E501C401B901CF01E601BA0189
:101A9000C501D001FF30BB00FF30C600FF30D100D0
:101AA0003F30BC003F30C7003F30D2003F133E13F1
:101AB0003D17D730F1001F30F2009031B5208D3145
:101AC0004E01161609307D01C50013307E019900C4
:101AD00014309A002530A4000F309C0015307D0191
:101AE000CD000A30C6000D30CB0008006A308400FB
:101AF00098308500013F8A00003F0A008D31400187
:101B0000C4005E03031D852D862DB02D25304406AF
:101B1000031D8B2D8C2D9E2DDE0161088600033068
:101B2000870081016308FB007830840098308500CD
:101B3000013F8A00003F0A008D31BF2D6308620714
:101B400061020318A42DA52DBF2D61088600033066
:101B50008700440881000130C3004308E107BF2D1E
:101B600025304406031DB52DB62DBB2DDE01DE0A42
:101B70006308E100BF2DDF01DF0A4408E0004001F7
:101B80005F0808004001A200770878040319C92DF6
:101B9000CA2D0D2E7808F2007708F1009431172431
:101BA0008D3172084001A1007108A000FF2D780856
:101BB000F2007708F1002108F4002008F300220861
:101BC0008E31F9268D3171087204031DE82DE92D3F
:101BD000EC2D400122080E2E77088400780885003D
:101BE0000008F900FA017908F1007A08F2004001D2
:101BF0002208013E943130248D314001A200220898
:101C00000319032E042E0D2E2208860003308700B0
:101C10000108031D0C2E0D2ED72D003008004001A9
:101C2000A5002A30A9000230A7000030A80040011A
:101C300025088831DB208E31003A0319202E212E11
:101C4000172E8730F5001230F6002930F700913159
:101C500044218E312430F1000030F2000130F300D5
:101C60000030F4009131E2218E310030F500F600B1
:101C70000030F700F80091314F218E3190314C2027
:101C80008E319331CE238E314001A60026030319F5
:101C90004A2E4B2E412E2608031D4F2E502E512E1C
:101CA0005B2EFF30A707FF30A83D27082804031D3F
:101CB0005A2E5B2E172E290808002030F100023022
:101CC000840098308500013F8A00003F0A008E3171
:101CD0003E30F1000230840098308500013F8A00D8
:101CE000003F0A008E313E30F1000230840098300F
:101CF0008500013F8A00003F0A008E313E30F1002E
:101D00000230840098308500013F8A00003F0A00BD
:101D10008E312030F1000230840098308500013F80
:101D20008A00003F0A008E310D30F100023084003D
:101D300098308500013F8A00003F0A008E310A304A
:101D4000F1000230840098308500013F8A00003F96
:101D50000A008E3108009331E6238E31003A0319D0
:101D6000B22EB32EB42EF82E07308031A9208E313A
:101D7000013089317F218E310230873157278E31F2
:101D800001308A3197228E3101308931B6218E316E
:101D90008A31D0228E31003A0319CF2ED02ED12E87
:101DA000F82E92311E228E31003A0319D82ED92EE8
:101DB000DA2EF82E8C310D248E31023A0319E12EE1
:101DC000E22EE32EF82E8231C4228E31073A031917
:101DD000EA2EEB2EEC2EF82E92310F228E31013AA4
:101DE0000319F32EF42EF52EF82E8C319C248E310F
:101DF0000800F6000130F3020030F43B730A031DC3
:101E0000052F740A031D052F062F152FF101F2016E
:101E10004B2F0130F5007508F6070130F10700304F
:101E2000F23D0130F3020030F43B760886000330C7
:101E30008700010803191D2F1E2F3D2F71088400F4
:101E40007208850012000319262F272F3D2F7308D3
:101E5000740403192C2F2D2F3D2F71088400720854
:101E600085000008F5007608860003308700010829
:101E7000750603193C2F3D2F092F76088600033085
:101E80008700710884007208850000080102F100D3
:101E9000F201031CF203080090315B208F31003AFD
:101EA0000319532F542F822F612F903124208F310B
:101EB000A12F903129208F31A12F903133208F31E4
:101EC000A12F41012F08F8000630A03E86008701AF
:101ED000413F8A00403F0A008F31F900FA017A0839
:101EE000003A0319742F5D2F7908013A03195D2F09
:101EF000033A0319552F013A0319592F073A0319C9
:101F00005D2F5D2F41013D103808FA003708F900B8
:101F1000B70A0319B80A790886007A088700010809
:101F200090311A208F3101304101B9020030BA3BA3
:101F300039083A04031D9D2F9E2FA02F0630A12F94
:101F400003300800F101F10A7430840098308500F4
:101F5000013F8A00003F0A008F31F101F10A72301F
:101F6000840098308500013F8A00003F0A008F31CD
:101F70000130F4000030F5007630840098308500A0
:101F8000013F8A00003F0A008F31F1017230840066
:101F900098308500013F8A00003F0A008F31F1012F
:101FA000F10A7030840098308500013F8A00003FBC
:101FB0000A008F31C830F4000030F500763084001C
:101FC00098308500013F8A00003F0A008F31F12FD1
:101FD0006A30840098308500013F8A00003F0A0083
:101FE0008F316E30840098308500013F8A00003FB9
:101FF0000A008F31003A031DFE2FFF2FE82F080043
:10200000053008009331FE239031080054011D1261
:102010001D16080043019116111608004301911284
:102020001116080054011E0C0139080042011E0C53
:1020300001390800F100710843018C0008004101DA
:10204000BD10BC010E3008009F31E62790310130F1
:1020500008009F31E6279031023008009F31E627C3
:102060009031013008009F31E9279031003008009D
:1020700090310E2090310530080090310A209031C7
:102080000A30080090310A209031093008004101DF
:10209000BD10BC010E30080000309531052590318F
:1020A0000800400151080139013C08004E010C0EA6
:1020B000890C013908004301110E890C890C013982
:1020C00008004E010F1C65286628612808000130B1
:1020D0004001D0000130D100080040010C0E890CF5
:1020E0000139013C080040010C0D0C0D0139013C87
:1020F000080072084201DD007108DC000800720867
:102100004201E1007108E000080072084201DF00AE
:102110007108DE00080072084201E3007108E20065
:10212000080072084201E5007108E4000800720826
:102130004201E7007108E600080072084101E90069
:102140007108E800080072084201E9007108E8001F
:10215000080072084101EB007108EA0008007208EB
:102160004101ED007108EC00080072084101E70030
:102170007108E6000800640080010131890BBC2869
:102180000034FE0012001E00FE0BC2280034410184
:102190003D109F31EC279031043008001C30913104
:1021A0009F219031FB007B08080041013D1436352A
:1021B00090311A209031033008007508F20074083D
:1021C000F10093314823903108007E013F1FE92838
:1021D000EA28ED289131D3219031080041013D14C6
:1021E0000314360D90311A2090310530080040015B
:1021F0005908031DFC28FE280130FF280030080084
:1022000040015308031D0529072901300829003022
:10221000080043018F010830900091014F308D007C
:10222000901208001430840098308500013F8A0025
:10223000003F0A0091310800223084009830850068
:10224000013F8A00003F0A00913108001A308400E3
:1022500098308500013F8A00003F0A009131080054
:10226000603051018D008F01910106309300900183
:10227000920108004F0196019701980199019A0176
:102280009B019C019D0108007608F2007508F10091
:102290007708F300003095318E25913108007608DB
:1022A000F2007508F1007708F300023095318E25B1
:1022B000913108007103031D5E295F2962294001E5
:1022C0001A13642940011A1708007103031D6929B4
:1022D0006A296D29400118106F294001181408005F
:1022E0004001A7002708A4002608A5002230883155
:1022F0007420913108007608F1001630840098307F
:102300008500013F8A00003F0A009131080040012A
:1023100092137103031D8D298E29902998179129F5
:102320009813921708009431E9249131003A031967
:102330009A299B2993294001DF0160080800400188
:10234000AA002A08A40022308E310F2691314001C4
:10235000AB002B080800B2299031612091319631F1
:10236000742691314101BD18B629B729AC2908005E
:102370004301901ABC29BD29C4298F01083090005F
:1023800091014F308D0090160800FB007908F6008F
:102390007B088831432091317A08F6007B08883128
:1023A0004320913108004101660867040319D929C7
:1023B000DA29DF2967088A0066080A0091317E0160
:1023C0003F1308004101BD1DE629E729F0297208E5
:1023D000B8007108B7007408BA007308B900BD11DD
:1023E00008004001B40012309531B225913140010E
:1023F0003408860087012D08C03F2E08C13F080021
:102400004001A6000130FB002608FB0251087B06B4
:10241000FE397B06D1009431CD249231080007307B
:1024200091319F2192314001AD00F1012D30933166
:10243000B72392314001AC002C08080001309131E3
:102440009F2192314001AD000430F1002D309331D5
:10245000B72392314001AC002C0808000430400141
:10246000A40019308E310F2692310139031D392A0B
:102470003B2A01303C2A0030FB007B080800063074
:102480004001A40019308E310F2692310139031D0D
:102490004A2A4C2A01304D2A0030FB007B080800F4
:1024A00030343134323433343434353436343734F0
:1024B0003834393441344234433444344534463476
:1024C00000347808F100F2010230F3000030F4002B
:1024D0009131E22192310030F500F600F70191319F
:1024E00044219231043008007808F100F2010130F3
:1024F000F3000030F4009131E22192310030F50018
:10250000F600F70191314421923104300800780837
:10251000F100F2010130F3000030F4009131E221CA
:1025200092310030F500F600F701913144219231EB
:10253000023008007808F100F2010230F3000030A8
:10254000F4009131E22192310030F500F600F701FC
:10255000913144219231023008007808F100F201F3
:102560000230F3000030F4009131E221923100306A
:10257000F500F600F7019131442192310430080052
:102580007808F100F2010130F3000030F4009131DD
:10259000E22192310030F500F600F701913144213B
:1025A0009231023008007808F100F2010230F300A5
:1025B0000030F4009131E22192310030F500F60054
:1025C000F701913144219231023008007808F1007E
:1025D000F2010130F3000030F4009131E221923138
:1025E0000030F500F600F7019131442192310430BA
:1025F00008009031732092314001A000A101200811
:10260000F60021308831432092312130F7005030DC
:102610008631432692310800F3007308F2007208F5
:1026200086008701F20A7108840003308500F10AF0
:102630000008C03F8908031D1E2B1F2B0F2B08000D
:1026400047304B019F000B309D00DC309C001D0883
:102650004001CD004B011C084001CC004E018C1202
:1026600090304B019E000800F5007208F300710ADB
:102670003A2BF335890B392B7308F4007508860063
:102680008701750884008501000874048100080032
:10269000512B0B30F3006230890B4C2BF30B4C2B7E
:1026A00000320130F1020030F23B710A031D5C2B55
:1026B000720A031D5C2B5D2B492B08004001B201FF
:1026C000373097311C27933140013808FA0037081A
:1026D000F90032309131C52193313230F700543056
:1026E0008631432693310800F20072080319792BD2
:1026F0007A2B882B02307102031C7F2B802B882BB6
:1027000072084001E3007108FF3EE2000130892BAE
:102710000030080091313A219331913109219331F0
:102720008D312D25933191313021933193312023F7
:1027300093318B31492393318B31882393310800B6
:1027400024304401A0002430A1002430A200033032
:10275000F7002030883115209331A730F3009830EE
:10276000F4000530F5008731D52793310800F400D7
:102770007408860087010130F200710AC02BF2351F
:10278000890BBF2B72080105F3007308031DC92BC9
:10279000CA2BCC2B0030CD2B01300800F101F10AFF
:1027A0004101BD18D42BD52BE42B3D11FF30B600D1
:1027B0009F31DA2793319F31E02793319F31DD2715
:1027C000933141013C08F10071080800943149241B
:1027D000933140012E084101D70040012D084101ED
:1027E000D600493056065430031957060319F92B01
:1027F000FA2BFC2BFF30FD2B003008007C08543EE8
:102800008600013087005401190881000130F00072
:102810007008FC0708307C02031C0F2C102C112CB4
:10282000FC010130F00070084001D907080072086F
:10283000F5007108F400202C0130F1070030F23D62
:1028400071088400720885001200031D282C292CB1
:102850001C2C74087102F1007508723BF20008002C
:10286000F300730886000330870001087106031D1A
:102870003A2C3B2C3D2C7308482C730886000330FF
:102880008700F30A0108031D462C472C312C003029
:1028900008000E304001A40022308B31C723943150
:1028A00040012508B0002408AF003008F2002F08CE
:1028B000F10088310020943172084001AE007108A7
:1028C000AD00080040015508443E860001308700F5
:1028D0004201190881000130F00070084001D5075D
:1028E00008305502031C752C762C772CD50101304D
:1028F000F0007008D30708007808023E86008701C0
:10290000403FF100413FF200780886008701403FD8
:10291000F300413FF4009131E22194310030F500A1
:10292000F600F70191314421943102300800780813
:10293000023E86008701403FF100413FF2007808E7
:1029400086008701403FF300413FF4009131E221CE
:1029500094310030F500F600F701913144219431B3
:10296000023008002D304401A0002D30A1002D3090
:10297000A2000D30A3000A30A4000530F70020307B
:10298000883115209431A230F3009830F4000530DE
:10299000F5008731D527943108009331A023943175
:1029A0001430F4000030F500763084009830850053
:1029B000013F8A00003F0A00943140015108A10004
:1029C0005008A0008C31542494319431B2249431B5
:1029D000080040015F080319EE2CEF2CF12C0130A8
:1029E000042D6E30840098308500013F8A00003F3E
:1029F0000A009431003A0319FE2CFF2C032D8D316F
:102A000076259431042D003008004001A200A30176
:102A1000A30A4101BD180D2D0E2D232DBD1440011B
:102A2000A30122080319152D162D1A2D4101BB01F2
:102A3000BB0A1D2D02304101BB009F31E3279531B8
:102A40009131AB2195314001230808000830400145
:102A50005B0203182C2D2D2D452D5C08CE3E8600E3
:102A60008701010854019A000130F000700840010C
:102A7000DC0708305C02031C3E2D3F2D402DDC019D
:102A80000130F0007008DB07472D4E0119130800D4
:102A900008304001560203184E2D4F2D682D57085F
:102AA0004C3E860001308700010842019A00013047
:102AB000F00070084001D70708305702031C612D51
:102AC000622D632DD7010130F0007008D6076A2D02
:102AD0004E0119120800F3007308031D702D712DAB
:102AE0007D2D5B30F1000230840098308500013F7D
:102AF0008A00003F0A0095318D2D7303031D812D3F
:102B0000822D8D2D5D30F1000230840098308500DB
:102B1000013F8A00003F0A0095310800F400710867
:102B200072040319942D952DA42D7435A03E8600B2
:102B300087017108C03F7208C13F7408AC3E86002F
:102B4000870173088100B12D7435A03E860087018E
:102B5000D830C03F1F30C13F7408AC3E86008701AB
:102B600081010800FB007B084001A40022308B316A
:102B7000C723953140012508CF002408CE004F0817
:102B8000E7004E08E6006708AF00B0016608B10034
:102B9000B2013108B200B1012F083104CE00300873
:102BA0003204CF004F08AE004E08AD00080090314F
:102BB0006D2095314001A300A0012308F6002030CC
:102BC0008831432095312030F7004C308631432640
:102BD0009531903151209531103E4001A300A00164
:102BE0002308F60020308831432095312030F7004B
:102BF0004C30863143269531080040015B080319AB
:102C0000022E032EFD2D4E01191B072E082E0C2E11
:102C1000710854019A00212E191340015D08CE3E1F
:102C200086008701710881000130F2007208DD071B
:102C300008305D02031C1D2E1E2E1F2EDD010130EB
:102C4000DB024E011917080041013D100230BC00A3
:102C5000312E90312E2096314B2E903133209631EB
:102C60004B2E2E08F8000430A03E86008701413F1D
:102C70008A00403F0A009631F900FA017A08003ACA
:102C80000319432E2D2E7908023A0319292E013AF1
:102C90000319292E2D2E0800400156080319512E24
:102CA000522E4C2E4E01191A562E572E5B2E71089D
:102CB00042019A00712E1912400158084C3E8600BC
:102CC00001308700710881000130F2007208D807D6
:102CD00008305802031C6D2E6E2E6F2ED801013065
:102CE000D6024E01191608009F31DA2796314101AC
:102CF0003D1C7B2E7C2E872E90315B209631003A36
:102D00000319832E842E872E0F304101BB00410111
:102D10003B084001A000A101A035A10D28302007EB
:102D200084001830213D80388500013F8A00003F33
:102D30000A0096314101BB000800400159080319FF
:102D4000A22EA32E9D2E5A08C63E8600870101089A
:102D50004101DF0040015A08543E860001308700DF
:102D60000108F2000130F1007108DA0708305A0258
:102D7000031CBB2EBC2EBD2EDA014E01991301306F
:102D80004001D9024E01991772080800400153080A
:102D90000319CB2ECC2EC62E5408BE3E86008701CA
:102DA00001084101DE0040015408443E8600013024
:102DB00087000108F2000130F1007108D4070830E3
:102DC0005402031CE42EE52EE62ED4014E01991286
:102DD00001304001D3024E019916720808004101EA
:102DE000BD15FF2E90312E2096311B2F9F31F227DB
:102DF000963103301B2F9031332096311B2F2C0836
:102E0000F80021088A0020080A009731F900FA0129
:102E10007A08003A03190D2FFB2E7908013A03199D
:102E2000FB2E033A0319F22E013A0319F22E073A48
:102E30000319F62EFB2E0800FB0010304001A40001
:102E400022308B31C723973140012508CF00240859
:102E5000CE004E08B53ECE00BB304F3DCF00E7015F
:102E60004E08E6006608AD00AE016708AF00B0018D
:102E70002F08B000AF012D082F04CE002E0830041B
:102E8000CF007B08860087014E08C03F4F08C13F36
:102E900008003C30F1000230840098308500013F8A
:102EA0008A00003F0A0097313C30F1000230840074
:102EB00098308500013F8A00003F0A0097313C307E
:102EC000F1000230840098308500013F8A00003F05
:102ED0000A0097312030F1000230840098308500DC
:102EE000013F8A00003F0A00973108004001AD0011
:102EF00092312E229731003A03197F2F802F782F9D
:102F000004304001A40019308E310F269731400162
:102F1000AE000530A40019308E310F2697314001E4
:102F2000AF002F08AB002E08AA000430AC002B0D18
:102F3000AB0CAA0CAC0B972F2D08860087012A0832
:102F4000C03F2B08C13F08004001AD0092313F2235
:102F50009731003A0319AD2FAE2FA62F063040014E
:102F6000A40019308E310F2697314001AE00073092
:102F7000A40019308E310F2697314001AF002F0881
:102F8000AB002E08AA000430AC002B0DAB0CAA0C31
:102F9000AC0BC52F2D08860087012A08C03F2B08DF
:102FA000C13F08004001B80145308A315E229731A7
:102FB000FF3040014505F9000F304605FA00383072
:102FC0009131C5219731FF3040014705F9000F309D
:102FD0004805FA0038309131C5219731FF30400162
:102FE0004905F9000F304A05FA0038309131C52102
:102FF00097313830F7005830863143269731080032
:10300000C63416344C3416340034003400341134D1
:10301000913410340C340B348B3410341634103497
:103020004834153449340B349D341634FD3415348A
:1030300000340034F7341034AF34103425340A34FB
:10304000A9341034123410342634153488340B3437
:103050001F341034EE341034D53410344C340F3463
:10306000E4340C34C7341034EF34163424341034C0
:10307000293410342E3410343334103438341034AE
:103080003D34103442341034473410342434163470
:103090000034003400340034003400340034003490
:1030A0000034003400340034003400340034003480
:1030B0000034003400340034003400340034003470
:1030C0000034003400340034003400340034003460
:1030D0007B341134123411341C341134263411343D
:1030E0005A3411346534113487341134DD341034DA
:1030F00048340934533454345234453441344D3413
:103100005F344F34503445344E34003452346534D7
:1031100062346F346F34743469346E3467340D3410
:103120000A3444344934533443344F344E344E34E7
:10313000453443345434003431342E3431342E3455
:103140003034003445344E3444340D340A3443347E
:083150004D3444343E342034B8
:103FAA00080008000800013008004E010F10080040
:103FBA004301901208004E01191008004301111420
:103FCA000800430191140800430111150800430138
:103FDA009115080043010C0808004E010F1408004F
:103FEA00400164080800943162249F3108004201AC
:0E3FFA001D121D1608009C3498349C34983417
:020000040001F9
:08000000FF3FFF3FFF3FFF3F00
:0A000E00EC3FFF3F9F3FFF3FFF3F25
:00000001FF
