:1000000080315528303430347E1480314E01161E34
:100010000A280B2813280C1E0E280F2813288831B5
:10002000EC20803153280B1F162817285328191F3E
:100030001A281B2826280F1F1E281F2826284301A0
:1000400033088A0032080A0080315328991F292872
:100050002A2835288F1F2D282E28352843013108BE
:100060008A0030080A0080315328191E38283928A0
:1000700044280F1E3C283D284428430129088A00B3
:1000800028080A0080315328991E472848285328F9
:100090008F1E4B284C285328430127088A00260826
:1000A0000A00803153287E10090080315728410111
:1000B000803102208031EC00803103208031ED005E
:1000C000633084008A308500B430860001308700B8
:1000D00011308831C7208031FC014001EF01A03090
:1000E0008400003085004A308831C12080312030C2
:1000F0008400013085004C308831C1208031C5300A
:1001000084000130850010308831C12080312030DA
:1001100084000230850040308831C1208031A03019
:1001200084000230850050308831C1208031203079
:1001300084000330850050308831C1208031A030E8
:1001400084000330850050308831C12080317E101A
:1001500040018731012F40012D088039BA002D352B
:10016000BC00AC1FB428B528B6283C143C080319C1
:10017000BA28BB28CB283C0A031DBF28C028C828A2
:100180000030AD000030AC000030AB000030AA0001
:10019000AC17AD01D3280030AD000030AC0000300A
:1001A000AB000030AA0031088039BB003B083A069A
:1001B0000319DB28DC28DD283A173135BB00B01FD6
:1001C000E228E328E4283B143B080319E828E9283F
:1001D000F9283B0A031DED28EE28F6280030B1006F
:1001E0000030B0000030AF000030AE00B017B101F9
:1001F00001290030B1000030B0000030AF00003005
:10020000AE003C083B020318062907292D293A1F96
:100210000A290B290F298030B2003208BA063C089F
:10022000BD003B08BC003D08BB002A08BD002E08ED
:10023000AA003D08AE002B08BD002F08AB003D080A
:10024000AF002C08BD003008AC003D08B0002D0800
:10025000BD003108AD003D08B100BD013B08B20052
:10026000B3013308B5003C083202B400031CB503E7
:100270003508803AB60080303602031D41291A3015
:100280003402031C44294529772940012D082C04F8
:100290002B042A04031D4D294F2901305029003019
:1002A000BD000030AD000030AC000030AB000030CD
:1002B000AA003B08BC007E293D1C5F2960296429F7
:1002C0003D360138BD0066290310BD0C2A1C692982
:1002D0006A296B29BD170130B200AD37AC0CAB0CED
:1002E000AA0CB20B6D290130B2003208BC074001E4
:1002F0003B083C02031C7D297E295C293A1B81298D
:100300008229B8293C08031D8629872990290030B5
:10031000AD000030AC000030AB000030AA00B22AC3
:100320002E08AA072F08AB3D3008AC3D3108AD3D83
:100330002D1C9B299C29442A3D1C9F29A029A429C6
:100340003D360138BD00A6290310BD0C2A1CA92981
:10035000AA29AB29BD170130B200AD37AC0CAB0CEC
:10036000AA0CB20BAD290130B2003208BC07442AF6
:100370002D08803AB2003108803A3202031DCA29A2
:1003800030082C02031DCA292F082B02031DCA297D
:100390002E082A020318CD29CE29062AFF30B200E2
:1003A000FF30B300FF30B400FF30B5002A082E0242
:1003B000B6002B082F3BB7002C08303BB8002D08A7
:1003C000313BB9003608B2073708B33D3808B43DB1
:1003D0003908B53D3508AD003408AC003308AB0032
:1003E0003208AA008030B2003208BA06BD09BD0A40
:1003F0003D08031DFC29FD290E2A0130AA07003003
:10040000AB3D0030AC3D0030AD3D0E2A2E08AA02B7
:100410002F08AB3B3008AC3B3108AD3B2D082C041A
:100420002B042A04031D152A162A402A3D08031D01
:100430001A2A1B2A402A0030AD000030AC000030E0
:10044000AB000030AA00B22A0130AA35AB0DAC0DCA
:10045000AD0D890B252ABD1F2E2A2F2A302A2A14DA
:100460003D1C332A342A372A0314BD0D392A0310C0
:10047000BD0D3C0803193D2A3E2A402A0130BC022A
:10048000AC1F432A442A242ABB01BD1F482A492AFB
:10049000572A3D087F3903194E2A4F2A522ABB0199
:1004A000BB0A572A2A1C552A562A572A4F2A3B0884
:1004B00003195B2A5C2A892A0130AA070030AB3D68
:1004C0000030AC3D0030AD3D2D1C672A682A892ADA
:1004D0002A08B2002B08B3002C08B4002D08B50080
:1004E0000130B600B537B40CB30CB20CB60B722A9F
:1004F0003508AD003408AC003308AB003208AA0060
:100500003C0A0319842A852A892A0130B20032085C
:10051000BC073C0A03198D2A8E2A932A3C08031D26
:10052000922A932AA12A0030AD000030AC0000309E
:10053000AB000030AA003C08031D9F2AA02AA12A74
:10054000BA013C1CA42AA52AA72AAC17AB2A7F30E3
:10055000B2003208AC053C36AD00BA1FB02AB12A51
:10056000B22AAD170800400145088039CF00453553
:10057000D600C41FBC2ABD2ABE2A56145608031929
:10058000C22AC32AD32A560A031DC72AC82AD02A38
:100590000030C5000030C4000030C3000030C2008D
:1005A000C417C501DB2A0030C5000030C40000308C
:1005B000C3000030C20041088039C6004608CF069B
:1005C0004135D700C01FE52AE62AE72A5714570805
:1005D0000319EB2AEC2AFC2A570A031DF02AF12AF8
:1005E000F92A0030C1000030C0000030BF000030E8
:1005F000BE00C017C101042B0030C1000030C00094
:100600000030BF000030BE00410840043F043E04FB
:10061000031D0B2B0C2B252B0030C5000030C40014
:100620000030C3000030C2008030C4047F30C504F5
:100630004F08C6004608C5044508C1004408C0006C
:100640004308BF004208BE005C2C5608031D292B3E
:100650002A2B332B0030C1000030C0000030BF0017
:100660000030BE005C2C5608C600C7014708C90010
:1006700057084602C800031CC90348087F3ED00043
:100680000030493DD1004508CE004408CD00430864
:10069000CC004208CB000030C5000030C400003060
:1006A000C3000030C2000030D5000030D40000305C
:1006B000D3000030D200D7019B2B57080319612BC0
:1006C000622B7C2B0130CB35CC0DCD0DCE0D890BA3
:1006D000632B0130C235C30DC40DC50D890B6A2BC8
:1006E000D51F732B742B752B42140130D235D30DCB
:1006F000D40DD50D890B762B41084E02031D8A2B94
:1007000040084D02031D8A2B3F084C02031D8A2B13
:100710003E084B02031C8D2B8E2B972B55173E0842
:10072000CB023F08CC3B4008CD3B4108CE3B0130DB
:10073000C6004608D7071A305702031CA02BA12B6E
:100740005D2B4E084D044C044B040319A82BA92B18
:10075000C22B5214C22B0130C235C30DC40DC50DBE
:10076000890BAC2BD51FB52BB62BB72B4214013000
:10077000D235D30DD40DD50D890BB82BFF30D00752
:10078000FF30D13DC41FC52BC62BAB2BD701D51FC6
:10079000CA2BCB2BE72BFF305205C600FF30530589
:1007A000C700FF305405C8007F305505C90049080F
:1007B0004804470446040319DE2BDF2BE22BD70144
:1007C000D70AE72B421CE52BE62BE72BDF2B57083C
:1007D0000319EB2BEC2B142C0130C2070030C33D66
:1007E0000030C43D0030C53D451CF72BF82B142CC0
:1007F0004208C6004308C7004408C8004508C900AD
:100800000130CA00C937C80CC70CC60CCA0B022C71
:100810004908C5004808C4004708C3004608C2008C
:100820000130D0070030D13D5108803AC6008030F9
:100830004602031D1D2CFF305002031C202C212CCE
:100840002E2CFF304001D0000030D1000030C50018
:100850000030C4000030C3000030C2004001510825
:10086000803AC60080304602031D382C0130500209
:1008700003183B2C3C2C482C4001D001D101003006
:10088000C5000030C4000030C3000030C200CF01FA
:1008900040015008D600561C4E2C4F2C512CC4172A
:1008A000552C7F30C6004608C4055636C5004F0893
:1008B000C6004608C5041C2B08004001A4002408FB
:1008C0000319632C642C782CFA1F672C682C782C65
:1008D0007709A6007809A7007909A8007A09A90074
:1008E000A60A0319A70A0319A80A0319A90A802C42
:1008F0007A08A9007908A8007808A7007708A60058
:100900007A08790478047704031D872C882C912CAD
:100910000030FA000030F9000030F8000030F70035
:10092000072D9630A5009F2C0130A0002008A507B8
:100930000130A936A80CA70CA60C890B992CFE3007
:100940002905031DA42CA52C942CB92C0130A00042
:100950002008A5070130A6070030A73D0030A83DBC
:100960000030A93D0130A936A80CA70CA60C890BB4
:10097000B32CFF302905031DBE2CBF2CA62CC92C7F
:100980000130A5020130A635A70DA80DA90D890BD0
:10099000C32CA81BCC2CCD2CD32C02302502031841
:1009A000D22CD32CC02C2518D62CD72CDF2CFF30E2
:1009B000A605FF30A7057F30A805FF30A905031065
:1009C000A50C2508A000A101A201A3011830A035A3
:1009D000A10DA20DA30D890BE72C2008A604210868
:1009E000A7042208A8042308A90424080319F92C41
:1009F000FA2CFF2CFA1FFD2CFE2CFF2CA91729081E
:100A0000FA002808F9002708F8002608F70008006F
:100A100013308931CB2185314001E9001230893111
:100A2000CB2185314001EA006A08DC00DD015C0869
:100A3000DD00DC016908DF00E001DF1BE0035C088A
:100A40005F07EB005D08603DEC008B31C82385310A
:100A50004001EE00ED016E08031D2F2D302D332DCA
:100A60002830ED003A2D6E03031D372D382D3A2D19
:100A70005030ED004730E4000030E3000030E20089
:100A80000030E1006408C1006308C0006208BF00D4
:100A90006108BE006C08F4006B08F3006D08DC0010
:100AA000DD015C08F1005D08F2008B3167238531C0
:100AB00071094001DE007209DF00DE0A0319DF0A56
:100AC0005E08F7005F08F800890D893B8909F90085
:100AD000FA00013084315D2485317A084001C50077
:100AE0007908C4007808C3007708C2008231B322B5
:100AF000853140014108E8004008E7003F08E60072
:100B00003E08E5006808DB006708DA006608D900DF
:100B10006508D80008004001EC0117308931CB216D
:100B200085314001EB0016308931CB218531400100
:100B3000EC006C08DC00DD015C08DD00DC016B080A
:100B4000DF00E001DF1BE0035C085F07E9005D08F0
:100B5000603DEA008B31A72385314001EE00ED01B5
:100B60006E08031DB42DB52DB82D2830ED00BF2D16
:100B70006E03031DBC2DBD2DBF2D5030ED00473041
:100B8000E4000030E3000030E2000030E1006408DF
:100B9000C1006308C0006208BF006108BE006A08A7
:100BA000F4006908F3006D08DC00DD015C08F10069
:100BB0005D08F2008B31672385317108F7007208F8
:100BC000F800890D893B8909F900FA000130843168
:100BD0005D2485317A084001C5007908C400780891
:100BE000C3007708C2008231B32285314001410839
:100BF000E8004008E7003F08E6003E08E500680816
:100C0000DB006708DA006608D9006508D80008002C
:100C10004001EC0115308931CB2186314001EB00D8
:100C200014308931CB2186314001EC006C08DC00A6
:100C3000DD015C08DD00DC016B08DF00E001DF1B8B
:100C4000E0035C085F07E9005D08603DEA008B3166
:100C5000C82386314001EE00ED016E08031D312EE0
:100C6000322E352E2830ED003C2E6E03031D392E1A
:100C70003A2E3C2E5030ED004730E4000030E300C7
:100C80000030E2000030E1006408C1006308C000E9
:100C90006208BF006108BE006A08F4006908F3003A
:100CA0006D08DC00DD015C08F1005D08F2008B31AD
:100CB000672386317108F7007208F800890D893BB7
:100CC0008909F900FA00013084315D2486317A08FF
:100CD0004001C5007908C4007808C3007708C20045
:100CE0008231B322863140014108E8004008E70024
:100CF0003F08E6003E08E5006808DB006708DA0008
:100D00006608D9006508D80008006B304001A700CC
:100D10000230A80010308931BB21863140016C08B7
:100D2000DC00DD016B08DE00DF015E08DF00DE01B4
:100D30005C085E04E9005D085F04EA004230C1001F
:100D40007030C0006630BF006630BE00C630AD00F7
:100D50008830AC00C830AB000030AA006908F7004A
:100D60006A08F800890D893B8909F900FA00013009
:100D700084315D2486317A084001B1007908B000E1
:100D80007808AF007708AE008031AB208631400193
:100D90002D08C5002C08C4002B08C3002A08C20077
:100DA0008231B322863140014108E8004008E70063
:100DB0003F08E6003E08E5004130AD00C830AC0019
:100DC0000030AB000030AA006808B1006708B0002E
:100DD0006608AF006508AE008031AB208631400167
:100DE0002D08E4002C08E3002B08E2002A08E100AB
:100DF0006408DB006308DA006208D9006108D800E3
:100E000008008A319E2287312030F1000330F20041
:100E10005030F3008A31B42287318B170B1787319A
:100E20006827873188316D20873101308D31D12598
:100E3000873186318526873140015B084201EB000E
:100E400040015A084201EA00400159084201E90004
:100E5000400158084201E8008531082587314001EA
:100E60005B084201E70040015A084201E6004001E8
:100E700059084201E500400158084201E40086316A
:100E80000826873140015B084201E30040015A080F
:100E90004201E200400159084201E10040015808C6
:100EA0004201E00085318B25873140015B0842011A
:100EB000DF0040015A084201DE00400159084201AA
:100EC000DD00400158084201DC00192F803155280F
:100ED000F101F10A7430840090308500013F8A00EE
:100EE000003F0A008731F101F10A7230840090302E
:100EF0008500013F8A00003F0A0087310130F4007D
:100F00000030F5007630840090308500013F8A0083
:100F1000003F0A008731F101723084009030850073
:100F2000013F8A00003F0A008731F101F10A703069
:100F3000840090308500013F8A00003F0A0087311D
:100F4000C830F4000030F500763084009030850021
:100F5000013F8A00003F0A008731B72F6A308400C2
:100F600090308500013F8A00003F0A0087316E30D3
:100F7000840090308500013F8A00003F0A008731DD
:100F8000003A031DC42FC52FAE2F08007C08BD3EBC
:100F900086008701810154011D1DCF2FD02FDB2F2B
:100FA0007C08BD3E86008701811443012F088A001A
:100FB0002E080A00873154019D1CDF2FE02FEB2FF4
:100FC0007C08BD3E86008701011543012D088A007B
:100FD0002C080A0087317C08BD3E86008701010885
:100FE0000319F32FF42FFB2F43012B088A002A0843
:100FF0000A008731FE2F8B31142387310800080047
:1010000008004301901208004E0119100800430126
:101010001114080043019114080043011115080040
:1010200043019115080043010C0808004E010F14FC
:1010300008008B312D238831080042011D121D1636
:1010400008008B3114238831080054011D121D162D
:101050000800430191161116080043019112111660
:101060000800F100710843018C0008004101BC1028
:10107000BB010E30080088310A2088310130080099
:1010800088310A2088310230080088310A208831EE
:101090000130080088310D20883100300800883187
:1010A0002D208831053008008831292088310A3008
:1010B0000800883129208831093008004101BC101E
:1010C000BB010E30080001308B31862388310800C7
:1010D00000308B3186238831080001304101D10076
:1010E0000130D200080072084301A1007108A0007D
:1010F000080072084301A5007108A40008007208E6
:101100004301A3007108A200080072084301A70070
:101110007108A600080072084301A9007108A80020
:10112000080072084301AB007108AA0008007208A9
:101130004301AF007108AE00080072084301AD0022
:101140007108AC00080072084301B1007108B000DA
:10115000080072084301B3007108B2000800720869
:101160004101EB007108EA0008004301110E890CEF
:10117000890C013908004E010F1CBF28C028BB286C
:101180000800640080010131890BC2280034FE0090
:1011900012001E00FE0BC828003441013C108831AB
:1011A00010208831043008007508F2007408F1003E
:1011B0008A3188228831080041013C143635883153
:1011C00031208831033008001C308931CB2188312F
:1011D0004001A900290808007E013F1FF028F128DE
:1011E000F4288931AC218831080041015C08031DD5
:1011F000FA28FC280130FD2800300800410156087B
:10120000031D032905290130062900300800430188
:101210008F010830900091014F308D00901208002E
:1012200041013C140314360D8831312089310530D9
:1012300008001430840090308500013F8A00003F90
:101240000A00893108001A30840090308500013F7F
:101250008A00003F0A0089310800603051018D008A
:101260008F019101063093009001920108004F0117
:1012700096019701980199019A019B019C019D019A
:1012800008007103031D45294629492940011A1305
:101290004B2940011A1708007103031D50295129D9
:1012A00054294001181056294001181408007608E6
:1012B000F2007508F1007708F30000308C3130241B
:1012C000893108007608F2007508F1007708F3000C
:1012D00002308C313024893108004001A7002708F2
:1012E000A4002608A50022308D316B258931080025
:1012F000400192137103031D7E297F2981299817CC
:1013000082299813921708008B298831BB208931D4
:101310008D31152589314101BC188F2990298529E6
:1013200008004301901A952996299D298F010830BC
:10133000900091014F308D0090160800F30041019C
:10134000BC1DA329A429AB297308B7007208B900F2
:101350007108B800BC11080041016A086B04031948
:10136000B229B329B8296B088A006A080A008931B2
:101370007E013F1308004001AB002730A40028087D
:10138000A900AA012908A5002A08A6002B088B316C
:101390004823893108004001A700A8012830A40093
:1013A0000230A5000030A60027088B314823893180
:1013B0004001280808000230F1000030F2007808EF
:1013C00089319E2189310030F500F600F70189311D
:1013D00057218931043008000130F1000030F2005B
:1013E000780889319E2189310030F500F600F70137
:1013F000893157218931043008000130F100003073
:10140000F200780889319E2189310030F500F6001C
:10141000F701893157218931023008000230F1008B
:101420000030F200780889319E218A310030F500C1
:10143000F600F701893157218A3102300800023065
:10144000F1000030F200780889319E218A310030A5
:10145000F500F600F701893157218A310430080080
:101460000130F1000030F200780889319E218A3184
:101470000030F500F600F701893157218A3102303A
:1014800008000230F1000030F200780889319E2116
:101490008A310030F500F600F701893157218A3191
:1014A000023008000130F1000030F2007808893184
:1014B0009E218A310030F500F600F701893157216D
:1014C0008A31043008003034313432343334343427
:1014D0003534363437343834393441344234433493
:1014E000443445344634003447304B019F000B30C0
:1014F0009D00DC309C001D084101C6004B011C080A
:101500004101C5004E018C1290304B019E00080035
:10151000912A0B30F3006230890B8C2AF30B8C2A52
:1015200000320130F1020030F23B710A031D9C2AA7
:10153000720A031D9C2A9D2A892A080089313721B5
:101540008A31893107218A318F3110278A318931D7
:101550002D218A318A3174228A318E314C268A318A
:101560008E310E268A310800710872040319B92AD7
:10157000BA2ACA2A02307302031CBF2AC02ACA2A06
:1015800072084101CA007108C9007308FF3EE400F7
:101590000130CB2A00300800F101F10A4101BC18EA
:1015A000D22AD32AE22A3C11FF30B6009731FD2718
:1015B0008A31883104208A31883101208A31410101
:1015C0003B08F10071080800780886008701403F59
:1015D000F100413FF2007808023E860087010108D1
:1015E00089319E218A310030F500F600F7018931FA
:1015F00057218A3102300800780886008701403F71
:10160000F100413FF2007808023E860087010108A0
:1016100089319E218A310030F500F600F7018931C9
:1016200057218A31023008007C084C3E8600013088
:1016300087005401190881000130F0007008FC0790
:1016400008307C02031C252B262B272BFC010130A4
:10165000F00070084101DC07080040016F08C53E3A
:101660008600013087004201190881000130F00036
:1016700070084001EF0708306F02031C402B412B1C
:10168000422BEF010130F00070084101D60708003D
:10169000FB007B088D319B258B31003A0319512BC0
:1016A000522B492B40012608F2002508F10024089E
:1016B00089319E218B31883163208B318A31CC2254
:1016C0008B31013A0319652B662B5E2B0800F5015F
:1016D000F601711C6C2B6D2B712B7308F5077408C8
:1016E000F63D0130F335F40D890B722B0130F236E3
:1016F000F10C890B772B71087204031D802B812B51
:10170000692B7608F2007508F10008004001A2007C
:10171000A301A30A4101BC188E2B8F2BA42BBC1450
:101720004001A30122080319962B972B9B2B410103
:10173000BA01BA0A9E2B02304101BA008831072053
:101740008B31893184218B3140012308080003301B
:101750008931CB218B314001AB002B08A900AA01B4
:101760002908F1002A08F200F3018C3154248B314E
:101770004001AC002C08031DBE2BBF2BC12B003039
:10178000C72B2C03031DC52BC62BBF2B0130080014
:1017900003308931CB218B314001AB002B08A900EC
:1017A000AA012908F1002A08F200F301F30A8C319A
:1017B00054248B314001AC002C08031DE02BE12B9D
:1017C000E32B0030E92B2C03031DE72BE82BE12B47
:1017D00001300800083041015E020318F02BF12BA4
:1017E0000A2C5F08543E860001308700010854012E
:1017F0009A000130F00070084101DF0708305F02F5
:10180000031C032C042C052CDF010130F0007008B0
:10181000DE070C2C4E011913080008304101580254
:101820000318132C142C2D2C5908CD3E86000130A2
:101830008700010842019A000130F0007008410160
:10184000D90708305902031C262C272C282CD90133
:101850000130F0007008D8072F2C4E011912080033
:10186000F400710872040319362C372C462C743599
:10187000A03E860087017108C03F7208C13F74080E
:10188000AC3E8600870173088100532C7435A03E5E
:1018900086008701F930C03F1730C13F7408AC3E65
:1018A00086008701810108000130F4000030F50056
:1018B000730A5C2CF435F50D890B5A2C74087504E9
:1018C0000319632C652C0130662C0030F600F701FB
:1018D00071087605F80072087705F9007808790430
:1018E0000319732C742C762C0030772C01300800EF
:1018F0007108F800F60108307302031C802C812C5B
:10190000902C7408F5007308F93E890A882CF53587
:10191000890B872C7508F70076087704F6009D2C54
:101920007408F500730A952CF535890B942C75080D
:10193000F70078087704F8008F2C080041015C0854
:101940000319A32CA42C9E2C5D08BD3E86008701A4
:101950000108DB005D084C3E86000130870001086D
:10196000F2000130F1007108DD0708305D02031C50
:10197000BA2CBB2CBC2CDD014E0199130130410166
:10198000DC024E019917720808004101560803193C
:10199000CA2CCB2CC52C5708443E8600013087004A
:1019A0000108D5005708C53E8600013087000108B0
:1019B000F2000130F1007108D70708305702031C0C
:1019C000E22CE32CE42CD7014E01991201304101A5
:1019D000D6024E0199167208080041013C100230EF
:1019E000BB00FA2C883145208C31142D88314A20D7
:1019F0008C31142D2E08F8000430A03E860087019B
:101A0000413F8A00403F0A008D31F900FA017A080F
:101A1000003A03190C2DF62C7908023A0319F22C1E
:101A2000013A0319F22CF62C08009731FD278D316D
:101A300041013C1C1C2D1D2D282D8831B5208D31D8
:101A4000003A0319242D252D282D0F304101BA000D
:101A500041013A084001A000A101A035A10D2830A4
:101A6000200784001030213D80388500013F8A0026
:101A7000003F0A008D314101BA0008004101BC1548
:101A80004E2D883145208D316A2D883116208D31BB
:101A900003306A2D88314A208D316A2D2C08F800D8
:101AA00021088A0020080A008D31F900FA017A081D
:101AB000003A03195C2D4A2D7908013A03194A2D81
:101AC000033A0319412D013A0319412D073A03192D
:101AD000452D4A2D0800FB007B088D319B258D315B
:101AE000003A0319742D752D6C2DEC30F50009307A
:101AF000F6002530F700893157218D310130F10092
:101B00000030F200243089319E218D310030F50003
:101B1000F6000030F700F800893162218D318831FC
:101B200068208D318A31CC228D31013A0319992DEB
:101B30009A2D922D0800F100F201F20A41013C19A0
:101B4000A22DA32DCF2D7108B600BC103C153C1062
:101B50000E30BA00F430B4000130B500BC15F930D5
:101B6000A0001730A100AC01F930A2001730A3008B
:101B7000AD01F930A4001730A500AE01F930A60080
:101B80001730A700AF01FB30A8001730A900B00143
:101B90009731FD278D31893191218D31F201720804
:101BA00008004001B30007308931CB218D3140015D
:101BB000B100B2013108B4003208B5003308031D8A
:101BC000E22DE32DF42D3508F2003408F100F30185
:101BD000F4018C3178248D3140013408A60007309F
:101BE00089316D218D310A2E3303031DF82DF92D16
:101BF0000A2E3508F2003408F100F301F401F40A6A
:101C00008C3178248D3140013408A60007308931A9
:101C10006D218D318F31AC278D3108004E01991324
:101C2000C630F1000730F2008831A3208E314E011A
:101C30001913EA30F1000B30F2008831A9208E31FF
:101C4000083054019F0090309D0024309E004030A9
:101C50009B0003309C000030F1000830F200883116
:101C600097208E312530F1000830F20088319D2018
:101C70008E312130F1000830F200883191208E3110
:101C80004101DB01E001DF010830DE00FC01DD0184
:101C9000DC014E01991708004E0199128C30F100B9
:101CA0000E30F200883185208E314E0119120D3030
:101CB000F1000C30F20088318B208E310830420167
:101CC0009F0090309D0024309E0040309B000330E8
:101CD0009C00F830F1001730F200883179208E3105
:101CE0001D30F1000830F20088317F208E3119302C
:101CF000F1000830F200883173208E314101D501A6
:101D0000DA01D9010830D8004001EF014101D701C3
:101D1000D6014E019916080040016F08443E860026
:101D200001308700810142011D1D972E982EA52E9E
:101D300040016F08443E8600013087008114430152
:101D400025088A0024080A008E3142019D1CA92E14
:101D5000AA2EB72E40016F08443E8600013087004E
:101D60000115430123088A0022080A008E31400130
:101D70006F08443E86000130870001080319C12E18
:101D8000C22EC92E430121088A0020080A008E3184
:101D9000CC2E8B312D238E3108004101370886006F
:101DA0008701883113208E3181000130F9007908D4
:101DB0004101B7070130B8020030B93B3808390497
:101DC0000319E32EE42EE92E88312D208E310530C3
:101DD0000F2FBC15F32E883159208E310F2F8831EB
:101DE00054208E310F2F2C08F80021088A0020087B
:101DF0000A008E31F900FA017A08003A0319012F1E
:101E0000EF2E7908013A0319EF2E033A0319EB2E4E
:101E1000013A0319EB2E073A0319EF2EEF2E0800B3
:101E200040019C01313098009901C1309A0008307E
:101E30009600DE309200EF309300253094007E0152
:101E4000CE01C930C3000E30B800E501C401B901AC
:101E5000CF01E601BA01C501D001FF30BB00FF3060
:101E6000C600FF30D1003F30BC003F30C7003F30DC
:101E7000D2003F133E133D17FF30F1000730F20050
:101E80008831AF208F314E01161609307D01C50013
:101E900013307E01990014309A002530A4000F30D1
:101EA0009C0015307D01CD000A30C6000D30CB00FE
:101EB00008008831B5208F31003A0319602F612F57
:101EC0008F2F6E2F88313B208F31AB2F88314020F0
:101ED0008F31AB2F88314A208F31AB2F41012F0832
:101EE000F8000630A03E86008701413F8A00403F4F
:101EF0000A008F31F900FA017A08003A0319812F9C
:101F00006A2F7908013A03196A2F033A0319622FDD
:101F1000013A0319662F073A03196A2F6A2F410104
:101F20003C101730A03E86008701403F84008501A9
:101F3000810A0008883131208F3101304101B80217
:101F40000030B93B38083904031DA72FA82FAA2F4A
:101F50000630AB2F033008008831E4208F31400178
:101F6000B0003008AA00AB012A08F1002B08F200EB
:101F7000F3018C3154248F314001AC003008AA00A9
:101F8000AB012A08F1002B08F200F301F30A8C31AF
:101F900054248F314001AD003008AA00AB012A085B
:101FA000F1002B08F2000230F3008C3154248F3101
:101FB0004001AE003008AA00AB012A08F1002B084E
:101FC000F2000330F3008C3154248F314001AF0014
:101FD0002C080319EC2FED2FFE2F2D080319F12FDC
:101FE000F22FFE2F2E080319F62FF72FFE2F2F08A2
:101FF0000319FB2FFC2FFE2FFF30FF2F00300800AE
:10200000C5340C340034003400340034FE34083459
:102010008B3408348C340E34853408340034003466
:102020000D340C344C340E349E340C3400340034F3
:1020300000340034F5340834A9340834C634073485
:10204000A334083400340034EA340B340E340E3434
:102050003634083410340934DC34083459340F343D
:10206000CD340E34CD3408343E340D343B34083492
:1020700040340834453408344A3408344F34083482
:1020800054340834593408345E340834ED340C3494
:1020900000340034003400340034003400340034A0
:1020A0000034003400340034003400340034003490
:1020B0000034003400340034003400340034003480
:1020C0000034003400340034003400340034003470
:1020D0000034003419340934003400342334093412
:1020E000413409344C34093478340934D434083454
:1020F00000340034533454345234453441344D3474
:102100005F344F34503445344E34003452346534E7
:1021100062346F346F34743469346E3467340D3420
:102120000A3444344934533443344F344E344E34F7
:10213000453443345434003431342E3431342E3465
:102140003034003445344E3444340D340A3443348E
:082150004D3444343E342034C8
:102FF000080001300800053008004E010F100800DD
:083000009C3490349C349034A0
:020000040001F9
:08000000FF3FFF3FFF3FFF3F00
:0A000E00EC3FFF3F9F3FFF3FFF3F25
:00000001FF
