:1000000080315528303430347E1480314E01161E34
:100010000A280B2813280C1E0E280F2813289731A6
:100020003527803153280B1F162817285328191FEE
:100030001A281B2826280F1F1E281F2826284101A2
:100040006E088A006D080A0080315328991F2928FC
:100050002A2835288F1F2D282E283528420155089B
:100060008A0054080A0080315328191E382839287C
:1000700044280F1E3C283D28442842014D088A0090
:100080004C080A0080315328991E472848285328D5
:100090008F1E4B284C28532842014B088A004A08DF
:1000A0000A00803153287E100900803157288031A2
:1000B00002208031EE00803103208031EF00F330E8
:1000C000840088308500563086000130870011306A
:1000D000973118278031FC014730840000308500BB
:1000E0002530973112278031A03084000030850000
:1000F0004D30973112278031203084000130850047
:100100002430973112278031A030840001308500DF
:100110004030973112278031203084000230850032
:100120005030973112278031A03084000230850092
:100130005030973112278031203084000330850001
:1001400050309731122780317E1040018031A8282D
:100150008931572180312030F1000330F2005030D6
:10016000F3008931E42180318B170B178431662429
:1001700080319631BE26803196314E268031013A4B
:10018000031DC328C4284B299631AD268031013A7E
:10019000031DCB28CC28E4284E018C128931412143
:1001A00080318D31AA2580318931042180318B3114
:1001B0008A2380318E3137268031BC288831002057
:1001C00080318131782180318A317F228031003A3B
:1001D000031DEB28EC28DE282C2900308400903009
:1001E0008500013F8A00003F0A0080314001C600BF
:1001F0005508203E860002308700460881005508D9
:10020000203E8600023087000D30010603190929BF
:100210000A291B295508203E8600023087000A3033
:1002200001060319142915291B294F305506031DF2
:100230001A291B2928295508203E860002308700EC
:10024000810120308231442280314001D5012C29A6
:100250000130C6004608D50706308400903085007E
:10026000013F8A00003F0A008131003A031D39290D
:100270003A29ED28BC288831002080314101EF0067
:100280006F08F1000230840090308500013F8A0041
:10029000003F0A0081318A317F228031003A031DFC
:1002A000522953293B29672900308400903085006A
:1002B000013F8A00003F0A008131F6006830840067
:1002C00090308500013F8A00003F0A0081310630EE
:1002D000840090308500013F8A00003F0A00813190
:1002E000003A031D742975295429BC2880315528EA
:1002F0004001B300242A0230EA00432A3308E80010
:100300000330EA00432A3A303302031C8829892942
:10031000922933085F39C93EAD00FF300318003021
:10032000AE0099293308D03EAD00FF3003180030ED
:10033000AE002D08E9000430EA00432A3A303302C7
:10034000031CA329A429AD2933085F39C93EAF0096
:10035000FF3003180030B000B4293308D03EAF009E
:10036000FF3003180030B0006908AB000330AB3534
:10037000FF3E031DB7292B352F07E9000530EA00A2
:10038000432A3A303302031CC629C729D02933082F
:100390005F39C93ED100FF3003180030D200D729A1
:1003A0003308D03ED100FF3003180030D2000130B6
:1003B000E9026908031DDD29DE29E029EA01432A53
:1003C0000630EA00432A3A303302031CE829E929BF
:1003D000F22933085F39C93EB100FF3003180030FD
:1003E000B200F9293308D03EB100FF3003180030C5
:1003F000B2005208AC005108AB00AB0EAC0EF030AE
:10040000AC052B080F39AC04F030AB0531082B07D5
:10041000D10032082C3DD2005108A70068088E3167
:10042000D626813101304001E9026908031D192AED
:100430001A2ABE29DE295B303306031D202A212A11
:10044000432AEA01EA0A432A6A08AB00AC012C08F5
:10045000003A03192C2A1B2A2B08003A03191B2ADD
:10046000013A03197B29033A03197E29013A03193A
:100470008329073A03199E29013A0319C129033A2E
:100480000319E3291B2A0800F9007908F10002305A
:10049000F2008A311522823171080907F8005B30B9
:1004A000F6006830840090308500013F8A00003FEC
:1004B0000A00823140016B080F39563E8600013038
:1004C00087000108F6006830840090308500013F05
:1004D0008A00003F0A0082310130F70077084001AE
:1004E000EB075330F6006830840090308500013F00
:1004F0008A00003F0A0082317808F7000430F7369E
:10050000890B7F2A77080F39563E86000130870015
:100510000108F6006830840090308500013F8A00B1
:10052000003F0A00823178080F39563E86000130BC
:1005300087000108F6006830840090308500013F94
:100540008A00003F0A008231D92A790886000230E9
:1005500087000108F7000430F736890BAC2A7708CA
:100560000F39563E8600013087000108F6006830DA
:10057000840090308500013F8A00003F0A008231EC
:10058000790886000230870001080F39563E860040
:10059000013087000108F600683084009030850043
:1005A000013F8A00003F0A0082310130F7007708DE
:1005B000F90779088600023087000108031DE12A47
:1005C000E22AA52A5D30F60068308400903085006C
:1005D000013F8A00003F0A0082310800FA005B30C8
:1005E000F6006830840090308500013F8A00003FAB
:1005F0000A00823140016B080F39563E86000130F7
:1006000087000108F6006830840090308500013FC3
:100610008A00003F0A0083310130F8007808400169
:10062000EB077A08F6006830840090308500013FBF
:100630008A00003F0A0083317708F100F2018A3115
:10064000152282317108F8007208F9000430F93679
:10065000F80C890B272B78080F39563E860001309D
:1006600087000108F6006830840090308500013F63
:100670008A00003F0A0083317708F100F2018A31D5
:100680001522823171080F39563E860001308700ED
:100690000108F6006830840090308500013F8A0030
:1006A000003F0A008331662B770886008701010826
:1006B000F6006830840090308500013F8A00003FDA
:1006C0000A0083310130F8007808F70777088600C0
:1006D00087010108031D6D2B6E2B542B5D30F60036
:1006E0006830840090308500013F8A00003F0A0096
:1006F00083310800F6016A30840090308500013FA4
:100700008A00003F0A008331F3006A308400903091
:100710008500013F8A00003F0A008331F4006A30FF
:10072000840090308500013F8A00003F0A00833139
:10073000F500B92B4F307406031D9F2BA02BC12B46
:100740004B307506031DA52BA62BC12BF601F60A0F
:10075000C12B72307406031DAE2BAF2BC12B723030
:100760007506031DB42BB52BC12BF601C12B003030
:10077000012C7308413A03199A2B043A0319A92B47
:10078000B72B6A30840090308500013F8A00003F1B
:100790000A0083316A30840090308500013F8A006E
:1007A000003F0A0083316A30840090308500013FA9
:1007B0008A00003F0A0083316A308400903085004F
:1007C000013F8A00003F0A0083316A308400903084
:1007D0008500013F8A00003F0A0083316A308400AF
:1007E00090308500013F8A00003F0A0083316A3063
:1007F000840090308500013F8A00003F0A00833169
:10080000760808006A30840090308500013F8A0035
:10081000003F0A0084314001C4006303031D112C12
:10082000122C522C25304406031D172C182C2C2C6E
:10083000E301490886004A08870081014C08C2008C
:100840004B08C1007830840090308500013F8A0059
:10085000003F0A008431632C66084201E700E8018A
:10086000670840014B074201E900680840014C3D20
:100870004201EA006A0840014A02031D432C42017A
:100880006908400149020318462C472C632C49088B
:1008900086004A088700440881000130C9070030FB
:1008A000CA3D632C25304406031D572C582C5F2C61
:1008B000E301E30A4C08CA004B08C900632CE401B9
:1008C000E40A4408E500400164080800F101F10A67
:1008D0007430840090308500013F8A00003F0A0098
:1008E0008431F101F10A7230840090308500013FBB
:1008F0008A00003F0A0084310130F4000030F50026
:100900007630840090308500013F8A00003F0A0065
:100910008431F1017230840090308500013F8A00FB
:10092000003F0A008431F101F10A703084009030F8
:100930008500013F8A00003F0A008431C830F4007E
:100940000030F5007630840090308500013F8A0049
:10095000003F0A008431B52C6A3084009030850055
:10096000013F8A00003F0A0084316E3084009030DD
:100970008500013F8A00003F0A008431003A031DD0
:10098000C22CC32CAC2C08007A087B040319C92C98
:10099000CA2C162D7B08F2007A08F1008A31152244
:1009A000843172084001A3007108A200072D790864
:1009B000F2007808F1007B08F4007A08F3004001A7
:1009C0002308F6002208F50085316C258431710872
:1009D0007204031DEC2CED2CEE2C182D7808013E32
:1009E000F1000030793DF2007A0884007B08850030
:1009F00000084001A000A1012008F3002108F40034
:100A00008A319B2284317208F9007108F800780855
:100A1000790403190C2D0D2D162D78088600790800
:100A200087000108031D152D162DD72CF801F9019B
:100A300008009631B2268531003A0319202D212D68
:100A40004F2D2E2D96317B2685316B2D96318026AC
:100A500085316B2D96318A2685316B2D41012F080A
:100A6000F8000630A03E86008701413F8A00403FE3
:100A70000A008531F900FA017A08003A0319412D7C
:100A80002A2D7908013A03192A2D033A0319222D38
:100A9000013A0319262D073A03192A2D2A2D41015F
:100AA0003C101730A03E86008701403F840085013E
:100AB000810A000896317126853101304101B80262
:100AC0000030B93B38083904031D672D682D6A2DA5
:100AD00006306B2D033008000130F5020030F63B84
:100AE000750A031D772D760A031D772D782D872D26
:100AF000F101F201BD2D0130F1070030F23D01306E
:100B0000F3070030F43D0130F5020030F63B710888
:100B1000860072088700010803198F2D902DAF2DD4
:100B2000730884007408850012000319982D992D0C
:100B3000AF2D7508760403199E2D9F2DAF2D7308D8
:100B40008400740885000008F700710886007208A8
:100B50008700010877060319AE2DAF2D7B2D710894
:100B600086007208870073088400740885000008F6
:100B70000102F100F201031CF20308002030F10031
:100B80000230840090308500013F8A00003F0A0057
:100B900085313E30F1000230840090308500013F05
:100BA0008A00003F0A0085313E30F10002308400A7
:100BB00090308500013F8A00003F0A0085313E30B9
:100BC000F1000230840090308500013F8A00003F30
:100BD0000A0085312030F100023084009030850019
:100BE000013F8A00003F0A0085310D30F1000230DC
:100BF000840090308500013F8A00003F0A00853163
:100C00000A30F1000230840090308500013F8A00F4
:100C1000003F0A00863108004001A5002A30A900E3
:100C20000230A7000030A800400125088E31A02620
:100C30008631003A03191D2E1E2E142E5A30F5004F
:100C40000830F6002930F7009731942786310130BB
:100C5000F1000030F20024309731F2278631003065
:100C6000F500F6000030F700F80097319F27863135
:100C70009631A326863189319C2186314001A60018
:100C800026030319442E452E3B2E2608031D492E0C
:100C90004A2E4B2E552EFF30A707FF30A83D2708C0
:100CA0002804031D542E552E142E29080800400137
:100CB0009C01313098009901C1309A0008309600AB
:100CC000DE309200EF309300253094007E01CE019B
:100CD000C930C3000E30B800E501C401B901CF012D
:100CE000E601BA01C501D001FF30BB00FF30C600EC
:100CF000FF30D1003F30BC003F30C7003F30D20052
:100D00003F133E133D172E30F1001630F20097319D
:100D10000C2786314E01161609307D01C5001330AF
:100D20007E01990014309A002530A4000F309C00F9
:100D300015307D01CD000A30C6000D30CB00080013
:100D400030304001A2003030A5003030A300201E1A
:100D5000AA2EAB2EAE2E3130A400B02E3030A4001F
:100D600020080F39303EA200211EB72EB82EBB2E10
:100D70003130A500BD2E3030A50021080F39303E9E
:100D8000A3007C304301A0004F30A1002C30A20012
:100D9000400124084301A300400122084301A400AC
:100DA0002C30A500400125084301A600400123087E
:100DB0004301A7000D30A8000A30A9000A30F7004F
:100DC000A0308D31D825863183317A2386310800D1
:100DD0008C31F324863140014208F9004108F800C3
:100DE0001730FA009830FB008431C424863178082B
:100DF00079040319FC2EFD2E012F4001C301E701E8
:100E00001C2F40014208F9004108F8000030FA00A8
:100E10009830FB008431C4248631780879040319A2
:100E2000122F132F192F4001C301C30AE701E70A4C
:100E30001C2F02304001C3004208F8004108F700AF
:100E40008E316B2686318531BE25863140014308BF
:100E50008B311E23863108004001AA0040012A0878
:100E60008E31A0268731003A0319372F382F2E2FC5
:100E70006B30F5000830F6002B30F70097319427DF
:100E800087310130F1000030F20024309731F22731
:100E900087310030F500F6000030F700F800973198
:100EA0009F2787319631A326873189319C2187314D
:100EB000013A03195C2F5D2F552F40012C08A70024
:100EC0002B08A6002708A600A7012B08A900A80147
:100ED00026082804A40027082904A50008004101C9
:100EE0003708860087019631482687318100013016
:100EF000F90079084101B7070130B8020030B93B69
:100F0000380839040319852F862F8B2F96316526D3
:100F100087310530B12FBC15952F96319926873131
:100F2000B12F963194268731B12F2C08F800210873
:100F30008A0020080A008731F900FA017A08003A8D
:100F40000319A32F912F7908013A0319912F033A1E
:100F500003198D2F013A03198D2F073A0319912F89
:100F6000912F08004001B0008831C0208731003A3D
:100F70000319BB2FBC2FB42F31308D312025873181
:100F800040013008860087013108C03F3208C13F68
:100F90008831D1208731003A0319CF2FD02FC82FA5
:100FA00031308D314E25873140013008023E8600B8
:100FB00087013108C03F3208C13F8831E2208731C4
:100FC000003A0319E42FE52FDD2F31308D317C25D8
:100FD000873140013008043E860087013108C03F58
:100FE0003208C13F0800FB008B31652387317B0845
:100FF0008600870140012D08C03F2E08C13F080030
:101000008A317F228831003A0319072808280028EE
:101010004001E40165080800FB007908F6007B0840
:101020008E31062688317A08F6007B088E31062636
:101030008831080040016C086D040319202821281C
:1010400026286D088A006C080A0088317E013F134B
:1010500008004001A6000130FB002608FB025408EE
:101060007B06FE397B06D4008A3163228831080072
:101070000230F1000030F20078089731F227883111
:101080000030F500F600F7019731942788310430DD
:1010900008000130F1000030F20078089731F227A3
:1010A00088310030F500F600F70197319427883138
:1010B000043008000130F1000030F2007808973168
:1010C000F22788310030F500F600F70197319427B8
:1010D0008831023008000230F1000030F200780858
:1010E0009731F22788310030F500F600F70197318B
:1010F00094278831023008000230F1000030F200FD
:1011000078089731F22788310030F500F600F701B2
:10111000973194278831043008000130F100003005
:10112000F20078089731F22788310030F500F60098
:10113000F701973194278831023008000230F1001E
:101140000030F20078089731F22788310030F5003E
:10115000F600F701973194278831023008000130FA
:10116000F1000030F20078089731F2278831003022
:10117000F500F600F7019731942788310430080014
:1011800002304001A400193086310C268831013923
:10119000031DCB28CD280130CE280030FB007B0872
:1011A000080004304001A400193086310C26883133
:1011B0000139031DDC28DE280130DF280030FB0068
:1011C0007B08080006304001A400193086310C2647
:1011D00088310139031DED28EF280130F028003057
:1011E000FB007B080800303431343234333434347B
:1011F0003534363437343834393441344234433476
:1012000044344534463400349631CA26893140018D
:10121000A000A1012008F60021308E310626893178
:101220002130F70050308231EE22893108004730FA
:101230004B019F000B309D00DC309C001D084001DD
:10124000C8004B011C084001C7004E018C129030B1
:101250004B019E00080034290B30F3006230890BEB
:101260002F29F30B2F2900320130F1020030F23B1D
:10127000710A031D3F29720A031D3F2940292C29A9
:1012800008004001B8013D308731F3278931400122
:101290003E08FA003D08F900383088310C208931C9
:1012A0003830F70054308231EE228931080097310E
:1012B0008A278931973159278931863157268931D3
:1012C0009731802789318931172189318F318427DE
:1012D00089318F31C2278931080024304301A000B1
:1012E0002430A1002430A2000330F700A0308D315B
:1012F000D82589312D30F3009830F4000530F50001
:101300008C319B24893108007C08DD3E86008701F2
:101310005401190881000130F0007008FC07083002
:101320007C02031C942995299629FC010130F000C8
:1013300070084001DE070800F101F10A4101BC1804
:10134000A229A329B2293C11FF30B60096313326D9
:1013500089319631392689319631362689314101D4
:101360003B08F10071080800780886008701403FBB
:10137000F100413FF2007808023E86008701010833
:101380009731F22789310030F500F600F7019731E7
:101390009427893102300800780886008701403F91
:1013A000F100413FF2007808023E86008701010803
:1013B0009731F22789310030F500F600F7019731B7
:1013C0009427893102300800710872040319E92951
:1013D000EA29FA2902307302031CEF29F029FA29BD
:1013E00072084001CC007108CB007308FF3EE60094
:1013F0000130FB290030080040015908C53E860035
:1014000087014201190881000130F0007008400195
:10141000D90708305902031C0E2A0F2A102AD901B5
:101420000130F0007008D70708007208F500710855
:10143000F4001E2A0130F1070030F23D71088400EB
:10144000720885001200031D262A272A1A2A74080A
:101450007102F1007508723BF2000800F600760890
:10146000F500750886008701F50A7208F400710816
:10147000F300F10A0319F20A730884007408850066
:101480000008C03F8908031D462A472A312A080060
:101490002D304301A0002D30A1002D30A2000D30D1
:1014A000A3000A30A4000530F700A0308D31D82504
:1014B0008A312830F3009830F4000530F5008C3183
:1014C0009B248A31080089316D218A311430F4005F
:1014D0000030F5007630840090308500013F8A00AE
:1014E000003F0A008A3140015408A1005308A000BF
:1014F0008631A0268A318A3148228A31080040018B
:1015000064080319842A852A872A01309A2A6E30B2
:10151000840090308500013F8A00003F0A008A3134
:10152000003A0319942A952A992A843102248A318F
:101530009A2A0030080071088600720887000108A6
:101540007306031DA42AA52AA62AB82A7208F60043
:101550007108F500F10A0319F20A75088600760889
:1015600087000108031DB52AB62A9B2AF101F20162
:1015700008004001A200A301A30A4101BC18C12A2E
:10158000C22AD72ABC144001A30122080319C92A80
:10159000CA2ACE2A4101BA01BA0AD12A023041012F
:1015A000BA0096313C268A319731D8278A314001DA
:1015B000230808000830400160020318E02AE12AED
:1015C000F92A6108E53E86008701010854019A0066
:1015D0000130F00070084001E10708306102031C8F
:1015E000F22AF32AF42AE1010130F0007008E00742
:1015F000FB2A4E0119130800083040015A02031853
:10160000022B032B1B2B5B08CD3E860087010108B4
:1016100042019A000130F00070084001DB070830F9
:101620005B02031C142B152B162BDB010130F00081
:101630007008DA071D2B4E0119120800F300730819
:10164000031D232B242B302B5B30F1000230840050
:1016500090308500013F8A00003F0A008B31402B0B
:101660007303031D342B352B402B5D30F10002300A
:10167000840090308500013F8A00003F0A008B31D2
:101680000800F400710872040319472B482B572BEC
:101690007435A03E860087017108C03F7208C13FC3
:1016A0007408AC3E8600870173088100642B743592
:1016B000A03E860087012F30C03F1630C13F74081E
:1016C000AC3E860087018101080005304001A4007E
:1016D000183087312C278B3140012508B7002408AA
:1016E000B60037081F39B4003608B5003508AF001A
:1016F000B0013408B100B2013108B200B1012F08C5
:101700003104B60030083204B7003708AE0036089E
:10171000AD0008009631C4268B314001A300A00122
:101720002308F60020308E3106268B312030F7005A
:101730004C308231EE228B319631A8268B31103E0F
:101740004001A300A0012308F60020308E310626B8
:101750008B312030F7004C308231EE228B31080083
:1017600040015E080319B52BB62BB02B5F08D53EA0
:10177000860087010108DD005F08DD3E86008701E5
:101780000108F2000130F1007108DF0708305F0244
:10179000031CCB2BCC2BCD2BDF014E019913013039
:1017A0004001DE024E0199177208080040015708F7
:1017B0000319DB2BDC2BD62B5808BD3E8600870196
:1017C0000108D6005808C53E860087010108F200CE
:1017D0000130F1007108D80708305802031CF12BC2
:1017E000F22BF32BD8014E01991201304001D702A0
:1017F0004E01991672080800400160080319012C77
:10180000022CFC2B4E01191B062C072C0B2C7108EB
:1018100054019A00202C191340016208E53E86000D
:101820008701710881000130F2007208E207083078
:101830006202031C1C2C1D2C1E2CE2010130E00254
:101840004E011917080040015A080319282C292CA9
:10185000232C4E01191A2D2C2E2C322C71084201EA
:101860009A00472C191240015C08CD3E8600870182
:10187000710881000130F2007208DC0708305C0258
:10188000031C432C442C452CDC010130DA024E01B0
:101890001916080041013C100230BB00572C96314C
:1018A00085268C31712C96318A268C31712C2E082C
:1018B000F8000430A03E86008701413F8A00403F87
:1018C0000A008C31F900FA017A08003A0319692CF0
:1018D000532C7908023A03194F2C013A03194F2C63
:1018E000532C0800963133268C3141013C1C792C55
:1018F0007A2C852C9631B2268C31003A0319812C32
:10190000822C852C0F304101BA0041013A08400178
:10191000A000A101A035A10D2830200784001030BF
:10192000213D80388500013F8A00003F0A008C314C
:101930004101BA000800F901BE2C6A3084009030E1
:101940008500013F8A00003F0A008C31F8007408CE
:10195000F7007308F6007908760784007708031803
:10196000770A8500000878060319B72CB82CBA2C22
:101970000030C52C0130F6007608F90775087902A9
:10198000031CC32CC42C9D2C013008004101BC1544
:10199000D62C963185268C31F22C96314B268C3103
:1019A0000330F22C96318A268C31F22C2C08F80068
:1019B00021088A0020080A008C31F900FA017A080F
:1019C000003A0319E42CD22C7908013A0319D22CDD
:1019D000033A0319C92C013A0319C92C073A031910
:1019E000CD2CD22C08003C30F10002308400903025
:1019F0008500013F8A00003F0A008C313C30F10035
:101A00000230840090308500013F8A00003F0A00C8
:101A10008D313C30F1000230840090308500013F70
:101A20008A00003F0A008D312030F100023084002E
:101A300090308500013F8A00003F0A008D31080088
:101A40004001AD008831C0208D31003A0319292DA5
:101A50002A2D222D02304001A400193086310C2697
:101A60008D314001AE000330A400193086310C26C0
:101A70008D314001AF002F08AB002E08AA000430C2
:101A8000AC002B0DAB0CAA0CAC0B412D2D08860025
:101A900087012A08C03F2B08C13F08004001AD0064
:101AA0008831D1208D31003A0319572D582D502DF2
:101AB00004304001A400193086310C268D314001DC
:101AC000AE000530A400193086310C268D3140015E
:101AD000AF002F08AB002E08AA000430AC002B0D7D
:101AE000AB0CAA0CAC0B6F2D2D08860087012A08C1
:101AF000C03F2B08C13F08004001AD008831E22003
:101B00008D31003A0319852D862D7E2D063040013A
:101B1000A400193086310C268D314001AE0007300B
:101B2000A400193086310C268D314001AF002F08FA
:101B3000AB002E08AA000430AC002B0DAB0CAA0C95
:101B4000AC0B9D2D2D08860087012A08C03F2B086D
:101B5000C13F08004001B30140308731B2278D31C9
:101B6000FF3040014005F9000F304105FA003330E5
:101B700088310C208D31FF3040014205F9000F30D3
:101B80004305FA00333088310C208D31FF3040019D
:101B90004405F9000F304505FA00333088310C2038
:101BA0008D313330F70058308231EE228D3108000C
:101BB000FA00F901FF2D6C30840090308500013F60
:101BC0008A00003F0A008D31003A0319E82DE92D03
:101BD000FF2D79087A07F800780886000130870021
:101BE0000108F6006830840090308500013F8A00CB
:101BF000003F0A008D310130F8007808F9077708B6
:101C00007902031C042E052EDB2D0800F80078084D
:101C1000F100F2018A3115228E317108F700770840
:101C2000F807780886008701760E0F398919F03891
:101C30000F39563E840001308500000881000130D4
:101C4000F7007708F80778088600870176080F39CB
:101C5000563E840001308500000881000130F70005
:101C60007708F8077808860087018101080040019D
:101C7000A201B6014F2E3608223E84009830031888
:101C8000013E85000008B5003508F60022308E318F
:101C900006268E3101304001A0002008B607223010
:101CA000F1009830F2008A3115228E314001360859
:101CB000A000A10172082102031D602E71082002FC
:101CC000031C632E642E3B2E2230F70056308231E7
:101CD000EE228E3108007808F2007708F1002030FB
:101CE0008A312E228E314001C0018A2E4008203ECA
:101CF000860087010108F1000230840090308500E1
:101D0000013F8A00003F0A008E310130F900790856
:101D10004001C0077808F2007708F1008A311522E7
:101D20008E3140014008F900FA0172087A02031D61
:101D30009B2E71087902031C9E2E9F2E762E080082
:101D4000F100F201F20A41013C19A72EA82ED42E6F
:101D50007108B600BC103C153C100E30BA00F430CF
:101D6000B4000130B500BC152F30A0001630A10022
:101D7000AC012F30A2001630A300AD012F30A4001B
:101D80001630A500AE012F30A6001630A700AF0117
:101D90003130A8001630A900B001963133268E31BB
:101DA0009731E5278E31F201720808004001A90041
:101DB000052F2708A8000430A836890BDC2E280838
:101DC0000139AA002A08031DE62EE72EEF2E271858
:101DD000EA2EEB2EED2E98160D2F98120D2F2718A8
:101DE000F22EF42E0130F52E0030883129208E316C
:101DF0000D2F2708F1000230840090308500013F4C
:101E00008A00003F0A008F310D2F29084C3A031930
:101E1000D92E1F3A0319F92E0D2F08007C08D53E44
:101E200086008701810154011D1D172F182F232FB4
:101E30007C08D53E860087018114420153088A0040
:101E400052080A008F3154019D1C272F282F332F51
:101E50007C08D53E860087010115420151088A00A1
:101E600050080A008F317C08D53E860087010108A2
:101E700003193B2F3C2F432F42014F088A004E0885
:101E80000A008F31462F893184218F3108004001AB
:101E90005908BD3E86008701810142011D1D512F59
:101EA000522F5E2F40015908BD3E860087018114E4
:101EB000420149088A0048080A008F3142019D1CEE
:101EC000622F632F6F2F40015908BD3E86008701A6
:101ED0000115420147088A0046080A008F31400177
:101EE0005908BD3E8600870101080319782F792F14
:101EF000802F420145088A0044080A008F31832F51
:101F00008931FC218F3108004E0199124730F100D0
:101F10000F30F2009631E2268F314E011912FC305B
:101F2000F1000A30F2009631E8268F310830420184
:101F30009F0090309D0024309E0040309B00033075
:101F40009C002C30F1001630F2009631D6268F31ED
:101F50005530F1001630F2009631DC268F315130C9
:101F6000F1001630F2009631D0268F314001D601B3
:101F7000DC01DB010830DA00D901D801D7014E01BC
:101F8000991608004E0199130E30F1000F30F2003F
:101F9000973100278F314E011913DA30F1000A30E2
:101FA000F200973106278F31083054019F0090309E
:101FB0009D0024309E0040309B0003309C002D305B
:101FC000F1001630F2009631F4268F315D30F100C9
:101FD0001630F2009631FA268F315930F100163062
:101FE000F2009631EE268F314001DD01E201E10180
:101FF0000830E000FC01DF01DE014E019917080006
:10200000D6340B3423340C340034003450341734B9
:10201000E834163447340F34E23416346D34163451
:10202000FC340A3484340F34B0340B34FC340B34B5
:102030000034003447341734063417340E340F3468
:102040000034173469341634DA340A34C2340F34A5
:10205000763416343E3417342534173419340534A5
:102060006F3407341E341734C6340C347B341634C2
:1020700080341634853416348A3416348F3416344A
:1020800094341634993416349E3416344A340C344D
:1020900000340034003400340034003400340034A0
:1020A0000034003400340034003400340034003490
:1020B0000034003400340034003400340034003480
:1020C0000034003400340034003400340034003470
:1020D000C0341734623417346C3417347634173400
:1020E000AA341734B5341734CC3417342D3417349C
:0420F000E834063496
:102C580008000800080001300800053008004E018F
:102C68000F1008004301901208004E0119100800C7
:102C78004301111408004301911408004301111580
:102C8800080043019115080043010C0808004E0193
:102C98000F1408004001670808008931FC219631AB
:102CA800080042011D121D16080089318421963141
:102CB800080054011D121D16080043019116111633
:102CC8000800430191121116080054011E0C013925
:102CD800080042011E0C01390800F1007108430187
:102CE8008C0008004101BC10BB010E300800963171
:102CF8003F2696310130080096313F269631023042
:102D0800080096313F269631013008009631422658
:102D18009631003008009631652696310530080056
:102D28009631612696310A3008009631612696312F
:102D3800093008004101BC10BB010E30080000300A
:102D48008A31B92296310800400154080139013C02
:102D580008004E010C0E890C013908004301110EC0
:102D6800890C890C013908004E010F1CBC2EBD2EA0
:102D7800B82E080001304001D3000130D40008000B
:102D880040010C0E890C0139013C080040010C0D72
:102D98000C0D0139013C080072084201C500710898
:102DA800C400080072084201C9007108C800080080
:102DB80072084201C7007108C60008007208420183
:102DC800CB007108CA00080072084201CD007108E2
:102DD800CC00080072084201CF007108CE0008003C
:102DE80072084201D3007108D2000800720842013B
:102DF800D1007108D000080072084201D50071089E
:102E0800D400080072084101EE007108ED000800C6
:102E180072084001ED007108EC00080064008001B0
:102E28000131890B132F0034FE0012001E00FE0B27
:102E3800192F003441013C10963145269731043052
:102E4800080041013C14363596317126973103301C
:102E580008007508F2007408F10089312B219731B8
:102E680008007E013F1F392F3A2F3D2F88311A2045
:102E78009731080041013C140314360D9631712630
:102E880097310530080040015E08031D4C2F4E2F76
:102E980001304F2F0030080040015708031D552FFF
:102EA800572F0130582F0030080043018F01083098
:102EB800900091014F308D0090120800143084006A
:102EC80090308500013F8A00003F0A0097310800D2
:102ED8002230840090308500013F8A00003F0A00BC
:102EE800973108001A30840090308500013F8A002D
:102EF800003F0A0097310800603051018D008F01B2
:102F08009101063093009001920108004F0196014B
:102F18009701980199019A019B019C019D01080064
:102F28007608F2007508F1007708F30000308B315D
:102F38004123973108007608F2007508F1007708F8
:102F4800F30002308B314123973108007103031DD0
:102F5800AE2FAF2FB22F40011A13B42F40011A170A
:102F680008007103031DB92FBA2FBD2F4001181097
:102F7800BF2F4001181408007608F10016308400AD
:102F880090308500013F8A00003F0A009731080011
:102F9800400192137103031DD22FD32FD52F9817F9
:102FA800D62F981392170800DF2F9631B82697313D
:102FB8008C31722497314101BC18E32FE42FD92FAB
:102FC80008004301901AE92FEA2FF12F8F010830EA
:102FD800900091014F308D0090160800F3004101D8
:102FE800BC1DF72FF82FFF2F7308B7007208B90020
:102FF8007108B800BC1108005334543452344534B5
:1030080041344D345F344F34503445344E340034F9
:103018005234653462346F346F34743469346E34C6
:1030280067340D340A3444344934533443344F3408
:103038004E344E34453443345434003431342E3411
:1030480031342E343034003445344E3444340D3465
:103058000A3443344D3444343E34203422349834D2
:043068002234983442
:020000040001F9
:08000000FF3FFF3FFF3FFF3F00
:0A000E00EC3FFF3F9F3FFF3FFF3F25
:00000001FF
