:0400000080315528CE
:100008007E1480314E01161E0A280B2813280C1E58
:100018000E280F2813288631FA26803153280B1F03
:10002800162817285328191F1A281B2826280F1F97
:100038001E281F282628420133088A0032080A0091
:1000480080315328991F29282A2835288F1F2D28C1
:100058002E283528420131088A0030080A008031EC
:100068005328191E3828392844280F1E3C283D28B3
:100078004428420129088A0028080A0080315328A8
:10008800991E4728482853288F1E4B284C28532848
:10009800420127088A0026080A00803153287E106A
:1000A80009008031572887318B278031EB00873151
:1000B8008C278031EC002A3084008630850034306B
:1000C8008600013087001130873111278031FC010B
:1000D8002030840000308500423087311727803176
:1000E800A0308400003085004E30873117278031DA
:1000F800453084000130850008308731172780316A
:10010800A0308400013085004030873117278031C6
:100118002030840002308500503087311727803125
:10012800A030840002308500503087311727803195
:100138002030840003308500503087311727803104
:100148007E1040018531972DFB005B30F60018309A
:10015800840086308500013F8A00003F0A00803114
:1001680040015D080F39343E8600013087000108E0
:10017800F6001830840086308500013F8A00003F71
:100188000A0080310130F90079084001DD077B0859
:10019800F6001830840086308500013F8A00003F51
:1001A8000A0080317808F2007708F10085314D2582
:1001B80080317108F9007208FA000430FA36F90C37
:1001C800890BE22879080F39343E86000130870010
:1001D8000108F6001830840086308500013F8A0047
:1001E800003F0A0080317808F2007708F100853175
:1001F8004D25803171080F39343E86000130870063
:100208000108F6001830840086308500013F8A0016
:10021800003F0A0081312329770886007808870083
:100228000108F6001830840086308500013F8A00F6
:10023800003F0A0081310130F7070030F83D7708A8
:100248008600780887000108031D2B292C2910290E
:100258005D30F6001830840086308500013F8A0042
:10026800003F0A0081310800F101F10A24308400BE
:1002780086308500013F8A00003F0A008131F10184
:10028800F10A2230840086308500013F8A00003F51
:100298000A0081310130F4000030F5002630840076
:1002A80086308500013F8A00003F0A008131F10154
:1002B8002230840086308500013F8A00003F0A0012
:1002C8008131F101F10A2030840086308500013F38
:1002D8008A00003F0A008131C830F4000030F50080
:1002E8002630840086308500013F8A00003F0A00DE
:1002F800813187291A30840086308500013F8A00C1
:10030800003F0A0081311E30840086308500013F9D
:100318008A00003F0A008131003A031D942995297B
:100328007E290800F40043019A1A9B299C29E82990
:100338007408F100F201F135F20DF135F20D753066
:10034800710784000730723D8038850000089900E5
:100358007408F100F201F135F20DF135F20D743047
:10036800710784000730723D8038850000089A00C4
:100378009B017408F100F201F135F20DF135F20D2F
:100388007630710784000730723D80388500000898
:1003980097007408F100F201F135F20DF135F20D14
:1003A8007730710784000730723D80388500000877
:1003B800F300F30D400114087306FD397306940029
:1003C80043019A160130E9290030080040019C01D8
:1003D80031309800990101309A0008309600DE30DB
:1003E8009200EE309300A83094007E01CE01E030F8
:1003F800C3000E30B800E501C401B901CF01E60120
:10040800BA01C501D0017E30BB00FF30C6003F30C5
:10041800D1003F30BC003F30C7003F30D2003F130F
:100428003E133D179130F1000730F20087311D2748
:1004380081314E01161609307D01C5001330C900FF
:1004480015307E01A1002530A4000F309C00163025
:10045800A20015307D01CD000A30C6001130C80059
:100468007E0199010F30980014309A000B307D01FD
:10047800CB0008004E019913F730F1000230F2006A
:100488008731292782314E0119137230F100043067
:10049800F200873123278231083054019F009030C1
:1004A8009D0024309E0040309B0003309C00923019
:1004B800F1000730F2008731352782317830F100BA
:1004C8000730F20087312F2782317C30F100073066
:1004D800F20087313B2782314001CD01D201D101A1
:1004E8000830D000FC01CF01CE014E019917080059
:1004F8004E019912BA30F1000230F20087314727D5
:1005080082314E0119125030F1000430F200873167
:1005180041278231083042019F0090309D002430ED
:100528009E0040309B0003309C009330F100073060
:10053800F2008731532782318030F1000730F20012
:1005480087314D2782318430F1000730F20087313E
:10055800592782314001C601CC01CB010830CA00BD
:10056800C901C801C7014E01991608004001490890
:10057800C43E86008701810142011D1DC42AC52A87
:10058800D12A40014908C43E8600870181144201EE
:1005980025088A0024080A00823142019D1CD52AB8
:1005A800D62AE22A40014908C43E8600870101157F
:1005B800420123088A0022080A00823140014908C2
:1005C800C43E8600870101080319EB2AEC2AF32AA6
:1005D800420121088A0020080A008231F62A853162
:1005E8003325823108007C08D43E860087018101CA
:1005F80054011D1D002B012B0C2B7C08D43E8600BA
:100608008701811442012F088A002E080A008331CD
:1006180054019D1C102B112B1C2B7C08D43E8600EA
:100628008701011542012D088A002C080A00833130
:100638007C08D43E8600870101080319242B252B4A
:100648002C2B42012B088A002A080A0083312F2B01
:1006580085317F25823108007708F2007608F1009D
:1006680085314D2583317108F6077208F73D780EFC
:100678000F398919F0380F39343E86000130870068
:100688000108F90076088600770887007908810054
:100698000130F6070030F73D78080F39343E860000
:1006A800013087000108F90076088600770887007E
:1006B800790881000130F6070030F73D760886009A
:1006C8007708870081010800DE340334903403344E
:1006D80000340034E834063441340734BA34023480
:1006E8004734073400340034503404347C34023442
:1006F80005340434B734033400340034F134063498
:1007080023340734F73402342934073400340034EE
:10071800723404343E34023440014A080319952BDC
:10072800962B902B4E01191A9A2B9B2B9F2B7108F5
:1007380042019A00B42B191240014C08CC3E8600A5
:100748008701710881000130F2007208CC07083077
:100758004C02031CB02BB12BB22BCC010130CA02C6
:100768004E0119160800400150080319BC2BBD2B77
:10077800B72B4E01191BC12BC22BC62B7108540174
:100788009A00DB2B191340015208E43E86008701CA
:10079800710881000130F2007208D2070830520255
:1007A800031CD72BD82BD92BD2010130D0024E01F4
:1007B80019170800400147080319E32BE42BDE2B27
:1007C8004808C43E860087010108C6004808453E1F
:1007D8008600013087000108F2000130F10071083D
:1007E800C80708304802031CFA2BFB2BFC2BC80156
:1007F8004E01991201304001C7024E019916720844
:10080800080040014E0803190A2C0B2C052C4F0830
:10081800D43E860087010108CD004F08DC3E8600E3
:1008280087010108F2000130F1007108CF07083094
:100838004F02031C202C212C222CCF014E0199138E
:1008480001304001CE024E01991772080800F900E4
:100858000030813196218431003A0319342C352C2B
:10086800482C40011A108431B52484317908860057
:10087800013087007708C03F7808C13F40011A144B
:100888008731882784314F2C79088600013087000A
:100898000030C03FC13F0800083040014A02031839
:1008A800562C572C6F2C4B08CC3E8600870101082C
:1008B80042019A000130F00070084001CB0708306F
:1008C8004B02031C682C692C6A2CCB010130F00008
:1008D8007008CA07712C4E0119120800083040012F
:1008E80050020318782C792C912C5108E43E86008C
:1008F8008701010854019A000130F0007008400196
:10090800D10708305102031C8A2C8B2C8C2CD10166
:100918000130F0007008D007932C4E01191308001D
:100928004201CD01513084312B2484314D304001B6
:10093800E2000130E300FF30420151054001E400CC
:100948000F30420152054001E5008531DA25843136
:100958004D30F7000130F8005A308031A82084313A
:1009680008000230F2000030F300693085311625A6
:10097800843140016A08E7006908E8006808E20075
:10098800E3016708E400E5016408E500E4016208A2
:100998006404E90063086504EA006A08F800690865
:1009A800F700080000340034003400340034003408
:1009B800003400340034003400340034003400348F
:1009C800003400340034003400340034003400347F
:1009D800003400340034003400340034003400346F
:1009E800003400340034003400340034003400345F
:1009F800003400340034003400340034003400344F
:100A0800003400340034003400340034003400343E
:100A1800003400340034003400340034003400342E
:100A280000340034F5007508F600262D7608860097
:100A38008701003086315A26853181000130F40063
:100A48007408F6070130F2020030F33B720A031D06
:100A5800312D730A031D312D322D1A2D0800400146
:100A68004908453E86000130870042011908810087
:100A78000130F00070084001C90708304902031C22
:100A8800462D472D482DC9010130F0007008C707D1
:100A980008007208F5007108F400562D0130F107BE
:100AA8000030F23D71088400720885001200031DB1
:100AB8005E2D5F2D522D74087102F1007508723B8E
:100AC800F20008008631B72685318631DF26853168
:100AD8008531EF2585318131EA2185318631C1267D
:100AE800853186310426853182317C2285318231F7
:100AF8003E22853108007C08DC3E860087015401CF
:100B0800190881000130F0007008FC0708307C02E9
:100B1800031C8F2D902D912DFC010130F0007008E1
:100B28004001CE0708008531662585315030F10037
:100B3800A0308531AE2585318B170B1781313821CF
:100B4800853187315F27853186313B268531A82D50
:100B580080315528F20072080319B32DB42DC22D27
:100B680002307102031CB92DBA2DC22D7208400142
:100B7800D8007108FF3ED7000130C32D00300800AF
:100B8800CD2D0B30F3006230890BC82DF30BC82D27
:100B980000320130F1020030F23B710A031DD82DFA
:100BA800720A031DD82DD92DC52D080040016308F0
:100BB800F7006208F6006408F800833130238531B5
:100BC80040016308F7006208F6006508F800833101
:100BD80030238531080011307D01C8001330C90069
:100BE80015307E01A1001630A20040304301990063
:100BF8009A01013097004001941043019A120800AD
:100C080047304B019F000B309D00DC309C001D08D5
:100C18004001BE004B011C084001BD004E018C1272
:100C280090304B019E00080073340634D5340634E6
:100C380000340034CB340634AC340634A1340634E2
:100C48007F3406340334073400340034303431340C
:100C58003234333434343534363437343834393440
:100C680041344234433444344534463400348731C3
:100C78006F278631003A0319422E432E4A2E4E0121
:100C88008C128431942486314001E001080041012E
:100C98006E086F040319512E522E572E6F088A00C2
:100CA8006E080A0086317E013F130800F1007108C2
:100CB800430196004E010F1D622E632E5E2E0F110A
:100CC800430116080800533454345234453441342F
:100CD8004D345F344F34503445344E340034760844
:100CE800F1007E30840083308500013F8A00003F98
:100CF8000A0086310800400192137103031D852EF6
:100D0800862E882E9817892E981392170800523429
:100D1800653462346F346F34743469346E346734D4
:100D28000D340A3444344934533443344F344E3444
:100D38004E3445344334543400347103031DA52E16
:100D4800A62EA92E40011810AB2E40011814080039
:100D58007103031DB02EB12EB42E40011A13B62E06
:100D680040011A1708004F0196019701980199014F
:100D78009A019B019C019D010800603051018D0082
:100D88008F01910106309300900192010800823092
:100D9800840083308500013F8A00003F0A008631C5
:100DA80008007C30840083308500013F8A00003FC2
:100DB8000A008631080043018F0108309000910134
:100DC8004F308D009012080040014708031DED2E9A
:100DD800EF2E0130F02E0030080040014E08031DB0
:100DE800F62EF82E0130F92E003008007E013F1F44
:100DF800FE2EFF2E022F86314B26863108007508FD
:100E0800F2007408F1008531C425873108003134B7
:100E18002E3431342E3430340034FE0012001E00DB
:100E2800FE0B122F0034640080010131890B182F4A
:100E3800003472084101EF007108EE0008007208E2
:100E48004201B3007108B200080072084201B10003
:100E58007108B000080072084201AD007108AC00CA
:100E6800080072084201AF007108AE00080072085D
:100E78004201AB007108AA00080072084201A900EB
:100E88007108A800080072084201A7007108A600AE
:100E9800080072084201A3007108A2000800720845
:100EA8004201A5007108A400080072084201A100CF
:100EB8007108A000080001304001C3000130C400DF
:100EC800080045344E3444340D340A3443344D3428
:100ED80044343E3420344E010C0E890C013908008C
:100EE800003440340134003454011D121D1608002A
:100EF80085317F258731080042011D121D16080023
:100F0800853133258731080043019A1208003034AF
:100F180030340B3487340B34873408000800080059
:020000040001F9
:08000000FF3FFF3FFF3FFF3F00
:0A000E00EC3FFF3F9F3FFF3FFF3F25
:00000001FF
