:1000000080315528303430347E1480314E01161E34
:100010000A280B2813280C1E0E280F2813289F319E
:100020007527803153280B1F162817285328191FAE
:100030001A281B2826280F1F1E281F2826284101A2
:100040006D088A006C080A0080315328991F2928FE
:100050002A2835288F1F2D282E283528420165088B
:100060008A0064080A0080315328191E382839286C
:1000700044280F1E3C283D28442842015D088A0080
:100080005C080A0080315328991E472848285328C5
:100090008F1E4B284C28532842015B088A005A08BF
:1000A0000A00803153287E10090080315728410111
:1000B000803102208031EE00803103208031EF005A
:1000C000D330840090308500A03086000130870056
:1000D00011309F3151278031FC014D3084000030B8
:1000E000850023309F314B278031A03084000030C1
:1000F00085004A309F314B27803120308400013009
:10010000850034309F314B2780312030840002300D
:10011000850040309F314B278031A0308400023071
:10012000850050309F314B278031203084000330D0
:10013000850050309F314B278031A0308400033040
:10014000850050309F314B2780317E104001853132
:10015000952D4001B50002309031342080314001AE
:10016000B300B4013308B6003408B7003508031DE6
:10017000BA28BB28EE283708F2003608F100043010
:10018000F300F40192317C22803140013708F20003
:100190003608F1000530F300F40192317C22803101
:1001A00040013708F2003608F1000630F300F40190
:1001B00092317C22803140013708F2003608F1008C
:1001C0000730F300F40192317C228031400136087F
:1001D000A6000230903105208031742B3503031DB9
:1001E000F228F32827293708F2003608F1000430F6
:1001F000F300F401F40A92317C2280314001370887
:10020000F2003608F1000530F300F40192317C224F
:10021000803140013708F2003608F1000630F30063
:10022000F40192317C22803140013708F200360817
:10023000F1000730F300F40192317C22803140015B
:100240003608A6000230903105208031742B023030
:100250003506031D2C292D2961293708F20036089F
:10026000F1000430F300F40192317C22803140012E
:100270003708F2003608F1000530F300F401F40A03
:1002800092317C22803140013708F2003608F100BB
:100290000630F300F40192317C22803140013708AE
:1002A000F2003608F1000730F300F40192317C22AD
:1002B000803140013608A60002309031052080319F
:1002C000742B03303506031D662967299C293708DE
:1002D000F2003608F1000430F300F401F40A923120
:1002E0007C22803140013708F2003608F1000530E9
:1002F000F300F401F40A92317C2280314001370886
:10030000F2003608F1000630F300F40192317C224D
:10031000803140013708F2003608F1000730F30061
:10032000F40192317C22803140013608A60002306F
:10033000903105208031742B04303506031DA1292E
:10034000A229D6293708F2003608F1000430F3005C
:10035000F40192317C22803140013708F2003608E6
:10036000F1000530F300F40192317C22803140012C
:100370003708F2003608F1000630F300F401F40A01
:1003800092317C22803140013708F2003608F100BA
:100390000730F300F40192317C22803140013608AD
:1003A000A6000230903105208031742B05303506CF
:1003B000031DDB29DC29112A3708F2003608F10079
:1003C0000430F300F401F40A92317C2280314001C0
:1003D0003708F2003608F1000530F300F4019231DD
:1003E0007C22803140013708F2003608F1000630E7
:1003F000F300F401F40A92317C2280314001370885
:10040000F2003608F1000730F300F40192317C224B
:10041000803140013608A60002309031052080313D
:10042000742B06303506031D162A172A4C2A370866
:10043000F2003608F1000430F300F40192317C221E
:10044000803140013708F2003608F1000530F30032
:10045000F401F40A92317C22803140013708F20025
:100460003608F1000630F300F401F40A92317C22E0
:10047000803140013708F2003608F1000730F30000
:10048000F40192317C22803140013608A60002300E
:10049000903105208031742B07303506031D512A19
:1004A000522A882A3708F2003608F1000430F30097
:1004B000F401F40A92317C22803140013708F200C5
:1004C0003608F1000530F300F401F40A92317C2281
:1004D000803140013708F2003608F1000630F300A1
:1004E000F401F40A92317C22803140013708F20095
:1004F0003608F1000730F300F40192317C2280319C
:1005000040013608A6000230903105208031742B5E
:1005100008303506031D8D2A8E2AC22A3708F200BC
:100520003608F1000430F300F40192317C2280316E
:1005300040013708F2003608F1000530F300F401FD
:1005400092317C22803140013708F2003608F100F8
:100550000630F300F40192317C22803140013708EB
:10056000F2003608F1000730F300F401F40A92318A
:100570007C22803140013608A600023090310520EF
:100580008031742B09303506031DC72AC82AFD2A7D
:100590003708F2003608F1000430F300F401F40AE1
:1005A00092317C22803140013708F2003608F10098
:1005B0000530F300F40192317C228031400137088C
:1005C000F2003608F1000630F300F40192317C228B
:1005D000803140013708F2003608F1000730F3009F
:1005E000F401F40A92317C22803140013608A600E1
:1005F0000230903105208031742B0A303506031DFE
:10060000022B032B382B3708F2003608F100043098
:10061000F300F40192317C22803140013708F2006E
:100620003608F1000530F300F401F40A92317C221F
:10063000803140013708F2003608F1000630F3003F
:10064000F40192317C22803140013708F2003608F3
:10065000F1000730F300F401F40A92317C2280317A
:1006600040013608A6000230903105208031742BFD
:100670000B303506031D3D2B3E2B742B3708F20043
:100680003608F1000430F300F401F40A92317C22C0
:10069000803140013708F2003608F1000530F300E0
:1006A000F401F40A92317C22803140013708F200D3
:1006B0003608F1000630F300F40192317C228031DB
:1006C00040013708F2003608F1000730F300F4016A
:1006D000F40A92317C22803140013608A6000230B3
:1006E000903105208031742B8D31492580310800EF
:1006F00002309031342083314001AE002E08AC002E
:10070000AD012C08F1002D08F2000430F300923105
:10071000652283314001AF002E08AC00AD012C08EA
:10072000F1002D08F2000530F3009231652283318B
:100730004001B0002E08AC00AD012C08F1002D08DE
:10074000F2000630F3009231652283314001B1009E
:100750002E08AC00AD012C08F1002D08F200073086
:10076000F3009231652283314001B2002F08031D4E
:10077000BA2BBB2BCC2B3008031DBF2BC02BCC2B93
:100780003108031DC42BC52BCC2B3208031DC92BEC
:10079000CA2BCC2B0030BD2C2F03031DD02BD12B0B
:1007A000E22B3008031DD52BD62BE22B3108031D7D
:1007B000DA2BDB2BE22B3208031DDF2BE02BE22BA5
:1007C0000130BD2C2F08031DE62BE72BF82B30033F
:1007D000031DEB2BEC2BF82B3108031DF02BF12B19
:1007E000F82B3208031DF52BF62BF82B0230BD2C0D
:1007F0002F03031DFC2BFD2B0E2C3003031D012C9E
:10080000022C0E2C3108031D062C072C0E2C32084E
:10081000031D0B2C0C2C0E2C0330BD2C2F08031D9C
:10082000122C132C242C3008031D172C182C242CCC
:100830003103031D1C2C1D2C242C3208031D212CDC
:10084000222C242C0430BD2C2F03031D282C292CF2
:100850003A2C3008031D2D2C2E2C3A2C3103031D6D
:10086000322C332C3A2C3208031D372C382C3A2CDE
:100870000530BD2C2F08031D3E2C3F2C502C30037F
:10088000031D432C442C502C3103031D482C492CB0
:10089000502C3208031D4D2C4E2C502C0630BD2CF4
:1008A0002F03031D542C552C662C3003031D592C8B
:1008B0005A2C662C3103031D5E2C5F2C662C3208EB
:1008C000031D632C642C662C0730BD2C2F08031DE0
:1008D0006A2C6B2C7C2C3008031D6F2C702C7C2C0C
:1008E0003108031D742C752C7C2C3203031D792CCC
:1008F0007A2C7C2C0830BD2C2F03031D802C812CDE
:10090000922C3008031D852C862C922C3108031D57
:100910008A2C8B2C922C3203031D8F2C902C922C22
:100920000930BD2C2F08031D962C972CA82C3003C2
:10093000031D9B2C9C2CA82C3108031DA02CA12C42
:10094000A82C3203031DA52CA62CA82C0A30BD2CE4
:100950002F03031DAC2CAD2CCA2B3003031DB12C6F
:10096000B22CCA2B3108031DB62CB72CCA2B32036C
:10097000031DBB2CBC2CCA2B0B3008004001B3005C
:10098000752D0230ED00942D3308EB000330ED009F
:10099000942D3A303302031CCE2CCF2CD82C3308A4
:1009A0005F39C93EAD00FF3003180030AE00DF2CC8
:1009B0003308D03EAD00FF3003180030AE002D08E4
:1009C000EC000430ED00942D3A303302031CE92C86
:1009D000EA2CF32C33085F39C93EAF00FF3003180F
:1009E0000030B000FA2C3308D03EAF00FF300318BF
:1009F0000030B0006C08AB000330AB35FF3E031D88
:100A0000FD2C2B352F07EC000530ED00942D3A30EE
:100A10003302031C0C2D0D2D172D33085F39C93EF1
:100A20004101E400FF3003180030E5001F2D3308BA
:100A3000D03E4101E400FF3003180030E5000130F2
:100A40004001EC026C08031D262D272D292DED01F8
:100A5000942D0630ED00942D3A303302031C312DD5
:100A6000322D3B2D33085F39C93EB100FF300318EA
:100A70000030B200422D3308D03EB100FF300318E1
:100A80000030B200410165084001AC00410164083A
:100A90004001AB00AB0EAC0EF030AC052B080F39AB
:100AA000AC04F030AB0531082B074101E4004001F4
:100AB00032082C3D4101E50064084001A7006B08A5
:100AC00088312520843101304001EC026C08031D7F
:100AD0006A2D6B2D042D272D5B303306031D712DE0
:100AE000722D942DED01ED0A942D6D08AB00AC0133
:100AF0002C08003A03197D2D6C2D2B08003A0319A0
:100B00006C2D013A0319C12C033A0319C42C013A84
:100B10000319C92C073A0319E42C013A0319072DCC
:100B2000033A03192C2D6C2D0800923122228531B5
:100B30005030F100A03092310C2285318B170B1709
:100B40008D31F32585319E31F726853187310F2789
:100B500085319E318C268531013A031DB02DB12D92
:100B6000382E903100208531013A031DB82DB92D62
:100B7000D12D4E018C129131F621853196316826A6
:100B8000853191317C2185319431702485319731C3
:100B900028278531A92D9031282085318431BE2424
:100BA00085319331AD238531003A031DD82DD92DE0
:100BB000CB2D192E0030840098308500013F8A002B
:100BC000003F0A0085314001CC005108A03E86005C
:100BD000023087004C0881005108A03E8600023098
:100BE00087000D3001060319F62DF72D082E510848
:100BF000A03E8600023087000A3001060319012E4C
:100C0000022E082E4F305106031D072E082E152EDA
:100C10005108A03E8600023087008101A030863155
:100C2000652685314001D101192E0130CC004C08D8
:100C3000D1070630840098308500013F8A00003FCC
:100C40000A008631003A031D262E272EDA2DA92D03
:100C50009031282085314201E6006608F10002301B
:100C6000840098308500013F8A00003F0A008631E9
:100C70009331AD238531003A031D3F2E402E282E9F
:100C8000542E0030840098308500013F8A00003FD8
:100C90000A008631F6006830840098308500013FF4
:100CA0008A00003F0A0086310630840098308500B3
:100CB000013F8A00003F0A008631003A031D612E81
:100CC000622E412EA92D80315528F9007908F100B6
:100CD0000230F2009231DB22863171080907F800F8
:100CE0005B30F6006830840098308500013F8A0050
:100CF000003F0A00863140016E080F39A03E860091
:100D0000013087000108F6006830840098308500C3
:100D1000013F8A00003F0A0086310130F700770862
:100D20004001EE075330F6006830840098308500AB
:100D3000013F8A00003F0A0086317808F70004303E
:100D4000F736890BA02E77080F39A03E86000130B8
:100D500087000108F6006830840098308500013F64
:100D60008A00003F0A00863178080F39A03E8600CD
:100D7000013087000108F600683084009830850053
:100D8000013F8A00003F0A008631FA2E790886006A
:100D9000023087000108F7000430F736890BCD2EAA
:100DA00077080F39A03E8600013087000108F60061
:100DB0006830840098308500013F8A00003F0A00B7
:100DC0008631790886000230870001080F39A03E7D
:100DD0008600013087000108F600683084009830F2
:100DE0008500013F8A00003F0A0086310130F7008C
:100DF0007708F90779088600023087000108031D8B
:100E0000022F032FC62E5D30F60068308400983024
:100E10008500013F8A00003F0A008731080010303A
:100E20004001EA001030F1000030F200F30192318D
:100E3000652287314001E9001030F1000030F200F6
:100E4000F301F30A9231652287314001E800103046
:100E5000F1000030F2000230F30092316522873158
:100E60004001E7001030F1000030F2000330F300E1
:100E70009231652287314001E6001030F1000030E8
:100E8000F2000430F3009231652287314001E50021
:100E90001030F1000030F2000530F300923165228D
:100EA00087314001E4001030F1000030F2000630DC
:100EB000F3009231652287314101E9001030F100E1
:100EC0000030F2000730F300923165228731410192
:100ED000E8009231C3228731003A0319702F712F35
:100EE000722FB62F07308031A92087310130893128
:100EF0000C21873102308F316527873101308A31EB
:100F00000422873101308931492187318D314925CA
:100F10008731003A03198D2F8E2F8F2FB62F9231E4
:100F200038228731003A0319962F972F982FB62F22
:100F30008C31A2248731023A03199F2FA02FA12FB1
:100F4000B62F833178238731073A0319A82FA92FA9
:100F5000AA2FB62F9131CB218731013A0319B12F36
:100F6000B22FB32FB62F8C31F52487310800400102
:100F70009C01313098009901C1309A0008309600E8
:100F8000DE309200EF309300253094007E01CE01D8
:100F9000C930C3000E30B800E501C401B901CF016A
:100FA000E601BA01C501D001FF30BB00FF30C60029
:100FB000FF30D1003F30BC003F30C7003F30D2008F
:100FC0003F133E133D170030F1000830F2009F310F
:100FD000452787314E01161609307D01C5001330B3
:100FE0007E01990014309A002530A4000F309C0037
:100FF00015307D01CD000A30C6000D30CB00080051
:101000000800F4007108720403190728082817283B
:101010007435A03E860087017108C03F7208C13F49
:101020007408AC3E8600870173088100242874355B
:10103000A03E860087016D30C03F1E30C13F74085E
:10104000AC3E86008701810108004001A9005428B8
:101050002708A8000430A836890B2B282808013956
:10106000AA002A08031D352836283E2827183928C3
:101070003A283C2898165C2898125C2827184128A2
:1010800043280130442800309031A22088315C2868
:101090002708F1000230840098308500013F8A0063
:1010A000003F0A0088315C2829084C3A0319282897
:1010B0001F3A031948285C2808007C08C63E8600B1
:1010C0008701810154011D1D6628672872287C084C
:1010D000C63E860087018114420163088A006208C7
:1010E0000A00883154019D1C7628772882287C08C4
:1010F000C63E860087010115420161088A0060082A
:101100000A0088317C08C63E860087010108031961
:101110008A288B28922842015F088A005E080A000C
:101120008831952892319322883108004001B60019
:10113000373090315A2088314001360886008701C7
:101140003708C03F3808C13F9031B1208831003A9C
:101150000319AB28AC28A428373096310C268831E7
:1011600040013608023E860087013708C03F380834
:10117000C13F9031C2208831003A0319C028C128EC
:10118000B928373096313A26883140013608043E76
:10119000860087013708C03F3808C13F080040017A
:1011A0005408BE3E86008701810142011D1DD928D9
:1011B000DA28E62840015408BE3E860087018114E3
:1011C000420159088A0058080A00883142019D1CD2
:1011D000EA28EB28F72840015408BE3E8600870124
:1011E0000115420157088A0056080A00883140015B
:1011F0005408BE3E86008701010803190029012911
:101200000829420155088A0054080A0089310B292F
:1012100093312623883108004001B5000730903112
:10122000342089314001B300B4013308B6003408DA
:10123000B7003508031D1D291E292F293708F20084
:101240003608F100F301F40192317C22893140012A
:101250003608A6000730903105208931452935032D
:10126000031D3329342945293708F2003608F100D7
:10127000F301F401F40A92317C22893140013608ED
:10128000A60007309031052089318D3149258931FB
:1012900008004001B500033090313420893140010D
:1012A000B300B4013308B6003408B7003508031D95
:1012B0005A295B296C293708F2003608F100F3013E
:1012C000F40192317C22893140013608A6000330B6
:1012D00090310520893182293503031D7029712938
:1012E00082293708F2003608F100F301F401F40A0C
:1012F00092317C22893140013608A60003309031BA
:10130000052089318D314925893108004E01991216
:10131000CF30F1000830F2009F311B2789314E0198
:1013200019122A30F1001430F2009F31212789313F
:10133000083042019F0090309D0024309E004030D4
:101340009B0003309C006B30F1001E30F2009F3197
:101350000F2789319330F1001E30F2009F3115279D
:1013600089318F30F1001E30F2009F310927893119
:101370004101E6014001D701D6010830D500D40172
:10138000D301D2014E01991608004E0199135D3028
:10139000F1000830F2009F31392789314E011913CD
:1013A0000830F1001430F2009F313F2789310830B6
:1013B00054019F0090309D0024309E0040309B00DF
:1013C00003309C006C30F1001E30F2009F312D275D
:1013D00089319B30F1001E30F2009F313327893173
:1013E0009730F1001E30F2009F31272789314101EB
:1013F000E7014001DC01DB010830DA00FC01D90122
:10140000D8014E01991708004001B5000330903112
:1014100034208A314001B300B4013308B6003408E7
:10142000B7003508031D152A162A282A3708F200A6
:101430003608F100F301F30AF40192317C228A317B
:1014400040013608A6000330903105208A313F2A3A
:101450003503031D2C2A2D2A3F2A3708F2003608AF
:10146000F100F301F30AF401F40A92317C228A318B
:1014700040013608A6000330903105208A318D31B5
:1014800049258A3108004001AA0040012A08973105
:101490005C278A31003A03194E2A4F2A452A1D300B
:1014A000F5001130F6002B30F7009F31D4278A3138
:1014B0002430F1000030F2000130F3000030F4007D
:1014C000903193208A310030F500F6000030F700AB
:1014D000F8009F31DF278A319E31E1268A3192312F
:1014E000AB228A31013A0319762A772A6F2A400102
:1014F0002C08A7002B08A6002708A600A7012B0888
:10150000A900A80126082804A40027082904A5008A
:10151000080030304001A2003030A5003030A30078
:10152000201E932A942A972A3130A400992A303019
:10153000A40020080F39303EA200211EA02AA12AB3
:10154000A42A3130A500A62A3030A50021080F3981
:10155000303EA3007C304401A0004F30A1002C306D
:10156000A200400124084401A300400122084401D4
:10157000A4002C30A500400125084401A60040012C
:1015800023084401A7000D30A8000A30A9000A3042
:10159000F7002030963196268A318E3151268A31D5
:1015A00008009E3186268A31F9001730A03E860059
:1015B0008701403F8400413F850079088000013069
:1015C0004101B7070030B83D0130B9020030BA3BE5
:1015D00039083A040319ED2AEE2AF32A9E31A3268C
:1015E0008A310530192BBD15FD2A9E31D7268A3147
:1015F000192B9E31D2268A31192B2C08F80021088C
:101600008A0020080A008B31F900FA017A08003AB2
:1016100003190B2BF92A7908013A0319F92A033A1D
:101620000319F52A013A0319F52A073A0319F92A89
:10163000F92A08006A30840098308500013F8A004A
:10164000003F0A008B314001C4005D03031D292BBC
:101650002A2B542B25304406031D2F2B302B422BD5
:10166000DD01600886000330870081016208FB000D
:101670007830840098308500013F8A00003F0A00DE
:101680008B31632B6208610760020318482B492BDA
:10169000632B600886000330870044088100013016
:1016A000C3004308E007632B25304406031D592B74
:1016B0005A2B5F2BDD01DD0A6208E000632BDE019F
:1016C000DE0A4408DF0040015E0808004001A20075
:1016D0007708780403196D2B6E2BB12B7808F20074
:1016E0007708F1009231DB228B3172084001A100B2
:1016F0007108A000A32B7808F2007708F1002108F8
:10170000F4002008F30022088C314F248B3171083B
:101710007204031D8C2B8D2B902B40012208B22BC1
:1017200077088400780885000008F900FA01790834
:10173000F1007A08F20040012208013E9231F422C1
:101740008B314001A20022080319A72BA82BB12B33
:1017500022088600033087000108031DB02BB12B3F
:101760007B2B003008004001A5002A30A900023080
:10177000A7000030A8004001250897315C278B3175
:10178000003A0319C42BC52BBB2B0A30F5001130CE
:10179000F6002930F7009F31D4278B312430F10037
:1017A0000030F2000130F3000030F400903193205B
:1017B0008B310030F500F6000030F700F8009F3163
:1017C000DF278B319E31E1268B319231AB228B3179
:1017D0004001A60026030319EE2BEF2BE52B26086C
:1017E000031DF32BF42BF52BFF2BFF30A707FF3046
:1017F000A83D27082804031DFE2BFF2BBB2B29081F
:1018000008002030F1000230840098308500013F4C
:101810008A00003F0A008C313E30F1000230840023
:1018200098308500013F8A00003F0A008C313E302D
:10183000F1000230840098308500013F8A00003FAB
:101840000A008C313E30F10002308400983085006F
:10185000013F8A00003F0A008C312030F100023045
:10186000840098308500013F8A00003F0A008C31D7
:101870000D30F1000230840098308500013F8A006D
:10188000003F0A008C310A30F100023084009830A9
:101890008500013F8A00003F0A008C310800F600F5
:1018A0000130F3020030F43B730A031D5B2C740A11
:1018B000031D5B2C5C2C6B2CF101F201A12C01307F
:1018C000F5007508F6070130F1070030F23D0130F0
:1018D000F3020030F43B76088600033087000108ED
:1018E0000319732C742C932C7108840072088500E2
:1018F000120003197C2C7D2C932C7308740403199B
:10190000822C832C932C71088400720885000008B7
:10191000F500760886000330870001087506031974
:10192000922C932C5F2C7608860003308700710878
:1019300084007208850000080102F100F201031C16
:10194000F20308000130903134208C314001AE00A8
:101950002E08AC00AD012C08F1002D08F200F301B7
:10196000923165228C314001AF002E08AC00AD01F0
:101970002C08F1002D08F200F301F30A92316522E0
:101980008C314001B0002F08031DC72CC82CCF2C70
:101990003008031DCC2CCD2CCF2C0030F42C2F0381
:1019A000031DD32CD42CDB2C3008031DD82CD92CB0
:1019B000DB2C0130F42C2F08031DDF2CE02CE72C4E
:1019C0003003031DE42CE52CE72C0230F42C2F030C
:1019D000031DEB2CEC2CF32C3003031DF02CF12C0D
:1019E000F32C0330F42CCD2C08000330903134203C
:1019F0008C314001AE002E08AC00AD012C08F10086
:101A00002D08F2000230F300923165228C31400142
:101A1000AF002E08AC00AD012C08F1002D08F2003B
:101A20000330F300923165228C314001B0002F0861
:101A3000031D1B2D1C2D232D3008031D202D212DB2
:101A4000232D0030482D2F03031D272D282D2F2D4A
:101A50003008031D2C2D2D2D2F2D0130482D2F0842
:101A6000031D332D342D3B2D3003031D382D392D0F
:101A70003B2D0230482D2F03031D3F2D402D472DB8
:101A80003003031D442D452D472D0330482D212DB6
:101A900008009F315E278D314001B2003208AC0052
:101AA000AD012C08F1002D08F200F30192316522FE
:101AB0008D314001AE003208AC00AD012C08F100C0
:101AC0002D08F200F301F30A923165228D314001B5
:101AD000AF003208AC00AD012C08F1002D08F20077
:101AE0000230F300923165228D314001B00032089E
:101AF000AC00AD012C08F1002D08F2000330F3001A
:101B0000923165228D314001B1002E080319892DD3
:101B10008A2D9B2D2F0803198E2D8F2D9B2D30087C
:101B20000319932D942D9B2D31080319982D992D70
:101B30009B2DFF309C2D003008009E31EB268D310F
:101B4000003A0319A42DA52DD32DB22D9E31B9260F
:101B50008D31F22D9E31BE268D31F22D9E31C8265B
:101B60008D31F22D41012F08F8000630A03E86008D
:101B70008701413F8A00403F0A008D31F900FA0198
:101B80007A08003A0319C52DAE2D7908013A0319D8
:101B9000AE2D033A0319A62D013A0319AA2D073ACF
:101BA0000319AE2DAE2D41013D103808FA0037085B
:101BB000F900B70A0319B80A790886007A0887007D
:101BC00001089E31AF268D3101304101B90200304C
:101BD000BA3B39083A04031DEE2DEF2DF12D0630E6
:101BE000F22D03300800F101F10A743084009830BE
:101BF0008500013F8A00003F0A008D31F101F10AA2
:101C00007230840098308500013F8A00003F0A004E
:101C10008E310130F4000030F500763084009830C9
:101C20008500013F8A00003F0A008E31F1017230C9
:101C3000840098308500013F8A00003F0A008E3101
:101C4000F101F10A7030840098308500013F8A006C
:101C5000003F0A008E31C830F4000030F5007630C5
:101C6000840098308500013F8A00003F0A008E31D1
:101C7000422E6A30840098308500013F8A00003F80
:101C80000A008E316E30840098308500013F8A0052
:101C9000003F0A008E31003A031D4F2E502E392E80
:101CA0000800F6016A30840098308500013F8A0000
:101CB000003F0A008E31F3006A30840098308500BE
:101CC000013F8A00003F0A008E31F4006A30840030
:101CD00098308500013F8A00003F0A008E31F500F0
:101CE000902E4F307406031D762E772E982E4B3093
:101CF0007506031D7C2E7D2E982EF601F60A982E71
:101D000072307406031D852E862E982E723075064D
:101D1000031D8B2E8C2E982EF601982E0030D82E77
:101D20007308413A0319712E043A0319802E8E2E3E
:101D30006A30840098308500013F8A00003F0A0025
:101D40008E316A30840098308500013F8A00003F60
:101D50000A008E316A30840098308500013F8A0085
:101D6000003F0A008E316A30840098308500013FC0
:101D70008A00003F0A008E316A3084009830850066
:101D8000013F8A00003F0A008E316A30840098309B
:101D90008500013F8A00003F0A008E316A308400CE
:101DA00098308500013F8A00003F0A008E31760896
:101DB0000800FA005B30F600683084009830850037
:101DC000013F8A00003F0A008E3140016E080F3942
:101DD000A03E8600013087000108F60068308400CC
:101DE00098308500013F8A00003F0A008E310130A3
:101DF000F80078084001EE077A08F60068308400A1
:101E000098308500013F8A00003F0A008F31770833
:101E1000F100F2019231DB228E317108F800720874
:101E2000F9000430F936F80C890B122F78080F39B5
:101E3000A03E8600013087000108F600683084006B
:101E400098308500013F8A00003F0A008F317708F3
:101E5000F100F2019231DB228E3171080F39A03E80
:101E60008600013087000108F60068308400983051
:101E70008500013F8A00003F0A008F31512F77080B
:101E8000860087010108F6006830840098308500DC
:101E9000013F8A00003F0A008F310130F8007808C6
:101EA000F7077708860087010108031D582F592F6F
:101EB0003F2F5D30F6006830840098308500013F88
:101EC0008A00003F0A008F3108004001B500013050
:101ED000903134208F314001B300B4013308B60093
:101EE0003408B7003508031D762F772F932F370856
:101EF000F2003608F100F301F40192317C228F31B7
:101F000040013708F2003608F100F301F30AF4014A
:101F100092317C228F3140013608A6000130903189
:101F200005208F31FC2F3503031D972F982FB52FD8
:101F30003708F2003608F100F301F401F40A923197
:101F40007C228F3140013708F2003608F100F3019E
:101F5000F30AF40192317C228F3140013608A60049
:101F60000130903105208F31FC2F02303506031DE2
:101F7000BA2FBB2FD82F3708F2003608F100F30133
:101F8000F40192317C228F3140013708F20036088B
:101F9000F100F301F30AF401F40A92317C228F314B
:101FA00040013608A6000130903105208F31FC2F0A
:101FB00003303506031DDD2FDE2FFC2F3708F2001E
:101FC0003608F100F301F401F40A92317C228F31DA
:101FD00040013708F2003608F100F301F30AF4017A
:101FE000F40A92317C228F3140013608A60001307C
:101FF000903105208F31FC2F8D3149258F3108001C
:102000004E010C0E890C013908004001A700270879
:10201000A4002608A50022309631F526903108004C
:102020007608F1001630840098308500013F8A0060
:10203000003F0A0090310800400192137103031D14
:102040002228232825289817262898139217080055
:102050009331AD239031003A03192F2830282828D6
:102060004001DE015F0808004001AA002A08A40020
:1020700022308B31B32390314001AB002B08080094
:1020800047289E31F1269031953135259031410117
:10209000BD184B284C28412808004301901A5128AC
:1020A000522859288F010830900091014F308D003F
:1020B00090160800FB0012309331C92390317B0841
:1020C0008600870140012D08C03F2E08C13F08004F
:1020D000FB007908F6007B089631C42690317A0817
:1020E000F6007B089631C42690310800FB001030C2
:1020F0009331C92390317B088600870140012D0868
:10210000C03F2E08C13F080041016A086B04031953
:102110008A288B2890286B088A006A080A00903168
:102120007E013F1308004101BD1D97289828A12872
:102130007208B8007108B7007408BA007308B900D3
:10214000BD1108004001A6000130FB002608FB027B
:1021500050087B06FE397B06D000933191239031E5
:10216000080004304001A40019308B31B3239031B2
:102170000139031DBC28BE280130BF280030FB00F8
:102180007B08080006304001A40019308B31B323CE
:1021900090310139031DCD28CF280130D0280030DF
:1021A000FB007B08080030343134323433343434AB
:1021B00035343634373438343934413442344334A6
:1021C00044344534463400347808F100F2010230DA
:1021D000F3000030F4009031932090310030F5008E
:1021E000F600F7019F31D4279031043008007808B9
:1021F000F100F2010130F3000030F400903193203F
:1022000090310030F500F600F7019F31D42790316E
:10221000043008007808F100F2010130F3000030CA
:10222000F4009031932091310030F500F600F70171
:102230009F31D4279131023008007808F100F20173
:102240000230F3000030F4009031932091310030DF
:10225000F500F600F7019F31D427913102300800D4
:102260007808F100F2010230F3000030F400903100
:10227000932091310030F500F600F7019F31D4270B
:102280009131043008007808F100F2010130F300C8
:102290000030F4009031932091310030F500F600C9
:1022A000F7019F31D4279131023008007808F100FE
:1022B000F2010230F3000030F400903193209131AC
:1022C0000030F500F600F7019F31D427913102303C
:1022D00008007808F100F2010130F3000030F4004A
:1022E0009031932091310030F500F600F7019F31D5
:1022F000D4279131043008009F31032791314001E8
:10230000A000A1012008F60021309631C4269131A9
:102310002130F70050308E31D92691310800F3007A
:102320007308F200720886008701F20A71088400BF
:1023300003308500F10A0008C03F8908031DA12968
:10234000A2299229080047304B019F000B309D00C5
:10235000DC309C001D084001CE004B011C084001F0
:10236000CD004E018C1290304B019E000800720887
:10237000F8007108F9007808F300F4017908F50015
:10238000F6017508F600F50173087504F10074088C
:102390007604F2000800073090313420913140017A
:1023A000AF002F08AC00AD012C08F1002D08F200A1
:1023B000F3019231652291314001AE002E080800F0
:1023C000E9290B30F3006230890BE429F30BE4298F
:1023D00000320130F1020030F23B710A031DF42992
:1023E000720A031DF429F529E12908004001B6010C
:1023F0003B3090317620913140013C08FA003B0897
:10240000F90036309031682091313630F700543081
:102410008E31D92691310800F20072080319112A71
:10242000122A202A02307102031C172A182A202A95
:1024300072084001E2007108FF3EE1000130212AEC
:10244000003008009F31CA2792319F31992792317D
:102450008731B72792319F31C02792319131A32123
:1024600092318931862192318931C521923108001A
:1024700001309031342092314001AF002F08AC0080
:10248000AD012C08F1002D08F2000430F300923168
:10249000652292314001AE002E080800243044012C
:1024A000A0002430A1002430A2000330F700203027
:1024B0009631962692310B30F300A030F4000530AF
:1024C000F500953187259231080071088600720861
:1024D00087000130F400730A6E2AF435890B6D2AE7
:1024E00074080105F5007508031D772A782A7A2AF1
:1024F00000307B2A013008007408F500730A812A35
:10250000F535890B802A7508F60071088600720877
:10251000870001087604F5007108860072088700BC
:102520007508810008007C08CE3E860087015401B2
:10253000190881000130F0007008FC0708307C02A7
:10254000031CA32AA42AA52AFC010130F00070086C
:102550004001D8070800F101F10A4101BD18B12A74
:10256000B22AC12A3D11FF30B6009E317126923148
:102570009E31772692319E317426923141013C087A
:10258000F1007108080093310D23923140012E08AB
:102590004101DF0040012D084101DE0049305E06A7
:1025A000543003195F060319D62AD72AD92AFF30D7
:1025B000DA2A003008007208F5007108F400E42AF5
:1025C0000130F1070030F23D710884007208850087
:1025D0001200031DEC2AED2AE02A74087102F100B2
:1025E0007508723BF2000800F300730886000330A0
:1025F000870001087106031DFE2AFF2A012B7308BC
:102600000C2B7308860003308700F30A0108031DB2
:102610000A2B0B2BF52A003008000E304001A400D5
:1026200022308A314322933140012508B00024082A
:10263000AF003008F2002F08F1009131B72193313B
:1026400072084001AE007108AD0008004001540856
:10265000443E8600013087004201190881000130A4
:10266000F00070084001D40708305402031C392BD5
:102670003A2B3B2BD4010130F0007008D207080040
:102680007808023E86008701403FF100413FF2009A
:10269000780886008701403FF300413FF400903105
:1026A000932093310030F500F600F7019F31D427D5
:1026B0009331023008007808023E86008701403FCF
:1026C000F100413FF200780886008701403FF300A7
:1026D000413FF4009031932093310030F500F60033
:1026E000F7019F31D4279331023008002D30440187
:1026F000A0002D30A1002D30A2000D30A3000A3023
:10270000A4000530F700203096319626933106302C
:10271000F300A030F4000530F500953187259331A2
:10272000080092314E2293311430F4000030F5004D
:102730007630840098308500013F8A00003F0A000F
:10274000933140015008A1004F08A0008A3189222E
:102750009331933176239331080040015E080319C9
:10276000B22BB32BB52B0130C82B6E3084009830C0
:102770008500013F8A00003F0A009331003A0319A7
:10278000C22BC32BC72B8B311A239331C82B00309C
:1027900008004001B2003208A40022308A314322EE
:1027A000933140012508B5002408B4003408B30073
:1027B0003308AF00B0012F08B000AF012F08B400FC
:1027C0003008B5003508AE003408AD0008004001FF
:1027D000A200A301A30A4101BD18EF2BF02B052C89
:1027E000BD144001A30122080319F72BF82BFC2B81
:1027F0004101BB01BB0AFF2B02304101BB009E31EE
:102800007A2693319031402093314001230808000B
:10281000083040015A0203180E2C0F2C272C5B089D
:10282000D63E86008701010854019A000130F0006D
:1028300070084001DB0708305B02031C202C212CB0
:10284000222CDB010130F0007008DA07292C4E0140
:10285000191308000830400155020318302C312CA0
:102860004A2C56084C3E8600013087000108420180
:102870009A000130F00070084001D6070830560277
:10288000031C432C442C452CD6010130F000700869
:10289000D5074C2C4E0119120800F3007308031DD4
:1028A000522C532C5F2C5B30F100023084009830A6
:1028B0008500013F8A00003F0A0094316F2C7303AA
:1028C000031D632C642C6F2C5D30F10002308400FA
:1028D00098308500013F8A00003F0A0094310800CB
:1028E0009E31FD2694314001A300A0012308F6008B
:1028F00020309631C42694312030F7004C308E3190
:10290000D92694319E31E6269431103E4001A30031
:10291000A0012308F60020309631C42694312030DF
:10292000F7004C308E31D9269431080040015A0806
:1029300003199B2C9C2C962C4E01191BA02CA12C0E
:10294000A52C710854019A00BA2C191340015C0897
:10295000D63E86008701710881000130F2007208BE
:10296000DC0708305C02031CB62CB72CB82CDC0149
:102970000130DA024E011917080041013D10023002
:10298000BC00CA2C9E31C3269431E42C9E31C8264B
:102990009431E42C2E08F8000430A03E8600870114
:1029A000413F8A00403F0A009431F900FA017A0859
:1029B000003A0319DC2CC62C7908023A0319C22C00
:1029C000013A0319C22CC62C08004001550803190E
:1029D000EA2CEB2CE52C4E01191AEF2CF02CF42CE0
:1029E000710842019A000A2D1912400157084C3E05
:1029F000860001308700710881000130F200720802
:102A0000D70708305702031C062D072D082DD701C4
:102A10000130D5024E01191608004001580803196B
:102A2000122D132D0D2D5908C63E86008701010871
:102A30004101E70040015908CE3E860087010108A8
:102A4000F2000130F1007108D90708305902031C67
:102A50002A2D2B2D2C2DD9014E0199130130400127
:102A6000D8024E019917720808009E3171269531DF
:102A700041013D1C3C2D3D2D482D9E31EB269531CD
:102A8000003A0319442D452D482D0F304101BB005C
:102A900041013B084001A000A101A035A10D283053
:102AA000200784001830213D80388500013F8A00CE
:102AB000003F0A0095314101BB0008004001520867
:102AC0000319632D642D5E2D5308BE3E86008701D9
:102AD00001084101E60040015308443E86000130F0
:102AE00087000108F2000130F1007108D3070830B7
:102AF0005302031C7C2D7D2D7E2DD3014E01991296
:102B000001304001D2024E01991672080800F90105
:102B1000AA2D6A30840098308500013F8A00003F6A
:102B20000A009531F8007408F7007308F600790878
:102B30007607840077080318770A8500000878066E
:102B40000319A32DA42DA62D0030B12D0130F600C0
:102B50007608F90775087902031CAF2DB02D892D71
:102B6000013008004101BD15C22D9E31C3269531AB
:102B7000DE2D9E31892695310330DE2D9E31C8260B
:102B80009531DE2D2C08F80021088A0020080A0063
:102B90009531F900FA017A08003A0319D02DBE2DBB
:102BA0007908013A0319BE2D033A0319B52D013AEC
:102BB0000319B52D073A0319B92DBE2D08003C3075
:102BC000F1000230840098308500013F8A00003F08
:102BD0000A0095313C30F1000230840098308500C5
:102BE000013F8A00003F0A0095313C30F10002307D
:102BF000840098308500013F8A00003F0A0095312B
:102C00002030F1000230840098308500013F8A00B6
:102C1000003F0A00963108004001AD009031B1201C
:102C20009631003A0319152E162E0E2E043040014F
:102C3000A40019308B31B32396314001AE0005302A
:102C4000A40019308B31B32396314001AF002F0817
:102C5000AB002E08AA000430AC002B0DAB0CAA0C64
:102C6000AC0B2D2E2D08860087012A08C03F2B08AB
:102C7000C13F08004001AD009031C2209631003ABA
:102C80000319432E442E3C2E06304001A400193077
:102C90008B31B32396314001AE000730A4001930C8
:102CA0008B31B32396314001AF002F08AB002E08C3
:102CB000AA000430AC002B0DAB0CAA0CAC0B5B2EA5
:102CC0002D08860087012A08C03F2B08C13F080055
:102CD0004001B9014630883196209631FF304001DD
:102CE0004605F9000F304705FA0039309031682069
:102CF0009631FF3040014805F9000F304905FA00D0
:102D00003930903168209631FF3040014A05F90092
:102D10000F304B05FA003930903168209631393048
:102D2000F70058308E31D92696310800FA00F901A3
:102D3000BD2E6C30840098308500013F8A00003F32
:102D40000A009631003A0319A62EA72EBD2E790847
:102D50007A07F80078088600023087000108F6003C
:102D60006830840098308500013F8A00003F0A00E7
:102D700096310130F8007808F90777087902031CCA
:102D8000C22EC32E992E0800F8007808F100F20137
:102D90009231DB2296317108F7007708F80778083E
:102DA00086008701760E0F398919F0380F39A03E59
:102DB000840001308500000881000130F7007708A9
:102DC000F80778088600870176080F39A03E84004E
:102DD00001308500000881000130F7007708F8070E
:102DE00078088600870181010800FB007B08973185
:102DF0005C279631003A0319FE2EFF2EF62EF7308F
:102E0000F5001030F6002530F7009F31D4279631B9
:102E10002430F1000030F2000130F3000030F40003
:102E20009031932096310030F500F6000030F70025
:102E3000F8009F31DF2796319E31E126963192319D
:102E4000AB229631013A0319262F272F1F2F080096
:102E50004001A201B601402F3608003E8400A03098
:102E60000318013E85000008B5003508F600223041
:102E70009631C426973101304001A0002008B607E2
:102E80000030F100A030F2009231DB229731400196
:102E90003608A000A10172082102031D512F7108FC
:102EA0002002031C542F552F2C2F2230F7005630B0
:102EB0008E31D92697310800F100F201F20A410162
:102EC0003D19632F642F902F7108B600BD103D157A
:102ED0003D100E30BB00F430B4000130B500BD151C
:102EE0006D30A0001E30A100AC016D30A2001E307C
:102EF000A300AD016D30A4001E30A500AE016D3001
:102F0000A6001E30A700AF016F30A8001E30A90038
:102F1000B0019E317126973190314D209731F201E9
:102F2000720808004001C0004008F10020309131D3
:102F30008F2197314001C101B12F4108203E860009
:102F400087010108F1000230840098308500013FBC
:102F50008A00003F0A0097310130F60076084001F0
:102F6000C1074008F100FF39031D0330F200923120
:102F7000DB22973140014108F600F7017208770221
:102F8000031DC42F71087602031CC72FC82F9D2F65
:102F900008009531DF2597319130F7009830F8001F
:102FA0007B088B3166239731003A0319D82FD92F2C
:102FB000DD2F4001C201E301F32F7A30F700983092
:102FC000F8007B088B3166239731003A0319E92F0B
:102FD000EA2FF02F4001C201C20AE301E30AF32FF6
:102FE00002304001C2007B089731922797318C3123
:102FF000012497314001420894314D249731080053
:103000005E341534E53414340034003490341F3405
:1030100021341F34CF3408341B341F34AB341E34F6
:103020002A341434863409340D3415349634143467
:103030000034003487341F343F341F345D34083487
:1030400039341F34A7341E3408341434C5340934D9
:10305000B4341E347E341F3465341F349D340D3433
:10306000D1340A3457341F34B2341534B9341E34D1
:10307000BE341E34C3341E34C8341E34CD341E3422
:10308000D2341E34D7341E34DC341E34BD341434F0
:103090000034003400340034003400340034003490
:1030A0000034003400340034003400340034003480
:1030B0000034003400340034003400340034003470
:1030C0000034003400340034003400340034003460
:1030D00010341034A2341F34AC341F34B6341F34CF
:1030E000EA341F34F5341F341C3410346D341F346B
:1030F000C9341734533454345234453441344D3484
:103100005F344F34503445344E34003452346534D7
:1031100062346F346F34743469346E3467340D3410
:103120000A3444344934533443344F344E344E34E7
:083130004534433454340034EB
:103CD6000800080001300800053008004E010F10EA
:103CE60008004301901208004E0119100800430114
:103CF600111408004301911408004301111508002E
:103D060043019115080043010C0808004E010F14E9
:103D16000800400163080800933126239E310800FD
:103D260042011D121D160800923193229E31080091
:103D360054011D121D1608004301911611160800A4
:103D4600430191121116080054011E0C0139080096
:103D560042011E0C01390800F100710843018C0074
:103D660008004101BD10BC010E3008009E317D26C1
:103D76009E31013008009E317D269E3102300800BA
:103D86009E317D269E31013008009E3180269E316F
:103D9600003008009E31A3269E31053008009E3172
:103DA6009F269E310A3008009E319F269E3109309B
:103DB60008004101BD10BC010E30080000309331EF
:103DC600E7239E310800400150080139013C0800F4
:103DD6004301110E890C890C013908004E010F1C94
:103DE600F52EF62EF12E080001304001CF000130ED
:103DF600D000080040010C0E890C0139013C080076
:103E060040010C0D0C0D0139013C080072084201FD
:103E1600D5007108D400080072084201D900710863
:103E2600D800080072084201D7007108D6000800C1
:103E360072084201DB007108DA00080072084201CC
:103E4600DD007108DC00080072084201DF0071081D
:103E5600DE00080072084201E3007108E200080073
:103E660072084201E1007108E00008007208420190
:103E7600E5007108E400080072084101ED007108D0
:103E8600EC00080072084101EB007108EA00080026
:103E9600640080010131890B4C2F0034FE001200B2
:103EA6001E00FE0B522F003441013D109E31832629
:103EB6009F31043008001C30903134209F31FB00C4
:103EC6007B08080041013D1436359E31AF269F31EF
:103ED600033008007508F2007408F1009131E02102
:103EE6009F3108007E013F1F792F7A2F7D2F903159
:103EF60084209F31080041013D140314360D9E3184
:103F0600AF269F310530080040015808031D8C2F4D
:103F16008E2F01308F2F0030080040015208031DFC
:103F2600952F972F0130982F0030080043018F01FD
:103F36000830900091014F308D0090120800143027
:103F4600840098308500013F8A00003F0A009F31B7
:103F560008002230840098308500013F8A00003F27
:103F66000A009F3108001A30840098308500013F0E
:103F76008A00003F0A009F310800603051018D0021
:103F86008F019101063093009001920108004F01C4
:103F960096019701980199019A019B019C019D0147
:103FA60008007608F2007508F1007708F300003083
:103FB600883101209F3108007608F2007508F1006B
:103FC6007708F3000230883101209F310800710321
:103FD600031DEE2FEF2FF22F40011A13F42F40018D
:103FE6001A1708007103031DF92FFA2FFD2F400140
:103FF6001810FF2F40011814080031342E343134C4
:104006002E343034003445344E3444340D340A34BE
:1040160043344D3444343E3420340034A034003428
:02402600A034C4
:020000040001F9
:08000000FF3FFF3FFF3FFF3F00
:0A000E00EC3FFF3F9F3FFF3FFF3F25
:00000001FF
