:1000000080315528303430347E1480314E01161E34
:100010000A280B2813280C1E0E280F2813289F319E
:100020008B27803153280B1F162817285328191F98
:100030001A281B2826280F1F1E281F2826284101A2
:100040006E088A006D080A0080315328991F2928FC
:100050002A2835288F1F2D282E28352841016C0885
:100060008A006B080A0080315328191E3828392865
:1000700044280F1E3C283D284428420166088A0077
:1000800065080A0080315328991E472848285328BC
:100090008F1E4B284C285328420164088A006308AD
:1000A0000A00803153287E100900803157288031A2
:1000B00002208031EE00803103208031EF006E306D
:1000C0008400913085004C3086000130870011306B
:1000D0009F3166278031FC014A3084000030850062
:1000E00024309F3160278031A030840000308500AB
:1000F00049309F31602780312030840001308500F5
:100100002C309F3160278031A03084000130850081
:1001100040309F31602780312030840002308500DC
:1001200050309F3160278031A0308400023085003C
:1001300050309F31602780312030840003308500AB
:1001400050309F31602780317E1040018431BD2CBA
:100150004001B800023090317A2080314001B60071
:10016000B7013608B9003708BA003808031DB928A6
:10017000BA28ED283A08F2003908F1000430F300FB
:10018000F40188310020803140013A08F20039083A
:10019000F1000530F300F401883100208031400186
:1001A0003A08F2003908F1000630F300F401883112
:1001B0000020803140013A08F2003908F100073090
:1001C000F300F40188310020803140013908A60095
:1001D0000230903116208031732B3803031DF12833
:1001E000F22826293A08F2003908F1000430F30019
:1001F000F401F40A88310020803140013A08F2000D
:100200003908F1000530F300F40188310020803115
:1002100040013A08F2003908F1000630F300F40119
:1002200088310020803140013A08F2003908F1009D
:100230000730F300F4018831002080314001390893
:10024000A6000230903116208031732B0230380620
:10025000031D2B292C2960293A08F2003908F100E6
:100260000430F300F40188310020803140013A0865
:10027000F2003908F1000530F300F401F40A883186
:100280000020803140013A08F2003908F1000630C0
:10029000F300F40188310020803140013A08F20077
:1002A0003908F1000730F300F40188310020803173
:1002B00040013908A6000230903116208031732B9E
:1002C00003303806031D652966299B293A08F20088
:1002D0003908F1000430F300F401F40A88310020F9
:1002E000803140013A08F2003908F1000530F3008E
:1002F000F401F40A88310020803140013A08F2000C
:100300003908F1000630F300F40188310020803113
:1003100040013A08F2003908F1000730F300F40117
:1003200088310020803140013908A6000230903128
:1003300016208031732B04303806031DA029A12913
:10034000D5293A08F2003908F1000430F300F4012D
:1003500088310020803140013A08F2003908F1006C
:100360000530F300F40188310020803140013A0863
:10037000F2003908F1000630F300F401F40A883184
:100380000020803140013A08F2003908F1000730BE
:10039000F300F40188310020803140013908A600C3
:1003A0000230903116208031732B05303806031D42
:1003B000DA29DB29102A3A08F2003908F100043062
:1003C000F300F401F40A88310020803140013A083A
:1003D000F2003908F1000530F300F4018831002003
:1003E000803140013A08F2003908F1000630F3008C
:1003F000F401F40A88310020803140013A08F2000B
:100400003908F1000730F300F40188310020803111
:1004100040013908A6000230903116208031732B3C
:1004200006303806031D152A162A4B2A3A08F20010
:100430003908F1000430F300F401883100208031E4
:1004400040013A08F2003908F1000530F300F401E8
:10045000F40A88310020803140013A08F20039085E
:10046000F1000630F300F401F40A883100208031F5
:1004700040013A08F2003908F1000730F300F401B6
:1004800088310020803140013908A60002309031C7
:1004900016208031732B07303806031D502A512A4D
:1004A000872A3A08F2003908F1000430F300F40119
:1004B000F40A88310020803140013A08F2003908FE
:1004C000F1000530F300F401F40A88310020803196
:1004D00040013A08F2003908F1000630F300F40157
:1004E000F40A88310020803140013A08F2003908CE
:1004F000F1000730F300F401883100208031400121
:100500003908A6000230903116208031732B083054
:100510003806031D8C2A8D2AC12A3A08F2003908B0
:10052000F1000430F300F4018831002080314001F3
:100530003A08F2003908F1000530F300F40188317F
:100540000020803140013A08F2003908F1000630FD
:10055000F300F40188310020803140013A08F200B4
:100560003908F1000730F300F401F40A8831002063
:10057000803140013908A6000230903116208031C8
:10058000732B09303806031DC62AC72AFC2A3A08ED
:10059000F2003908F1000430F300F401F40A883164
:1005A0000020803140013A08F2003908F10005309E
:1005B000F300F40188310020803140013A08F20054
:1005C0003908F1000630F300F40188310020803151
:1005D00040013A08F2003908F1000730F300F40155
:1005E000F40A88310020803140013908A600023029
:1005F000903116208031732B0A303806031D012BF1
:10060000022B372B3A08F2003908F1000430F300CE
:10061000F40188310020803140013A08F2003908A5
:10062000F1000530F300F401F40A88310020803134
:1006300040013A08F2003908F1000630F300F401F5
:1006400088310020803140013A08F2003908F10079
:100650000730F300F401F40A8831002080314001B2
:100660003908A6000230903116208031732B0B30F0
:100670003806031D3C2B3D2B732B3A08F20039083A
:10068000F1000430F300F401F40A883100208031D5
:1006900040013A08F2003908F1000530F300F40196
:1006A000F40A88310020803140013A08F20039080C
:1006B000F1000630F300F401883100208031400160
:1006C0003A08F2003908F1000730F300F401F40AA7
:1006D00088310020803140013908A6000230903175
:1006E00016208031732B8D31E725803108000230D0
:1006F00090317A2083314001B0003008AE00AF0164
:100700002E08F1002F08F2000430F30094318D24FC
:1007100083314001B1003008AE00AF012E08F10076
:100720002F08F2000530F30094318D24833140010D
:10073000B2003008AE00AF012E08F1002F08F20021
:100740000630F30094318D2483314001B30030082A
:10075000AE00AF012E08F1002F08F2000730F300C1
:1007600094318D2483314001B4003108031DB92B2D
:10077000BA2BCB2B3208031DBE2BBF2BCB2B330840
:10078000031DC32BC42BCB2B3408031DC82BC92B33
:10079000CB2B0030BC2C3103031DCF2BD02BE12BF6
:1007A0003208031DD42BD52BE12B3308031DD92B85
:1007B000DA2BE12B3408031DDE2BDF2BE12B01307C
:1007C000BC2C3108031DE52BE62BF72B3203031D50
:1007D000EA2BEB2BF72B3308031DEF2BF02BF72B1A
:1007E0003408031DF42BF52BF72B0230BC2C3103FE
:1007F000031DFB2BFC2B0D2C3203031D002C012CA5
:100800000D2C3308031D052C062C0D2C3408031D5C
:100810000A2C0B2C0D2C0330BC2C3108031D112C81
:10082000122C232C3208031D162C172C232C3303D7
:10083000031D1B2C1C2C232C3408031D202C212CC5
:10084000232C0430BC2C3103031D272C282C392CDD
:100850003208031D2C2C2D2C392C3303031D312C75
:10086000322C392C3408031D362C372C392C05300A
:10087000BC2C3108031D3D2C3E2C4F2C3203031D94
:10088000422C432C4F2C3303031D472C482C4F2C58
:100890003408031D4C2C4D2C4F2C0630BC2C31033E
:1008A000031D532C542C652C3203031D582C592C3A
:1008B000652C3303031D5D2C5E2C652C3408031D51
:1008C000622C632C652C0730BC2C3108031D692C6D
:1008D0006A2C7B2C3208031D6E2C6F2C7B2C33086A
:1008E000031D732C742C7B2C3403031D782C792C62
:1008F0007B2C0830BC2C3103031D7F2C802C912CC9
:100900003208031D842C852C912C3308031D892C5F
:100910008A2C912C3403031D8E2C8F2C912C0930A2
:10092000BC2C3108031D952C962CA72C3203031DDB
:100930009A2C9B2CA72C3308031D9F2CA02CA72C92
:100940003403031DA42CA52CA72C0A30BC2C310386
:10095000031DAB2CAC2CC92B3203031DB02CB12CC6
:10096000C92B3308031DB52CB62CC92B3403031D2A
:10097000BA2CBB2CC92B0B3008009131FA218431E1
:100980002030F1000330F2005030F30092319D220C
:1009900084318B170B178731A12784319F310C27A6
:1009A00084318B31FD2384319E3197268431013A85
:1009B000031DDB2CDC2C632D9E31FB268431013A98
:1009C000031DE32CE42CFC2C4E018C129231CE2220
:1009D00084319631A426843191317F218431943140
:1009E000B1248431973161278431D42C903139205E
:1009F000843185319025843193316B238431003AE1
:100A0000031D032D042DF62C442D00308400983056
:100A10008500013F8A00003F0A0085314001C9007E
:100A20005608203E8600023087004908810056089B
:100A3000203E8600023087000D3001060319212D6B
:100A4000222D332D5608203E8600023087000A30C2
:100A5000010603192C2D2D2D332D4F305606031D65
:100A6000322D332D402D5608203E8600023087005F
:100A70008101203086315C2684314001D601442D2D
:100A80000130C9004908D607063084009830850037
:100A9000013F8A00003F0A008531003A031D512DB5
:100AA000522D052DD42C9031392084314101EF0095
:100AB0006F08F1000230840098308500013F8A0001
:100AC000003F0A00853193316B238431003A031DC6
:100AD0006A2D6B2D532D7F2D0030840098308500BA
:100AE000013F8A00003F0A008531F600683084002B
:100AF00098308500013F8A00003F0A0085310630AA
:100B0000840098308500013F8A00003F0A0085314B
:100B1000003A031D8C2D8D2D6C2DD42C8031552841
:100B20004001B3003C2E0230EB005B2E3308E9009D
:100B30000330EB005B2E3A303302031CA02DA12DB5
:100B4000AA2D33085F39C93EAD00FF3003180030CD
:100B5000AE00B12D3308D03EAD00FF300318003099
:100B6000AE002D08EA000430EB005B2E3A30330271
:100B7000031CBB2DBC2DC52D33085F39C93EAF000A
:100B8000FF3003180030B000CC2D3308D03EAF004A
:100B9000FF3003180030B0006A08AB000330AB35FB
:100BA000FF3E031DCF2D2B352F07EA000530EB004C
:100BB0005B2E3A303302031CDE2DDF2DE82D330887
:100BC0005F39C93ED200FF3003180030D300EF2D4B
:100BD0003308D03ED200FF3003180030D30001307C
:100BE000EA026A08031DF52DF62DF82DEB015B2EA8
:100BF0000630EB005B2E3A303302031C002E012E30
:100C00000A2E33085F39C93EB100FF3003180030A7
:100C1000B200112E3308D03EB100FF30031800306F
:100C2000B2005308AC005208AB00AB0EAC0EF03073
:100C3000AC052B080F39AC04F030AB0531082B079D
:100C4000D20032082C3DD3005208A7006908883131
:100C50002620853101304001EA026A08031D312E49
:100C6000322ED62DF62D5B303306031D382E392E4D
:100C70005B2EEB01EB0A5B2E6B08AB00AC012C0882
:100C8000003A0319442E332E2B08003A0319332E51
:100C9000013A0319932D033A0319962D013A0319CA
:100CA0009B2D073A0319B62D013A0319D92D033AA2
:100CB0000319FB2D332E0800F9007908F1000230EA
:100CC000F2009231B522863171080907F8005B30D5
:100CD000F6006830840098308500013F8A00003FAC
:100CE0000A00863140016C080F394C3E8600013005
:100CF00087000108F6006830840098308500013FC5
:100D00008A00003F0A0086310130F7007708400171
:100D1000EC075330F6006830840098308500013FBE
:100D20008A00003F0A0086317808F7000430F73661
:100D3000890B972E77080F394C3E860001308700CB
:100D40000108F6006830840098308500013F8A0071
:100D5000003F0A00863178080F394C3E860001308A
:100D600087000108F6006830840098308500013F54
:100D70008A00003F0A008631F12E79088600023091
:100D800087000108F7000430F736890BC42E770876
:100D90000F394C3E8600013087000108F6006830AC
:100DA000840098308500013F8A00003F0A008631A8
:100DB000790886000230870001080F394C3E860012
:100DC000013087000108F600683084009830850003
:100DD000013F8A00003F0A0086310130F7007708A2
:100DE000F90779088600023087000108031DF92EF3
:100DF000FA2EBD2E5D30F6006830840098308500F4
:100E0000013F8A00003F0A00873108004001B80016
:100E1000013090317A2087314001B600B7013608A1
:100E2000B9003708BA003808031D172F182F342FC0
:100E30003A08F2003908F100F301F401883100208A
:100E4000873140013A08F2003908F100F301F30A52
:100E5000F40188310020873140013908A6000130B3
:100E60009031162087319D2F3803031D382F392FDD
:100E7000562F3A08F2003908F100F301F401F40AA0
:100E800088310020873140013A08F2003908F1002A
:100E9000F301F30AF4018831002087314001390859
:100EA000A60001309031162087319D2F0230380680
:100EB000031D5B2F5C2F792F3A08F2003908F100EF
:100EC000F301F40188310020873140013A08F20033
:100ED0003908F100F301F30AF401F40A8831002023
:100EE000873140013908A600013090311620873142
:100EF0009D2F03303806031D7E2F7F2F9D2F3A082C
:100F0000F2003908F100F301F401F40A88310020FD
:100F1000873140013A08F2003908F100F301F30A81
:100F2000F401F40A88310020873140013908A60015
:100F300001309031162087319D2F8D31E725873183
:100F40000800F101F10A7430840098308500013FF7
:100F50008A00003F0A008731F101F10A72308400F3
:100F600098308500013F8A00003F0A008731013038
:100F7000F4000030F5007630840098308500013FA1
:100F80008A00003F0A008731F101723084009830F6
:100F90008500013F8A00003F0A008731F101F10A14
:100FA0007030840098308500013F8A00003F0A00BD
:100FB0008731C830F4000030F50076308400983076
:100FC0008500013F8A00003F0A008731F02F6A3018
:100FD000840098308500013F8A00003F0A00873175
:100FE0006E30840098308500013F8A00003F0A007F
:100FF0008731003A031DFD2FFE2FE72F0800080060
:101000007108F800F60108307302031C082809284B
:1010100018287408F5007308F93E890A1028F53578
:10102000890B0F287508F70076087704F600252845
:101030007408F500730A1D28F535890B1C287508FE
:10104000F70078087704F800172808004001A90085
:1010500055282708A8000430A836890B2C28280812
:101060000139AA002A08031D362837283F282718E7
:101070003A283B283D2898165D2898125D282718A5
:10108000422844280130452800309031A52088317D
:101090005D282708F1000230840098308500013F68
:1010A0008A00003F0A0088315D2829084C3A03195C
:1010B00029281F3A031949285D2808007C08CD3EDD
:1010C00086008701810154011D1D67286828732847
:1010D0007C08CD3E86008701811442016C088A009D
:1010E0006B080A00883154019D1C772878288328D2
:1010F0007C08CD3E86008701011542016A088A00FE
:1011000069080A0088317C08CD3E86008701010805
:1011100003198B288C289328420168088A006708E5
:101120000A008831962892313D228831080040011A
:101130005A08BD3E86008701810142011D1DA1287C
:10114000A228AE2840015A08BD3E860087018114BE
:10115000420162088A0061080A00883142019D1C30
:10116000B228B328BF2840015A08BD3E8600870137
:101170000115420160088A005F080A0088314001B9
:101180005A08BD3E8600870101080319C828C928EE
:10119000D02842015E088A005D080A008831D32801
:1011A00093310023883108004001B80007309031A6
:1011B0007A2088314001B600B7013608B9003708F7
:1011C000BA003808031DE528E628F7283A08F20097
:1011D0003908F100F301F401883100208831400121
:1011E0003908A60007309031162088310D293803C0
:1011F000031DFB28FC280D293A08F2003908F100EC
:10120000F301F401F40A88310020883140013908E3
:10121000A60007309031162088318D31E7258831BE
:1012200008004001B800033090317A208931400134
:10123000B600B7013608B9003708BA003808031DF0
:101240002229232934293A08F2003908F100F30150
:10125000F40188310020893140013908A6000330AB
:101260009031162089314A293803031D382939293C
:101270004A293A08F2003908F100F301F401F40AAE
:1012800088310020893140013908A60003309031AF
:10129000162089318D31E725893108004E019912D8
:1012A0009730F1000830F2009F31302789314E012C
:1012B00019122430F1001430F2009F3136278931A1
:1012C000083042019F0090309D0024309E00403045
:1012D0009B0003309C007630F1001E30F2009F31FD
:1012E000242789319E30F1001E30F2009F312A27D9
:1012F00089319A30F1001E30F2009F311E2789316A
:101300004001D701DD01DC010830DB00DA01D90141
:10131000D8014E01991608004E0199135E30F10074
:101320000830F2009F314E2789314E0119130230E7
:10133000F1001430F2009F315427893108305401F4
:101340009F0090309D0024309E0040309B00033071
:101350009C007730F1001E30F2009F314227893126
:10136000A630F1001E30F2009F3148278931A230AB
:10137000F1001E30F2009F313C2789314001DE012F
:10138000E301E2010830E100FC01E001DF014E0170
:10139000991708004001B800033090317A20893154
:1013A0004001B600B7013608B9003708BA0038085E
:1013B000031DDB29DC29EE293A08F2003908F10087
:1013C000F301F30AF4018831002089314001390822
:1013D000A6000330903116208931052A3803031DF9
:1013E000F229F329052A3A08F2003908F100F3013D
:1013F000F30AF401F40A88310020893140013908E8
:10140000A60003309031162089318D31E7258931CE
:10141000080041013708860087019E3191268A31F4
:1014200081000130F90079084101B7070130B802A5
:101430000030B93B3808390403191F2A202A252A0D
:101440009E31AE268A3105304B2ABC152F2A9E319B
:10145000E2268A314B2A9E31DD268A314B2A2C081E
:10146000F80021088A0020080A008A31F900FA01F0
:101470007A08003A03193D2A2B2A7908013A031900
:101480002B2A033A0319272A013A0319272A073A74
:1014900003192B2A2B2A08004001AA0040012A0820
:1014A0009731CA278A31003A0319572A582A4E2AF7
:1014B000F730F5001030F6002B30F7009F31EA27A7
:1014C0008A310130F1000030F200243090316C207C
:1014D0008A310030F500F6000030F700F8009F3147
:1014E000F5278A319E31EC268A31923155228A3194
:1014F000013A03197C2A7D2A752A40012C08A7008D
:101500002B08A6002708A600A7012B08A900A80100
:1015100026082804A40027082904A50008009631FD
:101520001B268A3140014208F9004108F800913039
:10153000FA009830FB008E313B268A317808790416
:101540000319A32AA42AA82A4001C301E801C32A37
:1015500040014208F9004108F8007A30FA0098305A
:10156000FB008E313B268A31780879040319B92AA9
:10157000BA2AC02A4001C301C30AE801E80AC32A03
:1015800002304001C3004208F8004108F7009731DB
:1015900095278A318B31AF238A314001430894313A
:1015A00046248A31080030304001A2003030A500C6
:1015B0003030A300201EDD2ADE2AE12A3130A400CB
:1015C000E32A3030A40020080F39303EA200211E4B
:1015D000EA2AEB2AEE2A3130A500F02A3030A500A5
:1015E00021080F39303EA3007C304301A0004F306A
:1015F000A1002C30A200400124084301A3004001B7
:1016000022084301A4002C30A50040012508430115
:10161000A600400123084301A7000D30A8000A30AE
:10162000A9000A30F700A0309631D2268A318E31D7
:10163000EC268A31080040019C0131309800990164
:10164000C1309A0008309600DE309200EF309300EF
:10165000253094007E01CE01C930C3000E30B800A1
:10166000E501C401B901CF01E601BA01C501D0010C
:10167000FF30BB00FF30C600FF30D1003F30BC0060
:101680003F30C7003F30D2003F133E133D17FF30BD
:10169000F1000730F2009F315A278B314E011616A8
:1016A00009307D01C50013307E01990014309A0085
:1016B0002530A4000F309C0015307D01CD000A308C
:1016C000C6000D30CB0008004001A5002A30A9005B
:1016D0000230A7000030A800400125089731CA2732
:1016E0008B31003A0319752B762B6C2BE630F50005
:1016F0001030F6002930F7009F31EA278B31013096
:10170000F1000030F200243090316C208B31003039
:10171000F500F6000030F700F8009F31F5278B3117
:101720009E31EC268B31923155228B314001A6003F
:10173000260303199C2B9D2B932B2608031DA12BFD
:10174000A22BA32BAD2BFF30A707FF30A83D270806
:101750002804031DAC2BAD2B6C2B2908080020306E
:10176000F1000230840098308500013F8A00003F7C
:101770000A008B313E30F100023084009830850041
:10178000013F8A00003F0A008B313E30F1000230F9
:10179000840098308500013F8A00003F0A008B31A9
:1017A0003E30F1000230840098308500013F8A000D
:1017B000003F0A008B312030F10002308400983065
:1017C0008500013F8A00003F0A008B310D30F10097
:1017D0000230840098308500013F8A00003F0A00F3
:1017E0008B310A30F1000230840098308500013FCF
:1017F0008A00003F0A008B3108009131CF218B31E4
:10180000003A0319042C052C062C4A2C0730803191
:10181000A8208B3101308831D4208B3102308731C0
:1018200006278B3101308931CA218B310130893152
:1018300011218B318D31E7258B31003A0319212C91
:10184000222C232C4A2C923110228B31003A03197E
:101850002A2C2B2C2C2C4A2C8D3140258B31023AF2
:101860000319332C342C352C4A2C833177238B31BC
:10187000073A03193C2C3D2C3E2C4A2C9131BA21BD
:101880008B31013A0319452C462C472C4A2C8D31BB
:1018900093258B3108004001B300B2011330903121
:1018A0007A208C314001B100123090317A208C3195
:1018B0004001B2003208B00008300310B01B03141E
:1018C000B00C890B5D2C30083104B400B501B41B99
:1018D000B5033308860087013408C03F3508C13F8F
:1018E00091314C218C31003A0319772C782C702CD3
:1018F0003430963148268C3140013308023E860050
:1019000087013408C03F3508C13F91315D218C31DA
:10191000003A03198C2C8D2C852C34309631762688
:101920008C3140013308043E860087013408C03FF3
:101930003508C13F08000130F5020030F63B750A5A
:10194000031DA62C760A031DA62CA72CB62CF1018C
:10195000F201EC2C0130F1070030F23D0130F307C9
:101960000030F43D0130F5020030F63B710886008E
:101970007208870001080319BE2CBF2CDE2C7308E7
:1019800084007408850012000319C72CC82CDE2CB3
:10199000750876040319CD2CCE2CDE2C7308840038
:1019A000740885000008F700710886007208870037
:1019B000010877060319DD2CDE2CAA2C710886009D
:1019C000720887007308840074088500000801020B
:1019D000F100F201031CF20308009F3100278C3153
:1019E000003A0319F42CF52C232D022D9E31C42628
:1019F0008C313F2D9E31C9268C313F2D9E31D3260F
:101A00008C313F2D41012F08F8000630A03E8600A2
:101A10008701413F8A00403F0A008D31F900FA01F9
:101A20007A08003A0319152DFE2C7908013A03199A
:101A3000FE2C033A0319F62C013A0319FA2C073A43
:101A40000319FE2CFE2C41013C101730A03E8600ED
:101A50008701403F84008501810A00089E31BA2633
:101A60008C3101304101B8020030B93B38083904EB
:101A7000031D3B2D3C2D3E2D06303F2D033008002D
:101A8000013090317A208D314001B0003008AE0035
:101A9000AF012E08F1002F08F200F30194318D24DC
:101AA0008D314001B1003008AE00AF012E08F100C9
:101AB0002F08F200F301F30A94318D248D31400197
:101AC000B2003108031D652D662D6D2D3208031DF2
:101AD0006A2D6B2D6D2D0030922D3103031D712D5C
:101AE000722D792D3208031D762D772D792D013039
:101AF000922D3108031D7D2D7E2D852D3203031D72
:101B0000822D832D852D0230922D3103031D892DC9
:101B10008A2D912D3203031D8E2D8F2D912D033093
:101B2000922D6B2D0800033090317A208D314001C9
:101B3000B0003008AE00AF012E08F1002F08F2000F
:101B40000230F30094318D248D314001B100300812
:101B5000AE00AF012E08F1002F08F2000330F300B1
:101B600094318D248D314001B2003108031DB92D0F
:101B7000BA2DC12D3208031DBE2DBF2DC12D003041
:101B8000E62D3103031DC52DC62DCD2D3208031DB5
:101B9000CA2DCB2DCD2D0130E62D3108031DD12DC1
:101BA000D22DD92D3203031DD62DD72DD92D02309C
:101BB000E62D3103031DDD2DDE2DE52D3203031D42
:101BC000E22DE32DE52D0330E62DBF2D08009F31DA
:101BD00083278D314001B5003508AF00B0012F08D3
:101BE000F1003008F200F30194318D248D31400171
:101BF000B1003508AF00B0012F08F1003008F20045
:101C0000F301F30A94318D248D314001B20035087F
:101C1000AF00B0012F08F1003008F2000230F300ED
:101C200094318D248D314001B3003508AF00B001EF
:101C30002F08F1003008F2000330F30094318D24B6
:101C40008D314001B40031080319272E282E392E7A
:101C5000320803192C2E2D2E392E33080319312E5C
:101C6000322E392E34080319362E372E392EFF30F6
:101C70003A2E003008007A087B040319402E412ECA
:101C80008D2E7B08F2007A08F1009231B5228E3158
:101C900072084001A3007108A2007E2E7908F200AC
:101CA0007808F1007B08F4007A08F300400123086B
:101CB000F6002208F5008C319B248E3171087204E5
:101CC000031D632E642E652E8F2E7808013EF100D1
:101CD0000030793DF2007A0884007B088500000816
:101CE0004001A000A1012008F3002108F400933175
:101CF000A4238E317208F9007108F800780879047D
:101D00000319832E842E8D2E78088600790887008B
:101D10000108031D8C2E8D2E4E2EF801F9010800AE
:101D20006A30840098308500013F8A00003F0A0035
:101D30008E314001C8006403031D9F2EA02ED82EB3
:101D400025304806031DA52EA62EBA2EE4014E0806
:101D500086004F08870081015108C2005008C10069
:101D60007830840098308500013F8A00003F0A00E7
:101D70008E31E92E6708C400C50144085007C6002B
:101D80004508513DC70047084F02031DC92E4608AC
:101D90004E020318CC2ECD2EE92E4E0886004F0899
:101DA0008700480881000130CE070030CF3DE92E82
:101DB00025304806031DDD2EDE2EE52EE401E40A63
:101DC0005108CF005008CE00E92EE501E50A480889
:101DD000E600400165080800F6016A30840098308A
:101DE0008500013F8A00003F0A008E31F3006A300F
:101DF000840098308500013F8A00003F0A008E3140
:101E0000F4006A30840098308500013F8A00003F6A
:101E10000A008F31F5002B2F4F307406031D112F50
:101E2000122F332F4B307506031D172F182F332F0A
:101E3000F601F60A332F72307406031D202F212F6E
:101E4000332F72307506031D262F272F332FF601EF
:101E5000332F0030732F7308413A03190C2F043AC3
:101E600003191B2F292F6A30840098308500013F09
:101E70008A00003F0A008F316A3084009830850064
:101E8000013F8A00003F0A008F316A308400983099
:101E90008500013F8A00003F0A008F316A308400CC
:101EA00098308500013F8A00003F0A008F316A3078
:101EB000840098308500013F8A00003F0A008F317E
:101EC0006A30840098308500013F8A00003F0A0094
:101ED0008F316A30840098308500013F8A00003FCE
:101EE0000A008F3176080800FA005B30F60068308F
:101EF000840098308500013F8A00003F0A008F313E
:101F000040016C080F394C3E860001308700010803
:101F1000F6006830840098308500013F8A00003F59
:101F20000A008F310130F80078084001EC077A0888
:101F3000F6006830840098308500013F8A00003F39
:101F40000A008F317708F100F2019231B5228F310A
:101F50007108F8007208F9000430F936F80C890BA2
:101F6000AD2F78080F394C3E8600013087000108FC
:101F7000F6006830840098308500013F8A00003FF9
:101F80000A008F317708F100F2019231B5228F31CA
:101F900071080F394C3E8600013087000108F600B9
:101FA0006830840098308500013F8A00003F0A00B5
:101FB0008F31EC2F7708860087010108F600683022
:101FC000840098308500013F8A00003F0A008F316D
:101FD0000130F8007808F7077708860087010108C4
:101FE000031DF32FF42FDA2F5D30F60068308400E4
:101FF00098308500013F8A00003F0A008F310800B9
:102000007103031D04280528082840011A130A2813
:1020100040011A1708007103031D0F281028132808
:102020004001181015284001181408004001A700AD
:102030002708A4002608A5002230973100279031F8
:1020400008007608F1001630840098308500013FC2
:102050008A00003F0A00903108004001921371038A
:10206000031D3328342836289817372898139217D9
:10207000080093316B239031003A0319402841281E
:1020800039284001E501660808004C289F310627E1
:10209000903195319A2590314101BC185028512832
:1020A000462808004301901A562857285E288F01B9
:1020B0000830900091014F308D0090160800933148
:1020C00087239031400135088600360887002D08A7
:1020D000C03F2E08C13F0800F3004101BC1D71281C
:1020E000722879287308B7007208B9007108B8001F
:1020F000BC1108004001AC00AD012D30A700A801C3
:10210000A80A2C089031B420903140012D08080015
:10211000FB007908F6007B089731302790317A0868
:10212000F6007B089731302790310800410169089B
:102130006A0403199C289D28A2286A088A00690855
:102140000A0090317E013F1308004001A6000130D3
:10215000FB002608FB0255087B06FE397B06D500EE
:1021600093314F23903108004001AB002730A40089
:102170002808A900AA012908A5002A08A6002B08FA
:102180009331C223903108000230F1000030F20098
:10219000780890316C2090310030F500F600F7019E
:1021A0009F31EA279031043008000130F1000030FF
:1021B000F200780890316C2090310030F500F60084
:1021C000F7019F31EA279031043008000130F10017
:1021D0000030F200780890316C2090310030F5002A
:1021E000F600F7019F31EA279031023008000230F3
:1021F000F1000030F200780890316C20903100300E
:10220000F500F600F7019F31EA279031023008000F
:102210000230F1000030F200780890316C209131EA
:102220000030F500F600F7019F31EA2791310430C4
:1022300008000130F1000030F200780890316C2085
:1022400091310030F500F600F7019F31EA27913116
:10225000023008000230F1000030F20078089031BE
:102260006C2091310030F500F600F7019F31EA272C
:102270009131023008000130F1000030F20078089E
:1022800090316C2091310030F500F600F7019F315C
:10229000EA2791310430080004304001A4001930CD
:1022A0008B31642391310139031D5729592901309C
:1022B0005A290030FB007B08080006304001A400CA
:1022C00019308B31642391310139031D68296A2942
:1022D00001306B290030FB007B08080030343134BA
:1022E00032343334343435343634373438343934A2
:1022F00041344234433444344534463400349F310D
:10230000182791314001A000A1012008F6002130DA
:102310009731302791312130F70050308F317427B9
:102320009131080047304B019F000B309D00DC309D
:102330009C001D084001CD004B011C084001CC0051
:102340004E018C1290304B019E0008007208F8007C
:102350007108F9007808F300F4017908F500F60136
:102360007508F600F50173087504F1007408760429
:10237000F2000800073090317A2091314001B1001D
:102380003108AE00AF012E08F1002F08F200F30172
:1023900094318D2491314001B00030080800923111
:1023A000E722913140012E08CB002D08CA004930A8
:1023B0004A06543003194B060319DF29E029E229A4
:1023C000FF30E32900300800ED290B30F3006230C4
:1023D000890BE829F30BE82900320130F1020030C3
:1023E000F23B710A031DF829720A031DF829F92925
:1023F000E52908009F31E02791319F31AF279131C6
:102400008B311B2391319F31D6279131913192210C
:10241000913189314E21913189318C2191310800DE
:10242000013090317A2092314001B1003108AE0084
:10243000AF012E08F1002F08F2000430F3009431B0
:102440008D2492314001B00030080800243043014F
:10245000A0002430A1002430A2000330F700A030F7
:102460009631D22692310B30F300A030F4000530C3
:10247000F5009531C325923108007C08D53E8600D1
:1024800087015401190881000130F0007008FC0731
:1024900008307C02031C4D2A4E2A4F2AFC010130D1
:1024A000F00070084001DF070800F101F10A410166
:1024B000BC185B2A5C2A6B2A3C11FF30B6009E31A7
:1024C0007C2692319E31822692319E317F26923136
:1024D00041013B08F1007108080078088600870177
:1024E000403FF100413FF2007808023E860087013C
:1024F000010890316C2092310030F500F600F701B0
:102500009F31EA279231023008007808860087015F
:10251000403FF100413FF2007808023E860087010B
:10252000010890316C2092310030F500F600F7017F
:102530009F31EA27923102300800710872040319B2
:10254000A22AA32AB32A02307302031CA82AA92AAA
:10255000B32A72084001D1007108D0007308FF3E11
:10256000E7000130B42A003008007208F500710855
:10257000F400BE2A0130F1070030F23D71088400FA
:10258000720885001200031DC62AC72ABA2A7408D9
:102590007102F1007508723BF20008004001B701BA
:1025A0003D08B6003C08B50090315F2092314001F3
:1025B0003D08FA003C08F90037309031882092310C
:1025C0003730F70054308F317427923108000E30C5
:1025D0004001A40022308A314C229231400125086A
:1025E000B0002408AF003008F2002F08F10091314C
:1025F000A621923172084001AE007108AD000800BA
:1026000040015A08443E8600013087004201190803
:1026100081000130F00070084001DA0708305A02EA
:10262000031C132B142B152BDA010130F00070085A
:10263000D8070800F6007608F500750886008701BF
:10264000F50A7208F4007108F300F10A0319F20A9E
:1026500073088400740885000008C03F8908031DC2
:10266000322B332B1D2B08002D304301A0002D30C1
:10267000A1002D30A2000D30A3000A30A4000530C7
:10268000F700A0309631D22693310630F300A03007
:10269000F4000530F5009531C325933108009231DF
:1026A000262293311430F4000030F5007630840097
:1026B00098308500013F8A00003F0A0093314001B5
:1026C0005508A1005408A0008A31D32293319331D8
:1026D000342393310800400165080319702B712BD6
:1026E000732B0130862B6E30840098308500013FBB
:1026F0008A00003F0A009331003A0319802B812B96
:10270000852B8E3190269331862B003008001030B7
:102710004001A40022308A314C2293314001250827
:10272000B4002408B3003308B2003208AF00B0018F
:102730002F08B000AF012F08B3003008B4003408F0
:10274000AE003308AD0008007108860072088700EB
:1027500001087306031DAD2BAE2BAF2BC12B7208E6
:10276000F6007108F500F10A0319F20A75088600EF
:10277000760887000108031DBE2BBF2BA42BF10197
:10278000F2010800FB007B089731CA279331003A19
:102790000319CB2BCC2BC32B40012608F2002508B4
:1027A000F100240890316C2093319E31F126933151
:1027B000923155229331013A0319DF2BE02BD82BAC
:1027C00008004001A200A301A30A4101BC18E92BA3
:1027D000EA2BFF2BBC144001A30122080319F12BA3
:1027E000F22BF62B4101BA01BA0AF92B0230410152
:1027F000BA009E31852693319031452093314001B6
:10280000230808000830400161020318082C092C35
:10281000212C6208DD3E86008701010854019A00E0
:102820000130F00070084001E20708306202031C2A
:102830001A2C1B2C1C2CE2010130F0007008E1075F
:10284000232C4E0119130800083040015B020318C5
:102850002A2C2B2C432C5C08C53E860087010108DE
:1028600042019A000130F00070084001DC07083096
:102870005C02031C3C2C3D2C3E2CDC010130F000A2
:102880007008DB07452C4E0119120800F30073088D
:10289000031D4B2C4C2C582C5B30F1000230840073
:1028A00098308500013F8A00003F0A009431682C6F
:1028B0007303031D5C2C5D2C682C5D30F10002302D
:1028C000840098308500013F8A00003F0A0094315F
:1028D0000800F4007108720403196F2C702C7F2C0F
:1028E0007435A03E860087017108C03F7208C13F61
:1028F0007408AC3E86008701730881008C2C743507
:10290000A03E860087017830C03F1E30C13F74086A
:10291000AC3E86008701810108000130F4000030E0
:10292000F500730A952CF435F50D890B932C74087A
:10293000750403199C2C9E2C01309F2C0030F6004E
:10294000F70171087605F80072087705F900780834
:1029500079040319AC2CAD2CAF2C0030B02C013015
:1029600008009F31122794314001A300A0012308E1
:10297000F60020309731302794312030F7004C306A
:102980008F31742794319E31F6269431103E4001E8
:10299000A300A0012308F60020309731302794319E
:1029A0002030F7004C308F317427943108004001FB
:1029B0005F080319DC2CDD2CD72C6008CD3E860087
:1029C00087010108DE006008D53E86008701010806
:1029D000F2000130F1007108E00708306002031CCA
:1029E000F22CF32CF42CE0014E019913013040013C
:1029F000DF024E01991772080800400161080319AF
:102A0000022D032DFD2C4E01191B072D082D0C2D19
:102A1000710854019A00212D191340016308DD3E0D
:102A200086008701710881000130F2007208E30717
:102A300008306302031C1D2D1E2D1F2DE3010130E4
:102A4000E1024E011917080040015B080319292D06
:102A50002A2D242D4E01191A2E2D2F2D332D7108BC
:102A600042019A00482D191240015D08C53E8600BA
:102A70008701710881000130F2007208DD0708301B
:102A80005D02031C442D452D462DDD010130DB0286
:102A90004E0119160800400158080319502D512DF8
:102AA0004B2D5908BD3E860087010108D700590803
:102AB000443E8600013087000108F2000130F10039
:102AC0007108D90708305902031C672D682D692D3C
:102AD000D9014E01991201304001D8024E019916D8
:102AE0007208080041013C100230BB007F2D9E316E
:102AF000CE269531992D9E31D3269531992D2E08CC
:102B0000F8000430A03E86008701413F8A00403F24
:102B10000A009531F900FA017A08003A0319912D5B
:102B20007B2D7908023A0319772D013A0319772D85
:102B30007B2D08009E317C26953141013C1CA12D46
:102B4000A22DAD2D9F3100279531003A0319A92DF3
:102B5000AA2DAD2D0F304101BA0041013A084001C4
:102B6000A000A101A035A10D283020078400183055
:102B7000213D80388500013F8A00003F0A009531E1
:102B80004101BA000800F901E62D6A30840098304E
:102B90008500013F8A00003F0A009531F800740863
:102BA000F7007308F60079087607840077080318A1
:102BB000770A8500000878060319DF2DE02DE22D45
:102BC0000030ED2D0130F6007608F907750879021E
:102BD000031CEB2DEC2DC52D013008004101BC1567
:102BE000FE2D9E31CE2695311A2E9E31942695319A
:102BF00003301A2E9E31D32695311A2E2C08F80058
:102C000021088A0020080A009631F900FA017A08A2
:102C1000003A03190C2EFA2D7908013A0319FA2DFE
:102C2000033A0319F12D013A0319F12D073A03195B
:102C3000F52DFA2D08003C30F10002308400983068
:102C40008500013F8A00003F0A0096313C30F100C8
:102C50000230840098308500013F8A00003F0A005E
:102C600096313C30F1000230840098308500013FFD
:102C70008A00003F0A0096312030F10002308400C3
:102C800098308500013F8A00003F0A009631080015
:102C90004001AD0091314C219631003A0319512E7B
:102CA000522E4A2E04304001A40019308B31642387
:102CB00096314001AE000530A40019308B316423F9
:102CC00096314001AF002F08AB002E08AA00043057
:102CD000AC002B0DAB0CAA0CAC0B692E2D0886009A
:102CE00087012A08C03F2B08C13F08004001AD0002
:102CF00091315D219631003A03197F2E802E782E76
:102D000006304001A40019308B3164239631400114
:102D1000AE000730A40019308B3164239631400196
:102D2000AF002F08AB002E08AA000430AC002B0D1A
:102D3000AB0CAA0CAC0B972E2D08860087012A0835
:102D4000C03F2B08C13F08004001B60143308C3121
:102D50004B249631FF3040014305F9000F30440504
:102D6000FA003630903188209631FF304001450519
:102D7000F9000F304605FA00363090318820963140
:102D8000FF3040014705F9000F304805FA003630A2
:102D90009031882096313630F70058308F317427C3
:102DA00096310800FA00F901F92E6C308400983051
:102DB0008500013F8A00003F0A009631003A03195E
:102DC000E22EE32EF92E79087A07F80078088600BB
:102DD000013087000108F6006830840098308500D3
:102DE000013F8A00003F0A0096310130F800780860
:102DF000F90777087902031CFE2EFF2ED52E080056
:102E0000FB007B089731CA279731003A0319092F35
:102E10000A2F012FD530F5001030F6002530F700CD
:102E20009F31EA2797310130F1000030F200243061
:102E300090316C2097310030F500F6000030F7003B
:102E4000F8009F31F52797319E31EC26973192316A
:102E500055229731013A03192E2F2F2F272F0800C3
:102E6000F8007808F100F2019231B522973171082B
:102E7000F7007708F807780886008701760E0F3983
:102E80008919F0380F394C3E840001308500000864
:102E900081000130F7007708F8077808860087017D
:102EA00076080F394C3E840001308500000881000F
:102EB0000130F7007708F80778088600870181015C
:102EC00008004001A201B601792F3608003E8400B7
:102ED000A0300318013E85000008B5003508F60053
:102EE000223097313027973101304001A00020086F
:102EF000B6070030F100A030F2009231B5229731D0
:102F000040013608A000A10172082102031D8A2F8A
:102F100071082002031C8D2F8E2F652F2230F700A1
:102F200056308F317427973108007808F2007708FF
:102F3000F100203093311A2397314001C001B42FA2
:102F40004008203E860087010108F100023084001D
:102F500098308500013F8A00003F0A009731013018
:102F6000F90079084001C0077808F2007708F100FD
:102F70009231B522973140014008F900FA017208F8
:102F80007A02031DC52F71087902031CC82FC92FAF
:102F9000A02F0800F100F201F20A41013C19D12FE3
:102FA000D22FFE2F7108B600BC103C153C100E301D
:102FB000BA00F430B4000130B500BC157830A00080
:102FC0001E30A100AC017830A2001E30A300AD017C
:102FD0007830A4001E30A500AE017830A6001E3067
:102FE000A700AF017A30A8001E30A900B0019E31C1
:102FF0007C269731903152209731F20172080800F7
:103000004B3415342434153400340034A6341F34C2
:1030100036341F349734083430341F34B6341E34F9
:10302000243414344E340934D7341434FD34143475
:10303000003400349D341F3454341F345E3408345B
:103040004E341F34B2341E34023414348C340934F8
:10305000BF341E3494341F3473341F34ED340C34B5
:1030600009340A346C341F34EE341534C4341E343D
:10307000C9341E34CE341E34D3341E34D8341E34F6
:10308000DD341E34E2341E34E7341E347234153419
:103090000034003400340034003400340034003490
:1030A0000034003400340034003400340034003480
:1030B0000034003400340034003400340034003470
:1030C0000034003400340034003400340034003460
:1030D00021341034B8341F34C2341F34CC341F347C
:1030E000003410340B3410342D3410347B341F343E
:1030F0008F340A34533454345234453441344D34CB
:103100005F344F34503445344E34003452346534D7
:1031100062346F346F34743469346E3467340D3410
:103120000A3444344934533443344F344E344E34E7
:083130004534433454340034EB
:103CEC000800080001300800053008004E010F10D4
:103CFC0008004301901208004E01191008004301FE
:103D0C001114080043019114080043011115080017
:103D1C0043019115080043010C0808004E010F14D3
:103D2C000800400168080800933100239E31080008
:103D3C0042011D121D16080092313D229E310800D1
:103D4C0054011D121D16080043019116111608008E
:103D5C00430191121116080054011E0C0139080080
:103D6C0042011E0C01390800F100710843018C005E
:103D7C0008004101BC10BB010E3008009E318826A2
:103D8C009E31013008009E3188269E310230080099
:103D9C009E3188269E31013008009E318B269E3143
:103DAC00003008009E31AE269E31053008009E3151
:103DBC00AA269E310A3008009E31AA269E3109306F
:103DCC0008004101BC10BB010E30080000309331DB
:103DDC00E1239E31080001309331E1239E3108002C
:103DEC00400155080139013C08004E010C0E890CAC
:103DFC00013908004301110E890C890C01390800A6
:103E0C004E010F1C0A2F0B2F062F0800013040010A
:103E1C00D4000130D500080040010C0E890C01398A
:103E2C00013C080040010C0D0C0D0139013C08004F
:103E3C0072084201DE007108DD00080072084201C0
:103E4C00E2007108E100080072084201E00071080C
:103E5C00DF00080072084201E4007108E30008006A
:103E6C0072084201E6007108E50008007208420180
:103E7C00E8007108E700080072084201EC007108C4
:103E8C00EB00080072084201EA007108E900080022
:103E9C0072084101EC007108EB0008007208410146
:103EAC00EE007108ED00080072084101EA0071088B
:103EBC00E9000800640080010131890B612F003496
:103ECC00FE0012001E00FE0B672F003441013C1057
:103EDC009E318E269F310430080041013C1436354A
:103EEC009E31BA269F31033008007508F200740821
:103EFC00F1009131E4219F3108001C3090317A207F
:103F0C009F314001AE002E0808007E013F1F8F2F0D
:103F1C00902F932F903196209F31080041013C1433
:103F2C000314360D9E31BA269F310530080040012E
:103F3C005F08031DA22FA42F0130A52F003008000D
:103F4C0040015808031DAB2FAD2F0130AE2F0030B0
:103F5C00080043018F010830900091014F308D0013
:103F6C00901208001430840098308500013F8A00BC
:103F7C00003F0A009F3108002230840098308500F1
:103F8C00013F8A00003F0A009F3108001A3084006C
:103F9C0098308500013F8A00003F0A009F310800DD
:103FAC00603051018D008F0191010630930090011A
:103FBC00920108004F0196019701980199019A010D
:103FCC009B019C019D0108007608F2007508F10028
:103FDC007708F3000030943169249F31080076088B
:103FEC00F2007508F1007708F3000230943169246F
:103FFC009F31080031342E3431342E3430340034B7
:10400C0045344E3444340D340A3443344D34443442
:0C401C003E3420340034A0340034A034C2
:020000040001F9
:08000000FF3FFF3FFF3FFF3F00
:0A000E00EC3FFF3F9F3FFF3FFF3F25
:00000001FF
