:1000000080315528303430347E1480314E01161E34
:100010000A280B2813280C1E0E280F2813288831B5
:100020005720803153280B1F162817285328191FD3
:100030001A281B2826280F1F1E281F2826284201A1
:100040005F088A005E080A0080315328991F29281A
:100050002A2835288F1F2D282E28352842015D0893
:100060008A005C080A0080315328191E3828392874
:1000700044280F1E3C283D284428420155088A0088
:1000800054080A0080315328991E472848285328CD
:100090008F1E4B284C285328420153088A005208CF
:1000A0000A00803153287E100900803157288031A2
:1000B00002208031EC00803103208031ED00E330FC
:1000C000840089308500A03086000130870011301F
:1000D00088313A208031FC014730840000308500AF
:1000E0002530883134208031A030840000308500F4
:1000F0004D3088313420803120308400013085003B
:100100002C3088313420803120308400023085004A
:100110004030883134208031A030840002308500A6
:100120005030883134208031203084000330850005
:100130005030883134208031A03084000330850075
:1001400050308831342080317E1040018131742953
:100150004001B30054290230E70073293308E50059
:100160000330E70073293A303302031CB828B9285A
:10017000C22833085F39C93EAD00FF300318003094
:10018000AE00C9283308D03EAD00FF300318003060
:10019000AE002D08E6000430E70073293A30330240
:1001A000031CD328D428DD2833085F39C93EAF00AB
:1001B000FF3003180030B000E4283308D03EAF0011
:1001C000FF3003180030B0006608AB000330AB35D9
:1001D000FF3E031DE7282B352F07E6000530E7001B
:1001E00073293A303302031CF628F7280029330814
:1001F0005F39C93EC900FF3003180030CA00072923
:100200003308D03EC900FF3003180030CA00013067
:10021000E6026608031D0D290E291029E70173293E
:100220000630E70073293A303302031C18291929D4
:10023000222933085F39C93EB100FF30031800306E
:10024000B20029293308D03EB100FF300318003036
:10025000B2004A08AC004908AB00AB0EAC0EF0305F
:10026000AC052B080F39AC04F030AB0531082B0777
:10027000C90032082C3DCA004908A70065088F3123
:100280001A27803101304001E6026608031D492922
:100290004A29EE280E295B303306031D50295129C7
:1002A0007329E701E70A73296708AB00AC012C0842
:1002B000003A03195C294B292B08003A03194B29F2
:1002C000013A0319AB28033A0319AE28013A03197E
:1002D000B328073A0319CE28013A0319F128033A43
:1002E000031913294B2908008B31312381315030F8
:1002F000F100A0308A315A2281318B170B178E31D1
:10030000AD2681318331F92381319731E82781315D
:1003100097317B278131013A031D8F2990290E2ABD
:100320008A31E72281318B317F2381319731D72781
:100330008131013A031D9D299E29A7294E018C1266
:1003400088298831FA2081318031A82081318B3190
:10035000B6238131003A031DAE29AF29A129EF2927
:100360000030840090308500013F8A00003F0A0081
:1003700081314001C5004E08A03E86000230870052
:10038000450881004E08A03E8600023087000D30EF
:1003900001060319CC29CD29DE294E08A03E86008E
:1003A000023087000A3001060319D729D829DE292F
:1003B0004F304E06031DDD29DE29EB294E08A03EF5
:1003C0008600023087008101A03082313B228131DA
:1003D0004001CE01EF290130C5004508CE070630A7
:1003E000840090308500013F8A00003F0A0081317F
:1003F000003A031DFC29FD29B02988298831FA20FB
:1004000081314001C6004608F1000230840090307E
:100410008500013F8A00003F0A0082318B31B623FC
:100420008131003A031D152A162AFE292A2A003096
:10043000840090308500013F8A00003F0A0082312D
:10044000F6006830840090308500013F8A00003F4C
:100450000A0082310630840090308500013F8A0016
:10046000003F0A008231003A031D372A382A172A32
:10047000882980315528F9007908F1000230F2000E
:100480008A31FF22823171080907F8005B30F600DB
:100490006830840090308500013F8A00003F0A00E8
:1004A0008231400168080F39A03E86000130870084
:1004B0000108F6006830840090308500013F8A0012
:1004C000003F0A0082310130F70077084001E80759
:1004D0005330F6006830840090308500013F8A0078
:1004E000003F0A0082317808F7000430F736890BA4
:1004F000762A77080F39A03E860001308700010870
:10050000F6006830840090308500013F8A00003F8B
:100510000A00823178080F39A03E8600013087003A
:100520000108F6006830840090308500013F8A00A1
:10053000003F0A008231D02A790886000230870005
:100540000108F7000430F736890BA32A77080F3922
:10055000A03E8600013087000108F6006830840064
:1005600090308500013F8A00003F0A0082317908FF
:1005700086000230870001080F39A03E8600013056
:1005800087000108F6006830840090308500013F44
:100590008A00003F0A0082310130F7007708F9072E
:1005A00079088600023087000108031DD82AD92A5D
:1005B0009C2A5D30F6006830840090308500013F51
:1005C0008A00003F0A0082310800FA005B30F60022
:1005D0006830840090308500013F8A00003F0A00A7
:1005E0008231400168080F39A03E86000130870043
:1005F0000108F6006830840090308500013F8A00D1
:10060000003F0A0083310130F80078084001E80714
:100610007A08F6006830840090308500013F8A0037
:10062000003F0A0083317708F100F2018A31FF228E
:1006300082317108F8007208F9000430F936F80CBC
:10064000890B1E2B78080F39A03E860001308700E9
:100650000108F6006830840090308500013F8A0070
:10066000003F0A0083317708F100F2018A31FF224E
:10067000823171080F39A03E8600013087000108E1
:10068000F6006830840090308500013F8A00003F0A
:100690000A0083315D2B7708860087010108F60088
:1006A0006830840090308500013F8A00003F0A00D6
:1006B00083310130F8007808F70777088600870152
:1006C0000108031D642B652B4B2B5D30F600683051
:1006D000840090308500013F8A00003F0A0083318A
:1006E0000800F6016A30840090308500013F8A00DE
:1006F000003F0A008331F3006A30840090308500A7
:10070000013F8A00003F0A008331F4006A30840010
:1007100090308500013F8A00003F0A008331F500D8
:10072000B02B4F307406031D962B972BB82B4B30F4
:100730007506031D9C2B9D2BB82BF601F60AB82BD2
:1007400072307406031DA52BA62BB82B72307506CC
:10075000031DAB2BAC2BB82BF601B82B0030F82BBC
:100760007308413A0319912B043A0319A02BAE2BBD
:100770006A30840090308500013F8A00003F0A0003
:1007800083316A30840090308500013F8A00003F49
:100790000A0083316A30840090308500013F8A006E
:1007A000003F0A0083316A30840090308500013FA9
:1007B0008A00003F0A0083316A308400903085004F
:1007C000013F8A00003F0A0083316A308400903084
:1007D0008500013F8A00003F0A0083316A308400AF
:1007E00090308500013F8A00003F0A00833176087F
:1007F0000800F101F10A7430840090308500013F57
:100800008A00003F0A008431F101F10A723084004D
:1008100090308500013F8A00003F0A00843101309A
:10082000F4000030F5007630840090308500013F00
:100830008A00003F0A008431F10172308400903058
:100840008500013F8A00003F0A008431F101F10A6E
:100850007030840090308500013F8A00003F0A001C
:100860008431C830F4000030F500763084009030D8
:100870008500013F8A00003F0A008431482C6A301D
:10088000840090308500013F8A00003F0A008431D7
:100890006E30840090308500013F8A00003F0A00DE
:1008A0008431003A031D552C562C3F2C0800F400CF
:1008B00043019A1A5C2C5D2CA92C7408F100F201FA
:1008C000F135F20DF135F20D0B307107840018305F
:1008D000723D80388500000899007408F100F2012B
:1008E000F135F20DF135F20D0A3071078400183040
:1008F000723D8038850000089A009B017408F10061
:10090000F201F135F20DF135F20D0C307107840072
:100910001830723D80388500000897007408F10097
:10092000F201F135F20DF135F20D0D307107840051
:100930001830723D803885000008F300F30D400147
:1009400014087306FD397306940043019A160130AA
:10095000AA2C00300800F6000130F3020030F43B0E
:10096000730A031DB72C740A031DB72CB82CC72CAF
:10097000F101F201FD2C0130F5007508F607013098
:10098000F1070030F23D0130F3020030F43B76080D
:1009900086000330870001080319CF2CD02CEF2CE0
:1009A000710884007208850012000319D82CD92C14
:1009B000EF2C730874040319DE2CDF2CEF2C710864
:1009C0008400720885000008F50076088600033070
:1009D0008700010875060319EE2CEF2CBB2C760856
:1009E00086000330870071088400720885000008C3
:1009F0000102F100F201031CF20308009731DC2729
:100A00008431003A0319052D062D342D132D97310D
:100A1000AA278431502D9731AF278431502D97313B
:100A2000B9278431502D41012F08F8000630A03E2F
:100A300086008701413F8A00403F0A008531F90066
:100A4000FA017A08003A0319262D0F2D7908013A88
:100A500003190F2D033A0319072D013A03190B2D22
:100A6000073A03190F2D0F2D41013C101730A03EFE
:100A700086008701403F84008501810A0008973184
:100A8000A027843101304101B8020030B93B380859
:100A90003904031D4C2D4D2D4F2D0630502D0330A4
:100AA000080040019C0111309800990101309A0022
:100AB00008309600DE309200EF309300A8309400AA
:100AC0007E01CE01C930C3000E30B800E501C4017B
:100AD000B901CF01E601BA01C501D001FF30BB0069
:100AE000FF30C600FF30D1003F30BC003F30C700B0
:100AF0003F30D2003F133E133D17FF30F100073067
:100B0000F20088312E2085314E01161609307D0104
:100B1000C5001330C90013307E01990014309A00CB
:100B20001530A1002530A4000F309C001630A20023
:100B300015307D01CD000A30C6000D30CB001130DC
:100B4000C80008002030F100023084009030850099
:100B5000013F8A00003F0A0085313E30F10002303B
:100B6000840090308500013F8A00003F0A008531F3
:100B70003E30F1000230840090308500013F8A0051
:100B8000003F0A0085313E30F10002308400903091
:100B90008500013F8A00003F0A0085312030F100C6
:100BA0000230840090308500013F8A00003F0A0037
:100BB00085310D30F1000230840090308500013F16
:100BC0008A00003F0A0085310A30F10002308400BB
:100BD00090308500013F8A00003F0A0085310800FF
:100BE0004001A200770878040319F72DF82D3B2E59
:100BF0007808F2007708F1008A31FF228531720807
:100C00004001A1007108A0002D2E7808F20077089D
:100C1000F1002108F4002008F30022088431AB24FD
:100C2000853171087204031D162E172E1A2E4001ED
:100C300022083C2E77088400780885000008F90017
:100C4000FA017908F1007A08F20040012208013E19
:100C50008B31182385314001A20022080319312E5F
:100C6000322E3B2E22088600033087000108031D28
:100C70003A2E3B2E052E003008006A30840090305A
:100C80008500013F8A00003F0A0086314001C40010
:100C90005E03031D4C2E4D2E772E25304406031D7A
:100CA000522E532E652EDE01610886000330870028
:100CB00081016308C2007830840090308500013FD4
:100CC0008A00003F0A008631862E630862076102AF
:100CD00003186B2E6C2E862E610886000330870069
:100CE000440881000130C3004308E107862E253007
:100CF0004406031D7C2E7D2E822EDE01DE0A630853
:100D0000E100862EDF01DF0A4408E00040015F08B1
:100D100008004001A5002A30A9000230A7000030D9
:100D2000A800400125088E3177268631003A031944
:100D30009A2E9B2E912E7D30F5000930F600293039
:100D4000F7008831B62086310130F1000030F20022
:100D5000243089312D2186310030F500F600003035
:100D6000F700F8008831C12086319731D2278631CB
:100D70008A319F2286314001A60026030319C12E25
:100D8000C22EB82E2608031DC62EC72EC82ED22E60
:100D9000FF30A707FF30A83D27082804031DD12EE8
:100DA000D22E912E2908080030304001A2003030A8
:100DB000A5003030A300201EDE2EDF2EE22E3130C3
:100DC000A400E42E3030A40020080F39303EA200E9
:100DD000211EEB2EEC2EEF2E3130A500F12E3030FF
:100DE000A50021080F39303EA3007C304401A0004B
:100DF0004F30A1002C30A200400124084401A30080
:100E0000400122084401A4002C30A500400125081F
:100E10004401A600400123084401A7000D30A800AA
:100E20000A30A9000A30F70020308D31E8258631DC
:100E3000833171238631080041013708860087011C
:100E400097317527873181000130F9007908410118
:100E5000B7070130B8020030B93B3808390403192C
:100E6000322F332F382F97319827873105305E2F57
:100E7000BC15422F9731C82787315E2F9731C32782
:100E800087315E2F2C08F80021088A0020080A000C
:100E90008731F900FA017A08003A0319502F3E2FE2
:100EA0007908013A03193E2F033A03193A2F013A00
:100EB00003193A2F073A03193E2F3E2F08004E011F
:100EC00099138A30F1000F30F200883122208731E7
:100ED0004E0119131030F1000C30F2008831282037
:100EE0008731083054019F0090309D0024309E00CF
:100EF00040309B0003309C005B30F1001730F20063
:100F00008831162087319030F1001730F200883197
:100F10001C2087318C30F1001730F200883110200E
:100F200087314001D801DD01DC010830DB00FC0124
:100F3000DA01D9014E01991708004E019912C33008
:100F4000F1000F30F2008831042087314E01191270
:100F50003230F1000C30F20088310A20873108303D
:100F600042019F0090309D0024309E0040309B0045
:100F700003309C005A30F1001730F2009731F4270B
:100F800087318830F1001730F2009731FA27873126
:100F90008430F1001730F2009731EE27873140019D
:100FA000D101D701D6010830D500D401D301D20137
:100FB0004E0199160800F400710872040319E12F1C
:100FC000E22FF12F7435A03E860087017108C03FE3
:100FD0007208C13F7408AC3E860087017308810027
:100FE000FE2F7435A03E860087015C30C03F17306D
:100FF000C13F7408AC3E86008701810108000800EB
:1010000042011E0C0139080072084201D300710828
:10101000D200080072084201D5007108D40008000F
:1010200072084201D7007108D60008007208420118
:10103000DB007108DA00080072084201D90071086B
:10104000D800080072084201DD007108DC000800C9
:1010500072084201DF007108DE00080072084101D9
:10106000EE007108ED000800640080010131890B79
:1010700035280034FE0012001E00FE0B3B28003411
:1010800041013C109731722788310430080041013A
:101090003C1436359731A027883103300800750895
:1010A000F2007408F1008A314422883108007E0180
:1010B0003F1F5B285C285F2889314A21883108005E
:1010C00041013C140314360D9731A02788310530B7
:1010D000080040015908031D6E287028013071284E
:1010E0000030080040015208031D7728792801309C
:1010F0007A280030080043018F01083090009101E8
:101100004F308D009012080014308400903085001C
:10111000013F8A00003F0A00883108002230840025
:1011200090308500013F8A00003F0A0088310800A6
:101130001A30840090308500013F8A00003F0A0089
:1011400088310800603051018D008F019101063017
:1011500093009001920108004F01960197019801B8
:1011600099019A019B019C019D0108007608F200FB
:101170007508F1007708F30000308731DB278831EC
:1011800008007608F2007508F1007708F3000230D5
:101190008731DB27883108007103031DD028D1284F
:1011A000D42840011A13D62840011A1708007103E9
:1011B000031DDB28DC28DF2840011810E12840014E
:1011C000181408007608F10016308400903085006D
:1011D000013F8A00003F0A00883108004001921355
:1011E0007103031DF428F528F7289817F828981399
:1011F000921708008B31B6238831003A0319012970
:101200000229FA284001DF01600808000D29973102
:10121000E22789318D313A2589314101BC181129E4
:101220001229072908004301901A172918291F2994
:101230008F010830900091014F308D00901608000A
:10124000F1007108430196004E010F1D282929293C
:1012500024290F11430116080800F3004101BC1DA9
:10126000322933293A297308B7007208B900710886
:10127000B800BC1108004001A6000130FB002608A0
:10128000FB024C087B06FE397B06CC008B319A238F
:10129000893108004001691441016D086E04031989
:1012A0005229532958296E088A006D080A0089318D
:1012B0007E013F1308000230F1000030F200780890
:1012C00089312D2189310030F500F600F701883190
:1012D000B6208931043008000130F1000030F200FE
:1012E000780889312D2189310030F500F600F701A9
:1012F0008831B6208931043008000130F100003017
:10130000F200780889312D2189310030F500F6008E
:10131000F7018831B6208931023008000230F1002F
:101320000030F200780889312D2189310030F50034
:10133000F600F7018831B62089310230080002300A
:10134000F1000030F200780889312D218931003018
:10135000F500F600F7018831B62089310430080025
:101360000130F1000030F200780889312D218931F7
:101370000030F500F600F7018831B62089310230DF
:1013800008000230F1000030F200780889312D2188
:1013900089310030F500F600F7018831B620893137
:1013A000023008000130F1000030F2007808893185
:1013B0002D2189310030F500F600F7018831B62083
:1013C0008931043008003034313432343334343429
:1013D0003534363437343834393441344234433494
:1013E00044344534463400349731812789314001F3
:1013F000A000A1012008F60021308E314626893157
:101400002130F70041308231E52289310800F200B5
:101410007208F300730886008701F30A71088400DC
:1014200003308500F10A0008C03F8908031D192A0E
:101430001A2A0A2A080047304B019F000B309D00F2
:10144000DC309C001D084001C8004B011C08400115
:10145000C7004E018C1290304B019E0008001130E5
:101460007D01C8001330C90015307E01A10016307F
:10147000A2004030430199009A01013097004001D9
:10148000941043019A1208004D2A0B30F300623089
:10149000890B482AF30B482A00320130F102003050
:1014A000F23B710A031D582A720A031D582A592A51
:1014B000452A0800F200720803195F2A602A6E2A82
:1014C00002307102031C652A662A6E2A72084001E6
:1014D000E3007108FF3EE20001306F2A003008008F
:1014E00024304401A0002430A1002430A2000330A5
:1014F000F70020308D31E8258A310530F30098302F
:10150000F4000530F5008D3163258A3108007C0830
:10151000D53E860087015401190881000130F00092
:101520007008FC0708307C02031C972A982A992A25
:10153000FC010130F00070084001D9070800F101FA
:10154000F10A4101BC18A52AA62AB52A3C11FF3090
:10155000B600973160278A31973166278A319731F3
:1015600063278A3141013B08F100710808007808BF
:1015700086008701403FF100413FF2007808023EBB
:1015800086008701010889312D218A310030F5005C
:10159000F600F7018831B6208A3102300800780859
:1015A00086008701403FF100413FF2007808023E8B
:1015B00086008701010889312D218A310030F5002C
:1015C000F600F7018831B6208A3102300800400168
:1015D000691CEB2AEC2AFE2A6910EB170130FB008C
:1015E0007B08CD0702304D02031CF72AF82AFE2A99
:1015F0008931F4218A314001CD01EB1308007208D2
:10160000F5007108F400082B0130F1070030F23DBD
:1016100071088400720885001200031D102B112B25
:10162000042B74087102F1007508723BF200080087
:10163000F300730886000330870001087106031D5C
:10164000222B232B252B7308302B730886000330A5
:101650008700F30A0108031D2E2B2F2B192B0030B6
:1016600008008831AC208B3188317B208B318A3166
:101670002F228B31853151258B318831A2208B313E
:101680008A311B228B3187319D278B3187315F2730
:101690008B31080040015408443E86000130870029
:1016A0004201190881000130F00070084001D407A0
:1016B00008305402031C5D2B5E2B5F2BD4010130DC
:1016C000F0007008D20708002D304401A0002D3032
:1016D000A1002D30A2000D30A3000A30A400053077
:1016E000F70020308D31E8258B310030F300983041
:1016F000F4000530F5008D3163258B310800400181
:101700001A100030843157248B31003A0319892B89
:101710008A2B992B0430F2000030F300E9308B3132
:10172000D2238B3140011A1497317E278B3140012F
:10173000CF0108008A3170228B311430F400003060
:10174000F5007630840090308500013F8A00003F2C
:101750000A008B3140014C08A1004B08A0008631E3
:10176000D4268B318B3164238B31080040015F0814
:101770000319BB2BBC2BBE2B0130D12B6E30840048
:1017800090308500013F8A00003F0A008B31003A0B
:101790000319CB2BCC2BD02B86313D268B31D12B73
:1017A00000300800F5007508F600E22B7608860088
:1017B00087010030893120218B3181000130F40014
:1017C0007408F6070130F2020030F33B720A031D81
:1017D000ED2B730A031DED2BEE2BD62B08004001D9
:1017E000A200A301A30A4101BC18F72BF82B0D2C72
:1017F000BC144001A30122080319FF2B002C042C68
:101800004101BA01BA0A072C02304101BA009731EE
:1018100069278B31893106218B314001230808006B
:10182000083040015B020318162C172C2F2C5C0883
:10183000DD3E86008701010854019A000130F00066
:1018400070084001DC0708305C02031C282C292C9E
:101850002A2CDC010130F0007008DB07312C4E012E
:10186000191308000830400155020318382C392C90
:10187000512C5608C53E86008701010842019A0096
:101880000130F00070084001D60708305602031CF2
:101890004A2C4B2C4C2CD6010130F0007008D50797
:1018A000532C4E0119120800F3007308031D592C24
:1018B0005A2C662C5B30F100023084009030850099
:1018C000013F8A00003F0A008C31762C7303031D10
:1018D0006A2C6B2C762C5D30F10002308400903045
:1018E0008500013F8A00003F0A008C31080040015A
:1018F000590803197C2C7D2C772C5A08CD3E860084
:1019000087010108D8005A08D53E860087010108E2
:10191000F2000130F1007108DA0708305A02031CA6
:10192000922C932C942CDA014E0199130130400132
:10193000D9024E0199177208080040015208031994
:10194000A22CA32C9D2C5308BD3E860087010108C4
:10195000D1005308443E8600013087000108F200A0
:101960000130F1007108D30708305302031CB92C71
:10197000BA2CBB2CD3014E01991201304001D20286
:101980004E0199167208080040015B080319C92C22
:10199000CA2CC42C4E01191BCE2CCF2CD32C710871
:1019A00054019A00E82C191340015D08DD3E8600C1
:1019B0008701710881000130F2007208DD070830EC
:1019C0005D02031CE42CE52CE62CDD010130DB027A
:1019D0004E0119170800400155080319F02CF12C8D
:1019E000EB2C4E01191AF52CF62CFA2C7108420139
:1019F0009A000F2D191240015708C53E8600870135
:101A0000710881000130F2007208D70708305702D0
:101A1000031C0B2D0C2D0D2DD7010130D5024E01CD
:101A20001916080041013C100230BB001F2D9731F0
:101A3000B4278D31392D9731B9278D31392D2E08A5
:101A4000F8000430A03E86008701413F8A00403FF5
:101A50000A008D31F900FA017A08003A0319312D94
:101A60001B2D7908023A0319172D013A0319172D76
:101A70001B2D0800973160278D3141013C1C412D01
:101A8000422D4D2D9731DC278D31003A0319492D18
:101A90004A2D4D2D0F304101BA0041013A08400155
:101AA000A000A101A035A10D28302007840010302E
:101AB000213D80388500013F8A00003F0A008D31BA
:101AC0004101BA000800F901862D6A308400903087
:101AD0008500013F8A00003F0A008D31F80074083C
:101AE000F7007308F6007908760784007708031872
:101AF000770A85000008780603197F2D802D822D36
:101B000000308D2D0130F6007608F907750879024E
:101B1000031C8B2D8C2D652D013008004101BC1557
:101B20009E2D9731B4278D31BA2D973178278D317D
:101B30000330BA2D9731B9278D31BA2D2C08F80012
:101B400021088A0020080A008D31F900FA017A087C
:101B5000003A0319AC2D9A2D7908013A03199A2DF0
:101B6000033A0319912D013A0319912D073A0319EC
:101B7000952D9A2D08003C30F10002308400903001
:101B80008500013F8A00003F0A008D313C30F100A2
:101B90000230840090308500013F8A00003F0A0037
:101BA0008D313C30F1000230840090308500013FDF
:101BB0008A00003F0A008D312030F100023084009D
:101BC00090308500013F8A00003F0A008D310800F7
:101BD000FA00F9010F2E6C30840090308500013F2F
:101BE0008A00003F0A008D31003A0319F82DF92DC3
:101BF0000F2E79087A07F8007808860002308700EF
:101C00000108F6006830840090308500013F8A00AA
:101C1000003F0A008E310130F8007808F907770894
:101C20007902031C142E152EEB2D0800FB007B08F7
:101C30008E3177268E31003A03191F2E202E172E53
:101C40006C30F5000930F6002530F7008831B620F9
:101C50008E310130F1000030F200243089312D2125
:101C60008E310030F500F6000030F700F8008831C2
:101C7000C1208E319731D2278E318A319F228E3109
:101C8000013A0319442E452E3D2E0800F80078082D
:101C9000F100F2018A31FF228E317108F7007708D6
:101CA000F807780886008701760E0F398919F03811
:101CB0000F39A03E8400013085000008810001300A
:101CC000F7007708F80778088600870176080F394B
:101CD000A03E840001308500000881000130F7003B
:101CE0007708F80778088600870181010800F1006D
:101CF000F201F20A41013C197E2E7F2EAB2E7108B3
:101D0000B600BC103C153C100E30BA00F430B400E4
:101D10000130B500BC155C30A0001730A100AC014B
:101D20005C30A2001730A300AD015C30A400173076
:101D3000A500AE015C30A6001730A700AF015E30F1
:101D4000A8001730A900B001973160278E31893182
:101D500013218E31F2017208080011304001A400F5
:101D6000A50119308E3116268E3110304001A400A5
:101D70000830A50019308E3116268E310F30400103
:101D8000A4000330A50019308E3116268E3116308E
:101D90004001A4008030A50019308E3116268E3106
:101DA00019304001A4008030A50019308E3116266C
:101DB0008E3116304001A4001930863189268E31CB
:101DC0004001EA0008004001C0004008F100203056
:101DD0008A3107228E314001C101022F4108203E85
:101DE000860087010108F1000230840090308500F0
:101DF000013F8A00003F0A008E310130F60076086C
:101E00004001C1074008F100FF39031D0330F20013
:101E10008A31FF228E3140014108F600F701720835
:101E20007702031D152F71087602031C182F192F36
:101E3000EE2E08004001A900492F2708A800043011
:101E4000A836890B202F28080139AA002A08031D6B
:101E50002A2F2B2F332F27182E2F2F2F312F981665
:101E6000512F9812512F2718362F382F0130392F24
:101E7000003089313B218F31512F2708F10002308A
:101E8000840090308500013F8A00003F0A008F31B6
:101E9000512F29084C3A03191D2F1F3A03193D2FC2
:101EA000512F08008D31BB258F319130F7009030D4
:101EB000F800400142088531F0258F31003A0319BE
:101EC000622F632F672FFB014001E4017D2F7A30E1
:101ED000F7009030F800400142088531F0258F313D
:101EE000003A0319742F752F7B2FFB01FB0A400169
:101EF000E401E40A7D2F0230FB00400142088E31EC
:101F0000E3268F318531A2258F317B088C31542413
:101F10008F3108007C08CD3E860087018101540185
:101F20001D1D932F942F9F2F7C08CD3E8600870187
:101F3000811442015B088A005A080A008F3154015B
:101F40009D1CA32FA42FAF2F7C08CD3E86008701B8
:101F50000115420159088A0058080A008F317C088F
:101F6000CD3E8600870101080319B72FB82FBF2F78
:101F7000420157088A0056080A008F31C22F8A3161
:101F800087228F31080040015408BD3E860087013A
:101F9000810142011D1DCD2FCE2FDA2F40015408A3
:101FA000BD3E860087018114420151088A00500815
:101FB0000A008F3142019D1CDE2FDF2FEB2F4001E5
:101FC0005408BD3E86008701011542014F088A0072
:101FD0004E080A008F3140015408BD3E860087013B
:101FE00001080319F42FF52FFC2F42014D088A0038
:101FF0004C080A008F31FF2F8B314A238F310800A4
:102000009D340C34EB340C34003400347234083416
:102010000A340834C3340F34043408340034083428
:1020200032340C349D34073477340C34C4340C34DB
:102030000034003469340834283408348A340F34C6
:10204000223408349C34173410340C345F34073491
:10205000A53417346034083447340834FE3404346B
:102060001C340734403408348E340D34AA34173409
:10207000AF341734B4341734B9341734BE3417348A
:10208000C3341734C8341734CD34173412340D34F4
:1020900000340034003400340034003400340034A0
:1020A0000034003400340034003400340034003490
:1020B0000034003400340034003400340034003480
:1020C0000034003400340034003400340034003470
:1020D000E2340834843408348E34083498340834B4
:1020E000CC340834D7340834EE3408344F34083450
:1020F00052340F34533454345234453441344D3413
:102100005F344F34503445344E34003452346534E7
:1021100062346F346F34743469346E3467340D3420
:102120000A3444344934533443344F344E344E34F7
:10213000453443345434003431342E3431342E3465
:042140003034003403
:102EB4000800080001300800053008004E010F101A
:102EC40008004301901208004E0119100800430144
:102ED400111408004301911408004301111508005E
:102EE40043019115080043010C0808004E010F141A
:102EF400080040016408080043019A1208004001D8
:102F04006B0808008B314A239731080042011D12D7
:102F14001D1608008A3187229731080054011D12BA
:102F24001D16080043019116111608004301911261
:102F34001116080054011E0C01390800F100710833
:102F440043018C0008004101BC10BB010E30080095
:102F540097316C2797310130080097316C279731EE
:102F64000230080097316C279731013008009731FF
:102F74006F27973100300800973198279731053033
:102F840008009731942797310A3008009731942725
:102F94009731093008004101BC10BB010E30080014
:102FA40000308B31EF23973108004E010C0E890C51
:102FB400013908004301110E890C890C01390800FC
:102FC4004E010F1CE62FE72FE22F080001304001CD
:102FD400CB000130CC00080072084201CD0071081A
:102FE400CC00080072084201D1007108D00008002A
:102FF40072084201CF007108CE00080045344E34F7
:1030040044340D340A3443344D3444343E3420348F
:1030140000344034013400349C3490349C34903473
:020000040001F9
:08000000FF3FFF3FFF3FFF3F00
:0A000E00EC3FFF3F9F3FFF3FFF3F25
:00000001FF
