:1000000080315528303430347E1480314E01161E34
:100010000A280B2813280C1E0E280F2813289731A6
:100020002827803153280B1F162817285328191FFB
:100030001A281B2826280F1F1E281F2826284101A2
:100040006D088A006C080A0080315328991F2928FE
:100050002A2835288F1F2D282E28352841016B0886
:100060008A006A080A0080315328191E3828392866
:1000700044280F1E3C283D284428420165088A0078
:1000800064080A0080315328991E472848285328BD
:100090008F1E4B284C285328420163088A006208AF
:1000A0000A00803153287E10090080315728410111
:1000B000803102208031EE00803103208031EF005A
:1000C000053084008D308500A03086000130870027
:1000D00033309531C5258031FC012030840000305B
:1000E000850029309531BF258031A0308400003053
:1000F000850046309531BF258031203084000130A5
:1001000085003C309531BF2580312030840002309D
:10011000850040309531BF258031A0308400023009
:10012000850050309531BF25803120308400033068
:10013000850050309531BF258031A03084000330D8
:10014000850050309531BF25803120308400043047
:10015000850050309531BF258031A03084000430B7
:10016000850050309531BF2580317E1040018131AE
:1001700090294001DD0070290230C2008F295D08FE
:10018000C0000330C2008F293A305D02031CC92829
:10019000CA28D3285D085F39C93ED700FF3003184D
:1001A0000030D800DA285D08D03ED700FF300318B1
:1001B0000030D8005708C1000430C2008F293A30FF
:1001C0005D02031CE428E528EE285D085F39C93E7E
:1001D000D900FF3003180030DA00F5285D08D03E62
:1001E000D900FF3003180030DA004108D500033091
:1001F000D535FF3E031DF82855355907C100053098
:10020000C2008F293A305D02031C072908291229F0
:100210005D085F39C93E4101DD00FF300318003041
:10022000DE001A295D08D03E4101DD00FF300318D1
:100230000030DE0001304001C1024108031D2129C8
:1002400022292429C2018F290630C2008F293A3081
:100250005D02031C2C292D2936295D085F39C93E12
:10026000DB00FF3003180030DC003D295D08D03E84
:10027000DB00FF3003180030DC0041015E08400164
:10028000D60041015D084001D500D50ED60EF030F4
:10029000D60555080F39D604F030D5055B0855074B
:1002A0004101DD0040015C08563D4101DE005D0872
:1002B0004001D000400884312B24803101304001BE
:1002C000C1024108031D65296629FF2822295B30E8
:1002D0005D06031D6C296D298F29C201C20A8F2971
:1002E0004208D500D6015608003A03197829672933
:1002F0005508003A03196729013A0319BC28033A43
:100300000319BF28013A0319C428073A0319DF2843
:10031000013A03190229033A03192729672908001A
:100320008831FF2081315030F100A03088313F20EA
:1003300081318B170B178D31A22581318431A9248E
:1003400081319531F32581319431F6248131013A9F
:10035000031DAB29AC29382A8931852181318A31A5
:10036000472281319731072781314E018C1EB929EF
:10037000BA29D1298C128A31472281318831132040
:1003800081318831002081318A318F2281318D3154
:1003900038258131A42996318D2681318031B920CB
:1003A0008131893169218131003A031DD829D92948
:1003B000CB29192A0030840090308500013F8A0043
:1003C000003F0A0081314001EF002408A03E860072
:1003D000023087006F0881002408A03E86000230AA
:1003E00087000D3001060319F629F729082A240889
:1003F000A03E8600023087000A3001060319012A58
:10040000022A082A4F302406031D072A082A152A23
:100410002408A03E8600023087008101A03082318E
:10042000652281314001A401192A0130EF006F08D3
:10043000A4070630840090308500013F8A00003F09
:100440000A008231003A031D262A272ADA29A42924
:1004500096318D2681314201EC006C08F1000230AA
:10046000840090308500013F8A00003F0A008231FD
:10047000893169218131003A031D3F2A402A282A07
:10048000542A0030840090308500013F8A00003FEC
:100490000A008231F6000030840098308500013F68
:1004A0008A00003F0A0082310630840090308500C7
:1004B000013F8A00003F0A008231003A031D612A91
:1004C000622A412AA42980315528F9007908F100CF
:1004D0000230F2008831CD20823171080907F8001E
:1004E0005B30F6000030840098308500013F8A00C0
:1004F000003F0A008231400145080F39C23E8600A4
:10050000013087000108F600003084009830850033
:10051000013F8A00003F0A0082310130F70077086E
:100520004001C5075330F600003084009830850044
:10053000013F8A00003F0A0082317808F70004304A
:10054000F736890BA02A77080F39C23E86000130A2
:1005500087000108F6000030840098308500013FD4
:100560008A00003F0A00823178080F39C23E8600B7
:10057000013087000108F6000030840098308500C3
:10058000013F8A00003F0A008231FA2A790886007A
:10059000023087000108F7000430F736890BCD2AB6
:1005A00077080F39C23E8600013087000108F60047
:1005B0000030840098308500013F8A00003F0A0027
:1005C0008231790886000230870001080F39C23E67
:1005D0008600013087000108F60000308400983062
:1005E0008500013F8A00003F0A0082310130F70098
:1005F0007708F90779088600023087000108031D93
:10060000022B032BC62A5D30F600003084009830A0
:100610008500013F8A00003F0A0083310800F8018D
:100620000230840098308500013F8A00003F0A00B4
:100630008331F5000230840098308500013F8A0044
:10064000003F0A008331F6000230840098308500B4
:10065000013F8A00003F0A008331F7004E2B4F30E4
:100660007606031D342B352B5E2B4B307706031D8E
:100670003A2B3B2B5E2BF801F80A5E2B7230760684
:10068000031D432B442B5E2B72307706031D492B31
:100690004A2B5E2BF8015E2B00309E2B7508F30071
:1006A000F4017408003A0319562B4C2B7308413A95
:1006B00003192F2B043A03193E2B4C2B02308400D4
:1006C00098308500013F8A00003F0A0083310230E4
:1006D000840098308500013F8A00003F0A00833182
:1006E0000230840098308500013F8A00003F0A00F4
:1006F00083310230840098308500013F8A00003F3A
:100700000A0083310230840098308500013F8A005E
:10071000003F0A0083310230840098308500013F99
:100720008A00003F0A00833102308400983085003F
:10073000013F8A00003F0A00833178080800FA0070
:100740005B30F6000030840098308500013F8A005D
:10075000003F0A008331400145080F39C23E860040
:10076000013087000108F6000030840098308500D1
:10077000013F8A00003F0A0083310130F800780809
:100780004001C5077A08F6000030840098308500E3
:10079000013F8A00003F0A0083317708F100F2012F
:1007A0008831CD2083317108F8007208F9000430D7
:1007B000F936F80C890BD82B78080F39C23E860021
:1007C000013087000108F600003084009830850071
:1007D000013F8A00003F0A0083317708F100F201EF
:1007E0008831CD20833171080F39C23E8600013037
:1007F00087000108F6000030840098308500013F32
:100800008A00003F0A008431172C77088600870190
:100810000108F6000030840098308500013F8A000E
:10082000003F0A0084310130F8007808F7077708A4
:10083000860087010108031D1E2C1F2C052C5D302E
:10084000F6000030840098308500013F8A00003FA8
:100850000A00843108004001D300862CC31E312CCD
:10086000322CA82C5008D1000430D136890B352CFD
:1008700051080139D4005408031D3F2C402C482C4A
:100880005018432C442C462C9816A82C9812A82CAF
:1008900050184B2C4D2C01304E2C00309631F82640
:1008A0008431A82C431F552C562CA82C0100A82CB1
:1008B000C31F5B2C5C2CA82C5008F1000230840074
:1008C00090308500013F8A00003F0A008431A82C47
:1008D000431C6B2C6C2CA82C4414A82CC31C712C0E
:1008E000722CA82CC414A82C431D772C782CA82C6F
:1008F0004415A82CC31D7D2C7E2CA82CC415A82C17
:10090000431E832C842CA82C4416A82C5308D100F9
:10091000D2015208003A03198E2CA82C5108413AF2
:1009200003197A2C033A0319742C043A0319682C1E
:100930000E3A0319802C033A03196E2C073A031957
:100940002E2C033A0319522C1C3A0319582CA82CAC
:100950000800F101F10A0C30840098308500013F55
:100960008A00003F0A008431F101F10A0A30840054
:1009700098308500013F8A00003F0A008431013031
:10098000F4000030F5000E30840098308500013FFF
:100990008A00003F0A008431F1010A308400983057
:1009A0008500013F8A00003F0A008431F101F10A0D
:1009B0000830840098308500013F8A00003F0A001B
:1009C0008431C830F4000030F5000E3084009830D7
:1009D0008500013F8A00003F0A008431F82C023074
:1009E000840098308500013F8A00003F0A0084316E
:1009F0000630840098308500013F8A00003F0A00DD
:100A00008531003A031D052D062DEF2C080040010D
:100A10009C0111309800990101309A00083096002D
:100A2000DE309200EF309300A83094007E01CE01BA
:100A3000C930C3000E30B800E501C401B901CF01CF
:100A4000E601BA01C501D0017E30BB00FF30C6000F
:100A50003F30D1003F30BC003F30C7003F30D200B4
:100A60003F13BF133E13BE173D17BD13D630F10021
:100A70001430F2009531B32585310F30F100153077
:100A8000F2009531B92585314E01161609307D01E8
:100A9000C5001330C90013307E01990014309A004C
:100AA0001530A1002530A4000F309C001630A200A4
:100AB00015307D01CD000A30C6000D30CB0011305D
:100AC000C8000800F6007608F9007208F8007108FE
:100AD000F7000130F3020030F43B730A031D742D5C
:100AE000740A031D742D752D842DF101F201BA2DA8
:100AF0000130F5007508F9070130F7070030F83DBF
:100B00000130F3020030F43B79088600033087009F
:100B1000010803198C2D8D2DAC2D770884007808E1
:100B2000850012000319952D962DAC2D73087404C1
:100B300003199B2D9C2DAC2D770884007808850027
:100B40000008F50079088600033087000108750663
:100B50000319AB2DAC2D782D790886000330870062
:100B6000770884007808850000080102F100F2018E
:100B7000031CF2030800F40043019A1AC02DC12D92
:100B80000D2E7408F100F201F135F20DF135F20D80
:100B90004530710784001830723D803885000008A8
:100BA00099007408F100F201F135F20DF135F20D02
:100BB0004430710784001830723D80388500000889
:100BC0009A009B017408F100F201F135F20DF13544
:100BD000F20D4630710784001830723D8038850070
:100BE000000897007408F100F201F135F20DF135BB
:100BF000F20D4730710784001830723D803885004F
:100C00000008F300F30D400114087306FD39730664
:100C1000940043019A1601300E2E003008009531E1
:100C20005F258631003A0319162E172E452E242EE5
:100C300095312D258631612E953132258631612EF3
:100C400095313C258631612E41012F08F800063090
:100C5000A03E86008701413F8A00403F0A0086315E
:100C6000F900FA017A08003A0319372E202E790884
:100C7000013A0319202E033A0319182E013A0319D9
:100C80001C2E073A0319202E202E41013C1017304C
:100C9000A03E86008701403F84008501810A00084C
:100CA00095312325863101304101B8020030B93B2E
:100CB00038083904031D5D2E5E2E602E0630612E2D
:100CC000033008002030F1000230840090308500AD
:100CD000013F8A00003F0A0086313E30F1000230B9
:100CE000840090308500013F8A00003F0A00863171
:100CF0003E30F1000230840090308500013F8A00D0
:100D0000003F0A0086313E30F1000230840090300E
:100D10008500013F8A00003F0A0086312030F10043
:100D20000230840090308500013F8A00003F0A00B5
:100D300086310D30F1000230840090308500013F93
:100D40008A00003F0A0086310A30F1000230840038
:100D500090308500013F8A00003F0A00863108007C
:100D60004001CD007A087B040319B72EB82EFB2E64
:100D70007B08F2007A08F1008831CD2086317208B4
:100D80004001CC007108CB00ED2E7B08F2007A0800
:100D9000F1004C08F4004B08F3004D088531622542
:100DA000863171087204031DD62ED72EDA2E40012B
:100DB0004D08FC2E7A0884007B088500000840015D
:100DC000C900CA014908F1004A08F2004D08013E75
:100DD0008831E62086314001CD004D080319F12EFF
:100DE000F22EFB2E4D088600033087000108031DFC
:100DF000FA2EFB2EC52E00300800023084009830F9
:100E00008500013F8A00003F0A0087314001EE0063
:100E10003903031D0C2F0D2F372F25306E06031DB0
:100E2000122F132F252FB9013C08860003308700AD
:100E300081013E08EB001030840098308500013FAE
:100E40008A00003F0A008731462F3E083D073C02DA
:100E500003182B2F2C2F462F3C08860003308700C9
:100E60006E0881000130ED006D08BC07462F25306B
:100E70006E06031D3C2F3D2F422FB901B90A3E08D3
:100E8000BC00462FBA01BA0A6E08BB0040013A08FE
:100E900008004001CE002A30D2000230D0000030DD
:100EA000D10040014E088D316C258731003A03197D
:100EB0005A2F5B2F512F5B30F5001730F600523060
:100EC000F7009631492687310130F1000030F200F9
:100ED0004D309631CD2687310030F500F6000030D8
:100EE000F700F80096315426873195315525873122
:100EF00088316C2087314001CF004F030319812FC7
:100F0000822F782F4F08031D862F872F882F922F2F
:100F1000FF30D007FF30D13D50085104031D912F01
:100F2000922F512F5208080030304001CB00303052
:100F3000CE003030CC00491E9E2F9F2FA22F313083
:100F4000CD00A42F3030CD0049080F39303ECB0002
:100F50004A1EAB2FAC2FAF2F3130CE00B12F303027
:100F6000CE004A080F39303ECC007C304401A0004E
:100F70004F30A1002C30A20040014D084401A300D5
:100F800040014B084401A4002C30A50040014E084C
:100F90004401A60040014C084401A7000D30A80000
:100FA0000A30A9000A30F70020308C3176248731CE
:100FB00083310F2387310800F4007108720403198C
:100FC000E22FE32FF22F7435A03E860087017108CF
:100FD000C03F7208C13F7408AC3E860087017308A9
:100FE0008100FF2F7435A03E86008701D730C03FB7
:100FF0001430C13F7408AC3E8600870181010800AF
:101000009531712588314001C900CA014908F600AF
:101010004A308C31D42488314A30F7005030833143
:101020009F23883108004001E10166309631B326E4
:10103000883140016708FA006608F900613096318E
:10104000DB2688316130F700543083319F238831AB
:101050000800F4007108F2007408F30073088600B9
:101060008701F30A7208840003308500F20A000841
:10107000C03F8908031D3D283E282E280800F200A5
:101080007208031944284528532802307102031CB2
:101090004A284B28532872084001BE007108FF3EC1
:1010A000BD00013054280030080024304401A00065
:1010B0002430A1002430A2000330F70020308C310E
:1010C000762488313F30F3009830F4000530F50085
:1010D0008B31F12388310800F101F10A4101BC187C
:1010E0007228732882283C11FF30B6009431DB242B
:1010F00088319431E12488319431DE2488314101F2
:101100003B08F10071080800780886008701403F1D
:10111000F100413FF2007808023E86008701010895
:101120009631CD2688310030F500F600F701963172
:101130004926883102300800780886008701403F40
:10114000F100413FF2007808023E86008701010865
:101150009631CD2688310030F500F600F701963142
:1011600049268831023008007C08543E8600013050
:1011700087005401190881000130F0007008FC0755
:1011800008307C02031CC528C628C728FC01013092
:10119000F00070084001B40708007208F5007108FB
:1011A000F400D6280130F1070030F23D71088400C8
:1011B000720885001200031DDE28DF28D22874087B
:1011C0007102F1007508723BF2000800F300730829
:1011D00086000330870001087106031DF028F128FE
:1011E000F3287308FE287308860003308700F30A8B
:1011F0000108031DFC28FD28E7280030080096316F
:101200003F26883196310E2688319731D52788318F
:101210008531072588319631352688319731C127A8
:1012200088318E31BE2688318E31FC268831080007
:1012300040012F08443E8600013087004201190812
:1012400081000130F00070084001AF0708302F0224
:10125000031C2B292C292D29AF010130F000700827
:10126000AD0708002D304401A0002D30A1002D3025
:10127000A2000D30A3000A30A4000530F700203092
:101280008C31762489313A30F3009830F4000530FF
:10129000F5008B31F12389310800883155208931DF
:1012A0001430F4000030F5000E30840098308500D2
:1012B000013F8A00003F0A00893140012308CA002B
:1012C0002208C90087319427893189313221893137
:1012D000080040013A0803196E296F29712901306D
:1012E00084290630840098308500013F8A00003F41
:1012F0000A008931003A03197E297F298329863122
:10130000FD2689318429003008004001251C8929E7
:101310008A29A029461C8D298E29A0294610C81784
:101320000130FB007B08A60702302602031C992926
:101330009A29A029C8138B312A2389314001A6019B
:101340000800F5007508F600B129760886008701C7
:1013500000309631C026893181000130F4007408D4
:10136000F6070130F2020030F33B720A031DBC297C
:10137000730A031DBC29BD29A52908004001CB0023
:10138000CC01CC0A4101BC18C629C729DC29BC14F0
:101390004001CC014B080319CE29CF29D3294101A3
:1013A000BA01BA0AD62902304101BA009431E424C4
:1013B000893196319926893140014C08080008305E
:1013C000400136020318E529E629FE293708CD3EFB
:1013D00086008701010854019A000130F00070086E
:1013E0004001B70708303702031CF729F829F9290B
:1013F000B7010130F0007008B607002A4E0119133A
:1014000008000830400130020318072A082A212A60
:1014100031084C3E860001308700010842019A00E5
:101420000130F00070084001B10708303102031CA0
:101430001A2A1B2A1C2AB1010130F0007008B007DB
:10144000232A4E0119120800F3007308031D292AEC
:101450002A2A362A5B30F100023084009030850061
:10146000013F8A00003F0A008A31462A7303031DA8
:101470003A2A3B2A462A5D30F1000230840090303F
:101480008500013F8A00003F0A008A3108004001C0
:10149000A51C4B2A4C2A692A1A1000308531BB251D
:1014A0008A31003A0319552A562A692A4101E10175
:1014B0000430F2000030F300E2308931A1218A319A
:1014C00040011A14E2308F313A278A319431FC24DA
:1014D0008A31080005304001CD0018308F31BD271A
:1014E0008A3140014E08E0004D08DF0060081F39D6
:1014F000DD005F08DE005E08D800D9015D08DA0073
:10150000DB015A08DB00DA0158085A04DF005908E9
:101510005B04E0006008D7005F08D6000800953142
:101520006B258A314001CC00C9014C08F6004930D6
:101530008C31D4248A314930F7004C3083319F23D9
:101540008A3195315A258A31103E4001CC00C901BB
:101550004C08F60049308C31D4248A314930F700E8
:101560004C3083319F238A3108004001360803192B
:10157000BA2ABB2AB52A4E01191BBF2AC02AC42A7F
:10158000710854019A00D92A191340013808CD3E38
:1015900086008701710881000130F2007208B807E7
:1015A00008303802031CD52AD62AD72AB8010130C0
:1015B000B6024E0119170800400134080319E12A48
:1015C000E22ADC2A3508C53E860087010108B300FF
:1015D0003508543E8600013087000108F2000130D2
:1015E000F1007108B50708303502031CF82AF92A02
:1015F000FA2AB5014E01991301304001B4024E019F
:1016000099177208080040012D080319082B092BAF
:10161000032B2E08BD3E860087010108AC002E0872
:10162000443E8600013087000108F2000130F100DD
:101630007108AE0708302E02031C1F2B202B212B14
:10164000AE014E01991201304001AD024E019916D2
:10165000720808009431F9248B314001CB00CC0191
:101660004B08F6004C308C31D4248B314A2B4C3053
:10167000F700463083319F238B3152304001CA003E
:101680002B30C9000030890B432BC90B432BCA0BED
:10169000432B00004001441C4E2B4F2B372B431093
:1016A0000800953171258B314001CB00CC014B08EE
:1016B000F6004C308C31D4248B31712B4C30F70038
:1016C000483083319F238B3152304001CA002B3088
:1016D000C9000030890B6A2BC90B6A2BCA0B6A2B15
:1016E00000004001431E752B762B5E2B4312080031
:1016F00041013C100230BB00852B953137258B31E1
:101700009F2B95313C258B319F2B2E08F800043000
:10171000A03E86008701413F8A00403F0A008B318E
:10172000F900FA017A08003A0319972B812B7908FE
:10173000023A03197D2B013A03197D2B812B0800F6
:10174000400130080319A52BA62BA02B4E01191A16
:10175000AA2BAB2BAF2B710842019A00C52B191293
:10176000400132084C3E860001308700710881003C
:101770000130F2007208B20708303202031CC12B9C
:10178000C22BC32BB2010130B0024E011916080062
:101790009431DB248B3141013C1CCF2BD02BDB2B34
:1017A00095315F258B31003A0319D72BD82BDB2BD2
:1017B0000F304101BA0041013A084001C900CA0195
:1017C000C935CA0D28304907840010304A3D803899
:1017D0008500013F8A00003F0A008B314101BA00B9
:1017E0000800F901142C0230840098308500013F74
:1017F0008A00003F0A008B31F8007408F700730874
:10180000F60079087607840077080318770A8500C0
:101810000008780603190D2C0E2C102C00301B2C00
:101820000130F6007608F90775087902031C192CB7
:101830001A2CF32B013008004101BC152C2C9531DA
:1018400037258C31482C9431F3248C310330482CCB
:1018500095313C258C31482C2C08F80021088A0051
:1018600020080A008C31F900FA017A08003A0319BD
:101870003A2C282C7908013A0319282C033A031929
:101880001F2C013A03191F2C073A0319232C282C6B
:1018900008003C30F1000230840090308500013FA8
:1018A0008A00003F0A008C313C30F1000230840095
:1018B00090308500013F8A00003F0A008C313C30A7
:1018C000F1000230840090308500013F8A00003F23
:1018D0000A008C312030F100023084009030850005
:1018E000013F8A00003F0A008C310800FA00F9012C
:1018F0009D2C0430840098308500013F8A00003F11
:101900000A008C31003A0319862C872C9D2C79080B
:101910007A07F80078088600023087000108F60090
:101920000030840098308500013F8A00003F0A00A3
:101930008C310130F8007808F90777087902031C28
:10194000A22CA32C792C0800FB007B088D316C2580
:101950008C31003A0319AD2CAE2CA52C4A30F50081
:101960001730F6004E30F700963149268C310130A1
:10197000F1000030F2004D309631CD268C31003030
:10198000F500F6000030F700F800963154268C314F
:10199000953155258C3188316C208C31013A0319F1
:1019A000D22CD32CCB2C0800F8007808F100F201DF
:1019B0008831CD208C317108F7007708F807780856
:1019C00086008701760E0F398919F0380F39C23E2B
:1019D000840001308500000881000130F70077089D
:1019E000F80778088600870176080F39C23E840020
:1019F00001308500000881000130F7007708F80702
:101A0000780886008701810108003034313432348F
:101A1000333434343534363437343834393441346B
:101A20004234433444344534463400343034313461
:101A3000323433343434353436343734383439345A
:101A40004134423443344434453446340034303431
:101A50003134323433343434353436343734383442
:101A60003934413442344334443445344634003408
:101A70004001CB01DF01502D5F08343E84009830D7
:101A80000318013E85000008DE005E08F6004B30BA
:101A90008C31D4248D3101304001C9004908DF0761
:101AA0003430F1009830F2008831CD208D31400182
:101AB0005F08C900CA0172084A02031D612D71083E
:101AC0004902031C642D652D3C2D4B30F700563028
:101AD00083319F238D310800F100F201F20A4101A8
:101AE0003C19732D742DA02D7108B600BC103C1547
:101AF0003C100E30BA00F430B4000130B500BC1513
:101B0000D730A0001430A100AC01D730A2001430AF
:101B1000A300AD01D730A4001430A500AE01D7302A
:101B2000A6001430A700AF01D930A8001430A900D6
:101B3000B0019431DB248D319631A6268D31F2012E
:101B40007208080011304001CD00CE0119308C31EF
:101B5000A4248D3110304001CD000830CE00193062
:101B60008C31A4248D310F304001CD000330CE00E4
:101B700019308C31A4248D3116304001CD008030D5
:101B8000CE0019308C31A4248D3119304001CD00A4
:101B90008030CE0019308C31A4248D3116304001B4
:101BA000CD001930873149278D314001C700080029
:101BB0004001E9006908F1004930883129208D3160
:101BC0004001EA01F72D6A08493E860087010108B5
:101BD000F1000230840090308500013F8A00003F10
:101BE0000A008D310130F60076084001EA076908E5
:101BF000F100FF39031D0330F2008831CD208D3113
:101C000040016A08F600F70172087702031D0A2EE8
:101C100071087602031C0D2E0E2EE32D08007C08A1
:101C2000C53E86008701810154011D1D182E192E05
:101C3000242E7C08C53E86008701811442016B0872
:101C40008A006A080A008E3154019D1C282E292E14
:101C5000342E7C08C53E86008701011542016908C3
:101C60008A0068080A008E317C08C53E860087011C
:101C7000010803193C2E3D2E442E420167088A00BC
:101C800066080A008E31472E8831B4208E31080054
:101C90008C3149248E312930FA009830FB00400104
:101CA0006B088631B0268E31003A0319582E592E12
:101CB0005D2E4001EC01BF01742E1230FA00983005
:101CC000FB0040016B088631B0268E31003A0319C3
:101CD0006A2E6B2E712E4001EC01EC0ABF01BF0A87
:101CE000742E02304001EC006B088D31D8258E3106
:101CF000863162268E3140016C088A3124228E3171
:101D0000080040012F08BD3E860087018101420185
:101D10001D1D8B2E8C2E982E40012F08BD3E860057
:101D200087018114420161088A0060080A008E312F
:101D300042019D1C9C2E9D2EA92E40012F08BD3EC8
:101D400086008701011542015F088A005E080A00CB
:101D50008E3140012F08BD3E86008701010803191E
:101D6000B22EB32EBA2E42015D088A005C080A002A
:101D70008E31BD2E893118218E3108004E01991205
:101D80008130F1000E30F200953189258E314E01FF
:101D900019120130F1000A30F20095318F258E3191
:101DA000083042019F0090309D0024309E0040305A
:101DB0009B0003309C00D430F1001430F2009531C8
:101DC0007D258E310330F1001530F20095318325E9
:101DD0008E31FF30F1001430F200953177258E31CD
:101DE0004001AC01B201B1010830B000AF01AE0159
:101DF000AD014E01991608004E0199130F30F10004
:101E00000E30F2009531A7258E314E011913DF30C7
:101E1000F1000930F2009531AD258E3108305401C2
:101E20009F0090309D0024309E0040309B00033086
:101E30009C00D530F1001430F20095319B258E3195
:101E40000B30F1001530F2009531A1258E310730AD
:101E5000F1001530F200953195258E314001B30126
:101E6000B801B7010830B600FC01B501B4014E015C
:101E7000991708004001D500CB01D601D7014001D8
:101E80005508860087010108F6004B308C31D424B8
:101E90008F3101304001C9004908D5070130D6070C
:101EA0000030D73D5708803AC90080304902031DF1
:101EB0005B2F04305602031C5E2F5F2F3F2F732FC2
:101EC0004B30F7004B3083319F238F31523040012C
:101ED000CA002B30C9000030890B6C2FC90B6C2F46
:101EE000CA0B6C2F00004001C31C772F782F602F86
:101EF000C310080041013708860087019431F0249F
:101F00008F3181000130F90079084101B7070130B4
:101F1000B8020030B93B380839040319902F912FCB
:101F2000962F953117258F310530BC2FBC15A02F6A
:101F300095314B258F31BC2F953146258F31BC2FE4
:101F40002C08F80021088A0020080A008F31F900C7
:101F5000FA017A08003A0319AE2F9C2F7908013A4A
:101F600003199C2F033A0319982F013A0319982F4C
:101F7000073A03199C2F9C2F08004001D300400111
:101F800053088D316C258F31003A0319C82FC92FA2
:101F9000BF2F6C30F5001730F6005430F700963143
:101FA00049268F310130F1000030F2004D3096317A
:101FB000CD268F310030F500F6000030F700F80034
:101FC000963154268F31953155258F3188316C20CB
:101FD0008F31013A0319ED2FEE2FE62F40015508FE
:101FE000D0005408CF005008CF00D0015408D200D0
:101FF000D1014F085104CD0050085204CE00080012
:1020000003340B34A0340B3400340034053416345C
:102010008F34153481340E34893415341F3415341B
:1020200001340A34BE340E34DC340A34B5340A3494
:1020300000340034FC341534AD3415340F340E3410
:10204000A73415341B341534DF340934FC340E3412
:1020500028341534EA341534D23415340F340634A8
:102060007A340F34CB3415341C340C342D341534FD
:1020700032341534373415343C3415344134153486
:10208000463415344B3415345034153478340B340D
:1020900000340034003400340034003400340034A0
:1020A0000034003400340034003400340034003490
:1020B0000034003400340034003400340034003480
:1020C0000034003400340034003400340034003470
:1029A80008000800080001300800053008004E0142
:1029B8000F1008004301901208004E01191008007A
:1029C8004301111408004301911408004301111533
:1029D800080043019115080043010C0808004E0146
:1029E8000F14080040013F0808004001480808008B
:1029F80043019A12080089311821943108004201D4
:102A08001D121D1608008831B420953108005401A4
:102A18001D121D1608004001A701A70A080043015E
:102A2800911611160800430191121116080054015D
:102A38001E0C0139080042011E0C01390800F10082
:102A4800710843018C0008004101BC10BB010E3025
:102A580008009431E7249531013008009431E724C7
:102A68009531023008009431E7249531013008008F
:102A78009431EA24953100300800953117259531B5
:102A8800053008009531132595310A300800953135
:102A980013259531093008004101BC10BB010E30E7
:102AA800080000308931BE21953108004001230813
:102AB8000139013C08004301110E890C890C0139C8
:102AC80008004E010F1C692D6A2D652D0800400174
:102AD8000C0E890C0139013C080040010C0D0C0D4D
:102AE8000139013C080072084201DD007108DC0070
:102AF800080072084201E1007108E000080072084D
:102B08004201DF007108DE00080072084201E3009C
:102B18007108E200080072084201E5007108E4004B
:102B2800080072084201E7007108E6000800720810
:102B38004201EB007108EA00080072084201E9004E
:102B48007108E800080072084101EB007108EA000A
:102B5800080072084101ED007108EC0008007208D5
:102B68004101E9007108E800080072084101E70026
:102B78007108E6000800640080010131890BC02D4E
:102B88000034FE0012001E00FE0BC62D0034410169
:102B98003C109431ED2495310430080041013C1477
:102BA8003635953123259531033008004001C3148B
:102BB80043144316C3164317C31708007508F200D9
:102BC8007408F1009731EA279531080041013C1457
:102BD8000314360D95312325953105300800013051
:102BE8004001A2000130A3009531DA259531080093
:102BF80040013408031D012E032E0130042E00303D
:102C0800080040012D08031D0A2E0C2E01300D2E40
:102C18000030080043018F010830900091014F30C7
:102C28008D00901208001430840090308500013F18
:102C38008A00003F0A009631080022308400903054
:102C48008500013F8A00003F0A00963108001A30CB
:102C5800840090308500013F8A00003F0A009631C9
:102C68000800603051018D008F01910106309300FA
:102C78009001920108004F0196019701980199016E
:102C88009A019B019C019D0108007608F2007508D5
:102C9800F1007708F30000308731DC27963108000F
:102CA8007608F2007508F1007708F30002308731E2
:102CB800DC27963108007103031D632E642E672EEE
:102CC80040011A13692E40011A1708007103031DE9
:102CD8006E2E6F2E722E40011810742E400118149B
:102CE80008007608F1001630840090308500013F16
:102CF8008A00003F0A0096310800400192137103D0
:102D0800031D872E882E8A2E98178B2E98139217BC
:102D18000800893169219631003A0319942E952EBD
:102D28008D2E4001BA013B080800A02E953165257B
:102D380096318B31C82396314101BC18A42EA52E9B
:102D48009A2E08004301901AAA2EAB2EB22E8F019C
:102D58000830900091014F308D0090160800FB005C
:102D68008A316A2296317B0886008701400156081D
:102D7800C03F5708C13F0800F100710843019600A1
:102D88004E010F1DC82EC92EC42E0F11430116085F
:102D98000800F3004101BC1DD22ED32EDA2E730891
:102DA800B7007208B9007108B800BC110800FB0030
:102DB8007908F6007B088C31D42496317A08F6001D
:102DC8007B088C31D42496310800410166086704D9
:102DD8000319EF2EF02EF52E67088A0066080A0000
:102DE80096317E01BF1308004001CF000130FB007F
:102DF8004F08FB0223087B06FE397B06A3008931B6
:102E08004D21963108004001251E0B2F0C2F162F3F
:102E18002703031D102F112F162F8B3151239731A4
:102E28004001A701080040014614410168086904EF
:102E380003191F2F202F252F69088A0068080A0008
:102E480097317E013F1308007E013F1F2C2F2D2F45
:102E5800302F9731172797317E01BF1F342F352F19
:102E6800382F9631E926973108000230F1000030FA
:102E7800F20078089631CD2697310030F500F6003B
:102E8800F701963149269731043008000130F100E6
:102E98000030F20078089631CD2697310030F500E1
:102EA800F600F701963149269731043008000130C1
:102EB800F1000030F20078089631CD2697310030C5
:102EC800F500F600F70196314926973102300800DF
:102ED8000230F1000030F20078089631CD269731A3
:102EE8000030F500F600F701963149269731023097
:102EF80008000230F1000030F20078089631CD2643
:102F080097310030F500F600F701963149269731E0
:102F1800043008000130F1000030F20078089631E2
:102F2800CD2697310030F500F600F7019631492695
:102F38009731023008000230F1000030F2007808C2
:102F48009631CD2697310030F500F600F70196311D
:102F580049269731023008000130F1000030F200B4
:102F680078089631CD2697310030F500F600F70144
:102F78009631492697310430080047304B019F00AD
:102F88000B309D00DC309C001D084001A1004B0166
:102F98001C084001A0004E018C1290304B019E008D
:102FA800080011307D01C8001330C90015307E01BA
:102FB800A1001630A2004030430199009A01013067
:102FC80097004001941043019A120800F32F0B3028
:102FD800F3006230890BEE2FF30BEE2F0032013035
:102FE800F1020030F23B710A031DFE2F720A031D25
:102FF800FE2FFF2FEB2F08007534163417341634C4
:10300800213416342B3416345F3416346A341634AB
:1030180081341634E234153448340E34533454347D
:103028005234453441344D345F344F345034453490
:103038004E3400345234653462346F346F3474342F
:1030480069346E3467340D340A34443449345334A3
:1030580043344F344E344E344534433454340034BE
:1030680031342E3431342E343034003445344E3437
:1030780044340D340A3443344D3444343E3420341B
:1030880000344034013400343434983434349834BF
:020000040001F9
:08000000FF3FFF3FFF3FFF3F00
:0A000E00EC3FFF3F9F3FFF3FFF3F25
:00000001FF
