:1000000080315528303430347E1480314E01161E34
:100010000A280B2813280C1E0E280F2813288D31B0
:100020002725803153280B1F162817285328191FFE
:100030001A281B2826280F1F1E281F2826284001A3
:1000400067088A0066080A0080315328991F29280A
:100050002A2835288F1F2D282E283528400165088D
:100060008A0064080A0080315328191E382839286C
:1000700044280F1E3C283D28442842015E088A007F
:100080005D080A0080315328991E472848285328C4
:100090008F1E4B284C28532842015C088A005B08BD
:1000A0000A00803153287E100900803157288031A2
:1000B00002208031E800803103208031E900BF3028
:1000C00084008E3085004430860001308700113076
:1000D0008D310A258031FC012030840000308500FC
:1000E00023308D3104258031A0308400003085001C
:1000F0004D308D3104258031203084000130850061
:1001000024308D3104258031A030840001308500F9
:1001100040308D310425803120308400023085004C
:1001200050308D3104258031A030840002308500AC
:1001300050308D310425803120308400033085001B
:1001400050308D31042580317E1040018731682F79
:10015000FB005B30F6000030840090308500013FEA
:100160008A00003F0A008031400142080F39443EB6
:100170008600013087000108F600003084009030CE
:100180008500013F8A00003F0A0080310130F900FC
:1001900079084001C2077B08F600003084009030E7
:1001A0008500013F8A00003F0A0080317808F20094
:1001B0007708F1008F31CC2780317108F90072087F
:1001C000FA000430FA36F90C890BE22879080F3965
:1001D000443E8600013087000108F60000308400AC
:1001E00090308500013F8A00003F0A008031780886
:1001F000F2007708F1008F31CC27803171080F3978
:10020000443E8600013087000108F600003084007B
:1002100090308500013F8A00003F0A008131232988
:1002200077088600780887000108F600003084000F
:1002300090308500013F8A00003F0A008131013083
:10024000F7070030F83D7708860078088700010836
:10025000031D2B292C2910295D30F6000030840065
:1002600090308500013F8A00003F0A00813108007C
:10027000F101F10A0C30840090308500013F8A00C2
:10028000003F0A008131F101F10A0A308400903008
:100290008500013F8A00003F0A0081310130F400EF
:1002A0000030F5000E30840090308500013F8A0058
:1002B000003F0A008131F1010A308400903085004E
:1002C000013F8A00003F0A008131F101F10A083044
:1002D000840090308500013F8A00003F0A00813190
:1002E000C830F4000030F5000E30840090308500F6
:1002F000013F8A00003F0A008131872902308400D3
:1003000090308500013F8A00003F0A0081310630AD
:10031000840090308500013F8A00003F0A0081314F
:10032000003A031D942995297E2908008C31A424C4
:100330008131003A03199D299E29CC29AB298C31A2
:1003400072248131E8298C3177248131E8298C317C
:1003500081248131E82941012F08F8000630A03EB0
:1003600086008701413F8A00403F0A008131F90041
:10037000FA017A08003A0319BE29A7297908013A37
:100380000319A729033A03199F29013A0319A3293D
:10039000073A0319A729A72941013C101730A03EAD
:1003A00086008701403F84008501810A00088C3166
:1003B0006824813101304101B8020030B93B38086E
:1003C0003904031DE429E529E7290630E82903302B
:1003D00008004001C8002A30CC000230CA000030BA
:1003E000CB00400148088431EF248131003A0319E1
:1003F000FA29FB29F1292630F5000E30F6004C30A1
:10040000F7008D317C2581310130F1000030F200A0
:1004100047308D31E72581310030F500F60000309E
:10042000F700F8008D31872581318C319A24813194
:100430008F31532781314001C90049030319212A13
:10044000222A182A4908031D262A272A282A322A5E
:10045000FF30CA07FF30CB3D4A084B04031D312A49
:10046000322AF1294C08080040019C0131309800E3
:100470009901C1309A0008309600DE309200EF30CA
:100480009300253094007E01CE01C930C3000E30A8
:10049000B800E501C401B901CF01E601BA01C50107
:1004A000D001FF30BB00FF30C600FF30D1003F302D
:1004B000BC003F30C7003F30D2003F133E133D1712
:1004C0003030F1000C30F2008C31FE2482314E01CC
:1004D000161609307D01C50013307E0199001430D5
:1004E0009A002530A4000F309C0015307D01CD000E
:1004F0000A30C6000D30CB0008004701A001AD3026
:100500008231C2228231A0304001C3000330C400D6
:10051000FF3047012D054001C5000F3047012E0572
:100520004001C6008E31E4268231A0304001C30074
:100530000330C400FF3047012F054001C5000F30D4
:10054000470130054001C6008E31E4268231A030DB
:100550004001C3000330C400FF30470131054001B2
:10056000C5000F30470132054001C6008E31E42638
:100570008231A030F7000330F80058308031A820D5
:10058000823108004001D3008E318C268231003A3E
:100590000319CB2ACC2AC42A54308531B1258231A3
:1005A000400153088600033087005408C03F5508B7
:1005B000C13F8E319D268231003A0319E02AE12A9B
:1005C000D92A543085318325823140015308023EB7
:1005D0008600033087005408C03F5508C13F8E3164
:1005E000AE268231003A0319F62AF72AEF2A543050
:1005F00085315525823140015308043E8600033081
:1006000087005408C03F5508C13F08004001CD0095
:1006100040014D088431EF248331003A0319112B36
:10062000122B082B3730F5000E30F6004E30F70055
:100630008D317C2583310130F1000030F2004730EC
:100640008D31E72583310030F500F6000030F700EA
:10065000F8008D31872583318C319A2483318F3195
:1006600053278331013A0319362B372B2F2B4001A7
:100670004F08CA004E08C9004A08C900CA014E08FE
:10068000CC00CB0149084B04C7004A084C04C80001
:10069000080041013708860087018C314A248331E4
:1006A00081000130F90079084101B7070130B80233
:1006B0000030B93B3808390403195F2B602B652BD8
:1006C0008C316424833105308B2BBC156F2B8C311E
:1006D000902483318B2B8C318B2483318B2B2C08F2
:1006E000F80021088A0020080A008331F900FA0185
:1006F0007A08003A03197D2B6B2B7908013A03190C
:100700006B2B033A0319672B013A0319672B073A3E
:1007100003196B2B6B2B08004E0199137E30F100EF
:100720000430F2008C31F22483314E011913AC30C5
:10073000F1000730F2008C31F82483310830540185
:100740009F0090309D0024309E0040309B0003307D
:100750009C002F30F1000C30F2008C31E624833104
:100760005C30F1000C30F2008C31EC2483315830D5
:10077000F1000C30F2008C31E02483314001B201F1
:10078000B701B6010830B500FC01B401B3014E0158
:10079000991708004E0199120830F1000430F20058
:1007A0008C31D42483314E0119128A30F100073084
:1007B000F2008C31DA248331083042019F009030FE
:1007C0009D0024309E0040309B0003309C002E3062
:1007D000F1000C30F2008C31C82483315430F10028
:1007E0000C30F2008C31CE2483315030F1000C30CB
:1007F000F2008C31C22483314001AB01B101B00160
:100800000830AF00AE01AD01AC014E0199160800F1
:1008100040012E08BD3E86008701810142011D1D59
:10082000122C132C1F2C40012E08BD3E8600870180
:10083000811442015A088A0059080A008431420191
:100840009D1C232C242C302C40012E08BD3E8600FC
:1008500087010115420158088A0057080A008431AF
:1008600040012E08BD3E8600870101080319392C7E
:100870003A2C412C420156088A0055080A0084315E
:10088000442C8F31B327843108004001C501D901C0
:10089000602C5908343E840090300318013E8500D6
:1008A0000008D8004530F6000030F7005808F8007E
:1008B0008431B724843101304001C3004308D90793
:1008C0003430F1009030F2008F31CC278431400178
:1008D0005908C300C40172084402031D712C710839
:1008E0004302031C742C752C492C4530F700003052
:1008F000F80056308031A820843108007C08D53EAD
:1009000086008701810154011D1D872C882C932CA2
:100910007C08D53E86008701811441016E088A005B
:100920006D080A00843154019D1C972C982CA32C2F
:100930007C08D53E860087010115420162088A00C5
:1009400061080A0084317C08D53E860087010108D1
:100950000319AB2CAC2CB32C420160088A005F0851
:100960000A008431B62C8F313B2784310800770888
:10097000F2007608F1008F31CC2784317108F60738
:100980007208F73D780E0F398919F0380F39443E57
:100990008600013087000108F90076088600770894
:1009A0008700790881000130F6070030F73D7808AC
:1009B0000F39443E8600013087000108F9007608AF
:1009C000860077088700790881000130F60700303B
:1009D000F73D760886007708870081010800F1005E
:1009E000F201F20A41013C19F62CF72C232D710873
:1009F000B600BC103C153C100E30BA00F430B40008
:100A00000130B500BC153130A0000C30A100AC01A4
:100A10003130A2000C30A300AD013130A4000C3005
:100A2000A500AE013130A6000C30A700AF01333075
:100A3000A8000C30A900B0018C31352484318D31EF
:100A4000CD258431F201720808008C31B62485313D
:100A50004001C600C3014330F6000030F7004608ED
:100A6000F8008431B72485314330F7000030F800B6
:100A70004C308031A82085318C319F248531103E47
:100A80004001C600C3014330F6000030F7004608BD
:100A9000F8008431B72485314330F7000030F80086
:100AA0004C308031A820853108004001D0008E31C3
:100AB000AE268531003A03195E2D5F2D572D063085
:100AC0004001C70019308131E92185314001D10051
:100AD0000730C70019308131E92185314001D2004A
:100AE0005208CE005108CD000430CF004E0DCE0C80
:100AF000CD0CCF0B762D5008860087014D08C03FE6
:100B00004E08C13F08004001D0008E319D2685313E
:100B1000003A03198C2D8D2D852D04304001C7001E
:100B200019308131E92185314001D1000530C700FC
:100B300019308131E92185314001D2005208CE00BF
:100B40005108CD000430CF004E0DCE0CCD0CCF0B94
:100B5000A42D5008860087014D08C03F4E08C13FB4
:100B600008004001D0008E318C268531003A0319EF
:100B7000BA2DBB2DB32D02304001C7001930813191
:100B8000E92185314001D1000330C700193081319E
:100B9000E92185314001D2005208CE005108CD0034
:100BA0000430CF004E0DCE0CCD0CCF0BD22D500803
:100BB000860087014D08C03F4E08C13F0800410133
:100BC000BC15EF2D8C317C2485310B2E8C314D24BE
:100BD000853103300B2E8C31812485310B2E2C086E
:100BE000F80021088A0020080A008531F900FA017E
:100BF0007A08003A0319FD2DEB2D7908013A031903
:100C0000EB2D033A0319E22D013A0319E22D073ABD
:100C10000319E62DEB2D08008C3135248631410176
:100C20003C1C132E142E1F2E8C31A4248631003A26
:100C300003191B2E1C2E1F2E0F304101BA0041013B
:100C40003A084001C300C401C335C40DEF30430767
:100C500084000730443D80388500013F8A00003F12
:100C60000A0086314101BA000800D33406348534C5
:100C700006340034003442340D34DA340C34083491
:100C80000434D4340C34003400348A340734CA3485
:100C90000334F9340634AC340634003400343934C7
:100CA0000D34F8340C347E340434F2340C34003413
:100CB0000034AC3407348C34033441013C1002302E
:100CC000BB006A2E8C317C248631842E8C318124A9
:100CD0008631842E2E08F8000430A03E860087015D
:100CE000413F8A00403F0A008631F900FA017A0844
:100CF000003A03197C2E662E7908023A0319622EF7
:100D0000013A0319622E662E080040012F080319CC
:100D10008A2E8B2E852E4E01191A8F2E902E942EF0
:100D2000710842019A00A92E191240013108CD3EE6
:100D300086008701710881000130F2007208B10756
:100D400008303102031CA52EA62EA72EB1010130BA
:100D5000AF024E0119160800400135080319B12EE3
:100D6000B22EAC2E4E01191BB62EB72EBB2E71081B
:100D700054019A00D02E191340013708E53E860031
:100D80008701710881000130F2007208B70708304E
:100D90003702031CCC2ECD2ECE2EB7010130B5026A
:100DA0004E011917080040012C080319D82ED92E1E
:100DB000D32E2D08BD3E860087010108AB002D080B
:100DC000C53E860087010108F2000130F10071087C
:100DD000AD0708302D02031CEE2EEF2EF02EAD01D4
:100DE0004E01991201304001AC024E019916720871
:100DF0000800400133080319FE2EFF2EF92E340897
:100E0000D53E860087010108B2003408DD3E860029
:100E100087010108F2000130F1007108B4070830C1
:100E20003402031C142F152F162FB4014E019913F1
:100E300001304001B3024E019917720808000530D5
:100E40004001C7001830833106238731400148082C
:100E5000DA004708D9005A081F39D7005908D800C6
:100E60005808D200D3015708D400D5015408D50042
:100E7000D40152085404D90053085504DA005A0822
:100E8000D1005908D0000800F40071087204031959
:100E90004A2F4B2F5A2F7435A03E860087017108C8
:100EA000C03F7208C13F7408AC3E860087017308DA
:100EB0008100672F7435A03E860087013130C03F26
:100EC0000C30C13F7408AC3E8600870181010800E8
:100ED0008F31252787315030F100A0308F310F2717
:100EE00087318B170B178131382187318C31B02432
:100EF00087318F31E527873182317D2287318F31EC
:100F00009B278731853125258731843145248731D9
:100F100080315528083040012F020318902F912F5F
:100F2000A92F3008CD3E86008701010842019A00B2
:100F30000130F00070084001B00708303002031C97
:100F4000A22FA32FA42FB0010130F0007008AF072B
:100F5000AB2F4E011912080008304001350203186A
:100F6000B22FB32FCB2F3608E53E8600870101084C
:100F700054019A000130F00070084001B6070830B3
:100F80003602031CC42FC52FC62FB6010130F00056
:100F90007008B507CD2F4E01191308004001C50098
:100FA000C601C60A4101BC18D62FD72FEC2FBC149E
:100FB0004001C60145080319DE2FDF2FE32F410151
:100FC000BA01BA0AE62F02304101BA008C313E2440
:100FD00087318D31C02587314001460808006D34C6
:100FE0000C3430340D3417340D3496340134493414
:100FF000033410340D34DF34053472340C34773458
:101000000C347C340C3481340C3486340C348B3402
:101010000C3490340C3495340C345D340634003484
:101020000034003400340034003400340034003420
:101030000034003400340034003400340034003410
:101040000034003400340034003400340034003400
:0E105000003400340034003400340034003426
:10185C0008000800080001300800053008004E019F
:10186C000F1008004301901208004E0119100800D7
:10187C004301111408004301911408004301111590
:10188C00080043019115080043010C0808004E01A3
:10189C000F1408008F31B3278C31080042011D1240
:1018AC001D1608008F313B278C31080054011D1286
:1018BC001D160800430191161116080043019112E0
:1018CC0011160800F100710843018C000800410159
:1018DC00BC10BB010E3008008C3141248C3101301E
:1018EC0008008C3141248C31023008008C314124A9
:1018FC008C31013008008C3144248C3100300800CC
:10190C008C3164248C31053008008C3160248C318E
:10191C000A3008008C3160248C31093008004101F8
:10192C00BC10BB010E30080000308731CE278C3143
:10193C000800400129080139013C08004301110E3F
:10194C00890C890C013908004E010F1CAE2CAF2CF0
:10195C00AA2C080001304001A8000130A9000800A1
:10196C0040010C0E890C0139013C080040010C0DA2
:10197C000C0D0139013C080072084201D6007108B7
:10198C00D500080072084201DA007108D90008007D
:10199C0072084201D8007108D70008007208420191
:1019AC00DC007108DB00080072084201DE007108DF
:1019BC00DD00080072084201E0007108DF00080039
:1019CC0072084101EE007108ED0008007208420136
:1019DC00E2007108E100080072084001E50071089E
:1019EC00E400080072084001E7007108E6000800F6
:1019FC0072084001E3007108E200080064008001F5
:101A0C000131890B052D0034FE0012001E00FE0B67
:101A1C000B2D003441013C108C3147248D310430A6
:101A2C00080041013C1436358C3168248D3103306B
:101A3C0008007508F2007408F1008E31F9268D311A
:101A4C0008007E013F1F2B2D2C2D2F2D8D31F525C0
:101A5C008D31080041013C140314360D8C3168247F
:101A6C008D310530080040013308031D3E2D402DFB
:101A7C000130412D0030080040012C08031D472D7A
:101A8C00492D01304A2D0030080043018F010830E8
:101A9C00900091014F308D00901208004930840065
:101AAC0086308500013F8A00003F0A008D31080016
:101ABC004F30840086308500013F8A00003F0A00C9
:101ACC008D310800603051018D008F01910106307D
:101ADC0093009001920108004F0196019701980123
:101AEC0099019A019B019C019D0108007608F20066
:101AFC007508F1007708F3000030873144278D31E9
:101B0C0008007608F2007508F1007708F30002303F
:101B1C00873144278D3108007103031D962D972DB5
:101B2C009A2D40011A139C2D40011A1708007103BD
:101B3C00031DA12DA22DA52D40011810A72D40018C
:101B4C00181408007608F1004B30840086308500AC
:101B5C00013F8A00003F0A008D31080040019213BA
:101B6C007103031DBA2DBB2DBD2D9817BE2D9813D7
:101B7C0092170800C72D8C31AA248D3186310C2682
:101B8C008D314101BC18CB2DCC2DC12D080043014A
:101B9C00901AD12DD22DD92D8F01083090009101A2
:101BAC004F308D0090160800FB0087311F278D31B8
:101BBC007B088600870140015008C03F5108C13F97
:101BCC000800F3004101BC1DEC2DED2DF42D730824
:101BDC00B7007208B9007108B800BC1108004001C8
:101BEC00620863040319FB2DFC2D012E63088A0087
:101BFC0062080A008E317E013F1308000230F100AA
:101C0C000030F20078088D31E7258E310030F50078
:101C1C00F600F7018D317C258E310430080001303F
:101C2C00F1000030F20078088D31E7258E3100305C
:101C3C00F500F600F7018D317C258E31043008005B
:101C4C000130F1000030F20078088D31E7258E313B
:101C5C000030F500F600F7018D317C258E31023015
:101C6C0008000230F1000030F20078088D31E725D1
:101C7C008E310030F500F600F7018D317C258E3168
:101C8C00023008000230F1000030F20078088D318B
:101C9C00E7258E310030F500F600F7018D317C25FB
:101CAC008E31043008000130F1000030F200780869
:101CBC008D31E7258E310030F500F600F7018D31BE
:101CCC007C258E31023008000230F1000030F20029
:101CDC0078088D31E7258E310030F500F600F701DC
:101CEC008D317C258E31023008000130F10000303E
:101CFC00F20078088D31E7258E310030F500F600C2
:101D0C00F7018D317C258E31043008000230400102
:101D1C00C70019308131E9218E310139031D972E0D
:101D2C00992E01309A2E0030FB007B0808000430FD
:101D3C004001C70019308131E9218E310139031D71
:101D4C00A82EAA2E0130AB2E0030FB007B08080019
:101D5C0006304001C70019308131E9218E3101393B
:101D6C00031DB92EBB2E0130BC2E0030FB007B08AE
:101D7C00080030343134323433343434353436347E
:101D8C0037343834393441344234433444344534B0
:101D9C004634003447304B019F000B309D00DC3043
:101DAC009C001D084001A1004B011C084001A00033
:101DBC004E018C1290304B019E00080040014408EB
:101DCC00F7004308F6004508F8008431B7248E313B
:101DDC0040014408F7004308F6004608F800843137
:101DEC00B7248E310800022F0B30F3006230890BC0
:101DFC00FD2EF30BFD2E00320130F1020030F23BD0
:101E0C00710A031D0D2F720A031D0D2F0E2FFA2EB2
:101E1C000800F20072080319142F152F232F02301B
:101E2C007102031C1A2F1B2F232F72084001BD00B7
:101E3C007108FF3EBC000130242F003008008D31AA
:101E4C0072258F318D314B258F31823134228F3178
:101E5C008D3168258F318E31D0268F318331CA2355
:101E6C008F3183318C238F3108007C08DD3E860056
:101E7C0087015401190881000130F0007008FC073B
:101E8C0008307C02031C4B2F4C2F4D2FFC010130D2
:101E9C00F00070084001B3070800F101F10A41019C
:101EAC00BC18592F5A2F692F3C11FF30B6008C31BA
:101EBC0035248F318C313B248F318C3138248F3148
:101ECC0041013B08F1007108080078088600870181
:101EDC00403FF100413FF2007808023E8600870146
:101EEC0001088D31E7258F310030F500F600F70140
:101EFC008D317C258F3102300800780886008701EF
:101F0C00403FF100413FF2007808023E8600870115
:101F1C0001088D31E7258F310030F500F600F7010F
:101F2C008D317C258F31023008008C31BC248F31EF
:101F3C004001C300C4014430F6000030F7004308F0
:101F4C00F8008431B7248F314430F7000030F800AA
:101F5C0050308031A8208F31080040012E08C53E3A
:101F6C00860087014201190881000130F0007008D9
:101F7C004001AE0708302E02031CC52FC62FC72FF9
:101F8C00AE010130F0007008AC0708007208F500D3
:101F9C007108F400D52F0130F1070030F23D7108C3
:101FAC008400720885001200031DDD2FDE2FD12F57
:101FBC0074087102F1007508723BF20008004001D0
:101FCC00DB0160308D31DA258F315B304001C3008D
:101FDC000030C4006108C6006008C5008E31E426DC
:101FEC008F315B30F7000030F80054308031A8207E
:101FFC008F310800A8340D3454340D3400340034BF
:10200C005E340D3492340D349D340D34B4340D34AF
:10201C001F340D34003400345334543452344534AA
:10202C0041344D345F344F34503445344E340034E5
:10203C005234653462346F346F34743469346E34B2
:10204C0067340D340A3444344934533443344F34F4
:10205C004E344E34453443345434003431342E34FD
:10206C0031342E343034003445344E3444340D3451
:10207C000A3443344D3444343E34203434349034B4
:04208C003434903424
:020000040001F9
:08000000FF3FFF3FFF3FFF3F00
:0A000E00EC3FFF3F9F3FFF3FFF3F25
:00000001FF
