:0400000080315528CE
:100008007E1480314E01161E0A280B2813280C1E58
:100018000E280F28132885316A25803153280B1F95
:10002800162817285328191F1A281B2826280F1F97
:100038001E281F28262841016F088A006E080A001A
:1000480080315328991F29282A2835288F1F2D28C1
:100058002E28352841016D088A006C080A00803175
:100068005328191E3828392844280F1E3C283D28B3
:10007800442842013A088A0039080A008031532886
:10008800991E4728482853288F1E4B284C28532848
:10009800420138088A0037080A00803153287E1048
:1000A8000900803157288531FB258031EE008531E4
:1000B800FC258031EF00A730840084308500203093
:1000C8008600013087001130853181258031FB01A0
:1000D800FC0120308400003085004C3085318725B4
:1000E8008031A0308400003085004C308531872570
:1000F8008031A0308400013085004030853187256B
:1001080080312030840002308500503085318725C9
:100118008031A03084000230850050308531872539
:1001280080312030840003308500503085318725A8
:100138008031A03084000330850050308531872518
:100148008031203084000430850050308531872587
:1001580080317E1040018431272CF101F10AA13051
:10016800840084308500013F8A00003F0A00803106
:10017800F101F10A9F30840084308500013F8A0034
:10018800003F0A0080310130F4000030F500A33050
:10019800840084308500013F8A00003F0A008031D6
:1001A800F1019F30840084308500013F8A00003FC0
:1001B8000A008031F101F10A9D3084008430850005
:1001C800013F8A00003F0A008031C830F400003047
:1001D800F500A330840084308500013F8A00003F89
:1001E8000A00803100299730840084308500013F5F
:1001F8008A00003F0A0080319B30840084308500EB
:10020800013F8A00003F0A008131003A031D0D2991
:100218000E29F7280800F40043019A1A1429152911
:1002280061297408F100F201F135F20DF135F20D92
:10023800E530710784000530723D8038850000087C
:1002480099007408F100F201F135F20DF135F20D63
:10025800E430710784000530723D8038850000085D
:100268009A009B017408F100F201F135F20DF135A5
:10027800F20DE630710784000530723D8038850044
:10028800000897007408F100F201F135F20DF1351C
:10029800F20DE730710784000530723D8038850023
:1002A8000008F300F30D400114087306FD397306C6
:1002B800940043019A160130622900300800400179
:1002C8009C0131309800990101309A00083096005D
:1002D800DE309200EE309300A83094007E01CE010B
:1002E800E030C3000E30B800E501C401B901CF0108
:1002F800E601BA01C501D0017E30BB00FF30C6005F
:100308003F30D1003F30BC003F30C7003F30D20003
:100318003F133E133D170130F1000630F2008531DE
:100328008D2581314E01161609307D01C500133027
:10033800C90015307E01A1002530A4000F309C00B3
:100348001630A20015307D01CD000A30C6001130EC
:10035800C8007E0199010F30980014309A000B30C4
:100368007D01CB0008004E0199133330F1000230B3
:10037800F2008531992581314E0119135F30F10062
:100388000330F200853193258131083054019F00F4
:1003980090309D0024309E0040309B0003309C002C
:1003A8000230F1000630F2008531A5258131E830B0
:1003B800F1000530F20085319F258131EC30F100E4
:1003C8000530F2008531AB2581314001D601DB01D2
:1003D800DA010830D900FC01D801D7014E0199177C
:1003E80008004E0199126C30F1000230F20085319C
:1003F800B72581314E0119123D30F1000330F2006A
:100408008531B1258131083042019F0090309D002F
:1004180024309E0040309B0003309C000330F100E4
:100428000630F2008531C3258131F030F100053006
:10043800F2008531BD258131F430F1000530F2003C
:100448008531C92581314001D001D501D401083059
:10045800D300FB01D201D1014E01991608007C0896
:100468003D3E86008701810154011D1D3C2A3D2A1D
:10047800482A7C083D3E86008701811442014008D5
:100488008A003F080A00823154019D1C4C2A4D2ADB
:10049800582A7C083D3E86008701011542013E0826
:1004A8008A003D080A0082317C083D3E86008701AB
:1004B80001080319602A612A682A42013C088A0057
:1004C8003B080A0082316B2A8331F7238231080006
:1004D8007B08C43E86008701810142011D1D752AE3
:1004E800762A802A7B08C43E860087018114360854
:1004F8008A0035080A00823142019D1C842A852A17
:100508008F2A7B08C43E86008701011534088A00BB
:1005180033080A0082317B08C43E8600870101083F
:100528000319972A982A9F2A420132088A0031081B
:100538000A008231A22A84310F2482310800F13462
:100548000234003400340034003458340534B134F3
:1005580005346C340234B7340534003400343D3487
:100568000334F534013417340334003400340034D0
:100578000034613405349334053433340234993407
:100588000534003400345F340334B7340134400197
:100598001A104E018C1ED12AD22ACD2A0030813160
:1005A8000F218231003A0319DA2ADB2AEB2A4E019D
:1005B8008C120430F2000030F30077308331C1230D
:1005C800823140011A148531F8258231F02A7708E2
:1005D8008600780887008101080040015108031946
:1005E800F62AF72AF12A5208C43E86008701010834
:1005F800D0005208CC3E860087010108F200013085
:10060800F1007108D20708305202031C0C2B0D2B85
:100618000E2BD2014E01991201304001D1024E0138
:100628009916720808004001570803191C2B1D2B46
:10063800172B58083D3E860087010108D600580848
:10064800DC3E860087010108F2000130F1007108E4
:10065800D80708305802031C322B332B342BD8010F
:100668004E01991301304001D7024E0199177208C3
:1006780008000830400153020318432B442B5C2B1D
:100688005408D43E86008701010842019A000130CF
:10069800F00070084001D40708305402031C552BA1
:1006A800562B572BD4010130F0007008D3075E2B6E
:1006B8004E01191208000830400159020318652B31
:1006C800662B7E2B5A08E43E8600870101085401F8
:1006D8009A000130F00070084001DA0708305A0229
:1006E800031C772B782B792BDA010130F000700886
:1006F800D907802B4E011913080000340034003448
:100708000034003400340034003400340034003441
:100718000034003400340034003400340034003431
:100728000034003400340034003400340034003421
:100738000034003400340034003400340034003411
:100748000034003400340034003400340034003401
:1007580000340034003400340034003400340034F1
:1007680000340034003400340034003400340034E1
:1007780000340034003400340034F5007508F60005
:10078800D12B76088600870100308431D624833146
:1007980081000130F4007408F6070130F2020030DD
:1007A800F33B720A031DDC2B730A031DDC2BDD2BC4
:1007B800C52B080085312725833185314F258331A5
:1007C80084313E2483318131632183318531312560
:1007D80083318431812483318131F5218331813121
:1007E800B721833108007C08DC3E8600870154016C
:1007F800190881000130F0007008FC0708307C02FD
:10080800031C072C082C092CFC010130F00070088F
:100818004001D70708007B08CC3E860087014201CB
:10082800190881000130F0007008FB0708307B02CE
:10083800031C1F2C202C212CFB010130F000700818
:100848004001D10708008331DE2384315030F100A4
:10085800A0308431552484318B170B178031B12097
:1008680084318531CF2584318431B8248431382CC2
:100878008031552811307D01C8001330C90015306A
:100888007E01A1001630A2004030430199000230D9
:100898009A000130970040019410141043019A12F5
:1008A8000800F200720803195A2C5B2C692C0230DC
:1008B8007102031C602C612C692C72084001E10054
:1008C8007108FF3EE00001306A2C00300800742CEB
:1008D8000B30F3006230890B6F2CF30B6F2C003256
:1008E8000130F1020030F23B710A031D7F2C720ABD
:1008F800031D7F2C802C6C2C080047304B019F0077
:100908000B309D00DC309C001D084001C6004B01E7
:100918001C084001C5004E018C1290304B019E000E
:1009280008000034003445340534003400343B34C6
:1009380005341C34053411340534EF34043473346D
:100948000534003400343034313432343334343400
:100958003534363437343834393441344234433416
:10096800443445344634003442014108F900FA0160
:100978007908F7007A08F8008231CB228431853172
:10098800DF258431080040016C086D040319CD2C63
:10099800CE2CD32C6D088A006C080A0084317E01A5
:1009A8003F130800F1007108430196004E010F1D26
:1009B800DE2CDF2CDA2C0F11430116080800533403
:1009C80054345234453441344D345F344F34503408
:1009D80045344E340034400192137103031DF52C45
:1009E800F62CF82C9817F92C981392170800523403
:1009F800653462346F346F34743469346E346734F8
:100A08000D340A3444344934533443344F344E3467
:100A18004E3445344334543400347103031D152DCA
:100A2800162D192D400118101B2D4001181408000F
:100A38007103031D202D212D242D40011A13262D6D
:100A480040011A1708004F01960197019801990172
:100A58009A019B019C019D010800603051018D00A5
:100A68008F01910106309300900192010800BD307A
:100A7800840082308500013F8A00003F0A008531EA
:100A88000800B730840082308500013F8A00003FAB
:100A98000A008531080043018F0108309000910158
:100AA8004F308D009012080040015108031D5D2D44
:100AB8005F2D0130602D0030080040015708031DEC
:100AC800662D682D0130692D003008007E013F1F1A
:100AD8006E2D6F2D722D8431C7248531080075085D
:100AE800F2007408F10084316B2485310800313438
:100AF8002E3431342E3430340034FE0012001E00FF
:100B0800FE0B822D0034640080010131890B882D91
:100B1800003472084001ED007108EC00080072080A
:100B28004101EF007108EE00080072084101ED0074
:100B38007108EC00080072084201BE007108BD008F
:100B4800080072084201C0007108BF00080072085E
:100B58004201BC007108BB00080072084201BA00DB
:100B68007108B900080072084201B8007108B7009E
:100B7800080072084201B4007108B3000800720846
:100B88004201B6007108B500080072084201B200BF
:100B98007108B100080001304001CD000130CE00DD
:100BA800080045344E3444340D340A3443344D344B
:100BB80044343E3420344E010C0E890C01390800AF
:100BC800023440340134003454011D121D1608004B
:100BD8008331F7238531080042011D121D160800D4
:100BE80084310F248531080043019A1208003034FB
:100BF80030347B3485347B348534080008000800A1
:020000040001F9
:08000000FF3FFF3FFF3FFF3F00
:0A000E00EC3FFF3F9F3FFF3FFF3F25
:00000001FF
