:1000000080315528303430347E1480314E01161E34
:100010000A280B2813280C1E0E280F2813289731A6
:10002000F727803153280B1F162817285328191F2C
:100030001A281B2826280F1F1E281F2826284301A0
:1000400033088A0032080A0080315328991F292872
:100050002A2835288F1F2D282E28352843013108BE
:100060008A0030080A0080315328191E38283928A0
:1000700044280F1E3C283D284428430129088A00B3
:1000800028080A0080315328991E472848285328F9
:100090008F1E4B284C285328430127088A00260826
:1000A0000A00803153287E10090080315728410111
:1000B000803102208031E800803103208031E90066
:1000C0007330840089308500B430860001308700A9
:1000D00011308731FA278031FC014001EF01A03057
:1000E00084000030850046309731D227803120309F
:1000F00084000130850050309731D2278031C530DF
:1001000084000130850010309731D22780312030B3
:1001100084000230850040309731D2278031A030F2
:1001200084000230850050309731D2278031203052
:1001300084000330850050309731D2278031A030C1
:1001400084000330850050309731D22780317E10F3
:1001500040018531082D40012D088039BA002D3528
:10016000BC00AC1FB428B528B6283C143C080319C1
:10017000BA28BB28CB283C0A031DBF28C028C828A2
:100180000030AD000030AC000030AB000030AA0001
:10019000AC17AD01D3280030AD000030AC0000300A
:1001A000AB000030AA0031088039BB003B083A069A
:1001B0000319DB28DC28DD283A173135BB00B01FD6
:1001C000E228E328E4283B143B080319E828E9283F
:1001D000F9283B0A031DED28EE28F6280030B1006F
:1001E0000030B0000030AF000030AE00B017B101F9
:1001F00001290030B1000030B0000030AF00003005
:10020000AE003C083B020318062907292D293A1F96
:100210000A290B290F298030B2003208BA063C089F
:10022000BD003B08BC003D08BB002A08BD002E08ED
:10023000AA003D08AE002B08BD002F08AB003D080A
:10024000AF002C08BD003008AC003D08B0002D0800
:10025000BD003108AD003D08B100BD013B08B20052
:10026000B3013308B5003C083202B400031CB503E7
:100270003508803AB60080303602031D41291A3015
:100280003402031C44294529772940012D082C04F8
:100290002B042A04031D4D294F2901305029003019
:1002A000BD000030AD000030AC000030AB000030CD
:1002B000AA003B08BC007E293D1C5F2960296429F7
:1002C0003D360138BD0066290310BD0C2A1C692982
:1002D0006A296B29BD170130B200AD37AC0CAB0CED
:1002E000AA0CB20B6D290130B2003208BC074001E4
:1002F0003B083C02031C7D297E295C293A1B81298D
:100300008229B8293C08031D8629872990290030B5
:10031000AD000030AC000030AB000030AA00B22AC3
:100320002E08AA072F08AB3D3008AC3D3108AD3D83
:100330002D1C9B299C29442A3D1C9F29A029A429C6
:100340003D360138BD00A6290310BD0C2A1CA92981
:10035000AA29AB29BD170130B200AD37AC0CAB0CEC
:10036000AA0CB20BAD290130B2003208BC07442AF6
:100370002D08803AB2003108803A3202031DCA29A2
:1003800030082C02031DCA292F082B02031DCA297D
:100390002E082A020318CD29CE29062AFF30B200E2
:1003A000FF30B300FF30B400FF30B5002A082E0242
:1003B000B6002B082F3BB7002C08303BB8002D08A7
:1003C000313BB9003608B2073708B33D3808B43DB1
:1003D0003908B53D3508AD003408AC003308AB0032
:1003E0003208AA008030B2003208BA06BD09BD0A40
:1003F0003D08031DFC29FD290E2A0130AA07003003
:10040000AB3D0030AC3D0030AD3D0E2A2E08AA02B7
:100410002F08AB3B3008AC3B3108AD3B2D082C041A
:100420002B042A04031D152A162A402A3D08031D01
:100430001A2A1B2A402A0030AD000030AC000030E0
:10044000AB000030AA00B22A0130AA35AB0DAC0DCA
:10045000AD0D890B252ABD1F2E2A2F2A302A2A14DA
:100460003D1C332A342A372A0314BD0D392A0310C0
:10047000BD0D3C0803193D2A3E2A402A0130BC022A
:10048000AC1F432A442A242ABB01BD1F482A492AFB
:10049000572A3D087F3903194E2A4F2A522ABB0199
:1004A000BB0A572A2A1C552A562A572A4F2A3B0884
:1004B00003195B2A5C2A892A0130AA070030AB3D68
:1004C0000030AC3D0030AD3D2D1C672A682A892ADA
:1004D0002A08B2002B08B3002C08B4002D08B50080
:1004E0000130B600B537B40CB30CB20CB60B722A9F
:1004F0003508AD003408AC003308AB003208AA0060
:100500003C0A0319842A852A892A0130B20032085C
:10051000BC073C0A03198D2A8E2A932A3C08031D26
:10052000922A932AA12A0030AD000030AC0000309E
:10053000AB000030AA003C08031D9F2AA02AA12A74
:10054000BA013C1CA42AA52AA72AAC17AB2A7F30E3
:10055000B2003208AC053C36AD00BA1FB02AB12A51
:10056000B22AAD170800400145088039CF00453553
:10057000D600C41FBC2ABD2ABE2A56145608031929
:10058000C22AC32AD32A560A031DC72AC82AD02A38
:100590000030C5000030C4000030C3000030C2008D
:1005A000C417C501DB2A0030C5000030C40000308C
:1005B000C3000030C20041088039C6004608CF069B
:1005C0004135D700C01FE52AE62AE72A5714570805
:1005D0000319EB2AEC2AFC2A570A031DF02AF12AF8
:1005E000F92A0030C1000030C0000030BF000030E8
:1005F000BE00C017C101042B0030C1000030C00094
:100600000030BF000030BE00410840043F043E04FB
:10061000031D0B2B0C2B252B0030C5000030C40014
:100620000030C3000030C2008030C4047F30C504F5
:100630004F08C6004608C5044508C1004408C0006C
:100640004308BF004208BE005C2C5608031D292B3E
:100650002A2B332B0030C1000030C0000030BF0017
:100660000030BE005C2C5608C600C7014708C90010
:1006700057084602C800031CC90348087F3ED00043
:100680000030493DD1004508CE004408CD00430864
:10069000CC004208CB000030C5000030C400003060
:1006A000C3000030C2000030D5000030D40000305C
:1006B000D3000030D200D7019B2B57080319612BC0
:1006C000622B7C2B0130CB35CC0DCD0DCE0D890BA3
:1006D000632B0130C235C30DC40DC50D890B6A2BC8
:1006E000D51F732B742B752B42140130D235D30DCB
:1006F000D40DD50D890B762B41084E02031D8A2B94
:1007000040084D02031D8A2B3F084C02031D8A2B13
:100710003E084B02031C8D2B8E2B972B55173E0842
:10072000CB023F08CC3B4008CD3B4108CE3B0130DB
:10073000C6004608D7071A305702031CA02BA12B6E
:100740005D2B4E084D044C044B040319A82BA92B18
:10075000C22B5214C22B0130C235C30DC40DC50DBE
:10076000890BAC2BD51FB52BB62BB72B4214013000
:10077000D235D30DD40DD50D890BB82BFF30D00752
:10078000FF30D13DC41FC52BC62BAB2BD701D51FC6
:10079000CA2BCB2BE72BFF305205C600FF30530589
:1007A000C700FF305405C8007F305505C90049080F
:1007B0004804470446040319DE2BDF2BE22BD70144
:1007C000D70AE72B421CE52BE62BE72BDF2B57083C
:1007D0000319EB2BEC2B142C0130C2070030C33D66
:1007E0000030C43D0030C53D451CF72BF82B142CC0
:1007F0004208C6004308C7004408C8004508C900AD
:100800000130CA00C937C80CC70CC60CCA0B022C71
:100810004908C5004808C4004708C3004608C2008C
:100820000130D0070030D13D5108803AC6008030F9
:100830004602031D1D2CFF305002031C202C212CCE
:100840002E2CFF304001D0000030D1000030C50018
:100850000030C4000030C3000030C2004001510825
:10086000803AC60080304602031D382C0130500209
:1008700003183B2C3C2C482C4001D001D101003006
:10088000C5000030C4000030C3000030C200CF01FA
:1008900040015008D600561C4E2C4F2C512CC4172A
:1008A000552C7F30C6004608C4055636C5004F0893
:1008B000C6004608C5041C2B08004001A4002408FB
:1008C0000319632C642C782CFA1F672C682C782C65
:1008D0007709A6007809A7007909A8007A09A90074
:1008E000A60A0319A70A0319A80A0319A90A802C42
:1008F0007A08A9007908A8007808A7007708A60058
:100900007A08790478047704031D872C882C912CAD
:100910000030FA000030F9000030F8000030F70035
:10092000072D9630A5009F2C0130A0002008A507B8
:100930000130A936A80CA70CA60C890B992CFE3007
:100940002905031DA42CA52C942CB92C0130A00042
:100950002008A5070130A6070030A73D0030A83DBC
:100960000030A93D0130A936A80CA70CA60C890BB4
:10097000B32CFF302905031DBE2CBF2CA62CC92C7F
:100980000130A5020130A635A70DA80DA90D890BD0
:10099000C32CA81BCC2CCD2CD32C02302502031841
:1009A000D22CD32CC02C2518D62CD72CDF2CFF30E2
:1009B000A605FF30A7057F30A805FF30A905031065
:1009C000A50C2508A000A101A201A3011830A035A3
:1009D000A10DA20DA30D890BE72C2008A604210868
:1009E000A7042208A8042308A90424080319F92C41
:1009F000FA2CFF2CFA1FFD2CFE2CFF2CA91729081E
:100A0000FA002808F9002708F8002608F70008006F
:100A10008931AE2185312030F1000330F2005030B1
:100A2000F3008931C42185318B170B178F31A22731
:100A3000853197317E27853101308D3173258531A0
:100A400087310E27853140015B084201EF004001EC
:100A50005A084201EE00400159084201ED004001F0
:100A600058084201EC0085319125853140015B0831
:100A70004101C00040015A084101BF00400159082E
:100A80004101BE00400158084101BD008631912658
:100A9000853140015B084201EB0040015A084201E8
:100AA000EA00400159084201E900400158084201AA
:100AB000E80086311426853140015B084201E700D9
:100AC00040015A084201E600400159084201E50090
:100AD000400158084201E4000030FB00023084006D
:100AE00090308500013F8A00003F0A0085314101B6
:100AF0004008F4003F08F3003E08F2003D08F10012
:100B000087318A2785317108FB00023084009030DC
:100B10008500013F8A00003F0A008531202D803189
:100B2000552813308831DB2085314001E90012302F
:100B30008831DB2085314001EA006A08DC00DD01F4
:100B40005C08DD00DC016908DF00E001DF1BE00379
:100B50005C085F07EB005D08603DEC008A31D8223D
:100B600085314001EE00ED016E08031DB82DB92D51
:100B7000BC2D2830ED00C32D6E03031DC02DC12DEB
:100B8000C32D5030ED004730E4000030E30000306A
:100B9000E2000030E1006408C1006308C0006208A0
:100BA000BF006108BE006C08F4006B08F3006D081C
:100BB000DC00DD015C08F1005D08F2008A3177227B
:100BC000853171094001DE007209DF00DE0A031978
:100BD000DF0A5E08F7005F08F800890D893B890984
:100BE000F900FA00013084315D2485317A08400132
:100BF000C5007908C4007808C3007708C2008231B4
:100C0000B322853140014108E8004008E7003F0871
:100C1000E6003E08E5006808DB006708DA006608C1
:100C2000D9006508D80008004001EC011730883170
:100C3000DB2086314001EB0016308831DB20863125
:100C40004001EC006C08DC00DD015C08DD00DC012B
:100C50006B08DF00E001DF1BE0035C085F07E900D1
:100C60005D08603DEA008A31B72286314001EE001E
:100C7000ED016E08031D3D2E3E2E412E2830ED0065
:100C8000482E6E03031D452E462E482E5030ED0093
:100C90004730E4000030E3000030E2000030E100C3
:100CA0006408C1006308C0006208BF006108BE009C
:100CB0006A08F4006908F3006D08DC00DD015C08D7
:100CC000F1005D08F2008A31772286317108F70061
:100CD0007208F800890D893B8909F900FA00013092
:100CE00084315D2486317A084001C5007908C4004A
:100CF0007808C3007708C2008231B32286314001F0
:100D00004108E8004008E7003F08E6003E08E5002B
:100D10006808DB006708DA006608D9006508D800B3
:100D200008004001EC0115308831DB20863140019C
:100D3000EB0014308831DB2086314001EC006C0878
:100D4000DC00DD015C08DD00DC016B08DF00E00198
:100D5000DF1BE0035C085F07E9005D08603DEA0017
:100D60008A31D82286314001EE00ED016E08031D64
:100D7000BA2EBB2EBE2E2830ED00C52E6E03031DED
:100D8000C22EC32EC52E5030ED004730E400003097
:100D9000E3000030E2000030E1006408C1006308B5
:100DA000C0006208BF006108BE006A08F40069085C
:100DB000F3006D08DC00DD015C08F1005D08F20065
:100DC0008A31772286317108F7007208F800890DA0
:100DD000893B8909F900FA00013084315D248631AC
:100DE0007A084001C5007908C4007808C300770874
:100DF000C2008231B322863140014108E800400838
:100E0000E7003F08E6003E08E5006808DB006708E9
:100E1000DA006608D9006508D80008006B30400188
:100E2000A7000230A80010308831CB208731400164
:100E30006C08DC00DD016B08DE00DF015E08DF000E
:100E4000DE015C085E04E9005D085F04EA004230F0
:100E5000C1007030C0006630BF006630BE00C630D2
:100E6000AD008830AC00C830AB000030AA00690883
:100E7000F7006A08F800890D893B8909F900FA0032
:100E8000013084315D2487317A084001B10079084E
:100E9000B0007808AF007708AE008031AB20873112
:100EA00040012D08C5002C08C4002B08C3002A08E7
:100EB000C2008231B322873140014108E800400876
:100EC000E7003F08E6003E08E5004130AD00C830CD
:100ED000AC000030AB000030AA006808B100670821
:100EE000B0006608AF006508AE008031AB208731E6
:100EF00040012D08E4002C08E3002B08E2002A083A
:100F0000E1006408DB006308DA006208D9006108C8
:100F1000D80008000310730D740DFA007A08031D41
:100F2000922F932F9C2F0030F4000030F3000030FC
:100F3000F2000030F100F92F7108F5007208F60098
:100F40007308F7007408F8001F30F836F70CF60C39
:100F5000F50C890BA52F7508F900F317FF30F10583
:100F6000FF30F205FF30F3050030F4059630FA0249
:100F7000FA1FBB2FBC2FD42F7A08803A973E031854
:100F8000C22FC32FC42F932F0130F436F30CF20C71
:100F9000F10C890BC52F0130F5007508FA07031D08
:100FA000D22FD32FC42FE92F20307A02031CD92F40
:100FB000DA2FE42F932F0130F135F20DF30DF40DFC
:100FC000890BDC2F0130FA027A08031DE82FE92F84
:100FD000DB2F79080319ED2FEE2FF92FF109F20914
:100FE000F309F409F10A0319F20A0319F30A0319C0
:100FF000F40A0800FE0012001E00FE0BFB2F003456
:1010000000308A3196228831080041015808031DBA
:101010000A280C2801300D28003008004101520830
:10102000031D13281528013016280030080043013D
:101030008F010830900091014F308D009012080010
:1010400041013C140314360D973147278831053090
:1010500008001430840090308500013F8A00003F72
:101060000A00883108001A30840090308500013F62
:101070008A00003F0A0088310800603051018D006D
:101080008F019101063093009001920108004F01F9
:1010900096019701980199019A019B019C019D017C
:1010A00008007103031D55285628592840011A13BA
:1010B0005B2840011A1708007103031D602861288E
:1010C00064284001181066284001181408007608AA
:1010D000F2007508F1007708F30000308B314023EF
:1010E000883108007608F2007508F1007708F300EF
:1010F00002308B314023883108004001A7002708C7
:10110000A4002608A50022308C31D02488310800A4
:10111000400192137103031D8E288F289128981780
:1011200092289813921708009B289731CC27883172
:101130008C31262488314101BC189F28A02895288D
:1011400008004301901AA528A628AD288F01083071
:10115000900091014F308D0090160800F30041017E
:10116000BC1DB328B428BB287308B7007208B900A7
:101170007108B800BC110800410166086704031932
:10118000C228C328C82867088A0066080A00883170
:101190007E013F1308004001AB002730A40028085F
:1011A000A900AA012908A5002A08A6002B088A314F
:1011B0005822883108004001A700A8012830A40067
:1011C0000230A5000030A60027088A315822883155
:1011D0004001280808000230F1000030F2007808D1
:1011E0008831AE2088310030F500F600F7018831F3
:1011F00067208831043008000130F1000030F2002F
:1012000078088831AE2088310030F500F600F7010B
:10121000883167208831043008000130F100003047
:10122000F20078088831AE2089310030F500F600F0
:10123000F701883167208931023008000230F1005F
:101240000030F20078088831AE2089310030F50096
:10125000F600F7018831672089310230080002303A
:10126000F1000030F20078088831AE20893100307A
:10127000F500F600F7018831672089310430080055
:101280000130F1000030F20078088831AE20893159
:101290000030F500F600F70188316720893102300F
:1012A00008000230F1000030F20078088831AE20EA
:1012B00089310030F500F600F70188316720893167
:1012C000023008000130F1000030F2007808883167
:1012D000AE2089310030F500F600F7018831672033
:1012E000893104300800303431343234333434340A
:1012F0003534363437343834393441344234433475
:10130000443445344634003447304B019F000B30A1
:101310009D00DC309C001D084101C2004B011C08EF
:101320004101C1004E018C1290304B019E0008001B
:10133000A1290B30F3006230890B9C29F30B9C2907
:1013400000320130F1020030F23B710A031DAC297A
:10135000720A031DAC29AD2999290800883147205C
:1013600089318831172089318E31B226893188310F
:101370003D2089318931842189318D31EE258931B2
:101380008D31B02589310800710872040319C9290B
:10139000CA29DA2902307302031CCF29D029DA299D
:1013A00072084101C6007108C5007308FF3EE000E5
:1013B0000130DB2900300800F101F10A4101BC18BD
:1013C000E229E329F2293C11FF30B60097311427B6
:1013D000893197311A27893197311727893141018E
:1013E0003B08F10071080800780886008701403F3B
:1013F000F100413FF2007808023E860087010108B3
:101400008831AE2089310030F500F600F7018831CF
:101410006720893102300800780886008701403F44
:10142000F100413FF2007808023E86008701010882
:101430008831AE208A310030F500F600F70188319E
:1014400067208A31023008007C08543E8600013053
:1014500087005401190881000130F0007008FC0772
:1014600008307C02031C352A362A372AFC01013059
:10147000F00070084101D807080040016F08C53E20
:101480008600013087004201190881000130F00018
:1014900070084001EF0708306F02031C502A512AE0
:1014A000522AEF010130F00070084101D207080014
:1014B000FB007B088D3100258A31003A0319612A2F
:1014C000622A592A40012608F2002508F100240862
:1014D0008831AE208A31973179278A318931DC21F0
:1014E0008A31013A0319752A762A6E2A0800F50115
:1014F000F601711C7C2A7D2A812A7308F50774087D
:10150000F63D0130F335F40D890B822A0130F236B5
:10151000F10C890B872A71087204031D902A912A05
:10152000792A7608F2007508F10008004001A2004F
:10153000A301A30A4101BC189E2A9F2AB42ABC1405
:101540004001A30122080319A62AA72AAB2A4101B8
:10155000BA01BA0AAE2A02304101BA0097311D27FA
:101560008A31883194208A314001230808000330F1
:101570008831DB208A314001AB002B08A900AA0189
:101580002908F1002A08F200F3018B3164238A3123
:101590004001AC002C08031DCE2ACF2AD12A0030EE
:1015A000D72A2C03031DD52AD62ACF2A01300800BA
:1015B00003308831DB208A314001AB002B08A900C1
:1015C000AA012908F1002A08F200F301F30A8B317D
:1015D00064238A314001AC002C08031DF02AF12A53
:1015E000F32A0030F92A2C03031DF72AF82AF12ADE
:1015F00001300800083041015A020318002B012B6A
:101600001A2B5B085C3E86000130870001085401FC
:101610009A000130F00070084101DB0708305B02DE
:10162000031C132B142B152BDB010130F000700869
:10163000DA071C2B4E01191308000830410154022F
:101640000318232B242B3D2B5508CD3E860001305B
:101650008700010842019A000130F0007008410142
:10166000D50708305502031C362B372B382BD501F4
:101670000130F0007008D4073F2B4E01191208000A
:10168000F400710872040319462B472B562B74354E
:10169000A03E860087017108C03F7208C13F7408F0
:1016A000AC3E8600870173088100632B7435A03E31
:1016B000860087011030C03F1730C13F7408AC3E30
:1016C00086008701810108000130F4000030F50038
:1016D000730A6C2BF435F50D890B6A2B74087504AD
:1016E0000319732B752B0130762B0030F600F701B0
:1016F00071087605F80072087705F9007808790412
:101700000319832B842B862B0030872B0130080094
:101710007108F800F60108307302031C902B912B1E
:10172000A02B7408F5007308F93E890A982BF5354B
:10173000890B972B7508F70076087704F600AD2B18
:101740007408F500730AA52BF535890BA42B7508D1
:10175000F70078087704F8009F2B0800410158082B
:101760000319B32BB42BAE2B59084C3E8600013025
:1017700087000108D7005908543E860001308700D1
:101780000108F2000130F1007108D9070830590250
:10179000031CCB2BCC2BCD2BD9014E01991301303F
:1017A0004101D8024E019917720808004101520800
:1017B0000319DB2BDC2BD62B5308443E860001306B
:1017C00087000108D1005308C53E8600013087001C
:1017D0000108F2000130F1007108D307083053020C
:1017E000031CF32BF42BF52BD3014E01991201307E
:1017F0004101D2024E0199167208080041013C10C5
:101800000230BB000B2C97315B278B31252C973195
:1018100060278B31252C2E08F8000430A03E86006E
:101820008701413F8A00403F0A008C31F900FA01EC
:101830007A08003A03191D2C072C7908023A03197B
:10184000032C013A0319032C072C080097311427A5
:101850008C3141013C1C2D2C2E2C392C9731C62764
:101860008C31003A0319352C362C392C0F304101BC
:10187000BA0041013A084001A000A101A035A10D24
:101880002830200784001030213D80388500013F3A
:101890008A00003F0A008C314101BA000800410172
:1018A0005A080319542C552C4F2C4E01191B592C36
:1018B0005A2C5E2C7B0854019A00762C1913410196
:1018C0005C085C3E8600013087007B0881000130A7
:1018D0004001A00020084101DC0708305C02031C25
:1018E000722C732C742CDC010130DA024E011917B2
:1018F00008004101540803197E2C7F2C792C4E01DD
:10190000191A832C842C882C7B0842019A00A02C65
:10191000191241015608CD3E8600013087007B0830
:10192000810001304001A00020084101D6070830A5
:101930005602031C9C2C9D2C9E2CD6010130D402F7
:101940004E01191608004101BC15B32C97315B27D5
:101950008C31CF2C97312C278C310330CF2C973101
:1019600060278C31CF2C2C08F80021088A00200831
:101970000A008C31F900FA017A08003A0319C12CE7
:10198000AF2C7908013A0319AF2C033A0319A62C9E
:10199000013A0319A62C073A0319AA2CAF2C080008
:1019A000FB007B088D3100258C31003A0319D92CBE
:1019B000DA2CD12CFC30F5000830F6002530F70089
:1019C000883167208C310130F1000030F200243082
:1019D0008831AE208C310030F500F6000030F70081
:1019E000F800883172208C31883100208C318931A7
:1019F000DC218C31013A0319FE2CFF2CF72C080056
:101A0000F100F201F20A41013C19072D082D342D95
:101A10007108B600BC103C153C100E30BA00F43012
:101A2000B4000130B500BC151030A0001730A10083
:101A3000AC011030A2001730A300AD011030A4009B
:101A40001730A500AE011030A6001730A700AF0177
:101A50001230A8001730A900B001973114278D313A
:101A60008831A1208D31F201720808007C084C3EBB
:101A7000860001308700810154011D1D402D412D3C
:101A80004D2D7C084C3E86000130870081144301B7
:101A90002F088A002E080A008D3154019D1C512DFB
:101AA000522D5E2D7C084C3E8600013087000115CA
:101AB00043012D088A002C080A008D317C084C3E19
:101AC00086000130870001080319672D682D6F2DEE
:101AD00043012B088A002A080A008D31722D8A31B1
:101AE00024228D3108004001B30007308831DB200B
:101AF0008D314001B100B2013108B4003208B500A7
:101B00003308031D842D852D962D3508F2003408E9
:101B1000F100F301F4018B3188238D314001340849
:101B2000A600073088317D208D31AC2D3303031D95
:101B30009A2D9B2DAC2D3508F2003408F100F301ED
:101B4000F401F40A8B3188238D3140013408A6005A
:101B5000073088317D208D318F314E278D3108003F
:101B60004E0199133630F1000D30F2009731B42751
:101B70008D314E011913FA30F1000A30F20097311D
:101B8000BA278D31083054019F0090309D002430D9
:101B90009E0040309B0003309C000E30F100173057
:101BA000F2009731A8278D313B30F1001730F20059
:101BB0009731AE278D313730F1001730F200973171
:101BC000A2278D314101D701DC01DB010830DA00A9
:101BD000FC01D901D8014E01991708004E01991254
:101BE0002E30F1000E30F200973196278D314E01E4
:101BF00019121D30F1000B30F20097319C278D3106
:101C0000083042019F0090309D0024309E004030FB
:101C10009B0003309C000D30F1001730F20097312B
:101C20008A278D313330F1001730F2009731902739
:101C30008D312F30F1001730F200973184278D312C
:101C40004101D101D601D5010830D4004001EF0196
:101C50004101D301D2014E019916080040016F08DD
:101C6000443E860001308700810142011D1D392E4E
:101C70003A2E472E40016F08443E8600013087000F
:101C80008114430125088A0024080A008E3142018C
:101C90009D1C4B2E4C2E592E40016F08443E860051
:101CA000013087000115430123088A0022080A0039
:101CB0008E3140016F08443E8600013087000108E4
:101CC0000319632E642E6B2E430121088A0020081D
:101CD0000A008E316E2E8A313D228E31080041017C
:101CE000370886008701973129278E31810001301E
:101CF000F90079084101B7070130B8020030B93B5B
:101D0000380839040319852E862E8B2E97314327E8
:101D10008E310530B12EBC15952E97316F278E313F
:101D2000B12E97316A278E31B12E2C08F800210888
:101D30008A0020080A008E31F900FA017A08003A78
:101D40000319A32E912E7908013A0319912E033A13
:101D500003198D2E013A03198D2E073A0319912E7E
:101D6000912E080040019C01313098009901C1304A
:101D70009A0008309600DE309200EF309300253054
:101D800094007E01CE01C930C3000E30B800E501D9
:101D9000C401B901CF01E601BA01C501D001FF308C
:101DA000BB00FF30C600FF30D1003F30BC003F30E9
:101DB000C7003F30D2003F133E133D170F30F100F4
:101DC0001730F2009731C0278E314E0116160930B8
:101DD0007D01C50013307E01990014309A00253032
:101DE000A4000F309C0015307D01CD000A30C600E4
:101DF0000D30CB0008009731C6278E31003A031909
:101E0000022F032F312F102F973151278E314D2F55
:101E1000973156278E314D2F973160278E314D2FB8
:101E200041012F08F8000630A03E86008701413F9F
:101E30008A00403F0A008F31F900FA017A08003A1F
:101E40000319232F0C2F7908013A03190C2F033A99
:101E50000319042F013A0319082F073A03190C2F0D
:101E60000C2F41013C101730A03E86008701403FF7
:101E700084008501810A0008973147278E3101309F
:101E80004101B8020030B93B38083904031D492F1D
:101E90004A2F4C2F06304D2F033008009731EF2783
:101EA0008F314001B0003008AA00AB012A08F100D0
:101EB0002B08F200F3018B3164238F314001AC0019
:101EC0003008AA00AB012A08F1002B08F200F30148
:101ED000F30A8B3164238F314001AD003008AA0032
:101EE000AB012A08F1002B08F2000230F3008B311D
:101EF00064238F314001AE003008AA00AB012A08EC
:101F0000F1002B08F2000330F3008B3164238F3192
:101F10004001AF002C0803198E2F8F2FA02F2D0802
:101F20000319932F942FA02F2E080319982F992F60
:101F3000A02F2F0803199D2F9E2FA02FFF30A12F18
:101F400000300800F101F10A7430840090308500FF
:101F5000013F8A00003F0A008F31F101F10A72301F
:101F6000840090308500013F8A00003F0A008F31D5
:101F70000130F4000030F5007630840090308500A8
:101F8000013F8A00003F0A008F31F1017230840066
:101F900090308500013F8A00003F0A008F31F10137
:101FA000F10A7030840090308500013F8A00003FC4
:101FB0000A008F31C830F4000030F500763084001C
:101FC00090308500013F8A00003F0A008F31F12FD9
:101FD0006A30840090308500013F8A00003F0A008B
:101FE0008F316E30840090308500013F8A00003FC1
:101FF0000A008F31003A031DFE2FFF2FE82F080043
:10200000D6340B3479340C34003400340E340834B4
:102010009C3417342E340E34963417340034003484
:102020001D340B34EE340D34AE340B344F340C34D9
:102030000034003405340834BA34173436340D34DF
:10204000B434173400340034FA340A34B0340D3464
:102050004C34173420340834E7341734FB340E344E
:102060006F340E34D8341734A3340C34513417344D
:10207000563417345B3417346034173465341734EE
:102080006A3417346F34173474341734FE340B3415
:1020900000340034003400340034003400340034A0
:1020A0000034003400340034003400340034003490
:1020B0000034003400340034003400340034003480
:1020C0000034003400340034003400340034003470
:1020D00000340034293408340034003433340834F4
:1020E000513408345C34083488340834DF3417340D
:1020F00000340034533454345234453441344D3474
:102100005F344F34503445344E34003452346534E7
:1021100062346F346F34743469346E3467340D3420
:102120000A3444344934533443344F344E344E34F7
:082130004534433454340034FB
:102E1A0008000800080001300800053008004E01CB
:102E2A000F1008004301901208004E011910080003
:102E3A0043011114080043019114080043011115BC
:102E4A00080043019115080043010C0808004E01CF
:102E5A000F1408008A313D229731080042011D12E1
:102E6A001D1608008A3124229731080054011D12C8
:102E7A001D1608004301911611160800430191120C
:102E8A0011160800F100710843018C000800410185
:102E9A00BC10BB010E300800973120279731013052
:102EAA0008009731202797310230080097312027F0
:102EBA0097310130080097312327973100300800F5
:102ECA009731432797310530080097313F279731CB
:102EDA000A30080097313F2797310930080041012D
:102EEA00BC10BB010E30080001308A31962297319E
:102EFA00080001304101CD000130CE0008007208FF
:102F0A004301A1007108A000080072084301A5004E
:102F1A007108A400080072084301A3007108A20006
:102F2A00080072084301A7007108A6000800720889
:102F3A004301A9007108A800080072084301AB0008
:102F4A007108AA00080072084301AF007108AE00B8
:102F5A00080072084301AD007108AC00080072084D
:102F6A004301B1007108B000080072084301B300C0
:102F7A007108B200080072084101E7007108E60012
:102F8A0008004301110E890C890C013908004E0111
:102F9A000F1CD02FD12FCC2F0800640080010131E3
:102FAA00890BD32F003441013C10973126279731E2
:102FBA00043008007508F2007408F100893198217C
:102FCA009731080041013C1436359731472797312C
:102FDA00033008001C308831DB2097314001A900FA
:102FEA00290808007E013F1FFB2FFC2FFF2F883185
:102FFA00BC209731080044346134743461343A3463
:10300A00003431342E3431342E34303400344534E3
:10301A004E3444340D340A3443344D3444343E344B
:0A302A00203406349834063498343C
:020000040001F9
:08000000FF3FFF3FFF3FFF3F00
:0A000E00EC3FFF3F9F3FFF3FFF3F25
:00000001FF
