:1000000080315528303430347E1480314E01161E34
:100010000A280B2813280C1E0E280F2813289731A6
:100020004027803153280B1F162817285328191FE3
:100030001A281B2826280F1F1E281F2826284101A2
:100040006D088A006C080A0080315328991F2928FE
:100050002A2835288F1F2D282E28352841016B0886
:100060008A006A080A0080315328191E3828392866
:1000700044280F1E3C283D284428420165088A0078
:1000800064080A0080315328991E472848285328BD
:100090008F1E4B284C285328420163088A006208AF
:1000A0000A00803153287E10090080315728410111
:1000B000803102208031EE00803103208031EF005A
:1000C000453084008D308500A030860001308700E7
:1000D00033309531EC258031FC0120308400003034
:1000E000850029309531E6258031A030840000302C
:1000F000850046309531E62580312030840001307E
:1001000085003C309531E625803120308400023076
:10011000850040309531E6258031A03084000230E2
:10012000850050309531E625803120308400033041
:10013000850050309531E6258031A03084000330B1
:10014000850050309531E625803120308400043020
:10015000850050309531E6258031A0308400043090
:10016000850050309531E62580317E104001813187
:1001700090294001DD0070290230C2008F295D08FE
:10018000C0000330C2008F293A305D02031CC92829
:10019000CA28D3285D085F39C93ED700FF3003184D
:1001A0000030D800DA285D08D03ED700FF300318B1
:1001B0000030D8005708C1000430C2008F293A30FF
:1001C0005D02031CE428E528EE285D085F39C93E7E
:1001D000D900FF3003180030DA00F5285D08D03E62
:1001E000D900FF3003180030DA004108D500033091
:1001F000D535FF3E031DF82855355907C100053098
:10020000C2008F293A305D02031C072908291229F0
:100210005D085F39C93E4101DD00FF300318003041
:10022000DE001A295D08D03E4101DD00FF300318D1
:100230000030DE0001304001C1024108031D2129C8
:1002400022292429C2018F290630C2008F293A3081
:100250005D02031C2C292D2936295D085F39C93E12
:10026000DB00FF3003180030DC003D295D08D03E84
:10027000DB00FF3003180030DC0041015E08400164
:10028000D60041015D084001D500D50ED60EF030F4
:10029000D60555080F39D604F030D5055B0855074B
:1002A0004101DD0040015C08563D4101DE005D0872
:1002B0004001D000400884312B24803101304001BE
:1002C000C1024108031D65296629FF2822295B30E8
:1002D0005D06031D6C296D298F29C201C20A8F2971
:1002E0004208D500D6015608003A03197829672933
:1002F0005508003A03196729013A0319BC28033A43
:100300000319BF28013A0319C428073A0319DF2843
:10031000013A03190229033A03192729672908001A
:100320008931262181315030F100A030883166209A
:1003300081318B170B178D31E22581318431A9244E
:10034000813196311A26813195311D258131013A4D
:10035000031DAB29AC29382A8931E02181318A314A
:10036000A222813197311F2781314E018C1EB9297C
:10037000BA29D1298C128A31A222813188313A20BE
:1003800081319731D92781318A31EA2281318D310A
:1003900078258131A4299631B42681318031B92064
:1003A00081318931C4218131003A031DD829D929ED
:1003B000CB29192A0030840090308500013F8A0043
:1003C000003F0A0081314001EF002408A03E860072
:1003D000023087006F0881002408A03E86000230AA
:1003E00087000D3001060319F629F729082A240889
:1003F000A03E8600023087000A3001060319012A58
:10040000022A082A4F302406031D072A082A152A23
:100410002408A03E8600023087008101A03082318E
:10042000652281314001A401192A0130EF006F08D3
:10043000A4070630840090308500013F8A00003F09
:100440000A008231003A031D262A272ADA29A42924
:100450009631B42681314201EC006C08F100023083
:10046000840090308500013F8A00003F0A008231FD
:100470008931C4218131003A031D3F2A402A282AAC
:10048000542A0030840090308500013F8A00003FEC
:100490000A008231F6000030840098308500013F68
:1004A0008A00003F0A0082310630840090308500C7
:1004B000013F8A00003F0A008231003A031D612A91
:1004C000622A412AA42980315528F9007908F100CF
:1004D0000230F2008831F420823171080907F800F7
:1004E0005B30F6000030840098308500013F8A00C0
:1004F000003F0A008231400145080F39C23E8600A4
:10050000013087000108F600003084009830850033
:10051000013F8A00003F0A0082310130F70077086E
:100520004001C5075330F600003084009830850044
:10053000013F8A00003F0A0082317808F70004304A
:10054000F736890BA02A77080F39C23E86000130A2
:1005500087000108F6000030840098308500013FD4
:100560008A00003F0A00823178080F39C23E8600B7
:10057000013087000108F6000030840098308500C3
:10058000013F8A00003F0A008231FA2A790886007A
:10059000023087000108F7000430F736890BCD2AB6
:1005A00077080F39C23E8600013087000108F60047
:1005B0000030840098308500013F8A00003F0A0027
:1005C0008231790886000230870001080F39C23E67
:1005D0008600013087000108F60000308400983062
:1005E0008500013F8A00003F0A0082310130F70098
:1005F0007708F90779088600023087000108031D93
:10060000022B032BC62A5D30F600003084009830A0
:100610008500013F8A00003F0A0083310800F8018D
:100620000230840098308500013F8A00003F0A00B4
:100630008331F5000230840098308500013F8A0044
:10064000003F0A008331F6000230840098308500B4
:10065000013F8A00003F0A008331F7004E2B4F30E4
:100660007606031D342B352B5E2B4B307706031D8E
:100670003A2B3B2B5E2BF801F80A5E2B7230760684
:10068000031D432B442B5E2B72307706031D492B31
:100690004A2B5E2BF8015E2B00309E2B7508F30071
:1006A000F4017408003A0319562B4C2B7308413A95
:1006B00003192F2B043A03193E2B4C2B02308400D4
:1006C00098308500013F8A00003F0A0083310230E4
:1006D000840098308500013F8A00003F0A00833182
:1006E0000230840098308500013F8A00003F0A00F4
:1006F00083310230840098308500013F8A00003F3A
:100700000A0083310230840098308500013F8A005E
:10071000003F0A0083310230840098308500013F99
:100720008A00003F0A00833102308400983085003F
:10073000013F8A00003F0A00833178080800FA0070
:100740005B30F6000030840098308500013F8A005D
:10075000003F0A008331400145080F39C23E860040
:10076000013087000108F6000030840098308500D1
:10077000013F8A00003F0A0083310130F800780809
:100780004001C5077A08F6000030840098308500E3
:10079000013F8A00003F0A0083317708F100F2012F
:1007A0008831F42083317108F8007208F9000430B0
:1007B000F936F80C890BD82B78080F39C23E860021
:1007C000013087000108F600003084009830850071
:1007D000013F8A00003F0A0083317708F100F201EF
:1007E0008831F420833171080F39C23E8600013010
:1007F00087000108F6000030840098308500013F32
:100800008A00003F0A008431172C77088600870190
:100810000108F6000030840098308500013F8A000E
:10082000003F0A0084310130F8007808F7077708A4
:10083000860087010108031D1E2C1F2C052C5D302E
:10084000F6000030840098308500013F8A00003FA8
:100850000A00843108004001D300862CC31E312CCD
:10086000322CA82C5008D1000430D136890B352CFD
:1008700051080139D4005408031D3F2C402C482C4A
:100880005018432C442C462C9816A82C9812A82CAF
:1008900050184B2C4D2C01304E2C0030883100204C
:1008A0008431A82C431F552C562CA82C0100A82CB1
:1008B000C31F5B2C5C2CA82C5008F1000230840074
:1008C00090308500013F8A00003F0A008431A82C47
:1008D000431C6B2C6C2CA82C4414A82CC31C712C0E
:1008E000722CA82CC414A82C431D772C782CA82C6F
:1008F0004415A82CC31D7D2C7E2CA82CC415A82C17
:10090000431E832C842CA82C4416A82C5308D100F9
:10091000D2015208003A03198E2CA82C5108413AF2
:1009200003197A2C033A0319742C043A0319682C1E
:100930000E3A0319802C033A03196E2C073A031957
:100940002E2C033A0319522C1C3A0319582CA82CAC
:100950000800F101F10A0C30840098308500013F55
:100960008A00003F0A008431F101F10A0A30840054
:1009700098308500013F8A00003F0A008431013031
:10098000F4000030F5000E30840098308500013FFF
:100990008A00003F0A008431F1010A308400983057
:1009A0008500013F8A00003F0A008431F101F10A0D
:1009B0000830840098308500013F8A00003F0A001B
:1009C0008431C830F4000030F5000E3084009830D7
:1009D0008500013F8A00003F0A008431F82C023074
:1009E000840098308500013F8A00003F0A0084316E
:1009F0000630840098308500013F8A00003F0A00DD
:100A00008531003A031D052D062DEF2C080040010D
:100A10009C0111309800990101309A00083096002D
:100A2000DE309200EF309300A83094007E01CE01BA
:100A3000C930C3000E30B800E501C401B901CF01CF
:100A4000E601BA01C501D0017E30BB00FF30C6000F
:100A50003F30D1003F30BC003F30C7003F30D200B4
:100A60003F13BF133E13BE173D17BD13FD30F100FA
:100A70001430F2009531DA2585313630F100153029
:100A8000F2009531E02585314E01161609307D01C1
:100A9000C5001330C90013307E01990014309A004C
:100AA0001530A1002530A4000F309C001630A200A4
:100AB00015307D01CD000A30C6000D30CB0011305D
:100AC000C8000800F6007608F9007208F8007108FE
:100AD000F7000130F3020030F43B730A031D742D5C
:100AE000740A031D742D752D842DF101F201BA2DA8
:100AF0000130F5007508F9070130F7070030F83DBF
:100B00000130F3020030F43B79088600033087009F
:100B1000010803198C2D8D2DAC2D770884007808E1
:100B2000850012000319952D962DAC2D73087404C1
:100B300003199B2D9C2DAC2D770884007808850027
:100B40000008F50079088600033087000108750663
:100B50000319AB2DAC2D782D790886000330870062
:100B6000770884007808850000080102F100F2018E
:100B7000031CF2030800F40043019A1AC02DC12D92
:100B80000D2E7408F100F201F135F20DF135F20D80
:100B90004530710784001830723D803885000008A8
:100BA00099007408F100F201F135F20DF135F20D02
:100BB0004430710784001830723D80388500000889
:100BC0009A009B017408F100F201F135F20DF13544
:100BD000F20D4630710784001830723D8038850070
:100BE000000897007408F100F201F135F20DF135BB
:100BF000F20D4730710784001830723D803885004F
:100C00000008F300F30D400114087306FD39730664
:100C1000940043019A1601300E2E003008009531E1
:100C200086258631003A0319162E172E452E242EBE
:100C3000953154258631612E953159258631612EA5
:100C4000953163258631612E41012F08F800063069
:100C5000A03E86008701413F8A00403F0A0086315E
:100C6000F900FA017A08003A0319372E202E790884
:100C7000013A0319202E033A0319182E013A0319D9
:100C80001C2E073A0319202E202E41013C1017304C
:100C9000A03E86008701403F84008501810A00084C
:100CA00095314A25863101304101B8020030B93B07
:100CB00038083904031D5D2E5E2E602E0630612E2D
:100CC000033008002030F1000230840090308500AD
:100CD000013F8A00003F0A0086313E30F1000230B9
:100CE000840090308500013F8A00003F0A00863171
:100CF0003E30F1000230840090308500013F8A00D0
:100D0000003F0A0086313E30F1000230840090300E
:100D10008500013F8A00003F0A0086312030F10043
:100D20000230840090308500013F8A00003F0A00B5
:100D300086310D30F1000230840090308500013F93
:100D40008A00003F0A0086310A30F1000230840038
:100D500090308500013F8A00003F0A00863108007C
:100D60004001CD007A087B040319B72EB82EFB2E64
:100D70007B08F2007A08F1008831F420863172088D
:100D80004001CC007108CB00ED2E7B08F2007A0800
:100D9000F1004C08F4004B08F3004D088531622542
:100DA000863171087204031DD62ED72EDA2E40012B
:100DB0004D08FC2E7A0884007B088500000840015D
:100DC000C900CA014908F1004A08F2004D08013E75
:100DD00089310D2186314001CD004D080319F12ED6
:100DE000F22EFB2E4D088600033087000108031DFC
:100DF000FA2EFB2EC52E00300800023084009830F9
:100E00008500013F8A00003F0A0087314001EE0063
:100E10003903031D0C2F0D2F372F25306E06031DB0
:100E2000122F132F252FB9013C08860003308700AD
:100E300081013E08EB001030840098308500013FAE
:100E40008A00003F0A008731462F3E083D073C02DA
:100E500003182B2F2C2F462F3C08860003308700C9
:100E60006E0881000130ED006D08BC07462F25306B
:100E70006E06031D3C2F3D2F422FB901B90A3E08D3
:100E8000BC00462FBA01BA0A6E08BB0040013A08FE
:100E900008004001CE002A30D2000230D0000030DD
:100EA000D10040014E088D31AC258731003A03193D
:100EB0005A2F5B2F512F7330F5001730F600523048
:100EC000F7009631702687310130F1000030F200D2
:100ED0004D309631F42687310030F500F6000030B1
:100EE000F700F80096317B26873195317C258731D4
:100EF0008831932087314001CF004F030319812FA0
:100F0000822F782F4F08031D862F872F882F922F2F
:100F1000FF30D007FF30D13D50085104031D912F01
:100F2000922F512F5208080030304001CB00303052
:100F3000CE003030CC00491E9E2F9F2FA22F313083
:100F4000CD00A42F3030CD0049080F39303ECB0002
:100F50004A1EAB2FAC2FAF2F3130CE00B12F303027
:100F6000CE004A080F39303ECC007C304401A0004E
:100F70004F30A1002C30A20040014D084401A300D5
:100F800040014B084401A4002C30A50040014E084C
:100F90004401A60040014C084401A7000D30A80000
:100FA0000A30A9000A30F70020308C3183248731C1
:100FB00083310F2387310800F4007108720403198C
:100FC000E22FE32FF22F7435A03E860087017108CF
:100FD000C03F7208C13F7408AC3E860087017308A9
:100FE0008100FF2F7435A03E86008701FE30C03F90
:100FF0001430C13F7408AC3E8600870181010800AF
:101000004001CF000130FB004F08FB0223087B06A4
:10101000FE397B06A3008931A821883108001130F0
:101020007D01C8001330C90015307E01A1001630C3
:10103000A2004030430199009A010130970040011D
:10104000941043019A1208002D280B30F3006230EF
:10105000890B2828F30B282800320130F1020030D8
:10106000F23B710A031D3828720A031D38283928FB
:10107000252808004001E10166309631DA268831E2
:1010800040016708FA006608F900613097310227CD
:1010900088316130F700543083319F238831080054
:1010A000F4007108F2007408F300730886008701E9
:1010B000F30A7208840003308500F20A0008C03F7A
:1010C0008908031D6428652855280800F200720865
:1010D00003196B286C287A2802307102031C7128CE
:1010E00072287A2872084001BE007108FF3EBD00D8
:1010F00001307B280030080024304401A000243057
:10110000A1002430A2000330F70020308C3183246A
:1011100088313F30F3009830F4000530F5008B3112
:10112000FE2388310800F101F10A4101BC18992819
:101130009A28A9283C11FF30B60095310225883144
:1011400095310825883195310525883141013B08C5
:10115000F10071080800780886008701403FF1001F
:10116000413FF2007808023E86008701010896316F
:10117000F42688310030F500F600F701963170262C
:10118000883102300800780886008701403FF1006E
:10119000413FF2007808023E86008701010896313F
:1011A000F42688310030F500F600F70196317026FC
:1011B0008831023008007C08543E860001308700E8
:1011C0005401190881000130F0007008FC07083054
:1011D0007C02031CEC28ED28EE28FC010130F00015
:1011E00070084001B40708007208F5007108F400A7
:1011F000FD280130F1070030F23D710884007208CB
:1012000085001200031D05290629F92874087102BA
:10121000F1007508723BF2000800F30073088600C5
:101220000330870001087106031D172918291A29A0
:10123000730825297308860003308700F30A010824
:10124000031D232924290E29003008009631662623
:10125000893196313526893188310F2089318531A0
:101260000725893196315C2689319731EC27893100
:101270008E31FE2689318F313C27893108004001AB
:101280002F08443E86000130870042011908810082
:101290000130F00070084001AF0708302F02031C36
:1012A000522953295429AF010130F0007008AD07CD
:1012B00008009531202589314001C900CA0149083B
:1012C000F6004A308C31E12489316C294A30F7002C
:1012D000463083319F2389314001441C7029712994
:1012E0006629431008009531982589314001C900CD
:1012F000CA014908F6004A308C31E1248931862937
:101300004A30F700483083319F2389314001431E22
:101310008A298B298029431208002D304401A0001E
:101320002D30A1002D30A2000D30A3000A30A40002
:101330000530F70020308C31832489313A30F300B6
:101340009830F4000530F5008B31FE238931080018
:1013500088317C2089311430F4000030F5000E30E3
:10136000840098308500013F8A00003F0A008931DF
:1013700040012308CA002208C90087319427893117
:1013800089318D218931080040013A080319C929A2
:10139000CA29CC290130DF29063084009830850025
:1013A000013F8A00003F0A008931003A0319D92918
:1013B000DA29DE298631FD268931DF29003008004F
:1013C0004001251CE429E529FB29461CE829E929D7
:1013D000FB294610C8170130FB007B08A607023026
:1013E0002602031CF429F529FB29C8138931592148
:1013F00089314001A6010800F5007508F6000C2AA5
:1014000076088600870100309631E7268931810011
:101410000130F4007408F6070130F2020030F33BAB
:10142000720A031D172A730A031D172A182A002A95
:1014300008004001CB00CC01CC0A4101BC18212A94
:10144000222A372ABC144001CC014B080319292A4F
:101450002A2A2E2A4101BA01BA0A312A0230410150
:10146000BA0095310B258A319631C0268A31400168
:101470004C0808000830400136020318402A412A6F
:10148000592A3708CD3E86008701010854019A0089
:101490000130F00070084001B70708303702031C24
:1014A000522A532A542AB7010130F0007008B607B7
:1014B0005B2A4E011913080008304001300203185E
:1014C000622A632A7C2A31084C3E8600013087005C
:1014D000010842019A000130F00070084001B10794
:1014E00008303102031C752A762A772AB1010130AF
:1014F000F0007008B0077E2A4E0119120800F300B0
:101500007308031D842A852A912A5B30F10002307A
:10151000840090308500013F8A00003F0A008A3134
:10152000A12A7303031D952A962AA12A5D30F10092
:101530000230840090308500013F8A00003F0A009D
:101540008A3108004001A51CA62AA72AC42A1A101D
:1015500000308531BB258A31003A0319B02AB12AFF
:10156000C42A4101E1010430F2000030F300E2300E
:101570008931FC218A3140011A14E2308D31122563
:101580008A31953123258A31080005304001CD008C
:1015900018308F31BD278A3140014E08E0004D08D8
:1015A000DF0060081F39DD005F08DE005E08D8003C
:1015B000D9015D08DA00DB015A08DB00DA015808BE
:1015C0005A04DF0059085B04E0006008D7005F0898
:1015D000D6000800953192258A314001CC00C9011E
:1015E0004C08F60049308C31E1248A314930F7004B
:1015F0004C3083319F238A31953181258A31103EC9
:101600004001CC00C9014C08F60049308C31E1247E
:101610008A314930F7004C3083319F238A310800EA
:10162000400136080319152B162B102B4E01191BE0
:101630001A2B1B2B1F2B710854019A00342B1913E2
:1016400040013808CD3E86008701710881000130D5
:10165000F2007208B80708303802031C302B312B17
:10166000322BB8010130B6024E01191708004001B3
:10167000340803193C2B3D2B372B3508C53E86001B
:1016800087010108B3003508543E86000130870009
:101690000108F2000130F1007108B5070830350289
:1016A000031C532B542B552BB5014E0199130130BC
:1016B0004001B4024E0199177208080040012D083C
:1016C0000319632B642B5E2B2E08BD3E8600870119
:1016D0000108AC002E08443E860001308700010856
:1016E000F2000130F1007108AE0708302E02031C31
:1016F0007A2B7B2B7C2BAE014E01991201304001DD
:10170000AD024E0199167208080041013C100230EA
:10171000BB00922B95315E258B31AC2B9531632527
:101720008B31AC2B2E08F8000430A03E86008701D8
:10173000413F8A00403F0A008B31F900FA017A08E4
:10174000003A0319A42B8E2B7908023A03198A2B2D
:10175000013A03198A2B8E2B080040013008031927
:10176000B22BB32BAD2B4E01191AB72BB82BBC2BB8
:10177000710842019A00D22B1912400132084C3EE6
:10178000860001308700710881000130F200720884
:10179000B20708303202031CCE2BCF2BD02BB20164
:1017A0000130B0024E0119160800953102258B3127
:1017B00041013C1CDC2BDD2BE82B953186258B3140
:1017C000003A0319E42BE52BE82B0F304101BA0056
:1017D00041013A084001C900CA01C935CA0D283083
:1017E0004907840010304A3D80388500013F8A0057
:1017F000003F0A008B314101BA000800F901212C99
:101800000230840098308500013F8A00003F0A00C2
:101810008C31F8007408F7007308F6007908760731
:10182000840077080318770A8500000878060319F2
:101830001A2C1B2C1D2C0030282C0130F6007608A9
:10184000F90775087902031C262C272C002C01307F
:1018500008004101BC15392C95315E258C31552C81
:1018600095311A258C310330552C953163258C31F7
:10187000552C2C08F80021088A0020080A008C3119
:10188000F900FA017A08003A0319472C352C790837
:10189000013A0319352C033A03192C2C013A031988
:1018A0002C2C073A0319302C352C08003C30F10061
:1018B0000230840090308500013F8A00003F0A001A
:1018C0008C313C30F1000230840090308500013FC3
:1018D0008A00003F0A008C313C30F1000230840065
:1018E00090308500013F8A00003F0A008C31203093
:1018F000F1000230840090308500013F8A00003FF3
:101900000A008C310800FA00F901AA2C0430840086
:1019100098308500013F8A00003F0A008C31003A70
:101920000319932C942CAA2C79087A07F8007808CC
:101930008600023087000108F600003084009830ED
:101940008500013F8A00003F0A008C310130F80019
:101950007808F90777087902031CAF2CB02C862C85
:101960000800FB007B088D31AC258C31003A03194F
:10197000BA2CBB2CB22C6230F5001730F6004E307A
:10198000F700963170268C310130F1000030F20002
:101990004D309631F4268C310030F500F6000030E1
:1019A000F700F80096317B268C3195317C258C31FF
:1019B000883193208C31013A0319DF2CE02CD82C8C
:1019C0000800F8007808F100F2018831F4208C3129
:1019D0007108F7007708F807780886008701760E07
:1019E0000F398919F0380F39C23E84000130850063
:1019F000000881000130F7007708F80778088600B2
:101A0000870176080F39C23E840001308500000846
:101A100081000130F7007708F80778088600870111
:101A2000810108004001D300C901D401D501400162
:101A30005308860087010108F60049308C31E12403
:101A40008D310130FB007B084001D3070130D40702
:101A50000030D53D5508803AFB0080307B02031DE5
:101A6000332D04305402031C362D372D172D3E2DF7
:101A70004930F7004B3083319F238D314001C31C27
:101A8000422D432D382DC310080030343134323408
:101A900033343434353436343734383439344134EB
:101AA00042344334443445344634003430343134E1
:101AB00032343334343435343634373438343934DA
:101AC00041344234433444344534463400343034B1
:101AD00031343234333434343534363437343834C2
:101AE0003934413442344334443445344634003488
:101AF0004001CB01DF01902D5F08343E8400983017
:101B00000318013E85000008DE005E08F6004B3039
:101B10008C31E1248D3101304001C9004908DF07D3
:101B20003430F1009830F2008831F4208D314001DA
:101B30005F08C900CA0172084A02031DA12D71087D
:101B40004902031CA42DA52D7C2D4B30F7005630E7
:101B500083319F238D310800F100F201F20A410127
:101B60003C19B32DB42DE02D7108B600BC103C1506
:101B70003C100E30BA00F430B4000130B500BC1592
:101B8000FE30A0001430A100AC01FE30A2001430E1
:101B9000A300AD01FE30A4001430A500AE01FE305C
:101BA000A6001430A700AF010030A8001530A9002E
:101BB000B001953102258D319631CD268D31F2015E
:101BC0007208080011304001CD00CE0119308C316F
:101BD000B1248D3110304001CD000830CE001930D5
:101BE0008C31B1248D310F304001CD000330CE0057
:101BF00019308C31B1248D3116304001CD00803048
:101C0000CE0019308C31B1248D3119304001CD0016
:101C10008030CE0019308C31B1248D311630400126
:101C2000CD001930873149278D314001C7000800A8
:101C30004001E9006908F1004930883150208E31B7
:101C40004001EA01372E6A08493E860087010108F3
:101C5000F1000230840090308500013F8A00003F8F
:101C60000A008E310130F60076084001EA07690863
:101C7000F100FF39031D0330F2008831F4208E316A
:101C800040016A08F600F70172087702031D4A2E28
:101C900071087602031C4D2E4E2E232E08007C0860
:101CA000C53E86008701810154011D1D582E592E05
:101CB000642E7C08C53E86008701811442016B08B2
:101CC0008A006A080A008E3154019D1C682E692E14
:101CD000742E7C08C53E8600870101154201690803
:101CE0008A0068080A008E317C08C53E860087019C
:101CF000010803197C2E7D2E842E420167088A007C
:101D000066080A008E31872E8831DB208E3108006C
:101D10008C3156248E312930FA009830FB00400176
:101D20006B088631B0268E31003A0319982E992E11
:101D30009D2E4001EC01BF01B42E1230FA00983004
:101D4000FB0040016B088631B0268E31003A031942
:101D5000AA2EAB2EB12E4001EC01EC0ABF01BF0A46
:101D6000B42E02304001EC006B088E3118268E3103
:101D7000863162268E3140016C088A317F228E3195
:101D8000080040012F08BD3E860087018101420105
:101D90001D1DCB2ECC2ED82E40012F08BD3E860017
:101DA00087018114420161088A0060080A008E31AF
:101DB00042019D1CDC2EDD2EE92E40012F08BD3E88
:101DC00086008701011542015F088A005E080A004B
:101DD0008E3140012F08BD3E86008701010803199E
:101DE000F22EF32EFA2E42015D088A005C080A00EA
:101DF0008E31FD2E89313F218E3108004E0199121E
:101E0000C130F1000E30F2009531B0258E314E0117
:101E100019125C30F1000A30F2009531B6258E318E
:101E2000083042019F0090309D0024309E004030D9
:101E30009B0003309C00FB30F1001430F200953120
:101E4000A4258E312A30F1001530F2009531AA25F3
:101E50008E312630F1001530F20095319E258E31FD
:101E60004001AC01B201B1010830B000AF01AE01D8
:101E7000AD014E01991608004E0199134F30F10043
:101E80000E30F2009531CE258F314E0119133A30C4
:101E9000F1000A30F2009531D4258F310830540119
:101EA0009F0090309D0024309E0040309B00033006
:101EB0009C00FC30F1001430F2009531C2258F31C6
:101EC0003230F1001530F2009531C8258F312E30B7
:101ED000F1001530F2009531BC258F314001B3017E
:101EE000B801B7010830B600FC01B501B4014E01DC
:101EF0009917080041013708860087019531172599
:101F00008F3181000130F90079084101B7070130B4
:101F1000B8020030B93B380839040319902F912FCB
:101F2000962F95313E258F310530BC2FBC15A02F43
:101F3000953172258F31BC2F95316D258F31BC2F96
:101F40002C08F80021088A0020080A008F31F900C7
:101F5000FA017A08003A0319AE2F9C2F7908013A4A
:101F600003199C2F033A0319982F013A0319982F4C
:101F7000073A03199C2F9C2F08004001D300400111
:101F800053088D31AC258F31003A0319C82FC92F62
:101F9000BF2F8430F5001730F6005430F70096312B
:101FA00070268F310130F1000030F2004D30963153
:101FB000F4268F310030F500F6000030F700F8000D
:101FC00096317B268F3195317C258F318831932056
:101FD0008F31013A0319ED2FEE2FE62F40015508FE
:101FE000D0005408CF005008CF00D0015408D200D0
:101FF000D1014F085104CD0050085204CE00080012
:102000005E340B34AD340B34003400342C341634CD
:10201000B6341534C1340E34B03415344634153466
:102020005C340A34FE340E3437340B3410340B3441
:102030000034003423341634D43415344F340E3481
:10204000CE341534423415343A340A343C340F3427
:102050004F34153411341634F93415340F34063432
:102060007A340F34F234153429340C3454341534A2
:10207000593415345E3415346334153468341534EA
:102080006D341534723415347734153485340B348B
:1020900000340034003400340034003400340034A0
:1020A0000034003400340034003400340034003490
:1020B0000034003400340034003400340034003480
:1020C0000034003400340034003400340034003470
:1029F60008000800080001300800053008004E01F4
:102A06000F1008004301901208004E01191008002B
:102A160043011114080043019114080043011115E4
:102A2600080043019115080043010C0808004E01F7
:102A36000F14080040013F0808004001480808003C
:102A460043019A12080089313F219531080042015D
:102A56001D121D1608008831DB209531080054012F
:102A66001D121D1608004001A701A70A0800430110
:102A7600911611160800430191121116080054010F
:102A86001E0C0139080042011E0C01390800F10034
:102A9600710843018C0008004101BC10BB010E30D7
:102AA600080095310E2595310130080095310E2527
:102AB60095310230080095310E2595310130080018
:102AC6009531112595310030080095313E25953117
:102AD6000530080095313A2595310A3008009531C0
:102AE6003A259531093008004101BC10BB010E3072
:102AF600080000308A311922953108004001230868
:102B06000139013C08004301110E890C890C013979
:102B160008004E010F1C902D912D8C2D08004001B0
:102B26000C0E890C0139013C080040010C0D0C0DFE
:102B36000139013C080072084201DD007108DC0021
:102B4600080072084201E1007108E00008007208FE
:102B56004201DF007108DE00080072084201E3004E
:102B66007108E200080072084201E5007108E400FD
:102B7600080072084201E7007108E60008007208C2
:102B86004201EB007108EA00080072084201E90000
:102B96007108E800080072084101EB007108EA00BC
:102BA600080072084101ED007108EC000800720887
:102BB6004101E9007108E800080072084101E700D8
:102BC6007108E6000800640080010131890BE72DD9
:102BD6000034FE0012001E00FE0BED2D00344101F4
:102BE6003C109531142595310430080041013C1400
:102BF600363595314A259531033008004001C31416
:102C060043144316C3164317C31708007508F2008A
:102C16007408F100883124209631080041013C14E3
:102C26000314360D95314A259631053008000130DA
:102C36004001A2000130A30096310126963108001A
:102C460040013408031D282E2A2E01302B2E003079
:102C5600080040012D08031D312E332E0130342E7D
:102C66000030080043018F010830900091014F3079
:102C76008D00901208001430840090308500013FCA
:102C86008A00003F0A009631080022308400903006
:102C96008500013F8A00003F0A00963108001A307D
:102CA600840090308500013F8A00003F0A0096317B
:102CB6000800603051018D008F01910106309300AC
:102CC6009001920108004F01960197019801990120
:102CD6009A019B019C019D0108007608F200750887
:102CE600F1007708F30000308731DC2796310800C1
:102CF6007608F2007508F1007708F3000230873194
:102D0600DC27963108007103031D8A2E8B2E8E2E2A
:102D160040011A13902E40011A1708007103031D73
:102D2600952E962E992E400118109B2E40011814B0
:102D360008007608F1001630840090308500013FC7
:102D46008A00003F0A009631080040019213710381
:102D5600031DAE2EAF2EB12E9817B22E98139217D2
:102D660008008931C4219631003A0319BB2EBC2EC6
:102D7600B42E4001BA013B080800C72E95318C25B8
:102D860096318B31D52396314101BC18CB2ECC2EF2
:102D9600C12E08004301901AD12ED22ED92E8F01B2
:102DA6000830900091014F308D0090160800FB000E
:102DB6008A31C52296317B08860087014001560874
:102DC600C03F5708C13F0800F10071084301960053
:102DD6004E010F1DEF2EF02EEB2E0F11430116089C
:102DE6000800F3004101BC1DF92EFA2E012F7308CD
:102DF600B7007208B9007108B800BC110800FB00E2
:102E06007908F6007B088C31E12497317A08F600C0
:102E16007B088C31E124973108004101660867047C
:102E26000319162F172F1C2F67088A0066080A0039
:102E360097317E01BF1308004001251E232F242F42
:102E46002E2F2703031D282F292F2E2F893173217B
:102E560097314001A7010800400146144101680866
:102E660069040319372F382F3D2F69088A0068082F
:102E76000A0097317E013F1308007E013F1F442F51
:102E8600452F482F97312F2797317E01BF1F4C2F93
:102E96004D2F502F97311027973108000230F1003F
:102EA6000030F20078089631F42697310030F500AC
:102EB600F600F7019631702697310430080001308C
:102EC600F1000030F20078089631F4269731003090
:102ED600F500F600F70196317026973104300800A8
:102EE6000130F1000030F20078089631F42697316F
:102EF6000030F500F600F701963170269731023062
:102F060008000230F1000030F20078089631F4260D
:102F160097310030F500F600F701963170269731AB
:102F2600023008000230F1000030F20078089631D5
:102F3600F42697310030F500F600F7019631702639
:102F46009731043008000130F1000030F2007808B3
:102F56009631F42697310030F500F600F7019631E8
:102F660070269731023008000230F1000030F2007E
:102F760078089631F42697310030F500F600F7010F
:102F8600963170269731023008000130F10000308A
:102F9600F20078089631F42697310030F500F600F5
:102FA600F70196317026973104300800953198253F
:102FB60097314001C900CA014908F6004A308C31F0
:102FC600E12497314A30F700503083319F239731FF
:102FD600080047304B019F000B309D00DC309C0001
:102FE6001D084001A1004B011C084001A0004E0134
:102FF6008C1290304B019E0008009C3416343E34EF
:103006001634483416345234163486341634913411
:103016001634A83416340934163488340E3453342E
:1030260054345234453441344D345F344F34503483
:1030360045344E3400345234653462346F346F3460
:10304600743469346E3467340D340A344434493484
:10305600533443344F344E344E344534433454346D
:10306600003431342E3431342E3430340034453487
:103076004E3444340D340A3443344D3444343E34EF
:103086002034003440340134003434349834343439
:0230960098346C
:020000040001F9
:08000000FF3FFF3FFF3FFF3F00
:0A000E00EC3FFF3F9F3FFF3FFF3F25
:00000001FF
